:020000040000FA
:100000000C94C3050C94F4050C94F4050C94F405BD
:100010000C94F4050C94F4050C94F4050C94F4057C
:100020000C94F4050C94F4050C94F4050C94F4056C
:100030000C94F4050C94F4050C94F4050C94F4055C
:100040000C94F4050C94EB510C94F4050C94F40509
:100050000C94F4050C94F4050C94F4050C947D5068
:100060000C94F4050C9453500C9429500C94F40502
:100070000C94F4050C94F4050C94F4050C94F4051C
:100080000C94F4050C94F4050C94F4050C94F4050C
:100090000C94FF4F0C94D54F0C94F4050C94C7505E
:1000A0000C94F4050C94F4050C94F4050C94F405EC
:1000B0000C94F4050C94F4050C94F4050C94F405DC
:1000C0000C94F4050C94F4050C94F4050C94F405CC
:1000D0000C94F4050C94F4050C94AB4F0C94814FE4
:1000E0000C94F4050C94C3070C94CD070C942D0EBE
:1000F0000C945A170C94D7070C94B4070C949021C5
:100100000C942D180C94D70D0C94E2190C94561ED7
:100110000C94941E0C94000E0C94FC330C940B1E47
:100120000C9464170C949E220C94EF070C945B1EA5
:100130000C94EF1D0C94330B0C94B8070C94AE0781
:100140000C94F90D0C94530B0C94AE060C948C0685
:100150000C94E60D0C943F1E0C94E1070C94F307ED
:100160000C94AE1E0C94121C0C9437060C94D119EE
:100170000C94D50D0C94DB070C94A0060C947D0612
:100180000C94EE070C9429340C949D220C94BC071B
:100190000C94471E0C94F6050C94E9070C9413522A
:1001A0000C94911E0C9447070C94D40D0C94D60D0E
:1001B0000C94E5070C94FA060C94FF190C94C007F4
:1001C0000C94D3070C94C9070C94630B0C94F7059B
:1001D0000C94C217FFD0FFE0FFCFFF64FFD1FF32C6
:1001E000380C060201FF64FFD0FFFE7C3C3E5E2B14
:1001F0003D3F2F5B5D3B2C2A225C00000021002448
:100200000027002A002D0030003300010100000407
:100210000107010A0100002200250028002B002E02
:10022000003100340002010000050108010B01004B
:10023000000A0B02090C0D0E080703040100000060
:1002400000000000000000000000000000000000AE
:10025000000000000000000000000012111000006B
:10026000000000000000000000000000000000008E
:10027000000000000001021020200808102040109B
:10028000204080020102010804020101020408105A
:100290002040808040201008040201800402018078
:1002A00040201008040201080402010102040810A1
:1002B000204080010204081020408000002000231C
:1002C00000260029002C002F00320000010000034E
:1002D00001060109010505050507050808080802CA
:1002E0000202020A0A0808040404040101010101CF
:1002F0000101010303030303030303040707070CBE
:100300000C0C0C0C0C0C0C02020202060606060673
:100310000606060B0B0B0B0B0B0B0B01080D00FE5F
:1003200009016102CD20FFFE0BFE09FE0D008032A7
:10033000198980808080808080008028438390900D
:10034000901367874848FC48FC4848125989207830
:10035000A0A0702828F02012698944A44810102019
:10036000485488126787609090609488743813832B
:100370008080803239892040408080804040202227
:1003800039898040402020204040801665854830D3
:10039000FC30481455852020F820201143837060DC
:1003A00080165181F821338340E0400279890202AE
:1003B0000408102040808012698930488484848435
:1003C0008448301259892060A02020202020F81273
:1003D00069897884840408304080FC126989FC04AF
:1003E0000810380404847812698908182848888815
:1003F000FC0808126989FC8080B8C404048478125F
:10040000698938408080B8C4848478126989FC0482
:1004100008101020204040126989788484847884F0
:100420008484781269897884848C74040408702127
:10043000388840E040000040E040114888207020AB
:1004400000007060802259890810204080402010F0
:1004500008146484FC0000FC1259898040201008B4
:1004600010204080126989788484040810100010DC
:100470001269897884849CA4AC948078126989304C
:1004800048848484FC848484126989F0888488F098
:10049000888488F01269897884808080808084785C
:1004A000126989F088848484848488F0126989FCC4
:1004B000808080F0808080FC126989FC808080F0E0
:1004C0008080808012698978848080809C848C748C
:1004D00012698984848484FC84848484125989F810
:1004E00020202020202020F81279893E08080808C2
:1004F00008088870126989848890A0C0A0908884B8
:100500001269898080808080808080FC0279898265
:1005100082C6AA92928282821269898484C4A49437
:100520008C84848412698978848484848484847823
:10053000126989F8848484F880808080116A8A78BE
:100540008484848484A4947804126989F8848484DB
:10055000F8A0908884126989788480807804048463
:1005600078027989FE10101010101010101269898D
:100570008484848484848484780279898282444453
:10058000442828281002798982828282929292AA33
:10059000440279898282442810284482820279891F
:1005A000828244281010101010126989FC0408106F
:1005B00020408080FC224989F0808080808080807B
:1005C000F0027989808040201008040202124989D3
:1005D000F010101010101010F018538320508801E4
:1005E0007181FE3A2282804012668678047C848C77
:1005F00074126989808080B8C48484C4B812668605
:10060000788480808478126989040404748C8484DA
:100610008C741266867884FC8084781269893844E8
:100620004040F84040404010688874888870807866
:100630008478126989808080B8C484848484125844
:100640008820006020202020F8105A8A080018080E
:100650000808088888701269898080808890E090F6
:1006600088841259896020202020202020F80276DA
:1006700086EC9292929282126686B8C484848484B4
:10068000126686788484848478106888B8C484C4A8
:10069000B8808080106888748C848C740404041280
:1006A0006686B8444040404012668678846018846C
:1006B000781268884040F840404044381266868886
:1006C00088888888741256868888885050200276D8
:1006D0008682829292AA4412668684483030488488
:1006E0001068888484848C74048478126686FC087C
:1006F000102040FC22598938404020C0204040381A
:10070000321989808080808080808080125989E0C1
:1007100010102018201010E018538348A890FFFFF5
:10072000FFFFFFFFFFFFFFFFFFFFFFFFFFFFFFFFD9
:10073000FFFFFFFFFFFFFFFFFFFFFFFFFFFFFF0DBB
:1007400000803219898000808080808080801358EA
:10075000882070A8A0A0A870200279891C2220708F
:1007600020202062DC1366868478484878840279E9
:1007700089828244287C107C101032198980808004
:10078000800080808080224A8A60908060909060A3
:100790001090602A42829090037989384492AAA2EC
:1007A000AA924438145787700878887800F803773D
:1007B0008712244890482412136484FC04040426FD
:1007C0004181F0037989384492AAAAB2AA44381A1E
:1007D0006181FC274484609090601357872020F843
:1007E000202000F81646866090106080F01646863D
:1007F0006090201090603A22824080116787848444
:100800008484CCB4801269897CE8E8E868282828C8
:1008100028362181C030228240C016368640C04032
:100820004040E01546866090906000F00377879026
:10083000482412244890027A8A40C0404042E60A86
:10084000121A06027A8A40C040404CF2020C101E76
:10085000027A8A6090201092660A121A061269893A
:10086000200020204080848478126A8A2010003082
:10087000488484FC8484126A8A102000304884846E
:10088000FC8484126A8A30480030488484FC848462
:10089000126A8A64980030488484FC8484126A8ACC
:1008A00048480030488484FC8484126A8A30483086
:1008B00030488484FC84840279896E9090909CF006
:1008C00090909E106B8B78848080808080847810DC
:1008D00020126A8A201000FC8080F08080FC126A5E
:1008E0008A102000FC8080F08080FC126A8A3048E8
:1008F00000FC8080F08080FC126A8A484800FC80FE
:1009000080F08080FC125A8A402000F820202020AD
:1009100020F8125A8A102000F82020202020F812F7
:100920005A8A304800F82020202020F8125A8A885D
:100930008800F82020202020F8027989784442425B
:10094000E242424478027A8A64980082C2A2928A81
:100950008682027A8A2010007C82828282827C02D5
:100960007A8A0810007C82828282827C027A8A18CB
:1009700024007C82828282827C027A8A6498007C53
:1009800082828282827C027A8A4444007C828282D1
:1009900082827C136686844830304884116B8B04D5
:1009A000788C9494A4A4A4C47880126A8A4020000D
:1009B00084848484848478126A8A102000848484E5
:1009C00084848478126A8A3048008484848484848D
:1009D00078126A8A48480084848484848478125A0D
:1009E0008A1020008888502020202012698980F8F1
:1009F000848484F880808012698970888890A098A7
:100A00008484B812698920100078047C848C741264
:100A1000698908100078047C848C741269893048D4
:100A20000078047C848C7412698964980078047C52
:100A3000848C7412698948480078047C848C741210
:100A40006A8A3048300078047C848C740276866C24
:100A5000127C90926C106888788480808478102052
:100A60001269892010007884FC80847812698910CA
:100A700020007884FC80847812698930480078846A
:100A8000FC8084781269894848007884FC808478E6
:100A90001259894020006020202020F81259892016
:100AA00040006020202020F81259896090006020CA
:100AB000202020F81259899090006020202020F8F2
:100AC000126A8A483050087884848484781269894C
:100AD000649800B8C48484848412698940200078B2
:100AE00084848484781269891020007884848484C2
:100AF00078126989304800788484848478126989FE
:100B000064980078848484847812698948480078DD
:100B10008484848478135787202000F800202011D3
:100B2000688804788C94A4C4788012698940200075
:100B30008888888888741269891020008888888845
:100B40008874126989304800888888888874126996
:100B500089505000888888888874106B8B1020001A
:100B60008484848C74048478106A8A8080B8C484F5
:100B700084C4B88080106B8B4848008484848C7453
:100B800004847800135211241FBECFEFD1E2DEBFE0
:100B9000CDBF00E00CBF1DE0A0E0B2E0E6EDFAED55
:100BA00000E00BBF02C007900D92A634B107D9F741
:100BB00025E1A6E4BDE001C01D92A53BB207E1F727
:100BC00015E0C3ECD5E000E006C021970109802FB5
:100BD000FE010E941069C23CD10780E00807A9F716
:100BE0000E940E540C94696D0C940000089580E0EE
:100BF00008950F931F93CF93DF93EC019A01AB01FC
:100C0000E889F98982E08083EC85FD8510820E8574
:100C10001F8560E079E08DE390E00E948F672150AE
:100C20003109410951095695479537952795F8019E
:100C30002083188EEC89FD8986E08083EA89FB8910
:100C4000808180618083EA89FB89808188608083DC
:100C5000EA89FB89808180688083EA89FB898081B9
:100C60008F7D8083DF91CF911F910F910895AF9277
:100C7000BF92CF92DF92EF92FF920F931F93CF9389
:100C8000DF936C017B018B01040F151FEB015E01EB
:100C9000AE18BF08C017D10759F06991D601ED9180
:100CA000FC910190F081E02DC6011995892B79F70F
:100CB000C501DF91CF911F910F91FF90EF90DF90D1
:100CC000CF90BF90AF900895FC01A089B1898C911D
:100CD000A689B78982FD0FC09C91818D8F5F8F732C
:100CE000228D821749F0A18DAE0FBF2FB11D5D96E9
:100CF0009C93818F08958C910895FC01538D448DB0
:100D0000252F30E0842F90E0821B930B541710F0B6
:100D1000CF96089501970895FC01918D828D9817C3
:100D200061F0A28DAE0FBF2FB11D5D968C91928D9B
:100D30009F5F9F73928F90E008958FEF9FEF0895CC
:100D4000FC01918D828D981731F0828DE80FF11D95
:100D5000858D90E008958FEF9FEF0895FC01918DB0
:100D6000228D892F90E0805C9F4F821B91098F73A9
:100D7000992708958CEF92E10E94AE0621E0892B1D
:100D800009F420E0822F089589E993E10E94AE06DC
:100D900021E0892B09F420E0822F089586E394E175
:100DA0000E94AE0621E0892B09F420E0822F0895ED
:100DB000FC01A48DA80FB92FB11DA35ABF4F2C91D0
:100DC000848D90E001968F739927848FA689B789C7
:100DD0002C93A089B1898C91837080648C93938DBE
:100DE000848D981306C00288F389E02D80818F7D61
:100DF00080830895EF92FF920F931F93CF93DF9319
:100E0000EC0181E0888F9B8D8C8D98131AC0E88946
:100E1000F989808185FF15C09FB7F894EE89FF8915
:100E20006083E889F98980818370806480839FBFB3
:100E300081E090E0DF91CF911F910F91FF90EF90B3
:100E40000895F62E0B8D10E00F5F1F4F0F731127C3
:100E5000E02E8C8D8E110CC00FB607FCFACFE889FE
:100E6000F989808185FFF5CFCE010E94D806F1CFA8
:100E7000EB8DEC0FFD2FF11DE35AFF4FF0829FB772
:100E8000F8940B8FEA89FB8980818062CFCFCF9362
:100E9000DF93EC01888D8823B9F0AA89BB89E889A2
:100EA000F9898C9185FD03C0808186FD0DC00FB648
:100EB00007FCF7CF8C9185FFF2CF808185FFEDCFC6
:100EC000CE010E94D806E9CFDF91CF91089580E04E
:100ED00090E0892B29F00E94CE0681110E9400002B
:100EE00080E090E0892B29F00E94C40681110E94C5
:100EF000000080E090E0892B49F080E090E0892BB1
:100F000029F00E94000081110E94000080E090E022
:100F1000892B29F00E94BA0681110C9400000895D3
:100F20008150823108F05AC0E82FF0E08827E4565B
:100F3000F84F8F4F0C941069BC07C007AE07B40779
:100F4000B807EE07C307C907CD07D307D707DB07E5
:100F5000E107E507EE07E907EF07F3078091800057
:100F60008F77809380000895809180008F7DF9CFE6
:100F700080918000877FF5CF84B58F7784BD0895F9
:100F800084B58F7DFBCF8091B0008F778093B000C8
:100F900008958091B0008F7DF9CF809190008F7778
:100FA000809390000895809190008F7DF9CF80917B
:100FB0009000877FF5CF8091A0008F778093A0006D
:100FC00008958091A0008F7DF9CF8091A000877F48
:100FD000F5CF809120018F77809320010895809133
:100FE00020018F7DF9CF80912001877FF5CFCF93AE
:100FF000DF93282F30E0F901E15DFD4F8491F90185
:10100000EB58FD4FD491F901EB52FD4FC491CC2325
:10101000A1F081110E949007EC2FF0E0EE0FFF1F6E
:10102000E554FD4FA591B491EC91ED2381E090E062
:1010300009F480E0DF91CF91089580E090E0FACF4D
:101040001F93CF93DF93282F30E0F901E15DFD4F2F
:101050008491F901EB58FD4FD491F901EB52FD4F0A
:10106000C491CC23A9F0162F81110E949007EC2F78
:10107000F0E0EE0FFF1FEB5EFD4FA591B4918FB72F
:10108000F894EC91111108C0D095DE23DC938FBF4A
:10109000DF91CF911F910895DE2BF8CFCF93DF938F
:1010A00090E0FC01EB58FD4F24918B529D4FFC01C9
:1010B00084918823C9F090E0880F991FFC01E550C6
:1010C000FE4FA591B491FC01EB5EFD4FC591D4910B
:1010D00061110DC09FB7F8948C91209582238C9359
:1010E0008881282328839FBFDF91CF9108956230A4
:1010F00051F49FB7F8943C91822F809583238C9371
:10110000E8812E2BEFCF8FB7F894EC912E2B2C93F8
:101110008FBFEACF863308F0865320917B00982F4B
:101120009870277F922B90937B00877080648093C8
:101130007C0080917A00806480937A0080917A00AC
:1011400086FDFCCF809178009091790008953FB79B
:10115000F8948091A80F9091A90FA091AA0FB09137
:10116000AB0F26B5A89B05C02F3F19F00196A11D16
:10117000B11D3FBFBA2FA92F982F8827BC01CD01E1
:10118000620F711D811D911D42E0660F771F881F40
:10119000991F4A95D1F708958F929F92AF92BF926F
:1011A000CF92DF92EF92FF926B017C010E94A70821
:1011B0004B015C01C114D104E104F104B9F00E94B7
:1011C000A708681979098A099B09683E7340810557
:1011D000910580F321E0C21AD108E108F10888EEF8
:1011E000880E83E0981EA11CB11CE4CFFF90EF9005
:1011F000DF90CF90BF90AF909F908F9008952FB7C2
:10120000F8946091A40F7091A50F8091A60F909112
:10121000A70F2FBF0895CF92DF92EF92FF920F9307
:101220001F93CF93DF930E94FF08AB01BC01E091B5
:101230009315F090A415E4FBFF27F0F9E4FF79C0C3
:10124000009198151091991520919A1530919B1540
:10125000E7FB882780F9F11010C08091AC159091C0
:10126000AD15DC019C918091AE15982381E009F4C5
:1012700080E090919415917089278093A515DB01EA
:10128000CA01801B910BA20BB30B8C019D01B09185
:10129000A5159091921591FB882780F9BB2309F43D
:1012A00024C181111AC00135110521053105A8F0AD
:1012B000409398155093991560939A1570939B15C8
:1012C000997E9261906890939215809194158062B6
:1012D0008093941500E010E098018091941590910E
:1012E000921584FF12C00D32A1E01A0721053105C5
:1012F00060F092FD05C083FDAFC0826080939415BD
:10130000809194158F7E8093941591FF12C00D3BB0
:1013100012402105310568F092FD0BC0BB2309F492
:101320009DC0916090939215809194158F7D8093CC
:101330009415FF2009F49FC0E6FB992790F9C92F67
:10134000A0E0DA2FCC0FDD1FE5FB882780F98C2B7E
:1013500020919615281709F472C010929715909154
:10136000941596FFB8C0833009F0A1C09F7B90937D
:101370009415213009F497C091E0223009F494C00B
:10138000E3FD03C0833009F49DC02091971522230B
:1013900009F446C09091921598609093921523306D
:1013A00040F49091941597FF04C093E0921B9093A2
:1013B00097159091A515911122C000919C1510913F
:1013C0009D1520919E1530919F156A017B01C01AD1
:1013D000D10AE20AF30A0091951510E030E020E00E
:1013E000C016D106E206F30650F42091971521307D
:1013F00009F074C0209193152260209393154093B7
:101400009C1550939D1560939E1570939F15FF2317
:1014100039F0992329F0909197159E5F9093971535
:1014200080939615809192158460809392154093D5
:1014300098155093991560939A1570939B15DF91A9
:10144000CF911F910F91FF90EF90DF90CF90089573
:101450008091941588603CCF846050CF9D7F9E7FA3
:1014600090939215409398155093991560939A15FF
:1014700070939B155ECFA091A615B091A7159C9176
:101480008091A815982321E009F420E0A091A915E6
:10149000B091AA159C918091AB15982382E009F434
:1014A00080E0822B55CF92E09093971569CFE3FDB2
:1014B0004DC081116ACF9F7B90939415213041F0EC
:1014C000223031F0909194159064909394155DCFF3
:1014D00020939715F7CF8823A9F352CF223009F034
:1014E0008ECF20919315216088CF882309F4F5CE03
:1014F000013511052105310508F4EFCE92FD05C037
:1015000090FD03C09062909392150D3B124021050F
:10151000310528F080919215806480939215809116
:101520009215409398155093991560939A1570935E
:101530009B158D7F8E7F809392158091941585FFEA
:1015400087CF84FD85CF8061877FC2CE882309F451
:10155000B9CF66CF8091931582FD0E940B099091BF
:10156000921594FB882780F994FF03C09F7E909387
:10157000921508958091931582FD0E940B09809128
:101580009715823021F41092971581E0089580E03C
:1015900008958091931582FD0E940B098091971503
:1015A000813019F410929715089580E00895FC0198
:1015B000DB0112968D919C9113979383828384EB28
:1015C00092E09183808314968C911497848315966E
:1015D0008C911597858316964D915D916D917C91B7
:1015E000199746835783608771871A964D915D914D
:1015F0006D917C911D9742875387648775871E96EE
:101600004D915D916D917C91519746875787608B85
:10161000718B52968C915297828B53964D915D911E
:101620006D917C915697438B548B658B768B579637
:101630004D915D916D917C915A97478B508F618F41
:10164000728F5B968D919C91948F838F0895DC01AE
:101650005996ED91FC91309721F081E0958191119F
:1016600001C080E00895DC015996ED91FC9130971E
:10167000B9F083899489A589B689428553856485A3
:101680007585841B950BA60BB70B811520E8920777
:10169000A105B10538F08FEF9FE7A0E0B0E0089515
:1016A00090E080E00895DC0159968D919C9100971F
:1016B00039F0DC01ED91FC910480F581E02D199465
:1016C00090E080E00895CF93DF931F92CDB7DEB70F
:1016D0006983DC01ED91FC910280F381E02D41E012
:1016E00050E0BE016F5F7F4F19950F90DF91CF9152
:1016F0000895CF93CFB7F89480919C0F811127C0A4
:10170000EAE0F3E08491EAEAF2E09491E82FF0E075
:10171000EE0FFF1FE550FE4FA591B491EC91E92328
:1017200021F461E085E30E94200861E085E30E94E6
:101730004E088CB580618CBD8CB580648CBD61E039
:1017400084E30E944E0861E083E30E944E0880918A
:101750009C0F8F5F80939C0FCFBFCF9108952091F6
:10176000770F260F3327331F21323105ECF42091F8
:10177000D212FC0190E080E0243069F082E008950C
:10178000A091770F2191AC014B5A504FA40FB52F68
:10179000B11D2C930196861798F38091770F680FEF
:1017A0006093770F80E0089581E008951092D2123F
:1017B00081E08093D1121092AC1261E084E10E942A
:1017C000200861E085E10E942008E9EBF0E08081DB
:1017D0008E7F808380818D7F808388E48093B800B2
:1017E00085E48093BC000895CF93DF9391E09093BC
:1017F000540F8823B9F0C091B800D091BA008091FD
:10180000BC008A7B8093BC0060E084E10E942008D9
:1018100060E085E10E9420080E94D60BD093BA00B8
:10182000C093B800DF91CF9108958F929F92AF92AD
:10183000BF92CF92DF92EF92FF920F931F93CF93BD
:10184000DF93D091FB12D13208F0D7C0182FC0918E
:10185000FA120E94A7086B017C018091D2128111BB
:101860006BC082E08093D2121093D1128FEF8093DD
:10187000D0121092CF12D093CE12AAEDB2E1EEEABE
:10188000F2E180E0D81391C01092AD128091AD12B8
:10189000CC0FC82BC093AD128091AC12813009F0EF
:1018A00088C01092AC120E94A7086B017C01809145
:1018B000AD128093BB008091D4129091D512A0916B
:1018C000D612B091D712892B8A2B8B2BA1F00E94B4
:1018D000A7080091D4121091D5122091D612309100
:1018E000D7126C197D098E099F090617170728075B
:1018F000390708F442C08091BC0083FDD8CF85EC45
:101900008093BC000E94A7086B017C018091D212D9
:10191000823009F450C08091D0128F3F09F46FC01B
:101920008091D012803209F46CC08091D012803343
:1019300009F469C084E026C08091D4129091D51238
:10194000A091D612B091D712892B8A2B8B2B09F438
:1019500084CF0E94A7088090D4129090D512A090B6
:10196000D612B090D7126C197D098E099F09861680
:101970009706A806B90608F070CF8091D3120E948E
:10198000F40B85E01092D9121092FB121092D8122B
:10199000DF91CF911F910F91FF90EF90DF90CF904B
:1019A000BF90AF909F908F9008959D9191938F5F7E
:1019B00069CF85EEA5CF8091D4129091D512A091D8
:1019C000D612B091D712892B8A2B8B2B09F49ECF7C
:1019D0000E94A7080091D4121091D5122091D6121E
:1019E0003091D7126C197D098E099F0906171707C8
:1019F0002807390708F08ACFC0CF81E0C3CF80E045
:101A0000C1CF82E0BFCF83E0BDCFCF92DF92EF9214
:101A1000FF920F931F93CF93DF93D82FC62F61327E
:101A200008F098C00E94A7086B017C018091D21237
:101A300081116BC081E08093D2128093D1129FEF0D
:101A40009093D0121092CF129C0F9093CE1280934D
:101A5000AD128091AD12DD0FD82BD093AD128091D5
:101A6000AC12813009F078C01092AC120E94A70825
:101A70006B017C018091AD128093BB008091D412E8
:101A80009091D512A091D612B091D712892B8A2BA2
:101A90008B2BA1F00E94A7080091D4121091D512AF
:101AA0002091D6123091D7126C197D098E099F09A9
:101AB000061717072807390708F448C08091BC00AB
:101AC00083FDD8CF85EC8093BC000E94A7086B01F2
:101AD0007C018091D212813009F440C08091CF12F4
:101AE0008C1710F4C091CF12EEEAF2E1ACE8B2E14B
:101AF00080E08C1355C08C2FDF91CF911F910F91F7
:101B0000FF90EF90DF90CF9008958091D412909144
:101B1000D512A091D612B091D712892B8A2B8B2B7C
:101B200009F484CF0E94A7080091D4121091D51215
:101B30002091D6123091D7126C197D098E099F0918
:101B4000061717072807390708F070CF8091D312BE
:101B50000E94F40BC0E0CFCF85EEB5CF8091D412B8
:101B60009091D512A091D612B091D712892B8A2BC1
:101B70008B2B09F4AECF0E94A7080091D4121091CC
:101B8000D5122091D6123091D7126C197D098E0989
:101B90009F09061717072807390708F09ACFD6CFED
:101BA00091919D938F5FA5CF089508950895E09139
:101BB000530F8091520FE81730F4F0E0E457FD4ED8
:101BC000808190E008958FEF9FEF08959091530FDB
:101BD0008091520F2FEF3FEF981748F4E92FF0E074
:101BE000E457FD4E208130E09F5F9093530FC90171
:101BF00008958091520F9091530F891B990B08956E
:101C0000CF92DF92EF92FF920F931F93CF93DF93C8
:101C10007C01CB018A012091D812222389F0EB01AB
:101C20006B01C40ED51ECC15DD0569F06991D70195
:101C3000ED91FC910190F081E02DC7011995F3CF52
:101C4000642F0E94AF0BC801DF91CF911F910F91BC
:101C5000FF90EF90DF90CF900895CF93DF931F9286
:101C6000CDB7DEB769832091D8122223F9F02091F5
:101C7000FB12203258F021E030E0FC013383228354
:101C800090E080E00F90DF91CF9108958091D9127C
:101C9000E82FF0E0E652FD4E998190838F5F8093AC
:101CA000D9128093FB1281E090E0ECCF61E0CE018D
:101CB00001960E94AF0BF7CF089561E0FC0184818B
:101CC0000E94200880919D0F811110929D0F089510
:101CD0008EBD00000DB407FEFDCF8EB508958FEFC9
:101CE0000C94680E0F931F93CF93DF93EC010E9427
:101CF000FF088B010E946F0E8F3F69F00E94FF0862
:101D0000601B710B6C177D07A8F380E0DF91CF910A
:101D10001F910F91089581E0F9CF8CBD9DBD08956D
:101D2000CF93DF93EC0180919D0F811109C081E079
:101D300080939D0F8091D3149091D4140E948D0EA6
:101D400060E08C81DF91CF910C9420088F929F925C
:101D5000AF92BF92FF920F931F93CF93DF93EC014B
:101D6000F62E49015A018E81882389F08F8198854A
:101D70009C012F5F3F4F38872F838230924018F4A9
:101D80000E946F0EF3CFCE010E945D0E1E82CE0127
:101D90000E94900E8CE291E00E94720E8F2D806462
:101DA0000E94680E08E110E0D501C401002E04C0B5
:101DB000B695A795979587950A94D2F70E94680ED5
:101DC00008501109083F8FEF180771F785E9FF20C8
:101DD00021F028E087E8F2128FEF0E94680E10E0F1
:101DE0000E946F0E8A8787FF04C01F3F11F01F5F9C
:101DF000F7CFDF91CF911F910F91FF90BF90AF90E0
:101E00009F908F9008958F929F92AF92BF92DF9292
:101E1000EF92FF920F931F93CF93DF93EC01D62E97
:101E20001B8619861E821D8285E38C830E94FF0813
:101E30007B0161E08C810E944E0861E08C810E94F0
:101E400020080E94790B82E58093D3141092D41459
:101E50008091D3149091D4140E948D0E1AE08FEFCC
:101E60000E94680E1150D9F7CE010E94900E20E01A
:101E700030E0A90160E0CE010E94A60E182F8A87EB
:101E80008130D1F00E94FF086E197F09613D7740D3
:101E900070F381E08D83CE010E945D0E10E0812FF2
:101EA000DF91CF911F910F91FF90EF90DF90BF9046
:101EB000AF909F908F9008952AEA31E040E050E083
:101EC00068E0CE010E94A60E82FF25C01B878B858D
:101ED000812C912C5401823029F4812C912CA12C3D
:101EE00080E4B82E20E030E0A90167E3CE010E9433
:101EF000A60EA501940169E2CE010E94A60E8A8772
:101F00008823B1F00E94FF086E197F09613D774078
:101F100048F388E0BFCF04E00E946F0E8A8701502B
:101F2000D9F78A3A11F082E0B5CF82E08B87CFCF24
:101F30008B858230C1F420E030E0A9016AE3CE0154
:101F40000E94A60E882311F086E0A4CF0E946F0E97
:101F5000807C803C11F483E08B870E946F0E0E948E
:101F60006F0E0E946F0ECE010E945D0E82E0D816A9
:101F700031F080E58093D3141092D41490CF81E592
:101F80008093D31481E08093D41489CFAF92BF9211
:101F9000CF92DF92EF92FF920F931F93CF93DF9335
:101FA000EC016901C801820F931F8130924050F506
:101FB0008E81882379F088819981AA81BB818417D9
:101FC0009507A607B70731F48F819885C816D906FB
:101FD00008F042C0488359836A837B838B858330B2
:101FE00039F089E0440F551F661F771F8A95D1F796
:101FF0009A01AB0161E1CE010E94A60E882389F00F
:1020000083E08D83CE010E945D0E80E0DF91CF9151
:102010001F910F91FF90EF90DF90CF90BF90AF9006
:1020200008950E94FF085B010E946F0E8A878F3F10
:1020300069F40E94FF086A197B096D327140A0F3B0
:102040008FE08D83CE010E945D0EDCCF8E3F89F440
:1020500018861F8281E08E838F8198858C159D055F
:1020600050F40E946F0E8F819885019698878F8318
:10207000F3CF8DE0E6CF6701E00EF11E0E946F0EF8
:10208000F60181936F01EE15FF05C1F78F819885E9
:10209000080F191F18870F838985882319F00115E8
:1020A0001240A0F08E81882389F08F8198859C0151
:1020B0002F5F3F4F38872F838230924018F40E9461
:1020C0006F0EF3CFCE010E945D0E1E8281E09ECF87
:1020D000CF92DF92EF92FF920F93CF93DF93EC01B9
:1020E000690182E1411551056105710599F08B8502
:1020F000833039F089E0440F551F661F771F8A959A
:10210000D1F79A01AB0168E1CE010E94A60E8823A7
:1021100019F084E08D832DC08EEF0E94680E760149
:102120008EEFD81AF70181917F010E94680EEC149E
:10213000FD04C1F78FEF0E94680E8FEF0E94680EBA
:102140000E946F0E8A878F71853071F4011116C05D
:10215000CE010E945D0E81E0DF91CF910F91FF9043
:10216000EF90DF90CF90089581E18D83CE010E94A2
:102170005D0ECE010E945D0E80E0EECF88E592E01C
:102180000E94720E811102C085E1C4CF20E030E0D0
:10219000A9016DE0CE010E94A60E882311F084E112
:1021A000B9CF0E946F0E8111FACFD2CF0F93409119
:1021B0009F0F5091A00F6091A10F7091A20F411538
:1021C00051056105710599F0082F2CE830E18091E7
:1021D0008A1090918B100E946810882349F0109209
:1021E0009F0F1092A00F1092A10F1092A20F81E0EA
:1021F0000F9108950F93CF93C82F80919E0F811157
:1022000005C0C1E08C2FCF910F910895409130020D
:102210005091310260913202709133020C2F2CE800
:1022200030E180918A1090918B100E94681081118A
:1022300002C0C0E0E7CFCC2321F381E00E94D6109A
:102240008823B9F310929E0FDDCF8F929F92AF92A9
:10225000BF92EF92FF920F931F93CF934B015C01BC
:10226000C42F8091300290913102A0913202B0913E
:10227000330288159905AA05BB0551F181E00E943A
:10228000FA1081110BC080E0CF911F910F91FF9048
:10229000EF90BF90AF909F908F9008958CE8E82EBC
:1022A00080E1F82E00E012E030E020E0B501A4016A
:1022B00080918A1090918B100E94C60F882319F389
:1022C0008092300290923102A0923202B092330298
:1022D00040919E0F4C2B40939E0F81E0D5CFCF9322
:1022E000DF93EC016E857F858889998941E00E94A2
:1022F0002511882351F08A8920E2829FC001112490
:1023000084579F4EDF91CF91089590E080E0FACFFF
:102310008F929F92AF92BF92CF92DF92EF92FF92F5
:10232000CF9325ED34E130938B1020938A108823CE
:1023300009F46DC040E060E070E0CB010E9425111F
:1023400081110BC080E0CF91FF90EF90DF90CF9094
:10235000BF90AF909F908F90089580914A128F7791
:1023600089F78091561290915712A0915812B0910E
:10237000591284369105A105B10520F3C09052127F
:10238000D0905312E0905412F0905512C114D10421
:10239000E104F104B9F240E0C701B6010E94251141
:1023A000882381F280919710909198108115924026
:1023B00049F6A0919C10AA2329F260919A1070917D
:1023C0009B106115710509F4BDCF2091991022234E
:1023D00009F4B8CFA093F3142093E51490E080E0C3
:1023E00030E0E1E0F0E0C82FAF01082E02C0440F5A
:1023F000551F0A94E2F72417350769F041E0480FAA
:1024000001968930910579F74093EE149BCFC12C4A
:10241000D12C7601C0CF8093EE142091A210309180
:10242000A31050E040E02115310541F42091B01097
:102430003091B1104091B2105091B3102093E61436
:102440003093E7144093E8145093E9144601570180
:10245000860E971EA11CB11C8092F4149092F51464
:10246000A092F614B092F714E0919D10F0919E1096
:10247000F093FA14E093F914B0E00E94B167DC0124
:10248000CB01880D991DAA1DBB1D8093FB14909351
:10249000FC14A093FD14B093FE1425E0EE0FFF1F73
:1024A0002A95E1F7E150FE4FEF2FFF27E6958E0FBB
:1024B0009F1FA11DB11D8093EF149093F014A09362
:1024C000F114B093F21480909F109090A010B12C52
:1024D000A12C8114910441F48090AC109090AD1027
:1024E000A090AE10B090AF10C81AD90AEA0AFB0A41
:1024F000C80CD91CEA1CFB1C04C0F694E794D794C2
:10250000C794CA95D2F7C092EA14D092EB14E09225
:10251000EC14F092ED1485EFC8168FE0D806E104B4
:10252000F10428F48CE08093F81481E00CCF80E172
:1025300025EFC2162FEFD206E104F104A0F380913B
:10254000B8109091B910A091BA10B091BB108093BF
:10255000FB149093FC14A093FD14B093FE1480E23E
:10256000E2CF81E00E948811811102C00C94881191
:1025700081E008954F925F926F927F928F929F9227
:10258000AF92BF92CF92DF92EF92FF920F931F9381
:10259000CF93DF93EC01423051056105710590F452
:1025A00080E0DF91CF911F910F91FF90EF90DF902E
:1025B000CF90BF90AF909F908F907F906F905F90E3
:1025C0004F90089589859A85AB85BC850196A11D9C
:1025D000B11D84179507A607B70710F3CB88DC88D1
:1025E000ED88FE888F89803109F042C0BB27A72F74
:1025F000962F852F480159012A013B01C80ED91E8B
:10260000EA1EFB1E8091300290913102A0913202AD
:10261000B0913302C816D906EA06FB0699F58F89F0
:102620008031C1F5B301A201552766277727440FF2
:10263000551F44575F4EFA019182808280919E0F10
:10264000816080939E0F8A89823080F08D819E8187
:10265000AF81B8858C0D9D1DAE1DBF1D80939F0F52
:102660009093A00FA093A10FB093A20F81E099CFF8
:10267000DB01CA01E7E0B695A79597958795EA959E
:10268000D1F7B8CF40E0C701B6010E9425118111F2
:10269000C6CF86CFB301A2014F775527662777278C
:1026A000440F551F440F551F44575F4EFA01808257
:1026B0009182A282B382C2CF8F929F92AF92BF9239
:1026C000CF92DF92EF92FF920F931F93CF93DF93FE
:1026D000FC0181859285A385B4850196A11DB11D5C
:1026E00084179507A607B70770F480E0DF91CF91B4
:1026F0001F910F91FF90EF90DF90CF90BF90AF9020
:102700009F908F90089583889488A588B68887893C
:10271000803189F5BB27A72F962F852FE9016A0104
:102720007B018F01BC01CD01680D791D8A1D9B1DA8
:102730008090300290903102A0903202B09033022B
:1027400086169706A806B90601F5F8018789803133
:1027500011F5DD24EE24FF24F601EE0FFF1FE457F0
:10276000FF4E80819181B0E0A0E088839983AA83A5
:10277000BB8381E0BBCFDB01CA01C7E0B695A7955B
:1027800097958795CA95D1F7C9CF40E00E9425114A
:102790008111DBCFAACFE894C7F8DD24EE24FF2413
:1027A000F601EE0FFF1FEE0FFF1FE457FF4E808173
:1027B0009181A281B381BF70D8CF4F925F926F9207
:1027C0007F92AF92BF92CF92DF92EF92FF920F93E0
:1027D0001F93CF93DF9300D01F92CDB7DEB78C014C
:1027E00049835A836B837C835901C12CD12C760198
:1027F000412C82E0582E612C712C49815A816B81C9
:102800007C819E012F5F3F4FC8010E945C1388238B
:1028100039F1F8018585A301920104C0220F331F0D
:10282000441F551F8A95D2F7DA01C901C80ED91E77
:10283000EA1EFB1E49815A816B817C818789803128
:1028400011F188EF9FEFAFEFBFE0481759076A0714
:102850007B0798F2F501C082D182E282F38281E0A7
:102860000F900F900F900F90DF91CF911F910F91CC
:10287000FF90EF90DF90CF90BF90AF907F906F90E0
:102880005F904F90089588EF9FEFA0E0B0E0DDCF1C
:10289000CF93DF93FC012581222321F080E0DF919B
:1028A000CF910895EC018091F814803159F582E0C0
:1028B0008583178A108E118E128E8091F914909153
:1028C000FA14B0E0A0E025E0880F991FAA1FBB1FF3
:1028D0002A95D1F7838B948BA58BB68B81EE94E1EF
:1028E0009C8F8B8F81E08C831E821F8218861986B5
:1028F0001A861B861C861D861E861F86188A198AC4
:102900001A8ACDCF803251F683E085834091FB1443
:102910005091FC146091FD147091FE14478B508F00
:10292000618F728F9F012D5E3F4F81EE94E10E9477
:10293000DD138111D3CFB2CF8F929F92AF92BF920E
:10294000CF92DF92EF92FF920F931F93CF93DF937B
:10295000EC018D8181110EC080E0DF91CF911F913C
:102960000F91FF90EF90DF90CF90BF90AF909F902E
:102970008F9008950B891C892D893E8904171507AE
:102980002607370748F34A015B01823031F48A8613
:102990009B86AC86BD8681E0E0CF81149104A104C2
:1029A000B10449F41E821F82188619861A861B8676
:1029B0001C861D86F0CF0A851B852C853D85EB8DF9
:1029C000FC8D858590E00996B901A8014150510917
:1029D00061097109082E04C076956795579547954A
:1029E0000A94D2F775016401E1E0CE1AD108E1083A
:1029F000F10804C0F694E794D794C7948A95D2F767
:102A0000C416D506E606F70620F0012B022B032B91
:102A100011F58F89988DA98DBA8D8E839F83A88794
:102A2000B9878E010A5F1F4FC114D104E104F1047C
:102A300009F4ADCF4E815F816885798598018B8DD2
:102A40009C8D0E945C1391E0C91AD108E108F1083D
:102A50008111EACF81CFC41AD50AE60AF70AE1CF7D
:102A60003F924F925F926F927F928F929F92AF921E
:102A7000BF92CF92DF92EF92FF920F931F93CF936B
:102A8000DF93CDB7DEB72C970FB6F894DEBF0FBE3D
:102A9000CDBF5C01DC015B968D909C905C97169697
:102AA0004D905D906D907C90199741145104610494
:102AB000710409F468C0BFEF4B1A5B0A6B0A7B0A0A
:102AC000312CF40181859285A385B4859C01AD01EB
:102AD0002F5F3F4F4F4F5F4F29873A874B875C8768
:102AE000730162011D821E821F821886F401818596
:102AF0009285A385B4852D813E814F815885281705
:102B000039074A075B0708F056C089859A85AB8567
:102B1000BC858C159D05AE05BF0550F482E0C82E1E
:102B2000D12CE12CF12C92E0492E512C612C712CEE
:102B30009E012F5F3F4FB701A601C4010E945C13A5
:102B40008823C9F189819A81AB81BC81892B8A2B29
:102B50008B2B09F1260137019FEF491A590A690A9F
:102B6000790A2D813E814F8158852F5F3F4F4F4F0E
:102B70005F4F2D833E834F8358873FEFC31AD30A9D
:102B8000E30AF30AB3CFF40140805180628073807E
:102B90003324339496CFC414D504E604F70409F71C
:102BA0000FEF1FEF2FEF3FE0B701A601C4010E9416
:102BB000BA12811119C080E02C960FB6F894DEBFCE
:102BC0000FBECDBFDF91CF911F910F91FF90EF907E
:102BD000DF90CF90BF90AF909F908F907F906F903D
:102BE0005F904F903F900895D50116964D915D915D
:102BF0006D917C911997411551056105710539F069
:102C000097018601C4010E94BA128823A1F2D5015E
:102C10001696CD92DD92ED92FC921997332051F0E9
:102C2000D701C6010196A11DB11DF40180839183D6
:102C3000A283B383F5018789908DA18DB28D892BF5
:102C40008A2B8B2B39F48481C78AD08EE18EF28E49
:102C500080688483F50184818062848381E0ACCFC5
:102C60002F923F924F925F926F927F928F929F929C
:102C7000AF92BF92CF92DF92EF92FF920F931F938A
:102C8000CF93DF93EC015B012A018D81811115C087
:102C90008FEF9FEFDF91CF911F910F91FF90EF90FA
:102CA000DF90CF90BF90AF909F908F907F906F906C
:102CB0005F904F903F902F9008958C8180FFE8CFD8
:102CC0000B891C892D893E894A855B856C857D85AC
:102CD000C201B0E0A0E068017901C41AD50AE60A91
:102CE000F70AC816D906EA06FB0618F42801441AA2
:102CF000550A42011E0126E0220E311C8114910466
:102D000009F4B3C04A855B856C857D856A0181E0E5
:102D1000D8228B8D9C8D8A019B01E9E03695279501
:102D200017950795EA95D1F7ED81E230E1F5FC01C1
:102D3000628D738D848D958D600F711F821F931F1F
:102D4000612C22E0722E6C187D088614970408F41A
:102D500034012C8126FD04C06114F2E07F0671F479
:102D600000913002109131022091320230913302F1
:102D7000061717072807390709F053C040E00E94DB
:102D80002511882309F484CFC60184579F4ED501AD
:102D90009C01260D371DFC012E173F0709F460C06A
:102DA00041914D93F9CFFC0174807A947022C11443
:102DB000D10471F471100CC0452B462B472B39F50B
:102DC0008F89988DA98DBA8D8E839F83A887B987A7
:102DD000EB8DFC8D6E817F818885998562507109AC
:102DE00081099109258504C0660F771F881F991FE7
:102DF0002A95D2F70685178520893189600F711FC2
:102E0000821F931F670D711D811D911D99CF4E81EA
:102E10005F816885798591010E945C138111D8CF0B
:102E200037CF750183019601AB01BC0180918A10F7
:102E300090918B100E94C60F882309F429CFA60C0D
:102E4000B71C8A859B85AC85BD85860D971DA11D08
:102E5000B11D8A879B87AC87BD87861897084ECFA0
:102E6000281B390BA20EB31EECCFC20113CFFC01FD
:102E7000818D928D009721F044E150E00C94301642
:102E800090E080E00895CF93DF931F92CDB7DEB737
:102E900041E050E0BE016F5F7F4F0E943016019706
:102EA00031F4898190E00F90DF91CF9108958FEFF9
:102EB0009FEFF9CFFC01818D928D009711F00C945A
:102EC00043178FEF9FEF08950F931F93CF93DF93D7
:102ED000EC01898D9A8D10E000E0009799F00E9436
:102EE00043178C010F3F100769F0898D9A8DFC0103
:102EF0004285538564857585415051096109710981
:102F00000E949C14C801DF91CF911F910F910895E9
:102F10001F93CF93DF93FC012581222371F1162F9C
:102F2000EC01848187FF1EC0CF010E946F11FC015C
:102F3000892B19F18D81823040F48B899C89AD8970
:102F4000BE89848F958FA68FB78F8F89988D938F29
:102F5000828F8F89988DA98DBA8DB58BA48B8C812A
:102F60008F778C83111103C08C818F7E8C83812F8E
:102F7000DF91CF911F910C94FA1080E0DF91CF91F7
:102F80001F910895FF920F931F93CF93DF93EC014E
:102F90008D81813041F090E080E0DF91CF911F91F1
:102FA0000F91FF9008958C8181FFF5CF82FD1BC0AA
:102FB00000918A1010918B10C8010E94900E0E94FF
:102FC0006F0EF82EC8010E945D0E8FEFF812E3CF4E
:102FD0008C8185FF1BC060E0CE010E9488178C8128
:102FE0008F7D8C83D8CF4B895C896D897E898A855A
:102FF0009B85AC85BD8584179507A607B707C1F2E9
:10300000CE010E949C148111D3CFC5CF40919F0F58
:103010005091A00F6091A10F7091A20F452B462BEC
:10302000472B21F080E00E94D610B5CF80618C83C1
:103030002A853B85317080E092E0821B930BADCFF7
:10304000CF93DF93EC0161E00E948817882311F091
:103050001D8281E0DF91CF910895FC01818D928DD9
:10306000009719F061E00C94881708952F923F9211
:103070004F925F926F927F928F929F92AF92BF9288
:10308000CF92DF92EF92FF920F931F93CF93DF9334
:1030900000D01F921F92CDB7DEB77C015B01342EAA
:1030A0005D83DC0115968C911597813009F0CEC0B7
:1030B00014962C9021FECAC022FCB4C0C32CDD8023
:1030C00022947FE027222094B22DB1702B2ED701BD
:1030D0001A964D915D916D917C911D97C114D1040B
:1030E00009F428C15B968D919C915C97FC017480DA
:1030F0007A948A019B0169E0369527951795079583
:103100006A95D1F770228A011170711020C00115E3
:103110001105E9F416964D915D916D917C91199789
:10312000411551056105710509F099C057968D91BA
:103130009D910D90BC91A02D0097A105B10509F0BE
:10314000B0C0C7010E943015882309F47FC080E019
:1031500092E0801B910B46018C159D0508F44C01F3
:10316000D7015B964D915C915C9716968D919D91E0
:103170000D90BC91A02D0297A109B109FA012585F6
:1031800004C0880F991FAA1FBB1F2A95D2F7468536
:10319000578560897189840F951FA61FB71F9C01F1
:1031A000AD01270D311D411D511D29013A01811429
:1031B00032E0930609F07BC0809130029091310299
:1031C000A0913202B091330284159505A605B7058A
:1031D00059F48FEF9FEFDC0180933002909331021E
:1031E000A0933202B0933302022D9501B301A201E4
:1031F00080918A1090918B100E946810882331F181
:103200009EEFB91AC818D908F70182859385A4855D
:10321000B585880D991DA11DB11D82879387A4874F
:10322000B58755CFF70143895489658976898285A9
:103230009385A485B585481759076A077B0709F464
:103240003DCFC7010E949C14811138CF81E090E0EE
:10325000D70113969C938E93129780E007C09E012E
:103260002F5F3F4F0E945C13811102C090E079C034
:1032700089819A81AB81BC81F701238D348DF9015D
:10328000278948EF5FEF60E070E0203121F048EFE0
:103290005FEF6FEF7FE084179507A607B70708F089
:1032A00050CFF70186839783A087B18750CF011550
:1032B000110599F5D7011A964D915D916D917C910B
:1032C0001D9753968D919D910D90BC91A02D4817FF
:1032D00059076A077B0708F181E00E94FA108823EA
:1032E00009F4B4CF4092300250923102609232021F
:1032F0007092330280919E0F816080939E0FC8016F
:1033000084579F4ED5019C01280D391DFC012E17B5
:103310003F0759F04D914193FACF41E0C301B2010B
:103320000E9425118111EBCF91CF281B390BA20EE2
:10333000B31E68CFF70183899489A589B68984175C
:103340009507A607B70738F48481438B548B658BA8
:10335000768B80688483F701848183FD1AC0832D76
:103360009D810F900F900F900F900F90DF91CF9154
:103370001F910F91FF90EF90DF90CF90BF90AF9093
:103380009F908F907F906F905F904F903F902F9085
:10339000089561E0C7010E948817882309F456CF79
:1033A000DECFCF93DF931F92CDB7DEB7698341E0C5
:1033B00050E0BE016F5F7F4F0E9436180F90DF9183
:1033C000CF910895CF93DF93EC01E98DFA8D30977B
:1033D00049F481E090E09B838A8390E080E0DF9174
:1033E000CF91089513821282898D9A8D0E9436188A
:1033F000E98DFA8D22813381232B59F7F0CF80E0BC
:1034000008950F931F93CF93DF93FC01A681B7819B
:10341000C581D0E033E0D695C7953A95E1F7362FD0
:103420003770E0E8F0E08F0102C0159507953A95F6
:10343000E2F7FC018281481B4C9FC0014D9F900D1B
:103440001124669566956695680F792F711DA60FF4
:10345000B71F8C91E02F222339F0E82BEC93DF91FA
:10346000CF911F910F910895E095E823F7CFFB01CD
:103470004181DC0112962C911297421768F0139645
:103480002C911397241740F0608115962C916217A8
:1034900018F424810C94011A0895FC018081928112
:1034A000980F92832181921760F494819F5F948397
:1034B0009381890F821710F08FEF820F838381E051
:1034C000089580E00895FC011282808181508383F9
:1034D00014820895DB01ED91FC9119940F931F93D1
:1034E000CF93E0916615F0916715309719F088E554
:1034F00095E1199500915A1510915B15E091891588
:10350000F0918A1582E01995E0918915F0918A155C
:1035100081E0199530E020E045E1B80188E595E1CA
:103520000E946A1AC82F882341F02BE835E147E151
:10353000B80188E595E10E946A1AE0918915F09139
:103540008A1580E019958C2FCF911F910F910895C6
:10355000EF92FF920F931F93CF93DF93082F162FB5
:10356000C42FD42FF82EF40EEE24EA948F2D8D1B49
:10357000D83080F58C2F887F800F9C2F969596955C
:10358000969528EF929FC00D1124CC23C1F197E0AE
:10359000C92760915A1570915B158093741510932B
:1035A000751510927715CF5FC7708FEF90E001C04F
:1035B000880FCA95EAF78093761524E735E14BE347
:1035C00088E595E1DF91CF911F910F91FF90EF90EA
:1035D0000C946A1A60915A1570915B15809374155A
:1035E0001093751510927715E092761524E735E162
:1035F0004BE388E595E10E946A1AD850B7CFDF9176
:10360000CF911F910F91FF90EF9008950F931F930B
:10361000CF93DF93182FC62F042FD62FD20F402F12
:103620006C2F812F0E94A81ACF5FCD13F8CFDF91A6
:10363000CF911F910F910895DF92EF92FF920F9318
:103640001F93CF93DF93F82ED62FC42F162F01E0B0
:10365000DD24DA94E62EE40E60915A1570915B1524
:10366000F09274151093751500937715D092761516
:1036700024E735E14BE388E595E10E946A1A185F7B
:103680008E2D811B883040F7D85F88EF8C0F887FA4
:103690008D0F9C2F977011F160915A1570915B15E9
:1036A000F09274158093751500937715C195C770C6
:1036B0008FEF90E001C0880FCA95EAF780937615E6
:1036C00024E735E14BE388E595E1DF91CF911F9148
:1036D0000F91FF90EF90DF900C946A1ADF91CF91D9
:1036E0001F910F91FF90EF90DF900895CF92DF929E
:1036F000EF92FF920F931F93CF93DF93C82F162F54
:10370000D42F082F041B481710F0042F081B211773
:1037100048F4F12EF21A0F15E0F0DC1708F440C05F
:10372000D12C10C0F22EF11A0F1508F041C0802FD5
:103730000F2DF82E8D2FD22F282F8C2FC12F182F21
:10374000DD24D394E02EE6941217E0F5CC24C39444
:103750003BC0802F0F2DF82E812F1D2FD82F8C2F9F
:10376000C22F282FEDCF60915A1570915B15D110A3
:1037700012C0C09374151093751524E735E142E328
:1037800088E595E10E946A1AEF18E7FE02C01C0D59
:10379000E00ECF5F1CC010937415C0937515EDCF6C
:1037A000E02EE6948D2FDC2FC82F122FD12CCECFF8
:1037B000DC1708F0B5CFE02EE6948D2FDC2FC82F54
:1037C000122FD12CCC24CA94DF3F09F4DEEFDC1792
:1037D00050F6DF91CF911F910F91FF90EF90DF9006
:1037E000CF900895CF93DF931F92CDB7DEB79E01A0
:1037F0002F5F3F4F47E40E946A1A89810F90DF9143
:10380000CF910895CF93DF931F92CDB7DEB79E017E
:103810002F5F3F4F46E40E946A1A89810F90DF9123
:10382000CF910895BF92CF92DF92EF92FF920F93C4
:103830001F93CF93DF938C01D42EE901FB01E2802B
:10384000F380F2E34F1709F476C0F417C8F08CE266
:10385000481709F470C0EDE24E17E9F0F7E14F1791
:1038600079F19E014D2DB701C801DF91CF911F91D4
:103870000F91FF90EF90DF90CF90BF900C946A1A59
:1038800086E4481709F44CC0E7E44E1709F44EC02B
:10389000FBE34F13E6CFB701C8010E94F21BC980BA
:1038A000C094C80EB701C8010E94021C988190956F
:1038B000890F8883C9828B818E5F83708B834BC015
:1038C00047E1B701C8010E946A1AB701C8010E9406
:1038D000021CBA80B094B80EB701C8010E94021C45
:1038E000D880D094D80EB701C8010E94F21BCB80BB
:1038F000C094C80EB701C8010E94F21B998190952F
:10390000890FB882C982DA828B8381E0DF91CF91FF
:103910001F910F91FF90EF90DF90CF90BF9008958F
:10392000B701C8010E94021C8883EFCFB701C8010C
:103930000E94F21BF9CFB701C8010E94F21BC98097
:10394000C094C80EB701C8010E94021C98819095CE
:10395000890F8883C9829E014D2DB701C8010E943D
:103960006A1AD3CFCF93DF93EC016A817B810E94E7
:10397000021C88836A817B81CE010E94F21B8983AD
:103980006A817B8130E020E048E4CE010E946A1A1F
:103990008B879E012D5C3F4F6A817B8147E1CE0181
:1039A000DF91CF910C946A1ACF93DF93C0915A158F
:1039B000D0915B15E0918915F0918A1582E01995F7
:1039C00030E020E04AE0BE0188E595E10E946A1AF5
:1039D000C82FE0918915F0918A1583E01995E0913F
:1039E0008915F0918A1580E01995CC2329F088E596
:1039F00095E10E94B21CC1E08C2FDF91CF91089518
:103A0000CF93DF9380919115811105C081E0809360
:103A100091150E94D41CC0915A15D0915B15E0916C
:103A20008915F0918A1582E01995E0918915F09138
:103A30008A1581E0199530E020E044E1BE0188E577
:103A400095E10E946A1A2BE835E147E1BE0188E55D
:103A500095E10E946A1AE0918915F0918A1580E03B
:103A6000DF91CF9119940B96FC01849108950A96E9
:103A7000FC0184910895FC01849108950E943B1DEE
:103A8000882321F0823011F083E0089586E00895C4
:103A9000FC01E60FF11D849190E0982F8827319664
:103AA000E4918E0F911D089568E00C94481D66E026
:103AB0000C94481D2EE93FE0009709F40895F901A0
:103AC0003197F1F70197F8CF3091510F4091500F96
:103AD00050914F0F60914E0FA0914C0FB0914D0F30
:103AE000E0914A0FF0914B0F9FB79093490FF894D4
:103AF0009C91392B9C91492398E087FF0EC03C9301
:103B0000880F2081262320832081252B208391501C
:103B1000A1F78091490F8FBF08954C93F1CFCF93B8
:103B2000C62F81111BC088EF0E94641D8C2F807FDF
:103B30000E94641D8C2F8295807F0E94641D88E204
:103B400090E0FC013197F1F7FC013197F1F7FC01AE
:103B50003197F1F70197F1F7CF910895813031F75F
:103B60008AEFE2CF90E0FC01EB52FD4FE491F0E0F0
:103B7000EE0FFF1FEB5EFD4F2591349130934D0FFB
:103B800020934C0F70E0FB01EB52FD4FE491F0E00D
:103B9000EE0FFF1FEB5EFD4F2591349130934B0FDD
:103BA00020934A0F8B589D4FFC0184918093510FB5
:103BB0006B587D4FFB01649160934F0F609560934C
:103BC0004E0F80958093500F0895860F911DFC0134
:103BD00083A18F3F19F0642F0C9420080895EF9271
:103BE000FF920F931F93CF93DF93EC01142F790172
:103BF0006150673008F03BC0E62FF0E08827EC5FAB
:103C0000F14E8F4F0C9410690B1E941E471E3F1EE1
:103C1000561E5B1E911E7E0183E2E80EF11C8E0192
:103C2000005D1F4FF70181917F018F3F49F061E0F7
:103C30000E944E0861E0F701319780810E942008C0
:103C4000E016F10679F740E062E0CE010E94E51D42
:103C500041E064E0CE010E94E51D40E065E0CE0158
:103C60000E94E51D6FA188A50E94B21D1EA281E0E1
:103C7000DF91CF911F910F91FF90EF9008958BA14D
:103C800060E08F3FA1F3CE010E94E51DF0CF41110E
:103C900003C040E062E0F7CF41E062E0CE010E9465
:103CA000E51D6FA188A50E94B21DE1CF642F8EA1F2
:103CB0000E948F1DDCCF8EA1811115C088EF0E945C
:103CC000641DC8E2D0E0111112C088E290E0FC014E
:103CD0003197F1F7FC013197F1F7FC013197F1F7DA
:103CE0000197F1F7C4CF813061F78AEFE8CFF70190
:103CF0008081807F0E94641DF70181917F01829500
:103D0000807F0E94641D1150CE010197F1F7DBCF37
:103D1000F70164918EA10E948F1DFFEFEF1AFF0A39
:103D200011501111F5CFA3CF4EA3A1CFDB011496F3
:103D3000ED91FC9130E020E065E01994DB011496F0
:103D4000ED91FC9130E020E062E01994DB011496E3
:103D5000ED91FC9130E020E063E019949F92AF92E6
:103D6000BF92CF92DF92EF92FF920F931F93CF9368
:103D7000DF937C018B01942E69012AE0421751F1F7
:103D800085E1481709F488C0F801C281D381F2E3C4
:103D90009F1609F42BC1F91508F4CDC025E1921640
:103DA00009F429C187E1981609F438C194E1991200
:103DB000F1C0EE81FF818D8124E0829FC00111243A
:103DC0008E0F9F1F11928E179F07E1F7CE010E9461
:103DD000631AE0C0DB011496ED91FC9130E020E025
:103DE00043E061E0199580E094EDA92E91E0B92EB1
:103DF000F501C491811110C081E0CF3F49F04C2FF3
:103E0000B801C7010E94961E882309F4BDCF80E047
:103E1000BFEFAB1ABB0AECCF4FEFCF3F89F3CE3FDA
:103E200009F4B2CFC03F98F7C03E38F04C2F4F7026
:103E3000B801C7010E949E1EEACFC03D38F04C2F4A
:103E40004F70B801C7010E94A61EE1CFC03CF8F038
:103E5000D8011496ED91FC9130E020E040E064E060
:103E6000C7011995C295C07FCE5FD0E0CE010E94F8
:103E70005A1DD8011496ED91FC9130E020E041E00C
:103E800064E0C7011995CE010E945A1DC0CFC7FD3D
:103E9000BECF8C2F90E0F8CFFB01A280B38040E032
:103EA000C7010E949E1E41E0B801C7010E94A61EE4
:103EB000D5011296CC9112971696AD90BC90D0E297
:103EC000DC0F40E0B801C7010E949E1E4EE3B8011E
:103ED000C7010E94961EC03228F54C2F4068B801D9
:103EE000C7010E94961E40E8B801C7010E94961EB5
:103EF00041E0B801C7010E949E1ED8011496ED91C1
:103F0000FC91950140E166E0C7011995B0E1AB0E67
:103F1000B11CCF5FCD13D5CF40E0B801C7010E94DF
:103F2000A61E32CF40EE4C0F4068B801C7010E9478
:103F3000961E48E8D9CFA6E49A1609F479C0B7E4EA
:103F40009B1609F479C0EBE39E1224C0D6011196AA
:103F50009C91119713968C9138E0390F813031F094
:103F6000833011F0392F02C0392F985021E04B8156
:103F7000491708F420E041E0391708F040E091E0EB
:103F80005A81351708F490E0322F342B932379F4BB
:103F9000242369F481E0DF91CF911F910F91FF906D
:103FA000EF90DF90CF90BF90AF909F900895F60173
:103FB000128100E0F12C843048F490E0FC01E857D5
:103FC000FD4FF0808C579D4FDC010C9117FF04C012
:103FD000B601CE010E94371AF60180818F0D8083D1
:103FE0008181800F8183110F89F7D4CFB601CE0173
:103FF0000E94371ACFCFCE010E944D1A882359F262
:10400000EE81FF818D81A4E08A9FC00111248E0F73
:104010009F1F11928E179F07E1F7BCCFF601108208
:104020008A8181838D81815082838B818383B2CF0A
:104030008D81D6018C93AECF8981F6018083AACF82
:104040000F93FC010150040F84A996A9941788F0DE
:10405000081710F4041778F42150260F83A995A9A6
:10406000961758F0281760F481E0261720F40F9176
:104070000895081778F780E0FACF2817A8F7FBCF44
:1040800081E0F5CFFF920F931F93CF93DF93C82F5B
:10409000D62F142FF22E022F242F462F682F88E5BB
:1040A00095E10E942020882359F02F2D412F6D2F5C
:1040B0008C2FDF91CF911F910F91FF900C94061BD5
:1040C000DF91CF911F910F91FF900895FF920F9371
:1040D0001F93CF93DF93D82F162FF42EC22F022FCA
:1040E000242F462F682F88E595E10E942020882301
:1040F000E9F04F2D612F8D2F0E94A81A4C2F612FB0
:104100008D2F0E941C1B8FEF8F0D4C2F612F8D0F59
:104110000E941C1B6FEF6C0F610F4F2D8D2FDF91D5
:10412000CF911F910F91FF900C94A81ADF91CF911E
:104130001F910F91FF900895CF93DF93FC01E60F3D
:10414000F71FDA018191882339F08D91882321F0BE
:10415000EF0121978883F6CFDF91CF910895FC017D
:104160006115710519F492838183089572836183C7
:10417000DB018C9180830895CF93DF93C82FD0917A
:10418000BC0FD0FF05C0682F89E993E10E94FA06B1
:10419000D1FF07C06C2F86E394E1DF91CF910C949F
:1041A000FA06DF91CF910895CF93DF93D62FC42FD6
:1041B0008F70806B0E94BC208D2F0E94BC208C2FA2
:1041C000DF91CF910C94BC200F931F93CF93DF937B
:1041D000EC01162FAA85BB851196ED91FC911297E3
:1041E00080818C9300818A89806B0E94BC2087E04B
:1041F0000E94BC20802F8F770E94BC20AC85BD859B
:104200001196ED91FC91129780818C9300818A899F
:10421000806D0E94BC20802F8F770E94BC20AE85CD
:10422000BF851196ED91FC91129780818C9300814E
:104230008A89806E0E94BC2080E00E94BC20802F72
:104240008F770E94BC20113061F41D898A89806CAF
:104250000E94BC20812FDF91CF911F910F910C9470
:10426000BC204B8960E08A890E94D4204C8960E29E
:104270008A890E94D420E9CF806B0E94BC2088E705
:104280000E94BC2080E00C94BC200E940B090E947C
:10429000AA0A8823D1F30895CF93DF930E940B09D4
:1042A0000E94AA0AC82FD0E00E94BA0A8111C260F7
:1042B0000E94C90A8111C4608EE20E94F707892B0F
:1042C00009F4C860CE01DF91CF910895CF93DF93B9
:1042D000009791F0FB0130E020E0EF01C61BD70B07
:1042E000A191AA23C9F0AE33C1F72F5F3F4F8217C8
:1042F000930799F7CE010196DB01A80FB91FFA01C8
:104300008D91882321F08E3311F08193F9CF1082A3
:1043100081E0DF91CF910895FA01108280E0F9CF1A
:104320003F924F925F926F927F928F929F92AF9245
:10433000BF92CF92DF92EF92FF920F931F93CF9392
:10434000DF93EC01162FDCAC5BAC5C0124E0A20E29
:10435000B11CE98DFA8DC5011995982EE884F98470
:10436000C7010E943B1D082F888599850E943E1D2C
:10437000782E88248A94013011F48FE0882E888565
:1043800099850E94371D082F888599850E94331DC5
:10439000C82E888599850E94541D113670F00097AB
:1043A00061F0E80EF91E01E6C116B8F41C8A1F8AF6
:1043B000188E1D8A1E8A80E05BC0888599850E94C0
:1043C000571D113430F0009721F0E80EF91E01E47A
:1043D000EBCF81E1E80EF11CE7CFC01638F3872D53
:1043E00090E0F70124912F3F39F4FFEFEF1AFF0A15
:1043F000C016E1F20F5FF5CF101368C0888599856C
:104400000E943B1D97012F5F3F4FF701882319F052
:10441000823009F044C084918F8BF9012491288F58
:10442000F7013396E491EC8BF7013496E491ED8B30
:10443000F7013596E491EE8BE114F10409F4BBCF5A
:10444000888599850E943E1D782ECF88388C8D896D
:10445000580E1D2D13198E89181B190D032D2C2D87
:10446000412F652DC5010E942020811138C08C8903
:104470009BAD890F8BAF81E090E0DF91CF911F91D1
:104480000F91FF90EF90DF90CF90BF90AF909F90F3
:104490008F907F906F905F904F903F9008958491A0
:1044A000982F9F7092509E8B82958F708D8BF90103
:1044B0002491822F8F70888F22952F702F8BF70178
:1044C0003296E491E295EF70EC8BB6CF3296E491A0
:1044D000E821E80FF92FF11DEE0EFF1E89CFE70C42
:1044E000F11C07E00C0D069506950695310E4E0160
:1044F000F0E28F0E911C602E712C131509F4B7CFCA
:10450000452C670112C0F60184916E817F8148A21B
:1045100019A31BA28AA394014BE3C5010E946A1A46
:10452000FFEFCF1ADF0A28E0420E8C2D8E1980177C
:1045300050F3E60CF71C1F5FE0CF089590E080E099
:104540000895FB01218132816217730729F480816C
:10455000082E000C990B0895FC01E956FF4F895471
:104560009F4FA191B191AD01455F5F4F2417350772
:1045700031F41C968C9190E08095909508958E175B
:104580009F0779F78FEF90E0F7CFFC01E956FF4FD7
:104590009C0129543F4F90E080E041915191452B7F
:1045A00009F00196E217F307C1F70895FC01E954F9
:1045B000FF4F9C0129523F4F90E080E04191519183
:1045C000452B09F00196E217F307C1F70895AF9262
:1045D000BF92CF92DF92EF92FF921F93CF93DF9320
:1045E0005C01EB01D12CC12CF50114818581811B6B
:1045F000990B8C159D05DCF11C0D61E0812F0E944B
:104600004E0860E0812F0E94200861E070E080E0A9
:1046100090E00E94CC0819821882F501E380F12C09
:10462000F50182818E151F0409F0A4F48881998117
:10463000880F991F998388838E2D0E94F707019711
:1046400029F488819981816099838883F1E0EF1A48
:10465000F108E6CF60E0812F0E944E0860E0812FD4
:104660000E9420088FEFC81AD80A2296BDCFDF918A
:10467000CF911F91FF90EF90DF90CF90BF90AF90C0
:1046800008954F925F927F928F929F92AF92BF92C6
:10469000CF92DF92EF92FF920F931F93CF93DF930E
:1046A000CDB7DEB760970FB6F894DEBF0FBECDBFB3
:1046B0008C017B01BE016F5F7F4F0E94E722FE01EC
:1046C0003196912C50E040E030E020E0D801159682
:1046D0008C91159714969C911497891B990B8417AC
:1046E00095070CF46DC011968C91823079F4DA0143
:1046F000AA0FBB1FA952BF4FA00FB11F808191818C
:104700006D917C91862797279183808370E060E08C
:10471000D80113968C91139712969C911297891B2E
:10472000990B861797070CF445C0A080B180A0FEB6
:104730003AC0892C862A16964C90512C6801B8E014
:10474000CB0ED11C81E090E0481659063CF0D60112
:104750007D906D01871419F00196F6CF80E08823D3
:1047600011F1D701A20FB31F8C932F5F3F4F2F3151
:104770003105C9F4F701178E80E060960FB6F89402
:10478000DEBF0FBECDBFDF91CF911F910F91FF9084
:10479000EF90DF90CF90BF90AF909F908F907F90E1
:1047A0005F904F900895B694A794B182A0826F5FF6
:1047B0007F4FAECF4F5F5F4F329680E1980E86CF2E
:1047C000E20EF31ED7011C92D7CF0F931F93CF9306
:1047D000DF93EC0181E0888382E0898396E19A830C
:1047E00093E29B838C8389E08D831E8206E110E037
:1047F0008B81801711065CF060E0802F0E944E08CC
:1048000061E0802F0E9420080F5F1F4FF1CF0C81C5
:1048100010E08D81801711065CF060E0802F0E940F
:104820004E0860E0802F0E9420080F5F1F4FF1CFDD
:104830008E0109521F4FB801CE010E94E722FE01EE
:10484000E954FF4FCF0111921192E017F107D9F708
:10485000FE01E95BFF4F9E0129593F4F11921192D2
:10486000E217F307D9F7C956DF4F11921192CE170D
:10487000DF07D9F7199219928C179D07D9F7DF91A5
:10488000CF911F910F910895DC01F0E0E0E02D91B0
:104890002223B1F0261310C0E80FF91F2081211147
:1048A00002C081E00895218121939F01281B390BCB
:1048B000203231059CF3F5CF3196E032F10539F71E
:1048C00080E00895AF92BF92CF92DF92EF92FF9275
:1048D0000F931F93CF93DF93EC016B0190E080E087
:1048E0009B012F5D3F4F79015E01A80EB91EF501B6
:1048F0002081211120C086016E01F1E2CF0ED11C72
:10490000F80121918F01222309F483C0EE15FF05E0
:1049100009F47FC03BA9231798F38CA9821780F371
:10492000DE01FE0181918823A9F0EC15FD0591F0CF
:104930002813F8CFE5CF80329105ECF6F6013191DE
:10494000332309F43FC0EE15FF05E1F12313F7CF40
:104950000196CACF90E080E06D91AC014F5F5F4F50
:10496000611126C08C0F9D1FFC0120834C0F5D1F21
:10497000FA011082F801319790818EA9BDA88111AA
:104980001CC049A15AA1FA0180899189FC01A18129
:10499000B2812C912083AC90FA01828980690E94B7
:1049A000BC208B2D0E94BC208A2D0E94BC20A8CF49
:1049B000CA014032510581F6A3CF833011F3B31AF7
:1049C000B90EDFCF8EA91DA9882329F0833019F0F5
:1049D0008BA9181B120F49A15AA1FA01808991894C
:1049E000FC01A181B2812C9120830C91FA01828972
:1049F00080680E94BC20812F0E94BC20802F0E94D2
:104A0000BC20F5016081CE010E94442490E080E04A
:104A10009FCFDF91CF911F910F91FF90EF90DF908B
:104A2000CF90BF90AF900895CF93DF93FB01228189
:104A30003381DC0113963C932E9312974481558168
:104A40006681778114964D935D936D937C93179750
:104A5000408551856285738518964D935D936D935E
:104A60007C931B971C96EF012C969C01275E3F4F71
:104A700049914D93A217B307D9F7218D328DFC01CF
:104A8000328F218FDF91CF910895FC019F01281B68
:104A9000390B4191442339F04032C1F72F5F3F4F2A
:104AA000820F931F0895089591E08091350281113E
:104AB00001C090E08091931590FB83F9809393154A
:104AC00091E080913402811101C090E080919415B1
:104AD00090FB87F980939415809193158B7F809339
:104AE00093150895CF93C82F60E00E944E0861E0AF
:104AF0008C2FCF910C9420088091BE0F813071F4DF
:104B000061E088E20E94200862E070E080E090E0CE
:104B10000E94CC0860E088E20C9420080895FC0113
:104B20002481358181859285280F391F86818823CC
:104B300051F0863010F085E08683868102C0220F16
:104B4000331F8A95E2F78781882361F0863010F061
:104B500085E087833250878102C0220F331F8A95F8
:104B6000E2F73E5FC90137FF02C090E080E081308C
:104B700024E0920714F080E094E00895CF92DF9251
:104B8000EF92FF920F931F93CF93DF938B01FB0163
:104B9000EE0FEF2FEE1FFF0BE80FF92FF11DC5856C
:104BA000D0E0668570E06C1B7D0B072E000C880B37
:104BB000990B0E94036820E030E040E85DE30E942A
:104BC00067686B017C0133E0159507953A95E1F72D
:104BD0000F70602F70E090E080E00E9403689B01FE
:104BE000AC01C701B6010E9467680E94CB676C0FD9
:104BF0007D1F75956795862FDF91CF911F910F913E
:104C0000FF90EF90DF90CF9008950F931F93FC01DA
:104C100000E012E12AE730E090E040175107620718
:104C2000730740F436952795179507959F5F963043
:104C3000A1F797E0292F206A2695208390959170FF
:104C400091831F910F910895EF92FF920F931F93FD
:104C5000CF93DF931F921F92CDB7DEB78C01E62E64
:104C6000F42EDC018D919C911197892B69F5149696
:104C70008D919C91159712962C9131E03093D8121A
:104C80002093FA121092D9121092FB12DC01ED91CE
:104C9000FC910190F081E02D1995F80184819581B6
:104CA000DC01ED91FC910190F081E02D6F2D1995C3
:104CB00081E00E94150C0F900F90DF91CF911F9112
:104CC0000F91FF90EF900895F8014085518562851E
:104CD0007385CE0101960E94052689819A810E94E2
:104CE0008D0E60E0D80113968C910E942008F80187
:104CF00084858E210E94680E8F2D0E94680E61E0CF
:104D0000D80113968C910E942008D5CFCF92DF92C4
:104D1000EF92FF920F931F93CF93DF936C01EB0100
:104D200018820E94330B892B49F17E0187010C1BED
:104D30001D0BC6010E94330B892B59F0C6010E943E
:104D40005A178A3031F08D30A1F3F70181937F013A
:104D5000EDCFFE01E00FF11F1082FE010190002057
:104D6000E9F73197CF018C1B9D0BDF91CF911F91FC
:104D70000F91FF90EF90DF90CF9008958FEF9FEF0E
:104D8000F4CFFB0101900020E9F73197AF01461BFA
:104D9000570BDC01ED91FC910280F381E02D199419
:104DA0006AED72E00C94C1268F929F92AF92BF92EF
:104DB000EF92FF920F931F93CF93DF93CDB7DEB7A0
:104DC000A1970FB6F894DEBF0FBECDBF7C01FA01EC
:104DD000CB0119A2223008F42AE08E010F5D1F4F8B
:104DE000822E912CB12CA12CBF01A50194010E940F
:104DF0008F67F901CA016A300CF5605DD8016E93C6
:104E00008D01232B242B252B79F790E080E0109740
:104E100021F0BD01C7010E94C126A1960FB6F894EA
:104E2000DEBF0FBECDBFDF91CF911F910F91FF90DD
:104E3000EF90BF90AF909F908F900895695CDECF08
:104E4000242F462F50E070E060E00C94D426CF92DF
:104E5000DF92EF92FF920F931F93CF93DF936B013B
:104E6000770FEE08FF084A30510511F52AE0F7FEEA
:104E700020C0EC01E881F9810190F081E02D6DE224
:104E800019958C0144275527BA014C195D096E0903
:104E90007F092AE0CE010E94D426800F911FDF9166
:104EA000CF911F910F91FF90EF90DF90CF900895D9
:104EB000242FB701A601DF91CF911F910F91FF9091
:104EC000EF90DF90CF900C94D4260F931F93CF9345
:104ED000DF93EC010E94C1268C01CE010E94D026F6
:104EE000800F911FDF91CF911F910F910895611550
:104EF000710511F00C94C12690E080E00895CF92E6
:104F0000DF92EF92FF920F931F93CF93DF937C0179
:104F1000EB0111E00BE082E3D82E90E3C92E0E9452
:104F2000001D109378152CE04FE760E080E00E94B0
:104F300042202FE34FE760E080E00E94662010925D
:104F4000781510938F1500939015B70184E595E1BE
:104F50000E947727109378152EE04DE264E288E2F4
:104F60000E946620D0928F15C092901540E150E0CB
:104F7000BE0184E595E10E9427270E946E1A8111E7
:104F8000D0CF0E940B090E94C90A882351F00E94C9
:104F90007C252196C11581E0D80709F6D0E0C0E054
:104FA000BECF0E94BA0A882341F00E947C25219737
:104FB00008F0B5CFCFEFD0E0B2CF0E94AA0A882385
:104FC00001F30E947C25CE01DF91CF911F910F91BB
:104FD000FF90EF90DF90CF900895EF92FF920F93A4
:104FE0001F93CF93DF938C017A010E94772761EBA7
:104FF0007CE0C8010E947727E70183E0E80EF11CFE
:10500000699140E150E0C8010E94202761EB7CE0FB
:10501000C8010E947727CE15DF0591F7C801DF91FF
:10502000CF911F910F91FF90EF900C94D0268F920B
:105030009F92AF92BF92CF92DF92EF92FF920F9327
:105040001F93CF93DF935C017A016901EB0111E0BB
:105050000BE082E3982E90E3892E0E94001D1093AE
:1050600078152CE04FE760E080E00E9442202FE3BB
:105070004FE760E080E00E94662010927815109360
:105080008F1500939015B50184E595E10E9477276F
:10509000109378152EE04DE264E288E20E946620CB
:1050A00090928F15809290154AE050E0BE0184E501
:1050B00095E10E9427270E946E1A8111D0CF0E948D
:1050C0000B090E94C90A882341F00E947C25219681
:1050D000CC16DD0614F6E701C0CF0E94BA0A882379
:1050E00049F00E947C252197CE15DF050CF0B5CF45
:1050F000E601B3CF0E94AA0A882309F30E947C2507
:10510000CE01DF91CF911F910F91FF90EF90DF9033
:10511000CF90BF90AF909F908F900895AF92BF9225
:10512000CF92DF92EF92FF920F931F93CF93DF9373
:10513000CDB7DEB7A0970FB6F894DEBF0FBECDBFD8
:105140007C0111E00BE08AE0D82E9FE2C92E0E947C
:10515000001D109378152CE04FE760E080E00E947E
:1051600042202FE34FE760E080E00E94662010922B
:10517000781510938F1500939015B70184E595E18C
:105180000E94772710937815D0928F15C0929015B2
:105190006DED72E084E595E10E9477270E946E1A1A
:1051A0008111D7CFA090C00FB090C10F89E20E94AB
:1051B000F707892B39F46AEF70E080E090E00E94F5
:1051C000CC08C5CFBE016F5F7F4FC5010E94412350
:1051D0008981882359F38F3F09F4B9CFA0960FB680
:1051E000F894DEBF0FBECDBFDF91CF911F910F911D
:1051F000FF90EF90DF90CF90BF90AF9008955F92B7
:105200006F927F928F929F92AF92BF92CF92DF92D6
:10521000EF92FF920F931F93CF93DF93CDB7DEB73B
:1052200069970FB6F894DEBF0FBECDBF7C016B014E
:105230005C0181E0A81AB108B7FE04C0570182E002
:10524000A80EB11CB594A794B594A794C70164E0C7
:1052500070E00E94FC688C01892B11F404E010E0DE
:105260000E94001DAA0CBB1CAA0CBB1C8CE0089F52
:10527000002D11240F5F772473949BE0692E26E0A4
:10528000522E709278152CE040E860E080E00E9499
:10529000422020E440E860E080E00E946620109216
:1052A000781570928F1560929015AE014F5F5F4F29
:1052B000B60190E080E00E946621BE016F5F7F4FE3
:1052C00084E595E10E9477277092781545018FEF6C
:1052D000881A980A18E1AE014F5F5F4FB601C4010A
:1052E0000E94662150928F1510939015BE016F5F3A
:1052F0007F4F84E595E10E9477278FEF881A980AFF
:10530000145F183441F7E114F10431F02CE044E06B
:10531000602F81E00E9442200E946E1A8111B1CF5D
:1053200069960FB6F894DEBF0FBECDBFDF91CF9167
:105330001F910F91FF90EF90DF90CF90BF90AF90B3
:105340009F908F907F906F905F9008950F931F9321
:10535000CF93DF93EC018A010E94772761EB7CE019
:10536000CE010E947727B8018091C00F9091C10FA4
:105370000E94A1228C014AE050E0BC0197FF0AC0C4
:1053800068E576E0CE010E947727B80160957095B8
:105390004AE050E0CE010E942727CE01DF91CF9155
:1053A0001F910F910C94D026EF92FF921F93CF93F1
:1053B000DF93EC017A010E94772761EB7CE0CE015C
:1053C0000E94772710E0F701E10FF11D608166234D
:1053D00061F040E150E0CE010E94202761EB7CE0CB
:1053E000CE010E9477271F5FEECFCE01DF91CF91D4
:1053F0001F91FF90EF900C94D0260F931F93CF93A3
:10540000DF93EC018A010E94772761EB7CE0CE01FB
:105410000E947727B801CE010E947727CE01DF9145
:10542000CF911F910F910C94D0260F931F93CF9380
:10543000DF93EC018A010E94772761EB7CE0CE01CB
:105440000E9477274AE050E0B801CE010E9427274A
:10545000CE01DF91CF911F910F910C94D026DF9256
:10546000EF92FF920F931F93CF93DF938C01FC0178
:1054700001900020E9F731979F01281B390B48EF75
:105480004203E001439FD00D1124C058DF4FD69551
:10549000C7950E94001DFF24F39493E2E92EDC2EB1
:1054A000D394F09278152FE34FE760E080E00E94FC
:1054B000662029E14CE664E18AE00E9442201092D5
:1054C0007815C0938F15E0929015B80184E595E1A9
:1054D0000E947727D0928F15E0929015B80184E54D
:1054E00095E10E947727F09278150E946E1A81113B
:1054F000D8CF6AEF70E080E090E0DF91CF911F910C
:105500000F91FF90EF90DF900C94CC080E942F2A0F
:105510000C9445218F929F92AF92BF92CF92DF92CF
:10552000EF92FF920F931F93CF93DF9300D01F92C0
:10553000CDB7DEB7FC018581813091F080E00F901E
:105540000F900F900F90DF91CF911F910F91FF90CF
:10555000EF90DF90CF90BF90AF909F908F90089585
:10556000848181FFEBCF83899489A589B689892BB2
:105570008A2B8B2B09F45FC07F0140E050E0BA0119
:10558000CF010E949C148823C9F2F701C38CD48CEC
:105590008788908CA18CB28C82E090E0A0E0B0E093
:1055A000F60180839183A283B3839E012F5F3F4FD7
:1055B000B501A401C6010E945C13882309F4BECF83
:1055C00000E010E09801B501A401C6010E94BA12E2
:1055D000882309F4B3CF89809A80AB80BC80F60120
:1055E0008789803119F188EF9FEFAFEFBFE0881610
:1055F0009906AA06BB06C8F2F701178A108E118E0B
:10560000128E138A148A158A168A8481806884838C
:1056100061E0C7010E948817882309F48FCF40E01A
:1056200050E0BA01C7010E949C1489CF88EF9FEF18
:10563000A0E0B0E0DCCF81E082CFCF92DF92EF92AA
:10564000FF921F93CF93DF93EC0180E2689FF001FC
:105650001124E457FF4E9385917161F0842F827479
:1056600049F080E0DF91CF911F91FF90EF90DF90A4
:10567000CF900895142F6A8B80913002909131025F
:10568000A0913202B09133028E879F87A88BB98B8D
:10569000C488D588F12CE12C7601DD24CC24CF8A76
:1056A000D88EE98EFA8E828D938DB0E0A0E0AC01A9
:1056B000BD014C295D296E297F294F8B588F698F39
:1056C0007A8F83858871B1F4848D958DA68DB78D81
:1056D0008B8B9C8BAD8BBE8B81E08D831F701C836D
:1056E0001E821F82188619861A861B861C861D86B6
:1056F00081E0B8CF803109F0B4CF9E012D5E3F4FDD
:105700008B8D9C8D0E94DD13882309F4AACF84E041
:10571000E4CFBF92CF92DF92EF92FF920F931F934D
:10572000CF93DF931F921F92CDB7DEB78C01B62EB9
:105730007A016901DC018D919C911197892B09F007
:1057400041C014968D919C91159712962C9131E041
:105750003093D8122093FA121092D9121092FB12A1
:10576000DC01ED91FC910190F081E02D199580E034
:105770000E94150C6C2DF80182810E94050D10927B
:10578000530F8093520FD12CD80114968D919C9178
:10579000DC01ED91FC910084F185E02D1995892BB8
:1057A00009F448C0F80184819581DC01ED91FC91F8
:1057B0000284F385E02D1995F701ED0DF11D80832D
:1057C000D394E2CFF8014085518562857385CE017F
:1057D00001960E94052689819A810E948D0E60E0C3
:1057E000D80113968C910E942008F80185858B2999
:1057F0000E94680ED7018C918EBDF701C6010197FA
:1058000041F031810DB407FEFDCF2EB53EBD219391
:10581000F6CFB1E0CB1AD108EC0CFD1C0DB407FE9D
:10582000FDCF8EB5F701808361E0D80113968C918E
:105830000E9420080F900F90DF91CF911F910F9140
:10584000FF90EF90DF90CF90BF9008950F931F933C
:10585000CF93DF9300D000D0CDB7DEB719821A8284
:105860001B821C821D821E8226E030E0AE014F5F4B
:105870005F4F67EF0E94892B698170E090E080E0C4
:105880002CE0660F771F881F991F2A95D1F70A8190
:1058900010E030E020E044E0000F111F221F331F12
:1058A0004A95D1F7602B712B822B932B0B8110E043
:1058B00030E020E054E035952795179507955A95E7
:1058C000D1F7602B712B822B932B26960FB6F89471
:1058D000DEBF0FBECDBFDF91CF911F910F91089515
:1058E0006F927F928F929F92AF92BF92CF92DF92F0
:1058F000EF92FF920F931F93CF93DF9300D0CDB71A
:10590000DEB73C018B015A014B0186E0880E911CE9
:1059100089EEC82E82E0D82EFE0131967F01F50176
:1059200081915F011F928F93DF92CF92FF92EF924E
:105930000E94936AA701B801C3010E949C200E5FD8
:105940001F4F0F900F900F900F900F900F90081512
:10595000190529F70F900F900F90DF91CF911F91AC
:105960000F91FF90EF90DF90CF90BF90AF909F90FE
:105970008F907F906F900895AF92BF92CF92DF92F9
:10598000EF92FF920F931F93CF93DF93FC01F12CC3
:10599000E12CA191B191AB2BD9F5C22ED42E5B0194
:1059A0008C0186E090E00E942C69EC01C8014296CF
:1059B0009983888383E090E00E942C69FC019283A4
:1059C000818310829D838C83B5010E94AF204D2D71
:1059D0004F774A836C2D6F776B83CC2031F0E88151
:1059E000F98140E080810E94D420EE0CFF1C0E0D56
:1059F0001F1DF801D183C083CE01DF91CF911F918C
:105A00000F91FF90EF90DF90CF90BF90AF900895EF
:105A10003FEFE31AF30A35E0E316F10409F0B9CFDA
:105A2000D0E0C0E0E9CF7F928F929F92AF92BF9279
:105A3000CF92DF92EF92FF920F931F93CF93DF935A
:105A4000FC01E956FF4FB12CA12CA191B191AB2BD8
:105A500009F043C04901752EF42E162F6C0186E122
:105A600090E00E942C69EC01188689E0ECE4F2E0F9
:105A7000DE011D9601900D928A95E1F71C87EF2DAE
:105A8000F72DDE011D96CF01099621912D93E81780
:105A9000F907D9F785E089831B821A821B8681E08A
:105AA00088839A8689860E83EF82F501EE0FFF1FA9
:105AB000EC0DFD1DE956FF4FD183C083CE01DF9170
:105AC000CF911F910F91FF90EF90DF90CF90BF90FB
:105AD000AF909F908F907F9008957FEFA71AB70A9D
