:020000040000FA
:100000000C94DA050C940B060C940B060C940B065E
:100010000C940B060C940B060C940B060C940B061C
:100020000C940B060C940B060C940B060C940B060C
:100030000C940B060C940B060C940B060C940B06FC
:100040000C940B060C9457530C940B060C940B0653
:100050000C940B060C940B060C940B060C94ED51AF
:100060000C940B060C94C3510C9499510C940B06F0
:100070000C940B060C940B060C940B060C940B06BC
:100080000C940B060C940B060C940B060C940B06AC
:100090000C946F510C9445510C940B060C943752F0
:1000A0000C940B060C940B060C940B060C940B068C
:1000B0000C940B060C940B060C940B060C940B067C
:1000C0000C940B060C940B060C940B060C940B066C
:1000D0000C940B060C940B060C941B510C94F150D1
:1000E0000C940B060C94B7060C946E1C0C946217BF
:1000F0000C94EC190C9445170C9400080C94CF0741
:100100000C940A080C94D0170C9451310C94FC07F1
:100110000C949F160C9405080C9499140C94E40705
:100120000C940D060C9415170C94211C0C94DA07F2
:100130000C9495200C94191C0C94E0070C94351C1D
:100140000C94881F0C9411070C947F530C946B1C17
:100150000C94A2170C94881C0C94C5070C94AC1733
:100160000C94C5060C947E310C94F2070C94EE07A7
:100170000C940E060C9494060C94EA070C949620AA
:100180000C94F8070C94E51B0C94A3060C943517FB
:100190000C945E070C944E060C94CB070C94D70776
:1001A0000C94D3070C9406080C94301C0C940C1778
:1001B0000C94C91B01080D00FE09016102CD20FF4E
:1001C000FE0BFE09FE0D0080321989808080808040
:1001D000808000802843839090901367874848FC74
:1001E00048FC48481259892078A0A0702828F0209F
:1001F00012698944A4481010204854881267876007
:10020000909060948874381383808080323989207C
:10021000404080808040402022398980404020201A
:10022000204040801665854830FC304814558520B4
:1002300020F82020114383706080165181F821330B
:100240008340E04002798902020408102040808047
:100250001269893048848484848448301259892002
:1002600060A02020202020F8126989788484040866
:10027000304080FC126989FC04081038040484783A
:10028000126989081828488888FC0808126989FCBE
:100290008080B8C40404847812698938408080B8AA
:1002A000C4848478126989FC04081010202040401E
:1002B000126989788484847884848478126989783E
:1002C00084848C740404087021388840E040000065
:1002D00040E0401148882070200000706080225962
:1002E00089081020408040201008146484FC00001D
:1002F000FC12598980402010081020408012698922
:100300007884840408101000101269897884849C11
:10031000A4AC9480781269893048848484FC8484F5
:1003200084126989F0888488F0888488F012698949
:10033000788480808080808478126989F0888484C1
:1003400084848488F0126989FC808080F0808080B9
:10035000FC126989FC808080F0808080801269892D
:1003600078848080809C848C7412698984848484DD
:10037000FC84848484125989F820202020202020A5
:10038000F81279893E0808080808088870126989F7
:10039000848890A0C0A09088841269898080808021
:1003A00080808080FC0279898282C6AA92928282B1
:1003B000821269898484C4A4948C84848412698997
:1003C000788484848484848478126989F884848419
:1003D000F880808080116A8A788484848484A494DC
:1003E0007804126989F8848484F8A090888412695A
:1003F00089788480807804048478027989FE1010DA
:1004000010101010101012698984848484848484EC
:100410008478027989828244444428282810027909
:100420008982828282929292AA440279898282444B
:100430002810284482820279898282442810101070
:100440001010126989FC04081020408080FC2249A9
:1004500089F080808080808080F00279898080406F
:10046000201008040202124989F010101010101018
:1004700010F0185383205088017181FE3A22828047
:100480004012668678047C848C741269898080802E
:10049000B8C48484C4B81266867884808084781254
:1004A0006989040404748C84848C7412668678844C
:1004B000FC80847812698938444040F840404040CC
:1004C0001068887488887080788478126989808040
:1004D00080B8C4848484841258882000602020203E
:1004E00020F8105A8A08001808080808888870122E
:1004F00069898080808890E0908884125989602082
:10050000202020202020F8027686EC92929292827F
:10051000126686B8C484848484126686788484844F
:100520008478106888B8C484C4B8808080106888D3
:10053000748C848C74040404126686B84440404071
:10054000401266867884601884781268884040F883
:1005500040404044381266868888888888741256DD
:100560008688888850502002768682829292AA4499
:100570001266868448303048841068888484848C6D
:1005800074048478126686FC08102040FC22598985
:1005900038404020C0204040383219898080808017
:1005A0008080808080125989E0101020182010105F
:1005B000E018538348A890FFFFFFFFFFFFFFFFFFF6
:1005C000FFFFFFFFFFFFFFFFFFFFFFFFFFFFFFFF3B
:1005D000FFFFFFFFFFFFFFFF0D0080321989800042
:1005E000808080808080801358882070A8A0A0A878
:1005F00070200279891C22207020202062DC136682
:1006000086847848487884027989828244287C10DC
:100610007C10103219898080808000808080802248
:100620004A8A609080609090601090602A42829028
:1006300090037989384492AAA2AA92443814578721
:10064000700878887800F803778712244890482447
:1006500012136484FC040404264181F00379893870
:100660004492AAAAB2AA44381A6181FC2744846041
:100670009090601357872020F8202000F8164686B7
:100680006090106080F01646866090201090603A6E
:100690002282408011678784848484CCB48012696C
:1006A000897CE8E8E86828282828362181C030229B
:1006B0008240C016368640C0404040E01546866005
:1006C00090906000F00377879048241224489002AD
:1006D0007A8A40C0404042E60A121A06027A8A40EC
:1006E000C040404CF2020C101E027A8A609020102A
:1006F00092660A121A06126989200020204080841E
:100700008478126A8A20100030488484FC84841221
:100710006A8A10200030488484FC8484126A8A30FB
:10072000480030488484FC8484126A8A64980030CB
:10073000488484FC8484126A8A484800304884844F
:10074000FC8484126A8A30483030488484FC848473
:100750000279896E9090909CF090909E106B8B78AF
:1007600084808080808084781020126A8A20100023
:10077000FC8080F08080FC126A8A102000FC80805F
:10078000F08080FC126A8A304800FC8080F0808013
:10079000FC126A8A484800FC8080F08080FC125A73
:1007A0008A402000F82020202020F8125A8A1020A9
:1007B00000F82020202020F8125A8A304800F82023
:1007C00020202020F8125A8A888800F82020202033
:1007D00020F802798978444242E242424478027A1F
:1007E0008A64980082C2A2928A8682027A8A201043
:1007F000007C82828282827C027A8A0810007C825B
:10080000828282827C027A8A1824007C828282829E
:10081000827C027A8A6498007C82828282827C0254
:100820007A8A4444007C82828282827C1366868437
:100830004830304884116B8B04788C9494A4A4A421
:10084000C47880126A8A40200084848484848478F6
:10085000126A8A10200084848484848478126A8ACC
:1008600030480084848484848478126A8A484800EA
:1008700084848484848478125A8A10200088885062
:100880002020202012698980F8848484F880808068
:1008900012698970888890A0988484B81269892028
:1008A000100078047C848C74126989081000780424
:1008B0007C848C7412698930480078047C848C7440
:1008C00012698964980078047C848C741269894860
:1008D000480078047C848C74126A8A30483000782E
:1008E000047C848C740276866C127C90926C106806
:1008F000887884808084781020126989201000789C
:1009000084FC8084781269891020007884FC8084BB
:10091000781269893048007884FC8084781269896B
:100920004848007884FC808478125989402000600F
:1009300020202020F812598920400060202020200B
:10094000F81259896090006020202020F8125989FF
:100950009090006020202020F8126A8A48305008C9
:10096000788484848478126989649800B8C4848403
:100970008484126989402000788484848478126990
:100980008910200078848484847812698930480032
:100990007884848484781269896498007884848453
:1009A000847812698948480078848484847813574D
:1009B00087202000F800202011688804788C94A4F7
:1009C000C4788012698940200088888888887412D9
:1009D000698910200088888888887412698930485D
:1009E00000888888888874126989505000888888AF
:1009F000888874106B8B1020008484848C74048429
:100A000078106A8A8080B8C48484C4B88080106BEF
:100A10008B4848008484848C74048478FFD0FFE081
:100A2000FFCFFF64FFD1FF32380C060201FF64FFE5
:100A3000D0FFFE7C3C3E5E2B3D3F2F5B5D3B2C2A76
:100A4000225C0000002200250028002B002E00312F
:100A500000340002010000050108010B0100000A3A
:100A60000B02090C0D0E0807030401000000000032
:100A70000000000000000000000000000000000076
:100A80000000000000000000001211100000000033
:100A90000000000000000000000000000000000056
:100AA00000000043616E6765204472756D20202050
:100AB00020203E4261636B2E2E3E4368616E656C62
:100AC000202020202020202020203E4E6F746520F2
:100AD0002020202020202020202020202020202016
:100AE0003E56656C6F636974792020202020202099
:100AF0000000002100240027002A002D00300033D0
:100B00000001010000040107010A01010210202078
:100B10000808102040102040800201020108040251
:100B200001010204081020408080402010080402C7
:100B30000180040201804020100804020108040220
:100B40000101020408102040800102040810204026
:100B500080000020002300260029002C002F0032F6
:100B60000000010000030106010901050505050754
:100B70000508080808020202020A0A080804040418
:100B80000401010101010101010303030303030344
:100B900003040707070C0C0C0C0C0C0C0C020202D3
:100BA0000206060606060606060B0B0B0B0B0B0BC6
:100BB0000B007F5311241FBECFEFD1E2DEBFCDBFAC
:100BC00000E00CBF1EE0A0E0B2E0EAE0FFED00E0D4
:100BD0000BBF02C007900D92AA32B107D9F726E1E8
:100BE000AAE2BEE001C01D92A134B207E1F715E010
:100BF000CAEDD5E000E006C021970109802FFE0173
:100C00000E942A6BC93DD10780E00807A9F70E941E
:100C100068550C94836F0C940000089580E008954B
:100C20000F931F93CF93DF93EC019A01AB01E889F7
:100C3000F98982E08083EC85FD8510820E851F8511
:100C400060E079E08DE390E00E948A6921503109EB
:100C5000410951095695479537952795F801208305
:100C6000188EEC89FD8986E08083EA89FB89808182
:100C700080618083EA89FB89808188608083EA893A
:100C8000FB89808180688083EA89FB8980818F7DF0
:100C90008083DF91CF911F910F910895AF92BF9202
:100CA000CF92DF92EF92FF920F931F93CF93DF9338
:100CB0006C017B018B01040F151FEB015E01AE1867
:100CC000BF08C017D10759F06991D601ED91FC9189
:100CD0000190F081E02DC6011995892B79F7C501A6
:100CE000DF91CF911F910F91FF90EF90DF90CF9008
:100CF000BF90AF900895FC01A089B1898C91A6891D
:100D0000B78982FD0FC09C91818D8F5F8F73228D7B
:100D1000821749F0A18DAE0FBF2FB11D5D969C9338
:100D2000818F08958C910895FC01538D448D252F5A
:100D300030E0842F90E0821B930B541710F0CF9675
:100D4000089501970895FC01918D828D981761F0A7
:100D5000A28DAE0FBF2FB11D5D968C91928D9F5FBE
:100D60009F73928F90E008958FEF9FEF0895FC019D
:100D7000918D828D981731F0828DE80FF11D858D50
:100D800090E008958FEF9FEF0895FC01918D228DE3
:100D9000892F90E0805C9F4F821B91098F73992768
:100DA000089584E993E10E94C50621E0892B09F4A6
:100DB00020E0822F089581E394E10E94C50621E09E
:100DC000892B09F420E0822F08958EEC94E10E9493
:100DD000C50621E0892B09F420E0822F0895FC014B
:100DE000A48DA80FB92FB11DA35ABF4F2C91848D8C
:100DF00090E001968F739927848FA689B7892C93E9
:100E0000A089B1898C91837080648C93938D848D3B
:100E1000981306C00288F389E02D80818F7D80833E
:100E20000895EF92FF920F931F93CF93DF93EC01FE
:100E300081E0888F9B8D8C8D98131AC0E889F98981
:100E4000808185FF15C09FB7F894EE89FF89608384
:100E5000E889F98980818370806480839FBF81E005
:100E600090E0DF91CF911F910F91FF90EF90089547
:100E7000F62E0B8D10E00F5F1F4F0F731127E02E22
:100E80008C8D8E110CC00FB607FCFACFE889F9895A
:100E9000808185FFF5CFCE010E94EF06F1CFEB8D6B
:100EA000EC0FFD2FF11DE35AFF4FF0829FB7F8942E
:100EB0000B8FEA89FB8980818062CFCFCF93DF934C
:100EC000EC01888D8823B9F0AA89BB89E889F98962
:100ED0008C9185FD03C0808186FD0DC00FB607FC97
:100EE000F7CF8C9185FFF2CF808185FFEDCFCE01CA
:100EF0000E94EF06E9CFDF91CF91089580E090E066
:100F0000892B29F00E94E50681110E94000080E0F3
:100F100090E0892B29F00E94DB0681110E940000DD
:100F200080E090E0892B49F080E090E0892B29F067
:100F30000E94000081110E94000080E090E0892B57
:100F400029F00E94D10681110C940000089581506F
:100F5000823108F05AC0E82FF0E08827ED54F84FAE
:100F60008F4F0C942A6BD307D707C507CB07CF0742
:100F70000508DA07E007E407EA07EE07F207F807D3
:100F8000FC070508000806080A08809180008F7792
:100F9000809380000895809180008F7DF9CF8091AB
:100FA0008000877FF5CF84B58F7784BD089584B5A1
:100FB0008F7DFBCF8091B0008F778093B000089534
:100FC0008091B0008F7DF9CF809190008F778093D2
:100FD00090000895809190008F7DF9CF80919000CE
:100FE000877FF5CF8091A0008F778093A000089530
:100FF0008091A0008F7DF9CF8091A000877FF5CFF1
:10100000809120018F7780932001089580912001A5
:101010008F7DF9CF80912001877FF5CFCF93DF932C
:10102000282F30E0F901E35AF54F8491F901E55F8B
:10103000F44FD491F901E559F44FC491CC23A1F0B8
:1010400081110E94A707EC2FF0E0EE0FFF1FEF5A6F
:10105000F44FA591B491EC91ED2381E090E009F477
:1010600080E0DF91CF91089580E090E0FACF1F9368
:10107000CF93DF93282F30E0F901E35AF54F8491A5
:10108000F901E55FF44FD491F901E559F44FC491AA
:10109000CC23A9F0162F81110E94A707EC2FF0E0B6
:1010A000EE0FFF1FED5BF54FA591B4918FB7F8944C
:1010B000EC91111108C0D095DE23DC938FBFDF9136
:1010C000CF911F910895DE2BF8CFCF93DF9390E05F
:1010D000FC01E55FF44F24918559944FFC01849104
:1010E0008823C9F090E0880F991FFC01EF50F54F5D
:1010F000A591B491FC01ED5BF54FC591D4916111BF
:101100000DC09FB7F8948C91209582238C93888191
:10111000282328839FBFDF91CF910895623051F437
:101120009FB7F8943C91822F809583238C93E8811C
:101130002E2BEFCF8FB7F894EC912E2B2C938FBFE3
:10114000EACF863308F0865320917B00982F987061
:10115000277F922B90937B008770806480937C0024
:1011600080917A00806480937A0080917A0086FD75
:10117000FCCF809178009091790008953FB7F89462
:101180008091B2109091B310A091B410B091B510AD
:1011900026B5A89B05C02F3F19F00196A11DB11DD2
:1011A0003FBFBA2FA92F982F8827BC01CD01620F0E
:1011B000711D811D911D42E0660F771F881F991FC9
:1011C0004A95D1F708958F929F92AF92BF92CF9296
:1011D000DF92EF92FF926B017C010E94BE084B01EF
:1011E0005C01C114D104E104F104B9F00E94BE080D
:1011F000681979098A099B09683E73408105910540
:1012000080F321E0C21AD108E108F10888EE880EC7
:1012100083E0981EA11CB11CE4CFFF90EF90DF90FB
:10122000CF90BF90AF909F908F9008952FB7F89474
:101230006091AE107091AF108091B0109091B1108C
:101240002FBF0895CF92DF92EF92FF920F931F93DB
:10125000CF93DF930E941609AB01BC01E0911F16EA
:10126000F0903016E4FBFF27F0F9E4FF79C000911D
:101270002416109125162091261630912716E7FB8B
:10128000882780F9F11010C0809138169091391696
:10129000DC019C9180913A16982381E009F480E06A
:1012A000909120169170892780933116DB01CA0135
:1012B000801B910BA20BB30B8C019D01B0913116D9
:1012C00090911E1691FB882780F9BB2309F424C155
:1012D00081111AC00135110521053105A8F040938F
:1012E0002416509325166093261670932716997E20
:1012F0009261906890931E16809120168062809370
:10130000201600E010E098018091201690911E16A2
:1013100084FF12C00D32A1E01A072105310560F0EB
:1013200092FD05C083FDAFC082608093201680913E
:1013300020168F7E8093201691FF12C00D3B124025
:101340002105310568F092FD0BC0BB2309F49DC057
:10135000916090931E16809120168F7D80932016A9
:10136000FF2009F49FC0E6FB992790F9C92FA0E060
:10137000DA2FCC0FDD1FE5FB882780F98C2B20911D
:101380002216281709F472C0109223169091201685
:1013900096FFB8C0833009F0A1C09F7B90932016C0
:1013A000213009F497C091E0223009F494C0E3FDA4
:1013B00003C0833009F49DC020912316222309F431
:1013C00046C090911E16986090931E16233040F4EC
:1013D0009091201697FF04C093E0921B90932316E0
:1013E00090913116911122C0009128161091291662
:1013F00020912A1630912B166A017B01C01AD10A5E
:10140000E20AF30A0091211610E030E020E0C01655
:10141000D106E206F30650F420912316213009F09C
:1014200074C020911F16226020931F164093281627
:101430005093291660932A1670932B16FF2339F0C8
:10144000992329F0909123169E5F90932316809301
:10145000221680911E16846080931E1640932416D7
:10146000509325166093261670932716DF91CF911F
:101470001F910F91FF90EF90DF90CF900895809192
:10148000201688603CCF846050CF9D7F9E7F9093D4
:101490001E164093241650932516609326167093BB
:1014A00027165ECFA0913216B09133169C91809191
:1014B0003416982321E009F420E0A0913516B0916C
:1014C00036169C9180913716982382E009F480E0CB
:1014D000822B55CF92E09093231669CFE3FD4DC048
:1014E00081116ACF9F7B90932016213041F02230EA
:1014F00031F0909120169064909320165DCF209348
:101500002316F7CF8823A9F352CF223009F08ECFCC
:1015100020911F16216088CF882309F4F5CE01356C
:1015200011052105310508F4EFCE92FD05C090FDAF
:1015300003C0906290931E160D3B124021053105A9
:1015400028F080911E16806480931E1680911E16CE
:1015500040932416509325166093261670932716F1
:101560008D7F8E7F80931E168091201685FF87CFFA
:1015700084FD85CF8061877FC2CE882309F4B9CFEF
:1015800066CF80911F1682FD0E94220990911E163F
:1015900094FB882780F994FF03C09F7E90931E16CA
:1015A000089580911F1682FD0E94220980912316C2
:1015B000823021F41092231681E0089580E008958E
:1015C00080911F1682FD0E9422098091231681308E
:1015D00019F410922316089580E008952091631065
:1015E000260F3327331F21323105ECF42091871069
:1015F000FC0190E080E0243069F082E00895A09141
:1016000063102191AC014D5B5F4EA40FB52FB11D4E
:101610002C930196861798F380916310680F60935E
:10162000631080E0089581E0089508958FEF9FEFA3
:1016300008958FEF9FEF089580913C1090E0919571
:10164000819591090895CF93DF93CB01EA01642F2F
:101650000E94EE0ACE01DF91CF910895CF93DF93E0
:101660001F92CDB7DEB7698361E0CE0101960E947B
:10167000EE0A81E090E00F90DF91CF9108958FB74F
:10168000F894809136108FBF089561E0FC01848149
:101690000E943708809135108111109235100895FD
:1016A0008EBD00000DB407FEFDCF8EB508958FEFFF
:1016B0000C94500B0F931F93CF93DF93EC010E9478
:1016C00016098B010E94570B8F3F69F00E94160983
:1016D000601B710B6C177D07A8F380E0DF91CF9141
:1016E0001F910F91089581E0F9CF8CBD9DBD0895A4
:1016F000CF93DF93EC0180913510811109C081E017
:101700008093351080916B1590916C150E94750B2C
:1017100060E08C81DF91CF910C9437088F929F927B
:10172000AF92BF92FF920F931F93CF93DF93EC0181
:10173000F62E49015A018E81882389F08F81988580
:101740009C012F5F3F4F38872F838230924018F4DF
:101750000E94570BF3CFCE010E94450B1E82CE0193
:101760000E94780B8CE291E00E945A0B8F2D8064CE
:101770000E94500B08E110E0D501C401002E04C006
:10178000B695A795979587950A94D2F70E94500B26
:1017900008501109083F8FEF180771F785E9FF20FE
:1017A00021F028E087E8F2128FEF0E94500B10E042
:1017B0000E94570B8A8787FF04C01F3F11F01F5FED
:1017C000F7CFDF91CF911F910F91FF90BF90AF9016
:1017D0009F908F9008958F929F92AF92BF92EF92B9
:1017E000FF920F931F93CF93DF93EC01E62E1B869E
:1017F00019861E821D8285E38C830E9416098B0147
:1018000061E08C810E94650861E08C810E9437084C
:10181000FFB6F89480919111811127C0E0EAFBE0B6
:101820008491E0E4FBE09491E82FF0E0EE0FFF1FDD
:10183000EF50F54FA591B491EC91E92321F461E0CB
:1018400085E30E94370861E085E30E9465088CB556
:1018500080618CBD8CB580648CBD61E084E30E94A6
:10186000650861E083E30E946508809191118F5FB4
:1018700080939111FFBE82E580936B1510926C15D9
:1018800080916B1590916C150E94750B2AE0F22ED9
:101890008FEF0E94500BFA94F110FACFCE010E9404
:1018A000780B20E030E0A90160E0CE010E948E0BB1
:1018B000F82E8A8781E0F816C9F00E941609601B8D
:1018C000710B613D774068F381E08D83CE010E940A
:1018D000450BF12C8F2DDF91CF911F910F91FF9030
:1018E000EF90BF90AF909F908F9008952AEA31E0DB
:1018F00040E050E068E0CE010E948E0B82FF25C0E0
:10190000FB868B85812C912C5401823029F4812C0B
:10191000912CA12C80E4B82E20E030E0A90167E3EF
:10192000CE010E948E0BA501940169E2CE010E94B6
:101930008E0B8A878823C1F00E941609601B710BE9
:10194000613D774048F388E0C0CF94E0B92E0E9413
:10195000570B8A87BA94B110FACF8A3A11F082E015
:10196000B4CF82E08B87CDCF8B858230C1F420E06D
:1019700030E0A9016AE3CE010E948E0B882311F0AA
:1019800086E0A3CF0E94570B807C803C11F483E05B
:101990008B870E94570B0E94570B0E94570BCE015A
:1019A0000E94450B82E0E81631F080E580936B15CC
:1019B00010926C158FCF81E580936B1581E0809339
:1019C0006C1588CFAF92BF92CF92DF92EF92FF92C9
:1019D0000F931F93CF93DF93EC016901C801820F2E
:1019E000931F8130924050F58E81882379F0888151
:1019F0009981AA81BB8184179507A607B70731F49F
:101A00008F819885C816D90608F042C0488359834B
:101A10006A837B838B85833039F089E0440F551FBF
:101A2000661F771F8A95D1F79A01AB0161E1CE015C
:101A30000E948E0B882389F083E08D83CE010E9463
:101A4000450B80E0DF91CF911F910F91FF90EF90B8
:101A5000DF90CF90BF90AF9008950E9416095B0170
:101A60000E94570B8A878F3F69F40E9416096A19F2
:101A70007B096D327140A0F38FE08D83CE010E940F
:101A8000450BDCCF8E3F89F418861F8281E08E8360
:101A90008F8198858C159D0550F40E94570B8F817E
:101AA0009885019698878F83F3CF8DE0E6CF670105
:101AB000E00EF11E0E94570BF60181936F01EE15A7
:101AC000FF05C1F78F819885080F191F18870F83AD
:101AD0008985882319F001151240A0F08E81882392
:101AE00089F08F8198859C012F5F3F4F38872F8326
:101AF0008230924018F40E94570BF3CFCE010E941F
:101B0000450B1E8281E09ECFCF92DF92EF92FF9233
:101B10000F93CF93DF93EC01690182E141155105E9
:101B20006105710599F08B85833039F089E0440FA8
:101B3000551F661F771F8A95D1F79A01AB0168E19F
:101B4000CE010E948E0B882319F084E08D832DC076
:101B50008EEF0E94500B76018EEFD81AF70181911B
:101B60007F010E94500BEC14FD04C1F78FEF0E941F
:101B7000500B8FEF0E94500B0E94570B8A878F717A
:101B8000853071F4011116C0CE010E94450B81E031
:101B9000DF91CF910F91FF90EF90DF90CF9008955C
:101BA00081E18D83CE010E94450BCE010E94450B41
:101BB00080E0EECF88E592E00E945A0B811102C0CE
:101BC00085E1C4CF20E030E0A9016DE0CE010E94A4
:101BD0008E0B882311F084E1B9CF0E94570B81113D
:101BE000FACFD2CF0F9340913810509139106091B5
:101BF0003A1070913B10411551056105710599F03E
:101C0000082F24E931E180919211909193110E9463
:101C1000840D882349F010923810109239101092D8
:101C20003A1010923B1081E00F9108950F93CF93DB
:101C3000C82F80913710811105C0C1E08C2FCF9142
:101C40000F910895409138025091390260913A0203
:101C500070913B020C2F24E931E180919211909117
:101C600093110E94840D811102C0C0E0E7CFCC2304
:101C700021F381E00E94F20D8823B9F3109237100E
:101C8000DDCF8F929F92AF92BF92EF92FF920F9310
:101C90001F93CF934B015C01C42F80913802909128
:101CA0003902A0913A02B0913B0288159905AA0524
:101CB000BB0551F181E00E94160E81110BC080E03E
:101CC000CF911F910F91FF90EF90BF90AF909F9099
:101CD0008F90089584E9E82E81E1F82E00E012E06B
:101CE00030E020E0B501A401809192119091931110
:101CF0000E94E20C882319F38092380290923902F4
:101D0000A0923A02B0923B02409137104C2B409384
:101D1000371081E0D5CFCF93DF93EC016E857F85BF
:101D20008889998941E00E94410E882351F08A896F
:101D300020E2829FC00111248C569E4EDF91CF91EC
:101D4000089590E080E0FACF8F929F92AF92BF9279
:101D5000CF92DF92EF92FF92CF932DE635E1309351
:101D6000931120939211882309F46DC040E060E044
:101D700070E0CB010E94410E81110BC080E0CF9139
:101D8000FF90EF90DF90CF90BF90AF909F908F909B
:101D90000895809152138F7789F780915E13909107
:101DA0005F13A0916013B091611384369105A10572
:101DB000B10520F3C0905A13D0905B13E0905C13F0
:101DC000F0905D13C114D104E104F104B9F240E0D4
:101DD000C701B6010E94410E882381F280919F11B4
:101DE0009091A0118115924049F6A091A411AA23C7
:101DF00029F26091A2117091A3116115710509F486
:101E0000BDCF2091A111222309F4B8CFA0938B1547
:101E100020937D1590E080E030E0E1E0F0E0C82F15
:101E2000AF01082E02C0440F551F0A94E2F7241791
:101E3000350769F041E0480F01968930910579F73F
:101E4000409386159BCFC12CD12C7601C0CF8093B7
:101E500086152091AA113091AB1150E040E0211578
:101E6000310541F42091B8113091B9114091BA1166
:101E70005091BB1120937E1530937F1540938015B0
:101E80005093811546015701860E971EA11CB11C67
:101E900080928C1590928D15A0928E15B0928F1510
:101EA000E091A511F091A611F0939215E093911590
:101EB000B0E00E94CB69DC01CB01880D991DAA1D01
:101EC000BB1D8093931590939415A0939515B09393
:101ED000961525E0EE0FFF1F2A95E1F7E150FE4F22
:101EE000EF2FFF27E6958E0F9F1FA11DB11D809339
:101EF000871590938815A0938915B0938A158090C3
:101F0000A7119090A811B12CA12C8114910441F437
:101F10008090B4119090B511A090B611B090B71107
:101F2000C81AD90AEA0AFB0AC80CD91CEA1CFB1C0D
:101F300004C0F694E794D794C794CA95D2F7C09298
:101F40008215D0928315E0928415F092851585EF65
:101F5000C8168FE0D806E104F10428F48CE08093E1
:101F6000901581E00CCF80E125EFC2162FEFD2064D
:101F7000E104F104A0F38091C0119091C111A091EE
:101F8000C211B091C3118093931590939415A093AF
:101F90009515B093961580E2E2CF81E00E94A40EE1
:101FA000811102C00C94A40E81E008954F925F92BB
:101FB0006F927F928F929F92AF92BF92CF92DF9259
:101FC000EF92FF920F931F93CF93DF93EC01423078
:101FD00051056105710590F480E0DF91CF911F916B
:101FE0000F91FF90EF90DF90CF90BF90AF909F90B8
:101FF0008F907F906F905F904F90089589859A851C
:10200000AB85BC850196A11DB11D84179507A60758
:10201000B70710F3CB88DC88ED88FE888F89803184
:1020200009F042C0BB27A72F962F852F48015901E1
:102030002A013B01C80ED91EEA1EFB1E8091380200
:1020400090913902A0913A02B0913B02C816D9068C
:10205000EA06FB0699F58F898031C1F5B301A2012B
:10206000552766277727440F551F4C565E4EFA01B9
:1020700091828082809137108160809337108A89A5
:10208000823080F08D819E81AF81B8858C0D9D1D41
:10209000AE1DBF1D8093381090933910A0933A1055
:1020A000B0933B1081E099CFDB01CA01E7E0B69520
:1020B000A79597958795EA95D1F7B8CF40E0C701E6
:1020C000B6010E94410E8111C6CF86CFB301A20195
:1020D0004F77552766277727440F551F440F551F05
:1020E0004C565E4EFA0180829182A282B382C2CFA8
:1020F0008F929F92AF92BF92CF92DF92EF92FF9218
:102100000F931F93CF93DF93FC0181859285A38565
:10211000B4850196A11DB11D84179507A607B707C1
:1021200070F480E0DF91CF911F910F91FF90EF90BD
:10213000DF90CF90BF90AF909F908F90089583884D
:102140009488A588B6888789803189F5BB27A72F11
:10215000962F852FE9016A017B018F01BC01CD011A
:10216000680D791D8A1D9B1D809038029090390260
:10217000A0903A02B0903B0286169706A806B906D0
:1021800001F5F8018789803111F5DD24EE24FF2463
:10219000F601EE0FFF1FEC56FE4E80819181B0E0FC
:1021A000A0E088839983AA83BB8381E0BBCFDB0156
:1021B000CA01C7E0B695A79597958795CA95D1F7B7
:1021C000C9CF40E00E94410E8111DBCFAACFE89435
:1021D000C7F8DD24EE24FF24F601EE0FFF1FEE0FFB
:1021E000FF1FEC56FE4E80819181A281B381BF70AA
:1021F000D8CF4F925F926F927F92AF92BF92CF9261
:10220000DF92EF92FF920F931F93CF93DF9300D053
:102210001F92CDB7DEB78C0149835A836B837C83D1
:102220005901C12CD12C7601412C82E0582E612C11
:10223000712C49815A816B817C819E012F5F3F4FB8
:10224000C8010E947810882339F1F8018585A3011F
:10225000920104C0220F331F441F551F8A95D2F7E5
:10226000DA01C901C80ED91EEA1EFB1E49815A8136
:102270006B817C818789803111F188EF9FEFAFEF0F
:10228000BFE0481759076A077B0798F2F501C0823B
:10229000D182E282F38281E00F900F900F900F9035
:1022A000DF91CF911F910F91FF90EF90DF90CF9032
:1022B000BF90AF907F906F905F904F90089588EFA0
:1022C0009FEFA0E0B0E0DDCFCF93DF93FC0125814D
:1022D000222321F080E0DF91CF910895EC018091DD
:1022E0009015803159F582E08583178A108E118E02
:1022F000128E8091911590919215B0E0A0E025E0AA
:10230000880F991FAA1FBB1F2A95D1F7838B948B27
:10231000A58BB68B89E795E19C8F8B8F81E08C83B1
:102320001E821F82188619861A861B861C861D86A9
:102330001E861F86188A198A1A8ACDCF803251F6D6
:1023400083E0858340919315509194156091951584
:1023500070919615478B508F618F728F9F012D5E04
:102360003F4F89E795E10E94F9108111D3CFB2CF99
:102370008F929F92AF92BF92CF92DF92EF92FF9295
:102380000F931F93CF93DF93EC018D8181110EC0CA
:1023900080E0DF91CF911F910F91FF90EF90DF9040
:1023A000CF90BF90AF909F908F9008950B891C891C
:1023B0002D893E89041715072607370748F34A0178
:1023C0005B01823031F48A869B86AC86BD8681E0D3
:1023D000E0CF81149104A104B10449F41E821F824C
:1023E000188619861A861B861C861D86F0CF0A85DC
:1023F0001B852C853D85EB8DFC8D858590E00996B0
:10240000B901A8014150510961097109082E04C0A0
:1024100076956795579547950A94D2F775016401AB
:10242000E1E0CE1AD108E108F10804C0F694E7947F
:10243000D794C7948A95D2F7C416D506E606F70650
:1024400020F0012B022B032B11F58F89988DA98D7C
:10245000BA8D8E839F83A887B9878E010A5F1F4F2D
:10246000C114D104E104F10409F4ADCF4E815F81C0
:102470006885798598018B8D9C8D0E94781091E0FC
:10248000C91AD108E108F1088111EACF81CFC41A35
:10249000D50AE60AF70AE1CF3F924F925F926F9218
:1024A0007F928F929F92AF92BF92CF92DF92EF92E4
:1024B000FF920F931F93CF93DF93CDB7DEB72C9787
:1024C0000FB6F894DEBF0FBECDBF5C01DC015B969A
:1024D0008D909C905C9716964D905D906D907C9041
:1024E0001997411451046104710409F468C0BFEFE5
:1024F0004B1A5B0A6B0A7B0A312CF40181859285A9
:10250000A385B4859C01AD012F5F3F4F4F4F5F4FB7
:1025100029873A874B875C87730162011D821E827F
:102520001F821886F40181859285A385B4852D814B
:102530003E814F815885281739074A075B0708F005
:1025400056C089859A85AB85BC858C159D05AE05E1
:10255000BF0550F482E0C82ED12CE12CF12C92E082
:10256000492E512C612C712C9E012F5F3F4FB701DA
:10257000A601C4010E9478108823C9F189819A813B
:10258000AB81BC81892B8A2B8B2B09F1260137016A
:102590009FEF491A590A690A790A2D813E814F81B4
:1025A00058852F5F3F4F4F4F5F4F2D833E834F83A3
:1025B00058873FEFC31AD30AE30AF30AB3CFF401F3
:1025C00040805180628073803324339496CFC4144A
:1025D000D504E604F70409F70FEF1FEF2FEF3FE0F4
:1025E000B701A601C4010E94D60F811119C080E075
:1025F0002C960FB6F894DEBF0FBECDBFDF91CF9102
:102600001F910F91FF90EF90DF90CF90BF90AF9010
:102610009F908F907F906F905F904F903F90089524
:10262000D50116964D915D916D917C91199741154B
:1026300051056105710539F097018601C4010E94B9
:10264000D60F8823A1F2D5011696CD92DD92ED9298
:10265000FC921997332051F0D701C6010196A11DB4
:10266000B11DF40180839183A283B383F50187892F
:10267000908DA18DB28D892B8A2B8B2B39F484817F
:10268000C78AD08EE18EF28E80688483F5018481C2
:102690008062848381E0ACCF2F923F924F925F9211
:1026A0006F927F928F929F92AF92BF92CF92DF9262
:1026B000EF92FF920F931F93CF93DF93EC015B0197
:1026C0002A018D81811115C08FEF9FEFDF91CF918E
:1026D0001F910F91FF90EF90DF90CF90BF90AF9040
:1026E0009F908F907F906F905F904F903F902F9032
:1026F00008958C8180FFE8CF0B891C892D893E8944
:102700004A855B856C857D85C201B0E0A0E06801EB
:102710007901C41AD50AE60AF70AC816D906EA06E4
:10272000FB0618F42801441A550A42011E0126E04E
:10273000220E311C8114910409F4B3C04A855B85D3
:102740006C857D856A0181E0D8228B8D9C8D8A0104
:102750009B01E9E03695279517950795EA95D1F7FE
:10276000ED81E230E1F5FC01628D738D848D958DF4
:10277000600F711F821F931F612C22E0722E6C1854
:102780007D088614970408F434012C8126FD04C0CA
:102790006114F2E07F0671F4009138021091390261
:1027A00020913A0230913B02061717072807390794
:1027B00009F053C040E00E94410E882309F484CF01
:1027C000C6018C569E4ED5019C01260D371DFC017D
:1027D0002E173F0709F460C041914D93F9CFFC01DA
:1027E00074807A947022C114D10471F471100CC0F9
:1027F000452B462B472B39F58F89988DA98DBA8D9E
:102800008E839F83A887B987EB8DFC8D6E817F8136
:10281000888599856250710981099109258504C0CF
:10282000660F771F881F991F2A95D2F7068517858F
:1028300020893189600F711F821F931F670D711DE1
:10284000811D911D99CF4E815F81688579859101A8
:102850000E9478108111D8CF37CF7501830196017E
:10286000AB01BC0180919211909193110E94E20CF6
:10287000882309F429CFA60CB71C8A859B85AC85D3
:10288000BD85860D971DA11DB11D8A879B87AC87CD
:10289000BD87861897084ECF281B390BA20EB31E92
:1028A000ECCFC20113CFFC01818D928D009721F0F6
:1028B00044E150E00C944C1390E080E008951F93A5
:1028C000CF93DF93FC012581222371F1162FEC01B8
:1028D000848187FF1EC0CF010E948B0EFC01892BD3
:1028E00019F18D81823040F48B899C89AD89BE8934
:1028F000848F958FA68FB78F8F89988D938F828FB6
:102900008F89988DA98DBA8DB58BA48B8C818F778B
:102910008C83111103C08C818F7E8C83812FDF917A
:10292000CF911F910C94160E80E0DF91CF911F91F3
:102930000895FF920F931F93CF93DF93EC018D8146
:10294000813041F090E080E0DF91CF911F910F91B5
:10295000FF9008958C8181FFF5CF82FD1BC000910F
:10296000921110919311C8010E94780B0E94570B8D
:10297000F82EC8010E94450B8FEFF812E3CF8C812F
:1029800085FF1BC060E0CE010E945F148C818F7DAB
:102990008C83D8CF4B895C896D897E898A859B859C
:1029A000AC85BD8584179507A607B707C1F2CE0190
:1029B0000E94B8118111D3CFC5CF409138105091EA
:1029C000391060913A1070913B10452B462B472BE4
:1029D00021F080E00E94F20DB5CF80618C832A85C2
:1029E0003B85317080E092E0821B930BADCFCF939B
:1029F000DF93EC0161E00E945F14882311F01D82D7
:102A000081E0DF91CF9108952F923F924F925F9294
:102A10006F927F928F929F92AF92BF92CF92DF92EE
:102A2000EF92FF920F931F93CF93DF9300D01F92EB
:102A30001F92CDB7DEB77C015B01342E5D83DC01D4
:102A400015968C911597813009F0CEC014962C9074
:102A500021FECAC022FCB4C0C32CDD8022947FE0DA
:102A600027222094B22DB1702B2ED7011A964D91AA
:102A70005D916D917C911D97C114D10409F428C119
:102A80005B968D919C915C97FC0174807A948A018D
:102A90009B0169E036952795179507956A95D1F7BB
:102AA00070228A011170711020C001151105E9F41E
:102AB00016964D915D916D917C9119974115510537
:102AC0006105710509F099C057968D919D910D9002
:102AD000BC91A02D0097A105B10509F0B0C0C701B8
:102AE0000E944C12882309F47FC080E092E0801B92
:102AF000910B46018C159D0508F44C01D7015B969E
:102B00004D915C915C9716968D919D910D90BC9125
:102B1000A02D0297A109B109FA01258504C0880FEB
:102B2000991FAA1FBB1F2A95D2F746855785608932
:102B30007189840F951FA61FB71F9C01AD01270D3A
:102B4000311D411D511D29013A01811432E09306C6
:102B500009F07BC08091380290913902A0913A022D
:102B6000B0913B0284159505A605B70559F48FEF82
:102B70009FEFDC018093380290933902A0933A02D0
:102B8000B0933B02022D9501B301A20180919211F5
:102B9000909193110E94840D882331F19EEFB91A10
:102BA000C818D908F70182859385A485B585880D55
:102BB000991DA11DB11D82879387A487B58755CF25
:102BC000F701438954896589768982859385A4852F
:102BD000B585481759076A077B0709F43DCFC70138
:102BE0000E94B811811138CF81E090E0D70113968F
:102BF0009C938E93129780E007C09E012F5F3F4FFA
:102C00000E947810811102C090E079C089819A8178
:102C1000AB81BC81F701238D348DF901278948EF01
:102C20005FEF60E070E0203121F048EF5FEF6FEF81
:102C30007FE084179507A607B70708F050CFF70184
:102C400086839783A087B18750CF0115110599F529
:102C5000D7011A964D915D916D917C911D97539678
:102C60008D919D910D90BC91A02D481759076A0731
:102C70007B0708F181E00E94160E882309F4B4CF87
:102C8000409238025092390260923A0270923B02AE
:102C900080913710816080933710C8018C569E4E0A
:102CA000D5019C01280D391DFC012E173F0759F055
:102CB0004D914193FACF41E0C301B2010E94410E10
:102CC0008111EBCF91CF281B390BA20EB31E68CF19
:102CD000F70183899489A589B68984179507A60782
:102CE000B70738F48481438B548B658B768B80686F
:102CF0008483F701848183FD1AC0832D9D810F9009
:102D00000F900F900F900F90DF91CF911F910F9127
:102D1000FF90EF90DF90CF90BF90AF909F908F90FB
:102D20007F906F905F904F903F902F90089561E05B
:102D3000C7010E945F14882309F456CFDECFCF93DA
:102D4000DF931F92CDB7DEB7698341E050E0BE014B
:102D50006F5F7F4F0E9404150F90DF91CF91089510
:102D6000FC01DB0112968D919C91139793838283D2
:102D700080EB92E09183808314968C9114978483E6
:102D800015968C911597858316964D915D916D9151
:102D90007C91199746835783608771871A964D9166
:102DA0005D916D917C911D974287538764877587EC
:102DB0001E964D915D916D917C91519746875787F5
:102DC000608B718B52968C915297828B53964D915A
:102DD0005D916D917C915697438B548B658B768B6F
:102DE00057964D915D916D917C915A97478B508F7D
:102DF000618F728F5B968D919C91948F838F0895D4
:102E0000DC015996ED91FC91309721F081E095819C
:102E1000911101C080E00895FC01818D928D009791
:102E200019F061E00C945F140895DC015996ED915E
:102E3000FC913097B9F083899489A589B689428538
:102E4000538564857585841B950BA60BB70B81157F
:102E500020E89207A105B10538F08FEF9FE7A0E0C9
:102E6000B0E0089590E080E00895DC0159968D91DE
:102E70009C91009739F0DC01ED91FC910480F58183
:102E8000E02D199490E080E00895CF93DF93EC015A
:102E9000E98DFA8D309749F481E090E09B838A8335
:102EA00090E080E0DF91CF91089513821282898DA6
:102EB0009A8D0E940415E98DFA8D22813381232B8E
:102EC00059F7F0CFCF93DF931F92CDB7DEB7698369
:102ED000DC01ED91FC910280F381E02D41E050E0B6
:102EE000BE016F5F7F4F19950F90DF91CF910895CD
:102EF000FC011382128288EE93E0A0E0B0E08483AC
:102F00009583A683B7838CE892E091838083128EA9
:102F1000118E14860895CF93DF931F92CDB7DEB73D
:102F200041E050E0BE016F5F7F4F0E944C1301975C
:102F300031F4898190E00F90DF91CF9108958FEF68
:102F40009FEFF9CFFC01818D928D009711F00C94C9
:102F50008B178FEF9FEF08950F931F93CF93DF93FE
:102F6000EC01898D9A8D10E000E0009799F00E94A5
:102F70008B178C010F3F100769F0898D9A8DFC012A
:102F800042855385648575854150510961097109F0
:102F90000E94B811C801DF91CF911F910F91089540
:102FA00080E008950F931F93CF93DF93FC01A681D8
:102FB000B781C581D0E033E0D695C7953A95E1F762
:102FC000362F3770E0E8F0E08F0102C015950795C5
:102FD0003A95E2F7FC018281481B4C9FC0014D9F4E
:102FE000900D1124669566956695680F792F711D71
:102FF000A60FB71F8C91E02F222339F0E82BEC931A
:10300000DF91CF911F910F910895E095E823F7CFBD
:10301000FB014181DC0112962C911297421768F056
:1030200013962C911397241740F0608115962C91DC
:10303000621718F424810C94D2170895FC01808142
:103040009281980F92832181921760F494819F5FFF
:1030500094839381890F821710F08FEF820F8383FF
:1030600081E0089580E00895FC0112828081815002
:10307000838314820895DB01ED91FC9119940F93E1
:103080001F93CF93E091F215F091F315309719F05B
:1030900084EE95E119950091E6151091E715E09100
:1030A0001516F091161682E01995E0911516F0911B
:1030B000161681E0199530E020E045E1B80184EE74
:1030C00095E10E943B18C82F882341F027E136E1A3
:1030D00047E1B80184EE95E10E943B18E091151696
:1030E000F091161680E019958C2FCF911F910F91BA
:1030F0000895EF92FF920F931F93CF93DF93082FC2
:10310000162FC42FD42FF82EF40EEE24EA948F2D10
:103110008D1BD83080F58C2F887F800F9C2F969543
:103120009695969528EF929FC00D1124CC23C1F15E
:1031300097E0C9276091E6157091E7158093001616
:103140001093011610920316CF5FC7708FEF90E0B7
:1031500001C0880FCA95EAF78093021620E036E195
:103160004BE384EE95E1DF91CF911F910F91FF909A
:10317000EF900C943B186091E6157091E7158093E1
:1031800000161093011610920316E092021620E02A
:1031900036E14BE384EE95E10E943B18D850B7CF5F
:1031A000DF91CF911F910F91FF90EF9008950F93B2
:1031B0001F93CF93DF93182FC62F042FD62FD20F34
:1031C000402F6C2F812F0E947918CF5FCD13F8CF3D
:1031D000DF91CF911F910F910895DF92EF92FF92AF
:1031E0000F931F93CF93DF93182F062FC42FD42F45
:1031F000F62EF40EEE24E394DD24DA948F2D8D1B4D
:10320000D83090F58C2F887F800F9C2F96959695BF
:10321000969528EF929FC00D1124CC23D1F197E011
:10322000C9276091E6157091E715109300168093F9
:10323000011681E080930316CF5FC7708FEF90E097
:1032400001C0880FCA95EAF78093021620E036E1A4
:103250004BE384EE95E1DF91CF911F910F91FF90A9
:10326000EF90DF900C943B186091E6157091E71594
:103270001093001680930116E0920316D092021666
:1032800020E036E14BE384EE95E10E943B18D850F4
:10329000B5CFDF91CF911F910F91FF90EF90DF900D
:1032A0000895962FE0EEF5E16681778180A391A3E2
:1032B00020E036E142E384EE95E10C943B18CF9296
:1032C000DF92EF92FF920F931F93CF93DF93C82F5C
:1032D000162FD42F082F041B481710F0042F081B9B
:1032E000211740F4F12EF21A0F15D8F0DC1790F1E7
:1032F000D12C10C0F22EF11A0F1508F042C0802F09
:103300000F2DF82E8D2FD22F282F8C2FC12F182F55
:10331000DD24D394E02EE694121718F1CC24CA943D
:1033200022C0802F0F2DF82E812F1D2FD82F8C2FEC
:10333000C22F282FEDCF612F8C2FDD2011F06C2FA5
:10334000812F0E945119EF18E7FE02C01C0DE00EFC
:10335000CF5F0CC0E02EE6948D2FDC2FC82F122FEC
:10336000D12CCC24C394DF3F09F4DEEFDC1718F72F
:10337000DF91CF911F910F91FF90EF90DF90CF9051
:103380000895DC1708F0B4CFE02EE6948D2FDC2FE3
:10339000C82F122FD12CC2CFCF93DF931F92CDB75E
:1033A000DEB79E012F5F3F4F47E40E943B188981A3
:1033B0000F90DF91CF910895CF93DF931F92CDB7F8
:1033C000DEB79E012F5F3F4F46E40E943B18898184
:1033D0000F90DF91CF910895BF92CF92DF92EF923D
:1033E000FF920F931F93CF93DF938C01D42EE901AB
:1033F000FB01E280F380F2E34F1709F476C0F41783
:10340000C8F08CE2481709F470C0EDE24E17E9F0FD
:10341000F7E14F1779F19E014D2DB701C801DF91FA
:10342000CF911F910F91FF90EF90DF90CF90BF90C1
:103430000C943B1886E4481709F44CC0E7E44E1797
:1034400009F44EC0FBE34F13E6CFB701C8010E9459
:10345000CC19C980C094C80EB701C8010E94DC19FC
:1034600098819095890F8883C9828B818E5F837044
:103470008B834BC047E1B701C8010E943B18B701DD
:10348000C8010E94DC19BA80B094B80EB701C80117
:103490000E94DC19D880D094D80EB701C8010E94D0
:1034A000CC19CB80C094C80EB701C8010E94CC19BA
:1034B00099819095890FB882C982DA828B8381E0E5
:1034C000DF91CF911F910F91FF90EF90DF90CF9000
:1034D000BF900895B701C8010E94DC198883EFCF1F
:1034E000B701C8010E94CC19F9CFB701C8010E94E9
:1034F000CC19C980C094C80EB701C8010E94DC195C
:1035000098819095890F8883C9829E014D2DB701BE
:10351000C8010E943B18D3CFCF93DF93EC016A819F
:103520007B810E94DC1988836A817B81CE010E94A5
:10353000CC1989836A817B8130E020E048E4CE01A8
:103540000E943B188B879E012D5C3F4F6A817B81D7
:1035500047E1CE01DF91CF910C943B18CF93DF93DD
:10356000C091E615D091E715E0911516F091161669
:1035700082E0199530E020E04AE0BE0184EE95E15A
:103580000E943B18C82FE0911516F091161683E0A3
:103590001995E0911516F091161680E01995CC2337
:1035A00029F084EE95E10E948C1AC1E08C2FDF9106
:1035B000CF910895CF93DF9380911D16811105C09F
:1035C00081E080931D160E94AE1AC091E615D0913D
:1035D000E715E0911516F091161682E01995E09125
:1035E0001516F091161681E0199530E020E044E1BF
:1035F000BE0184EE95E10E943B1827E136E147E1E8
:10360000BE0184EE95E10E943B18E0911516F09101
:10361000161680E0DF91CF9119940B96FC018491EE
:1036200008950A96FC0184910895FC0184910895FF
:103630000E94151B882321F0823011F083E0089549
:1036400086E00895FC01E60FF11D849190E0982F2B
:1036500088273196E4918E0F911D089568E00C94AF
:10366000221B66E00C94221B2EE93FE0009709F430
:103670000895F9013197F1F70197F8CF309134109F
:10368000409133105091321060913110A0912F1061
:10369000B0913010E0912D10F0912E109FB79093C3
:1036A0002C10F8949C91392B9C91492398E087FF2A
:1036B0000EC03C93880F2081262320832081252B58
:1036C00020839150A1F780912C108FBF08954C93C7
:1036D000F1CFCF93C62F81111BC088EF0E943E1BF4
:1036E0008C2F807F0E943E1B8C2F8295807F0E94B2
:1036F0003E1B88E290E0FC013197F1F7FC01319725
:10370000F1F7FC013197F1F70197F1F7CF910895A7
:10371000813031F78AEFE2CF90E0FC01E559F44FB8
:10372000E491F0E0EE0FFF1FED5BF54F2591349132
:103730003093301020932F1070E0FB01E559F44FC7
:10374000E491F0E0EE0FFF1FED5BF54F2591349112
:1037500030932E1020932D10855F944FFC0184919F
:1037600080933410655F744FFB0164916093321055
:103770006095609331108095809333100895860F83
:10378000911DFC0183A18F3F19F0642F0C94370821
:103790000895EF92FF920F931F93CF93DF93EC0165
:1037A000142F79016150673008F03BC0E62FF0E03C
:1037B0008827E252F44E8F4F0C942A6BE51B6E1C47
:1037C000211C191C301C351C6B1C7E0183E2E80E89
:1037D000F11C8E01005D1F4FF70181917F018F3F2A
:1037E00049F061E00E94650861E0F701319780814E
:1037F0000E943708E016F10679F740E062E0CE015A
:103800000E94BF1B41E064E0CE010E94BF1B40E06C
:1038100065E0CE010E94BF1B6FA188A50E948C1B92
:103820001EA281E0DF91CF911F910F91FF90EF9049
:1038300008958BA160E08F3FA1F3CE010E94BF1BD2
:10384000F0CF411103C040E062E0F7CF41E062E019
:10385000CE010E94BF1B6FA188A50E948C1BE1CFE7
:10386000642F8EA10E94691BDCCF8EA1811115C02F
:1038700088EF0E943E1BC8E2D0E0111112C088E21E
:1038800090E0FC013197F1F7FC013197F1F7FC0171
:103890003197F1F70197F1F7C4CF813061F78AEFE3
:1038A000E8CFF7018081807F0E943E1BF701819164
:1038B0007F018295807F0E943E1B1150CE010197AF
:1038C000F1F7DBCFF70164918EA10E94691BFFEF36
:1038D000EF1AFF0A11501111F5CFA3CF4EA3A1CFBC
:1038E000DB011496ED91FC9130E020E065E0199445
:1038F000DB011496ED91FC9130E020E062E0199438
:10390000DB011496ED91FC9130E020E063E0199426
:103910009F92AF92BF92CF92DF92EF92FF920F935E
:103920001F93CF93DF937C018B01942E69012AE0D2
:10393000421751F185E1481709F488C0F801C281A6
:10394000D381F2E39F1609F42BC1F91508F4CDC019
:1039500025E1921609F429C187E1981609F438C1C6
:1039600094E19912F1C0EE81FF818D8124E0829F64
:10397000C00111248E0F9F1F11928E179F07E1F730
:10398000CE010E943418E0C0DB011496ED91FC9149
:1039900030E020E043E061E0199580E09CE1A92E51
:1039A0009AE0B92EF501C491811110C081E0CF3F9A
:1039B00049F04C2FB801C7010E94701C882309F4FC
:1039C000BDCF80E0BFEFAB1ABB0AECCF4FEFCF3FCC
:1039D00089F3CE3F09F4B2CFC03F98F7C03E38F02C
:1039E0004C2F4F70B801C7010E94781CEACFC03D30
:1039F00038F04C2F4F70B801C7010E94801CE1CFF6
:103A0000C03CF8F0D8011496ED91FC9130E020E034
:103A100040E064E0C7011995C295C07FCE5FD0E059
:103A2000CE010E94341BD8011496ED91FC9130E038
:103A300020E041E064E0C7011995CE010E94341BEB
:103A4000C0CFC7FDBECF8C2F90E0F8CFFB01A28086
:103A5000B38040E0C7010E94781C41E0B801C70173
:103A60000E94801CD5011296CC9112971696AD90AB
:103A7000BC90D0E2DC0F40E0B801C7010E94781C86
:103A80004EE3B801C7010E94701CC03228F54C2FCC
:103A90004068B801C7010E94701C40E8B801C70126
:103AA0000E94701C41E0B801C7010E94781CD80137
:103AB0001496ED91FC91950140E166E0C7011995DE
:103AC000B0E1AB0EB11CCF5FCD13D5CF40E0B80154
:103AD000C7010E94801C32CF40EE4C0F4068B801F5
:103AE000C7010E94701C48E8D9CFA6E49A1609F4D1
:103AF00079C0B7E49B1609F479C0EBE39E1224C0A9
:103B0000D60111969C91119713968C9138E0390F3C
:103B1000813031F0833011F0392F02C0392F9850A5
:103B200021E04B81491708F420E041E0391708F003
:103B300040E091E05A81351708F490E0322F342BA1
:103B4000932379F4242369F481E0DF91CF911F91CD
:103B50000F91FF90EF90DF90CF90BF90AF909F902C
:103B60000895F601128100E0F12C843048F490E0D1
:103B7000FC01EC57FD4FF08080589D4FDC010C910B
:103B800017FF04C0B601CE010E940818F60180811B
:103B90008F0D80838181800F8183110F89F7D4CFAE
:103BA000B601CE010E940818CFCFCE010E941E1888
:103BB000882359F2EE81FF818D81A4E08A9FC001A4
:103BC00011248E0F9F1F11928E179F07E1F7BCCF14
:103BD000F60110828A8181838D81815082838B815D
:103BE0008383B2CF8D81D6018C93AECF8981F601CC
:103BF0008083AACF0F93FC010150040F84A996A9DA
:103C0000941788F0081710F4041778F42150260F41
:103C100083A995A9961758F0281760F481E0261714
:103C200020F40F910895081778F780E0FACF28174D
:103C3000A8F7FBCF81E0F5CFFF920F931F93CF93AF
:103C4000DF93C82FD62F142FF22E022F242F462FAA
:103C5000682F84EE95E10E94FA1D882359F02F2DDC
:103C6000412F6D2F8C2FDF91CF911F910F91FF90DE
:103C70000C94D718DF91CF911F910F91FF90089569
:103C8000FF920F931F93CF93DF93D82F162FF42E0D
:103C9000C22F022F242F462F682F84EE95E10E9419
:103CA000FA1D8823E9F04F2D612F8D2F0E9479187E
:103CB0004C2F612F8D2F0E94ED188FEF8F0D4C2F01
:103CC000612F8D0F0E94ED186FEF6C0F610F4F2D5C
:103CD0008D2FDF91CF911F910F91FF900C94791848
:103CE000DF91CF911F910F91FF900895CF93DF93B4
:103CF000FC01E60FF71FDA018191882339F08D91DD
:103D0000882321F0EF0121978883F6CFDF91CF91AF
:103D10000895FC016115710519F49283818308955A
:103D200072836183DB018C9180830895CF93DF934D
:103D3000C82FD091C310D0FF05C0682F81E394E154
:103D40000E941107D1FF07C06C2F8EEC94E1DF9128
:103D5000CF910C941107DF91CF910895CF93DF930A
:103D6000D62FC42F8F70806B0E94961E8D2F0E94BD
:103D7000961E8C2FDF91CF910C94961E0F931F935C
:103D8000CF93DF93EC01162FAA85BB851196ED9199
:103D9000FC91129780818C9300818A89806B0E94AC
:103DA000961E87E00E94961E802F8F770E94961E97
:103DB000AC85BD851196ED91FC91129780818C9315
:103DC00000818A89806D0E94961E802F8F770E94C5
:103DD000961EAE85BF851196ED91FC91129780815C
:103DE0008C9300818A89806E0E94961E80E00E94DA
:103DF000961E802F8F770E94961E113061F41D89C8
:103E00008A89806C0E94961E812FDF91CF911F912D
:103E10000F910C94961E4B8960E08A890E94AE1E19
:103E20004C8960E28A890E94AE1EE9CF806B0E94B5
:103E3000961E88E70E94961E80E00C94961ECF93F3
:103E4000DF93D62FC42F80680E94961E8D2F0E946C
:103E5000961E8C2FDF91CF910C94961ECF93DF93FB
:103E6000D62FC42F80690E94961E8D2F0E94961E09
:103E70008C2FDF91CF910C94961E0E9422090E94F4
:103E8000C10A8823D1F30895CF93DF930E942209BA
:103E90000E94C10AC82FD0E00E94D10A8111C260DD
:103EA0000E94E00A8111C4608EE20E940E08892BF4
:103EB00009F4C860CE01DF91CF910895CF93DF93CD
:103EC000009791F0FB0130E020E0EF01C61BD70B1B
:103ED000A191AA23C9F0AE33C1F72F5F3F4F8217DC
:103EE000930799F7CE010196DB01A80FB91FFA01DC
:103EF0008D91882321F08E3311F08193F9CF1082B8
:103F000081E0DF91CF910895FA01108280E0F9CF2E
:103F10003F924F925F926F927F928F929F92AF9259
:103F2000BF92CF92DF92EF92FF920F931F93CF93A6
:103F3000DF93EC01162FDCAC5BAC5C0124E0A20E3D
:103F4000B11CE98DFA8DC5011995982EE884F98484
:103F5000C7010E94151B082F888599850E94181B90
:103F6000782E88248A94013011F48FE0882E888579
:103F700099850E94111B082F888599850E940D1B29
:103F8000C82E888599850E942E1B113670F00097E7
:103F900061F0E80EF91E01E6C116B8F41C8A1F8A0A
:103FA000188E1D8A1E8A80E05BC0888599850E94D4
:103FB000311B113430F0009721F0E80EF91E01E4B6
:103FC000EBCF81E1E80EF11CE7CFC01638F3872D67
:103FD00090E0F70124912F3F39F4FFEFEF1AFF0A29
:103FE000C016E1F20F5FF5CF101368C08885998580
:103FF0000E94151B97012F5F3F4FF701882319F08F
:10400000823009F044C084918F8BF9012491288F6C
:10401000F7013396E491EC8BF7013496E491ED8B44
:10402000F7013596E491EE8BE114F10409F4BBCF6E
:10403000888599850E94181B782ECF88388C8D89A9
:10404000580E1D2D13198E89181B190D032D2C2D9B
:10405000412F652DC5010E94FA1D811138C08C8940
:104060009BAD890F8BAF81E090E0DF91CF911F91E5
:104070000F91FF90EF90DF90CF90BF90AF909F9007
:104080008F907F906F905F904F903F9008958491B4
:10409000982F9F7092509E8B82958F708D8BF90117
:1040A0002491822F8F70888F22952F702F8BF7018C
:1040B0003296E491E295EF70EC8BB6CF3296E491B4
:1040C000E821E80FF92FF11DEE0EFF1E89CFE70C56
:1040D000F11C07E00C0D069506950695310E4E0174
:1040E000F0E28F0E911C602E712C131509F4B7CFDE
:1040F000452C670112C0F60184916E817F8148A230
:1041000019A31BA28AA394014BE3C5010E943B188B
:10411000FFEFCF1ADF0A28E0420E8C2D8E19801790
:1041200050F3E60CF71C1F5FE0CF089590E080E0AD
:104130000895FB01218132816217730729F4808180
:10414000082E000C990B0895FC01E952FF4F89508D
:104150009F4FA191B191AD01455F5F4F2417350786
:1041600031F41C968C9190E08095909508958E176F
:104170009F0779F78FEF90E0F7CFFC01E952FF4FEF
:104180009C0129503F4F90E080E041915191452B97
:1041900009F00196E217F307C1F70895FC01E95011
:1041A000FF4F9C01295E3E4F90E080E0419151918C
:1041B000452B09F00196E217F307C1F708958F9296
:1041C0009F92AF92BF92CF92DF92EF92FF921F9396
:1041D000CF93DF935C01EB01D12CC12C3BE1832E0B
:1041E00033E0932EF50114818581811B990B8C1589
:1041F0009D05C4F11C0D61E0812F0E94650860E0FF
:10420000812F0E943708C4010197F1F719821882A3
:10421000F501E380F12CF50182818E151F0409F070
:10422000A4F488819981880F991F998388838E2DA2
:104230000E940E08019729F48881998181609983F1
:104240008883F1E0EF1AF108E6CF60E0812F0E9449
:10425000650860E0812F0E9437088FEFC81AD80ADE
:104260002296C0CFDF91CF911F91FF90EF90DF900A
:10427000CF90BF90AF909F908F9008954F925F9294
:104280007F928F929F92AF92BF92CF92DF92EF92E6
:10429000FF920F931F93CF93DF93CDB7DEB7609755
:1042A0000FB6F894DEBF0FBECDBF8C017B01BE01FF
:1042B0006F5F7F4F0E94DF20FE013196912C50E00E
:1042C00040E030E020E0D80115968C9115971496C7
:1042D0009C911497891B990B841795070CF46DC05A
:1042E00011968C91823079F4DA01AA0FBB1FA95E76
:1042F000BE4FA00FB11F808191816D917C91862767
:1043000097279183808370E060E0D80113968C91A9
:10431000139712969C911297891B990B86179707F2
:104320000CF445C0A080B180A0FE3AC0892C862A3A
:1043300016964C90512C6801B8E0CB0ED11C81E050
:1043400090E0481659063CF0D6017D906D01871427
:1043500019F00196F6CF80E0882311F1D701A20F62
:10436000B31F8C932F5F3F4F2F313105C9F4F701F5
:10437000178E80E060960FB6F894DEBF0FBECDBFFB
:10438000DF91CF911F910F91FF90EF90DF90CF9031
:10439000BF90AF909F908F907F905F904F900895C7
:1043A000B694A794B182A0826F5F7F4FAECF4F5F6C
:1043B0005F4F329680E1980E86CFE20EF31ED70152
:1043C0001C92D7CFDC01F0E0E0E02D912223B1F088
:1043D000261310C0E80FF91F2081211102C081E0CF
:1043E0000895218121939F01281B390B203231052B
:1043F0009CF3F5CF3196E032F10539F780E008956E
:104400009F92AF92BF92CF92DF92EF92FF920F9363
:104410001F93CF93DF93EC018B0190E080E09B0131
:104420002F5D3F4F79016E01C80ED91EF601208124
:1044300021111FC06E01F1E2CF0ED11CF8012191B4
:104440008F01222309F49FC0EE15FF0509F49BC0DC
:104450003BA9231798F38CA9821780F3DE01FE0194
:1044600081918823B1F0EC15FD0599F02813F8CF60
:10447000E5CF80329105F4F6F8013191332309F448
:1044800062C0EE15FF0509F45EC02313F6CF019656
:10449000CACF90E080E06D91AC014F5F5F4F61113A
:1044A00046C08C0F9D1FFC0120834C0F5D1FFA013D
:1044B0001082F801319790818EA96DA981113DC0BC
:1044C000A9A0BAA0F50180899189FC01A181B281DE
:1044D0002C9120834C91F50182890E942E1F98AC6B
:1044E000F1E09F12ABCFE091C710F091C810E95DE9
:1044F000FE4FA080B180F50186AD882309F49ECFE0
:1045000085AD81119BCF84AD8150990B092E000C94
:10451000AA0BBB0B80AB91ABA2ABB3AB0E94BE08A6
:10452000F50160AF71AF82AF93AF95AE87CFCA018F
:104530004032510509F0AFCF81CF833009F4C0CFAD
:10454000631B690FBDCF8EA96DA9882329F0833025
:1045500019F08BA9681B620FA9A0BAA0F501808988
:104560009189FC01A181B2812C9120834C91F501AC
:1045700082890E941F1FF6016081CE010E94E22104
:1045800090E080E084CFDF91CF911F910F91FF9059
:10459000EF90DF90CF90BF90AF909F900895FC0177
:1045A0009F01281B390B4191442339F04032C1F758
:1045B0002F5F3F4F820F931F089508950F931F930E
:1045C000CF93DF93EC018C01005E1F4F40E06A81C6
:1045D00089810E941F1F2496C017D107B9F7DF9168
:1045E000CF911F910F910895CF93DF93FB0122810B
:1045F0003381DC0113963C932E93129744815581AD
:104600006681778114964D935D936D937C93179794
:10461000408551856285738518964D935D936D93A2
:104620007C931B971C96EF012C969C01275E3F4FB5
:1046300049914D93A217B307D9F7218D328DFC0113
:10464000328F218FDF91CF91089591E080910F02F9
:10465000811101C090E080911F1690FB83F9809337
:104660001F1691E080910E02811101C090E08091AF
:10467000201690FB87F98093201680911F168B7F60
:1046800080931F160895CF93C82F60E00E9465089D
:1046900061E08C2FCF910C9437088091C510813048
:1046A00071F461E088E20E94370862E070E080E027
:1046B00090E00E94E30860E088E20C9437080895D7
:1046C000FC012481358181859285280F391F8681DF
:1046D000882351F0863010F085E08683868102C001
:1046E000220F331F8A95E2F78781882361F0863095
:1046F00010F085E087833250878102C0220F331F7C
:104700008A95E2F73E5FC90137FF02C090E080E082
:10471000813024E0920714F080E094E00895CF9275
:10472000DF92EF92FF920F931F93CF93DF938B0152
:10473000FB01EE0FEF2FEE1FFF0BE80FF92FF11D1E
:10474000C585D0E0668570E06C1B7D0B072E000CE4
:10475000880B990B0E941D6A20E030E040E85DE381
:104760000E94816A6B017C0133E0159507953A95AB
:10477000E1F70F70602F70E090E080E00E941D6A0A
:104780009B01AC01C701B6010E94816A0E94E569E4
:104790006C0F7D1F75956795862FDF91CF911F91C7
:1047A0000F91FF90EF90DF90CF900895CF92DF921E
:1047B000EF92FF920F931F93CF93DF936C01EB0166
:1047C00018820E941517892B49F17E0187010C1B65
:1047D0001D0BC6010E941517892B59F0C6010E94B6
:1047E000A2178A3031F08D30A1F3F70181937F0158
:1047F000EDCFFE01E00FF11F1082FE0101900020BD
:10480000E9F73197CF018C1B9D0BDF91CF911F9161
:104810000F91FF90EF90DF90CF9008958FEF9FEF73
:10482000F4CFFB0101900020E9F73197AF01461B5F
:10483000570BDC01ED91FC910280F381E02D19947E
:1048400064EC72E00C9411248F929F92AF92BF920D
:10485000EF92FF920F931F93CF93DF93CDB7DEB705
:10486000A1970FB6F894DEBF0FBECDBF7C01FA0151
:10487000CB0119A2223008F42AE08E010F5D1F4FF0
:10488000822E912CB12CA12CBF01A50194010E9474
:104890008A69F901CA016A300CF5605DD8016E932E
:1048A0008D01232B242B252B79F790E080E01097A6
:1048B00021F0BD01C7010E941124A1960FB6F89402
:1048C000DEBF0FBECDBFDF91CF911F910F91FF9043
:1048D000EF90BF90AF909F908F900895695CDECF6E
:1048E000242F462F50E070E060E00C942424CF92F7
:1048F000DF92EF92FF920F931F93CF93DF936B01A1
:10490000770FEE08FF084A30510511F52AE0F7FE4F
:1049100020C0EC01E881F9810190F081E02D6DE289
:1049200019958C0144275527BA014C195D096E0968
:104930007F092AE0CE010E942424800F911FDF917D
:10494000CF911F910F91FF90EF90DF90CF9008953E
:10495000242FB701A601DF91CF911F910F91FF90F6
:10496000EF90DF90CF900C9424240F931F93CF935C
:10497000DF93EC010E9411248C01CE010E942024BF
:10498000800F911FDF91CF911F910F9108956115B5
:10499000710511F00C94112490E080E00895CF92FD
:1049A000DF92EF92FF920F931F93CF93DF937C01DF
:1049B000EB0111E00BE082E3D82E90E3C92E0E94B8
:1049C000DA1A109304162CE04FE760E080E00E94B2
:1049D0001C1E2FE34FE760E080E00E94401E109213
:1049E000041610931B1600931C16B70180EE95E178
:1049F0000E94C724109304162EE04DE264E288E280
:104A00000E94401ED0921B16C0921C1640E150E03E
:104A1000BE0180EE95E10E9477240E943F1881112B
:104A2000D0CF0E9422090E94E00A882351F00E9400
:104A30004D232196C11581E0D80709F6D0E0C0E0EA
:104A4000BECF0E94D10A882341F00E944D232197B6
:104A500008F0B5CFCFEFD0E0B2CF0E94C10A8823D3
:104A600001F30E944D23CE01DF91CF911F910F9151
:104A7000FF90EF90DF90CF900895EF92FF920F9309
:104A80001F93CF93DF938C017A010E94C7246EE7B6
:104A90007DE0C8010E94C724E70183E0E80EF11C15
:104AA000699140E150E0C8010E9470246EE77DE00A
:104AB000C8010E94C724CE15DF0591F7C801DF9118
:104AC000CF911F910F91FF90EF900C9420248F9223
:104AD0009F92AF92BF92CF92DF92EF92FF920F938D
:104AE0001F93CF93DF935C017A016901EB0111E021
:104AF0000BE082E3982E90E3892E0E94DA1A10933D
:104B000004162CE04FE760E080E00E941C1E2FE3BB
:104B10004FE760E080E00E94401E10920416109360
:104B20001B1600931C16B50180EE95E10E94C72468
:104B3000109304162EE04DE264E288E20E94401ECB
:104B400090921B1680921C164AE050E0BE0180EE47
:104B500095E10E9477240E943F188111D0CF0E94D6
:104B600022090E94E00A882341F00E944D232196E9
:104B7000CC16DD0614F6E701C0CF0E94D10A8823C7
:104B800049F00E944D232197CE15DF050CF0B5CFDB
:104B9000E601B3CF0E94C10A882309F30E944D2386
:104BA000CE01DF91CF911F910F91FF90EF90DF9099
:104BB000CF90BF90AF909F908F900895AF92BF928B
:104BC000CF92DF92EF92FF920F931F93CF93DF93D9
:104BD000CDB7DEB7A0970FB6F894DEBF0FBECDBF3E
:104BE0007C0111E00BE08AE0D82E9FE2C92E0E94E2
:104BF000DA1A109304162CE04FE760E080E00E9480
:104C00001C1E2FE34FE760E080E00E94401E1092E0
:104C1000041610931B1600931C16B70180EE95E145
:104C20000E94C72410930416D0921B16C0921C1623
:104C300067EC72E080EE95E10E94C7240E943F1865
:104C40008111D7CFA090C710B090C81089E20E9400
:104C50000E08892B39F46AEF70E080E090E00E9442
:104C6000E308C5CFBE016F5F7F4FC5010E943E21A3
:104C70008981882359F38F3F09F4B9CFA0960FB6E5
:104C8000F894DEBF0FBECDBFDF91CF911F910F9182
:104C9000FF90EF90DF90CF90BF90AF9008955F921C
:104CA0006F927F928F929F92AF92BF92CF92DF923C
:104CB000EF92FF920F931F93CF93DF93CDB7DEB7A1
:104CC00069970FB6F894DEBF0FBECDBF7C016B01B4
:104CD0005C0181E0A81AB108B7FE04C0570182E068
:104CE000A80EB11CB594A794B594A794C70164E02D
:104CF00070E00E94166B8C01892B11F404E010E027
:104D00000E94DA1AAA0CBB1CAA0CBB1C8CE0089FE0
:104D1000002D11240F5F772473949BE0692E26E009
:104D2000522E709204162CE040E860E080E00E9471
:104D30001C1E20E440E860E080E00E94401E1092CB
:104D4000041670921B1660921C16AE014F5F5F4FE7
:104D5000B60190E080E00E945E1FBE016F5F7F4F52
:104D600080EE95E10E94C7247092041645018FEFF2
:104D7000881A980A18E1AE014F5F5F4FB601C4016F
:104D80000E945E1F50921B1610931C16BE016F5F8F
:104D90007F4F80EE95E10E94C7248FEF881A980A12
:104DA000145F183441F7E114F10431F02CE044E0D1
:104DB000602F81E00E941C1E0E943F188111B1CF1C
:104DC00069960FB6F894DEBF0FBECDBFDF91CF91CD
:104DD0001F910F91FF90EF90DF90CF90BF90AF9019
:104DE0009F908F907F906F905F9008950F931F9387
:104DF000CF93DF93EC018A010E94C7246EE77DE028
:104E0000CE010E94C724B8018091C7109091C810AC
:104E10000E9499208C014AE050E0BC0197FF0AC033
:104E200064E776E0CE010E94C724B80160957095D2
:104E30004AE050E0CE010E947724CE01DF91CF916D
:104E40001F910F910C942024EF92FF921F93CF9308
:104E5000DF93EC017A010E94C7246EE77DE0CE016A
:104E60000E94C72410E0F701E10FF11D6081662365
:104E700061F040E150E0CE010E9470246EE77DE0D9
:104E8000CE010E94C7241F5FEECFCE01DF91CF91EC
:104E90001F91FF90EF900C9420240F931F93CF93BA
:104EA000DF93EC018A010E94C7246EE77DE0CE010A
:104EB0000E94C724B801CE010E94C724CE01DF9111
:104EC000CF911F910F910C9420240F931F93CF9398
:104ED000DF93EC018A010E94C7246EE77DE0CE01DA
:104EE0000E94C7244AE050E0B801CE010E94772416
:104EF000CE01DF91CF911F910F910C942024DF926E
:104F0000EF92FF920F931F93CF93DF938C01FC01DD
:104F100001900020E9F731979F01281B390B48EFDA
:104F20004203E001439FD00D1124C058DF4FD695B6
:104F3000C7950E94DA1AFF24F39493E2E92EDC2E3F
:104F4000D394F09204162FE34FE760E080E00E94D4
:104F5000401E29E14CE664E18AE00E941C1E10928A
:104F60000416C0931B16E0921C16B80180EE95E162
:104F70000E94C724D0921B16E0921C16B80180EE46
:104F800095E10E94C724F09204160E943F188111F7
:104F9000D8CF6AEF70E080E090E0DF91CF911F9171
:104FA0000F91FF90EF90DF900C94E3080E947F2711
:104FB0000C943D1F8F929F92AF92BF92CF92DF923F
:104FC000EF92FF920F931F93CF93DF9300D01F9226
:104FD000CDB7DEB7FC018581813091F080E00F9084
:104FE0000F900F900F90DF91CF911F910F91FF9035
:104FF000EF90DF90CF90BF90AF909F908F900895EB
:10500000848181FFEBCF83899489A589B689892B17
:105010008A2B8B2B09F45FC07F0140E050E0BA017E
:10502000CF010E94B8118823C9F2F701C38CD48C38
:105030008788908CA18CB28C82E090E0A0E0B0E0F8
:10504000F60180839183A283B3839E012F5F3F4F3C
:10505000B501A401C6010E947810882309F4BECFCF
:1050600000E010E09801B501A401C6010E94D60F2E
:10507000882309F4B3CF89809A80AB80BC80F60185
:105080008789803119F188EF9FEFAFEFBFE0881675
:105090009906AA06BB06C8F2F701178A108E118E70
:1050A000128E138A148A158A168A848180688483F2
:1050B00061E0C7010E945F14882309F48FCF40E0AC
:1050C00050E0BA01C7010E94B81189CF88EF9FEF65
:1050D000A0E0B0E0DCCF81E082CFCF92DF92EF9210
:1050E000FF921F93CF93DF93EC0180E2689FF00162
:1050F0001124EC56FE4E9385917161F0842F8274D9
:1051000049F080E0DF91CF911F91FF90EF90DF9009
:10511000CF900895142F6A8B8091380290913902B4
:10512000A0913A02B0913B028E879F87A88BB98BE2
:10513000C488D588F12CE12C7601DD24CC24CF8ADB
:10514000D88EE98EFA8E828D938DB0E0A0E0AC010E
:10515000BD014C295D296E297F294F8B588F698F9E
:105160007A8F83858871B1F4848D958DA68DB78DE6
:105170008B8B9C8BAD8BBE8B81E08D831F701C83D2
:105180001E821F82188619861A861B861C861D861B
:1051900081E0B8CF803109F0B4CF9E012D5E3F4F42
:1051A0008B8D9C8D0E94F910882309F4AACF84E08E
:1051B000E4CF6F927F928F929F92AF92BF92CF92E5
:1051C000DF92EF92FF920F931F93CF93DF9300D064
:1051D000CDB7DEB73C018B015A014B0186E0880E4A
:1051E000911C83EDC82E82E0D82EFE0131967F01FE
:1051F000F50181915F011F928F93DF92CF92FF9211
:10520000EF920E94AD6CA701B801C3010E94761E07
:105210000E5F1F4F0F900F900F900F900F900F90F9
:105220000815190529F70F900F900F90DF91CF9176
:105230001F910F91FF90EF90DF90CF90BF90AF90B4
:105240009F908F907F906F9008950F931F93CF93AF
:10525000DF9300D000D01F92CDB7DEB78C01CB0119
:105260004AE0BE016F5F7F4F0E942469AE014F5F2D
:105270005F4FB80189EC90E10E94761E27960FB629
:10528000F894DEBF0FBECDBFDF91CF911F910F917C
:105290000895EF92FF920F931F93CF93DF9300D067
:1052A00000D01F92CDB7DEB77C018B01CA014AE066
:1052B000BE016F5F7F4F97FD16C00E942469AE014B
:1052C0004F5F5F4FB801C7010E94761E27960FB649
:1052D000F894DEBF0FBECDBFDF91CF911F910F912C
:1052E000FF90EF900895809590950E942469F701B2
:1052F000E00FF11F81E48083B8016F5F7F4FAE0143
:105300004F5F5F4FE0CF6F927F928F929F92AF92ED
:10531000BF92CF92DF92EF92FF920F931F93CF93A2
:10532000DF9300D000D000D01F92CDB7DEB74C0184
:105330006A0159018B01FF24F3948BE0E82E92E37C
:10534000792E20E3622E8AE0E8E4F2E0DE01119695
:1053500001900D928A95E1F7A80170E060E0CE011E
:1053600001960E9449290E94DA1AF09204162CE054
:105370004FE760E080E00E941C1E2FE34FE760E0F3
:1053800080E00E94401E10920416F0921B16E092DC
:105390001C16B40180EE95E10E94C724F092041619
:1053A0002EE04DE264E288E20E94401E70921B16DD
:1053B00060921C16BE016F5F7F4F80EE95E10E94E8
:1053C000C7240E943F188111D0CF0E9422090E9459
:1053D000E00A882351F00E944D230F5F1F4FA01653
:1053E000B1060CF0B0CF8601AECF0E94D10A88235F
:1053F00051F00E944D23015011090C151D050CF0B0
:10540000A2CF8501A0CF0E94C10A8823F1F20E9499
:105410004D23C8012A960FB6F894DEBF0FBECDBF4C
:10542000DF91CF911F910F91FF90EF90DF90CF9080
:10543000BF90AF909F908F907F906F900895AF92A4
:10544000BF92CF92DF92EF92FF920F931F93CF9371
:10545000DF93FC01F12CE12CA191B191AB2BD9F59B
:10546000C22ED42E5B018C0186E090E00E94466B38
:10547000EC01C80142969983888383E090E00E9402
:10548000466BFC019283818310829D838C83B501DE
:105490000E94891E4D2D4F774A836C2D6F776B8349
:1054A000CC2031F0E881F98140E080810E94AE1E7D
:1054B000EE0CFF1C0E0D1F1DF801D183C083CE0121
:1054C000DF91CF911F910F91FF90EF90DF90CF90E0
:1054D000BF90AF9008953FEFE31AF30A35E0E3166B
:1054E000F10409F0B9CFD0E0C0E0E9CF7F928F920C
:1054F0009F92AF92BF92CF92DF92EF92FF920F9363
:105500001F93CF93DF93FC01E952FF4FB12CA12CE5
:10551000A191B191AB2B09F043C04901752EF42E36
:10552000162F6C0186E190E00E94466BEC01188614
:1055300089E0E2E5F2E0DE011D9601900D928A9588
:10554000E1F71C87EF2DF72DDE011D96CF0109969F
:1055500021912D93E817F907D9F785E089831B82FC
:105560001A821B8681E088839A8689860E83EF8261
:10557000F501EE0FFF1FEC0DFD1DE952FF4FD1832A
:10558000C083CE01DF91CF911F910F91FF90EF90DB
:10559000DF90CF90BF90AF909F908F907F900895B5
:1055A0007FEFA71AB70A70E1A716B10409F0B0CFD0
:1055B000D0E0C0E0E6CF4F925F927F928F929F92B1
:1055C000AF92BF92CF92DF92EF92FF920F931F9311
:1055D000CF93DF93FC01E957FF4F912C812CA191D0
:1055E000B191AB2B09F04AC0D22EF42E772EB62EF5
:1055F0002C0189E390E00E94466BFC01AB2DB72D96
:105600009C012D5D3F4F90E080E04D91442341F09F
:105610008F30910529F0E90149939E010196F5CF5C
:105620008E0F9F1FDC0193961C9217AAF3AAD4AA8F
:10563000E5AA12A301A3C6AAA0AEDF01CF018196FD
:105640001D92A817B907E1F7880C991CE201C80D53
:10565000D91DC957DF4FF983E883CF01DF91CF917F
:105660001F910F91FF90EF90DF90CF90BF90AF9080
:105670009F908F907F905F904F900895BFEF8B1A0F
:105680009B0AC0E18C16910409F0A9CFF0E0E0E09C
:10569000E4CF2F923F924F925F926F927F928F92C0
:1056A000AF92CF92DF92EF92FF920F931F93CF931F
:1056B000DF93CDB7DEB7FC01E950FF4F312C212C31
:1056C000A191B191AB2B09F05FC0122FF42ED62E11
:1056D0002C0186E190E00E94466B3C01FC01D28ADD
:1056E00083E090E00E94466BFC0192838183F0820C
:1056F000F3019387828783E090E00E94466BFC0170
:10570000928381831083F3019587848783E090E0FF
:105710000E94466BFC01928381830083F30197878B
:10572000868783E090E00E94466BFC019283818330
:10573000E082F301918B808BC58AA38A848A1182CF
:1057400010821382128215821482178216821186A9
:105750001086F101EE0FFF1FE40DF51DE950FF4F1C
:1057600071826082C301DF91CF911F910F91FF90F1
:10577000EF90DF90CF90AF908F907F906F905F9081
:105780004F903F902F9008953FEF231A330A30E156
:105790002316310409F094CF712C612CE3CF0F93C1
:1057A0001F93CF93DF93EC0181E0888382E08983AC
:1057B00096E19A8395E29B838C8389E08D831E8298
:1057C00081E490E00E94466BDC018C01809649E008
:1057D00030E52FE7F80110824183328323830C5F89
:1057E0001F4F08171907B1F7DD961C92DD9780E16E
:1057F000DC968C93DC974FE050E060E070E0D09650
:105800004D935D936D937C93D3972CE330E0CD0162
:10581000CF96FC013183208340EA51E164E070E0DF
:10582000D4964D935D936D937C93D797D8961D92A4
:105830001D921D921C92DB97DE961C92DE97F8015A
:105840000F971192E817F907E1F7FE01E95DFE4FA6
:10585000B183A08306E110E08B81801711065CF014
:1058600060E0802F0E94650861E0802F0E94370869
:105870000F5F1F4FF1CF0C8110E08D818017110653
:105880005CF060E0802F0E94650860E0802F0E943D
:1058900037080F5F1F4FF1CF8E01095E1E4FB80111
:1058A000CE010E94DF20FE01E950FF4FCF0111928F
:1058B0001192E017F107D9F7FE01E957FF4F9E015A
:1058C00029553F4F11921192E217F307D9F7C952A8
:1058D000DF4F11921192EC17FD07D9F71192119237
:1058E0008E179F07D9F7DF91CF911F910F910895E0
:1058F0002F923F924F925F926F927F928F929F92E0
:10590000AF92BF92CF92DF92EF92FF920F931F93CD
:10591000CF93DF936C018FE090E00E94466B8C0187
:10592000FC011082B6010E94786CF8010190002001
:10593000E9F7319780E29F01201B310B2E303105B2
:1059400014F48193F8CFF8011686E12CD0E0C0E082
:1059500023E0A22E35E2932E4CE0842E5AE7752EDA
:1059600060E2B62E7AE5672EE9E35E2EF0E34F2E75
:10597000A1E63A2EB1E42B2E0E94DA1A8C2F880F62
:10598000880F880F94E0F92EF80EF1E0F0930416DA
:105990002FE34FE760E080E00E94401EA0921B16BC
:1059A00090921C16B80180EE95E10E94C724CE307B
:1059B000D10509F059C010921B1680921C1668ED93
:1059C00072E080EE95E10E94C7240E943F18811189
:1059D000DCCF0E94441F0097E1F39C012470332721
:1059E000AC0142705527E11052C0452B19F02197A8
:1059F00008F488C0232B31F02196CF30D10511F463
:105A0000D0E0C0E080FFB8CFCE30D10551F5F8012D
:105A10003E968DE090E022912032B1F1800F911FEF
:105A2000FC011182F6011082B801C6010E94786C57
:105A30000115110509F46CC0C801DF91CF911F91C8
:105A40000F91FF90EF90DF90CF90BF90AF909F901D
:105A50008F907F906F905F904F903F902F900C941D
:105A6000E26BEE24E39488CF23E047E068E18F2DDA
:105A7000E11003C00E941C1EA8CF0E941C1E23E040
:105A800047E066E28F2DF6CF019728F6CBCF232B88
:105A900031F1F801EC0FFD1F2081293329F4208218
:105AA000452B71F050820CC02A3529F43082452BE9
:105AB00039F0608205C02A3749F4B082452BE9F4F9
:105AC00080959095F82FF170EF2E56CF203229F463
:105AD0004082452BA9F3B082F3CF2F5F2083452B63
