:020000040000FA
:100000000C94E7050C9418060C9418060C9418062A
:100010000C9418060C9418060C9418060C941806E8
:100020000C9418060C9418060C9418060C941806D8
:100030000C9418060C9418060C9418060C941806C8
:100040000C9418060C94B3540C9418060C941806CF
:100050000C9418060C9418060C9418060C9449532A
:100060000C9418060C941F530C94F5520C9418061B
:100070000C9418060C9418060C9418060C94180688
:100080000C9418060C9418060C9418060C94180678
:100090000C94CB520C94A1520C9418060C949353CC
:1000A0000C9418060C9418060C9418060C94180658
:1000B0000C9418060C9418060C9418060C94180648
:1000C0000C9418060C9418060C9418060C94180638
:1000D0000C9418060C9418060C9477520C944D52FC
:1000E0000C9418060C9460080C947C080C941E1850
:1000F0000C9442180C94BF1B0C9415070C94871792
:100100000C9479210C94D4170C9445080C9429076D
:100110000C940D1C0C9456080C940B150C948268CE
:100120000C94281C0C9452080C94A7170C946E087D
:100130000C94B7170C9477080C9472080C946132E5
:100140000C941B060C9441080C94AC1C0C943D08B8
:100150000C946A080C94C0060C94A41B0C94421ACC
:100160000C9414180C94131C0C9434320C94370710
:100170000C944C080C9411170C9464080C94DB54E8
:100180000C9449080C9483070C947E170C947808FF
:100190000C9406070C94011C0C9437080C941A0656
:1001A0000C9478210C94FC1B0C941D1C0C94D0070F
:1001B0000C945C080C946B2001080D00FE09016191
:1001C00002CD20FFFE0BFE09FE0D00803219898052
:1001D0008080808080800080284383909090136787
:1001E000874848FC48FC48481259892078A0A070EC
:1001F0002828F02012698944A44810102048548807
:100200001267876090906094887438138380808030
:1002100032398920404080808040402022398980C6
:1002200040402020204040801665854830FC304802
:100230001455852020F820201143837060801651CA
:1002400081F821338340E0400279890202040810DA
:1002500020408080126989304884848484844830B6
:100260001259892060A02020202020F81269897866
:1002700084840408304080FC126989FC040810382A
:1002800004048478126989081828488888FC0808BA
:10029000126989FC8080B8C40404847812698938A2
:1002A000408080B8C4848478126989FC04081010E6
:1002B00020204040126989788484847884848478FA
:1002C0001269897884848C74040408702138884009
:1002D000E040000040E0401148882070200000709D
:1002E0006080225989081020408040201008146442
:1002F00084FC0000FC125989804020100810204026
:1003000080126989788484040810100010126989A9
:100310007884849CA4AC9480781269893048848461
:1003200084FC848484126989F0888488F0888488B5
:10033000F01269897884808080808084781269894D
:10034000F088848484848488F0126989FC808080A9
:10035000F0808080FC126989FC808080F080808041
:100360008012698978848080809C848C7412698969
:1003700084848484FC84848484125989F820202015
:1003800020202020F81279893E08080808080888EB
:1003900070126989848890A0C0A0908884126989AD
:1003A0008080808080808080FC0279898282C6AAD9
:1003B00092928282821269898484C4A4948C8484F7
:1003C0008412698978848484848484847812698915
:1003D000F8848484F880808080116A8A7884848498
:1003E0008484A4947804126989F8848484F8A090A1
:1003F00088841269897884808078040484780279FA
:1004000089FE101010101010101012698984848455
:1004100084848484847802798982824444442828AC
:10042000281002798982828282929292AA44027969
:1004300089828244281028448282027989828244F7
:10044000281010101010126989FC04081020408038
:1004500080FC224989F080808080808080F0027951
:1004600089808040201008040202124989F010108F
:100470001010101010F0185383205088017181FE65
:100480003A2282804012668678047C848C741269D9
:1004900089808080B8C48484C4B8126686788480D9
:1004A000808478126989040404748C84848C7412A6
:1004B00066867884FC80847812698938444040F8E4
:1004C0004040404010688874888870807884781232
:1004D0006989808080B8C48484848412588820000C
:1004E0006020202020F8105A8A0800180808080800
:1004F0008888701269898080808890E09088841252
:1005000059896020202020202020F8027686EC9255
:1005100092929282126686B8C4848484841266861B
:10052000788484848478106888B8C484C4B880804F
:1005300080106888748C848C74040404126686B8F5
:10054000444040404012668678846018847812687F
:10055000884040F840404044381266868888888841
:100560008874125686888888505020027686828247
:100570009292AA4412668684483030488410688873
:100580008484848C74048478126686FC081020406D
:10059000FC22598938404020C02040403832198917
:1005A000808080808080808080125989E0101020B7
:1005B00018201010E018538348A890FFFFFFFFFF9A
:1005C000FFFFFFFFFFFFFFFFFFFFFFFFFFFFFFFF3B
:1005D000FFFFFFFFFFFFFFFFFFFFFFFF0D00803268
:1005E00019898000808080808080801358882070E6
:1005F000A8A0A0A870200279891C222070202020A9
:1006000062DC13668684784848788402798982821D
:1006100044287C107C1010321989808080800080F2
:10062000808080224A8A6090806090906010906004
:100630002A42829090037989384492AAA2AA9244CD
:1006400038145787700878887800F8037787122461
:100650004890482412136484FC040404264181F069
:10066000037989384492AAAAB2AA44381A6181FC53
:10067000274484609090601357872020F820200042
:10068000F81646866090106080F0164686609020CE
:100690001090603A2282408011678784848484CCE1
:1006A000B4801269897CE8E8E8682828282836217F
:1006B00081C030228240C016368640C0404040E0B3
:1006C0001546866090906000F0037787904824126A
:1006D000244890027A8A40C0404042E60A121A0634
:1006E000027A8A40C040404CF2020C101E027A8A04
:1006F0006090201092660A121A0612698920002062
:10070000204080848478126A8A20100030488484D3
:10071000FC8484126A8A10200030488484FC84841B
:10072000126A8A30480030488484FC8484126A8AC1
:1007300064980030488484FC8484126A8A484800A3
:1007400030488484FC8484126A8A3048303048847B
:1007500084FC84840279896E9090909CF090909EA5
:10076000106B8B7884808080808084781020126A5F
:100770008A201000FC8080F08080FC126A8A1020A1
:1007800000FC8080F08080FC126A8A304800FC8087
:1007900080F08080FC126A8A484800FC8080F080EB
:1007A00080FC125A8A402000F82020202020F812D5
:1007B0005A8A102000F82020202020F8125A8A306F
:1007C0004800F82020202020F8125A8A888800F853
:1007D0002020202020F802798978444242E24242D7
:1007E0004478027A8A64980082C2A2928A8682023F
:1007F0007A8A2010007C82828282827C027A8A0835
:1008000010007C82828282827C027A8A1824007C98
:1008100082828282827C027A8A6498007C828282CE
:1008200082827C027A8A4444007C82828282827C38
:10083000136686844830304884116B8B04788C941E
:1008400094A4A4A4C47880126A8A4020008484847A
:1008500084848478126A8A10200084848484848446
:1008600078126A8A30480084848484848478126A86
:100870008A48480084848484848478125A8A1020A8
:10088000008888502020202012698980F884848480
:10089000F880808012698970888890A0988484B8D4
:1008A00012698920100078047C848C74126989088C
:1008B000100078047C848C741269893048007804B4
:1008C0007C848C7412698964980078047C848C74AC
:1008D00012698948480078047C848C74126A8A30D2
:1008E00048300078047C848C740276866C127C908C
:1008F000926C1068887884808084781020126989CE
:100900002010007884FC8084781269891020007897
:1009100084FC8084781269893048007884FC808463
:10092000781269894848007884FC80847812598953
:100930004020006020202020F812598920400060CB
:1009400020202020F812598960900060202020206B
:10095000F81259899090006020202020F8126A8AAD
:1009600048305008788484848478126989649800B7
:10097000B8C4848484841269894020007884848483
:1009800084781269891020007884848484781269BC
:100990008930480078848484847812698964980056
:1009A00078848484847812698948480078848484AF
:1009B0008478135787202000F800202011688804CD
:1009C000788C94A4C4788012698940200088888833
:1009D0008888741269891020008888888888741231
:1009E00069893048008888888888741269895050DD
:1009F00000888888888874106B8B10200084848419
:100A00008C74048478106A8A8080B8C48484C4B8E2
:100A10008080106B8B4848008484848C74048478B4
:100A2000FFE0FFD11000FFFEFFD0FFE0FFC1FFD1CC
:100A3000E240A0C8A6A22FF800238127AC00AFFF98
:100A400064A5FF64FF64A4FFD0FFFE7C3C3E5E2BE8
:100A50003D3F2F5B5D3B2C2A225C0000000A0B020D
:100A6000090C0D0E0807030401000000000000003F
:100A70000000000000000000000000000000000076
:100A80000000000000000012111000000000000033
:100A90000000000000000000000000000000000056
:100AA0000043616E6765204472756D202020202010
:100AB0003E4261636B2E2E3E4368616E656C202062
:100AC00020202020202020203E4E6F7465202020F2
:100AD00020202020202020202020202020203E56C2
:100AE000656C6F636974792020202020202000002D
:100AF000002100240027002A002D003000330001CF
:100B0000010000040107010A01000022002500285D
:100B1000002B002E00310034000201000005010806
:100B2000010B010102102020080810204010204075
:100B300080020102010804020101020408102040A1
:100B400080804020100804020180040201804020BF
:100B500010080402010804020101020408102040E8
:100B6000800102040810204080000020002300269D
:100B70000029002C002F00320000010000030106B4
:100B80000109010505050507050808080802020214
:100B9000020A0A0808040404040101010101010118
:100BA000010303030303030303040707070C0C0CEF
:100BB0000C0C0C0C0C0202020206060606060606C7
:100BC000060B0B0B0B0B0B0B0B00DB548268112479
:100BD0001FBECFEFD1E2DEBFCDBF00E00CBF1EE0F5
:100BE000A0E0B2E0EAE2F4EE00E00BBF02C0079042
:100BF0000D92A233B107D9F724E1A2E3BEE001C010
:100C00001D92A83DB207E1F715E0C6EED5E000E081
:100C100006C021970109802FFE010E94A36DC53EE9
:100C2000D10780E00807A9F70E9423570C940372AC
:100C30000C940000089580E008958F929F92AF92E7
:100C4000BF92CF92DF92EF92FF920F931F93FC011E
:100C50004B01AA24BB24C52ED62EE72EFF24BC2D83
:100C6000A42F9091A714B82C992391F0A92FB0E04C
:100C7000A89D9001A99D300DB89D300D1124B32E73
:100C80009C9D60011124BD2D949F80011124A12FF2
:100C90004091AD142091A8143091A9148091AA1408
:100CA000481324C0CF01880F991F8E0F9F1F820FFA
:100CB000931FE091AA14E80FF92FF11DB082E09183
:100CC000AB14E80FF92FF11DB0832091AC14820F03
:100CD000911DFC01A0831F910F91FF90EF90DF9079
:100CE000CF90BF90AF909F908F900895CF01880FC5
:100CF000991F880F991F820F931FFC01E40FF11DAC
:100D00001082D7CF0F931F93CF93DF93EC019A01FB
:100D1000AB01E889F98982E08083EC85FD8510824A
:100D20000E851F8560E079E08DE390E00E94FB6B0B
:100D30002150310941095109569547953795279515
:100D4000F8012083188EEC89FD8986E08083EA898A
:100D5000FB89808180618083EA89FB89808188604A
:100D60008083EA89FB89808180688083EA89FB89A6
:100D700080818F7D8083DF91CF911F910F910895A6
:100D8000AF92BF92CF92DF92EF92FF920F931F9399
:100D9000CF93DF936C017B018B01040F151FEB01D7
:100DA0005E01AE18BF08C017D10759F06991D6018E
:100DB000ED91FC910190F081E02DC6011995892BF0
:100DC00079F7C501DF91CF911F910F91FF90EF90BF
:100DD000DF90CF90BF90AF900895FC01A089B189BA
:100DE0008C91A689B78982FD0FC09C91818D8F5F00
:100DF0008F73228D821749F0A18DAE0FBF2FB11DC9
:100E00005D969C93818F08958C910895FC01538D7C
:100E1000448D252F30E0842F90E0821B930B5417D4
:100E200010F0CF96089501970895FC01918D828D61
:100E3000981761F0A28DAE0FBF2FB11D5D968C91FA
:100E4000928D9F5F9F73928F90E008958FEF9FEF39
:100E50000895FC01918D828D981731F0828DE80FF5
:100E6000F11D858D90E008958FEF9FEF0895FC01AF
:100E7000918D228D892F90E0805C9F4F821B91097C
:100E80008F739927089585E192E10E94370721E049
:100E9000892B09F420E0822F089582EB92E10E94D1
:100EA000370721E0892B09F420E0822F08958FE491
:100EB00093E10E94370721E0892B09F420E0822F7B
:100EC0000895FC01A48DA80FB92FB11DA35ABF4FDF
:100ED0002C91848D90E001968F739927848FA68939
:100EE000B7892C93A089B1898C91837080648C938D
:100EF000938D848D981306C00288F389E02D80813C
:100F00008F7D80830895EF92FF920F931F93CF936D
:100F1000DF93EC0181E0888F9B8D8C8D98131AC034
:100F2000E889F989808185FF15C09FB7F894EE891B
:100F3000FF896083E889F989808183708064808378
:100F40009FBF81E090E0DF91CF911F910F91FF90C3
:100F5000EF900895F62E0B8D10E00F5F1F4F0F736B
:100F60001127E02E8C8D8E110CC00FB607FCFACF26
:100F7000E889F989808185FFF5CFCE010E9461075C
:100F8000F1CFEB8DEC0FFD2FF11DE35AFF4FF082F7
:100F90009FB7F8940B8FEA89FB8980818062CFCF5D
:100FA000CF93DF93EC01888D8823B9F0AA89BB89A0
:100FB000E889F9898C9185FD03C0808186FD0DC08B
:100FC0000FB607FCF7CF8C9185FFF2CF808185FFAC
:100FD000EDCFCE010E946107E9CFDF91CF91089557
:100FE00080E090E0892B29F00E94570781110E9430
:100FF000000080E090E0892B29F00E944D078111CC
:101000000E94000080E090E0892B49F080E090E0B1
:10101000892B29F00E94000081110E94000080E0CD
:1010200090E0892B29F00E94430781110C94000065
:1010300008958150823108F05AC0E82FF0E08827E7
:10104000EB5DF74F8F4F0C94A36D450849083708A7
:101050003D08410877084C08520856085C086008AB
:1010600064086A086E087708720878087C0880911E
:1010700080008F77809380000895809180008F7D1D
:10108000F9CF80918000877FF5CF84B58F7784BDBD
:10109000089584B58F7DFBCF8091B0008F778093CA
:1010A000B00008958091B0008F7DF9CF80919000BD
:1010B0008F77809390000895809190008F7DF9CF75
:1010C00080919000877FF5CF8091A0008F778093EB
:1010D000A00008958091A0008F7DF9CF8091A0009D
:1010E000877FF5CF809120018F778093200108952D
:1010F000809120018F7DF9CF80912001877FF5CFEE
:10110000CF93DF93282F30E0F901E55AF54F849112
:10111000F901ED5DF44FD491F901ED57F44FC4910D
:10112000CC23A1F081110E941908EC2FF0E0EE0F02
:10113000FF1FE759F44FA591B491EC91ED2381E0A5
:1011400090E009F480E0DF91CF91089580E090E095
:10115000FACF1F93CF93DF93282F30E0F901E55AA0
:10116000F54F8491F901ED5DF44FD491F901ED57FC
:10117000F44FC491CC23A9F0162F81110E941908B5
:10118000EC2FF0E0EE0FFF1FE75FF44FA591B49155
:101190008FB7F894EC91111108C0D095DE23DC9341
:1011A0008FBFDF91CF911F910895DE2BF8CFCF93A2
:1011B000DF9390E0FC01ED5DF44F24918D57944F47
:1011C000FC0184918823C9F090E0880F991FFC01ED
:1011D000E151F54FA591B491FC01E75FF44FC59142
:1011E000D49161110DC09FB7F8948C912095822302
:1011F0008C938881282328839FBFDF91CF91089506
:10120000623051F49FB7F8943C91822F80958323EC
:101210008C93E8812E2BEFCF8FB7F894EC912E2B87
:101220002C938FBFEACF863308F0865320917B0042
:10123000982F9870277F922B90937B008770806403
:1012400080937C0080917A00806480937A00809102
:101250007A0086FDFCCF8091780090917900089506
:101260003FB7F8948091330F9091340FA091350FD0
:10127000B091360F26B5A89B05C02F3F19F00196F7
:10128000A11DB11D3FBFBA2FA92F982F8827BC01E0
:10129000CD01620F711D811D911D42E0660F771F08
:1012A000881F991F4A95D1F708958F929F92AF9208
:1012B000BF92CF92DF92EF92FF926B017C010E946E
:1012C00030094B015C01C114D104E104F104B9F00F
:1012D0000E943009681979098A099B09683E7340A0
:1012E0008105910580F321E0C21AD108E108F108D7
:1012F00088EE880E83E0981EA11CB11CE4CFFF90FD
:10130000EF90DF90CF90BF90AF909F908F90089517
:101310002FB7F89460912F0F7091300F8091310F9B
:101320009091320F2FBF0895CF92DF92EF92FF92EC
:101330000F931F93CF93DF930E948809AB01BC01E9
:10134000E091B614F090C714E4FBFF27F0F9E4FF36
:1013500079C00091BB141091BC142091BD14309140
:10136000BE14E7FB882780F9F11010C08091CF14DC
:101370009091D014DC019C918091D114982381E04C
:1013800009F480E09091B714917089278093C81474
:10139000DB01CA01801B910BA20BB30B8C019D01D9
:1013A000B091C8149091B51491FB882780F9BB23A4
:1013B00009F424C181111AC0013511052105310537
:1013C000A8F04093BB145093BC146093BD14709369
:1013D000BE14997E926190689093B5148091B71471
:1013E00080628093B71400E010E098018091B714F8
:1013F0009091B51484FF12C00D32A1E01A072105A7
:10140000310560F092FD05C083FDAFC0826080931E
:10141000B7148091B7148F7E8093B71491FF12C0D8
:101420000D3B12402105310568F092FD0BC0BB2336
:1014300009F49DC091609093B5148091B7148F7D8D
:101440008093B714FF2009F49FC0E6FB992790F919
:10145000C92FA0E0DA2FCC0FDD1FE5FB882780F92C
:101460008C2B2091B914281709F472C01092BA1469
:101470009091B71496FFB8C0833009F0A1C09F7B4C
:101480009093B714213009F497C091E0223009F409
:1014900094C0E3FD03C0833009F49DC02091BA14C9
:1014A000222309F446C09091B51498609093B51426
:1014B000233040F49091B71497FF04C093E0921B3F
:1014C0009093BA149091C814911122C00091BF1446
:1014D0001091C0142091C1143091C2146A017B0193
:1014E000C01AD10AE20AF30A0091B81410E030E001
:1014F00020E0C016D106E206F30650F42091BA149B
:10150000213009F074C02091B61422602093B614E3
:101510004093BF145093C0146093C1147093C214CD
:10152000FF2339F0992329F09091BA149E5F90938C
:10153000BA148093B9148091B51484608093B51463
:101540004093BB145093BC146093BD147093BE14AD
:10155000DF91CF911F910F91FF90EF90DF90CF908F
:1015600008958091B71488603CCF846050CF9D7FF0
:101570009E7F9093B5144093BB145093BC1460931A
:10158000BD147093BE145ECFA091C914B091CA145B
:101590009C918091CB14982321E009F420E0A09144
:1015A000CC14B091CD149C918091CE14982382E0FC
:1015B00009F480E0822B55CF92E09093BA1469CF62
:1015C000E3FD4DC081116ACF9F7B9093B71421300A
:1015D00041F0223031F09091B71490649093B71499
:1015E0005DCF2093BA14F7CF8823A9F352CF2230CE
:1015F00009F08ECF2091B614216088CF882309F49A
:10160000F5CE013511052105310508F4EFCE92FD27
:1016100005C090FD03C090629093B5140D3B12403D
:101620002105310528F08091B51480648093B514AC
:101630008091B5144093BB145093BC146093BD14B7
:101640007093BE148D7F8E7F8093B5148091B714F4
:1016500085FF87CF84FD85CF8061877FC2CE8823B9
:1016600009F4B9CF66CF8091B61482FD0E94940927
:101670009091B51494FB882780F994FF03C09F7E56
:101680009093B51408958091B61482FD0E94940938
:101690008091BA14823021F41092BA1481E0089536
:1016A00080E008958091B61482FD0E949409809193
:1016B000BA14813019F41092BA14089580E0089594
:1016C0002091E40E260F3327331F21323105ECF42D
:1016D0002091080FFC0190E080E0243069F082E066
:1016E0000895A091E40E2191AC014C53514FA40FE9
:1016F000B52FB11D2C930196861798F38091E40EB7
:10170000680F6093E40E80E0089581E008950895E5
:101710008FEF9FEF08958FEF9FEF08958091BD0E9B
:1017200090E09195819591090895CF93DF93CB0136
:10173000EA01642F0E94600BCE01DF91CF910895E2
:10174000CF93DF931F92CDB7DEB7698361E0CE01FF
:1017500001960E94600B81E090E00F90DF91CF91A5
:1017600008958FB7F8948091B70E8FBF089561E008
:10177000FC0184810E94A9088091B60E811110920B
:10178000B60E08958EBD00000DB407FEFDCF8EB5D8
:1017900008958FEF0C94C20B0F931F93CF93DF9399
:1017A000EC010E9488098B010E94C90B8F3F69F0F0
:1017B0000E948809601B710B6C177D07A8F380E0FD
:1017C000DF91CF911F910F91089581E0F9CF8CBDEA
:1017D0009DBD0895CF93DF93EC018091B60E8111EA
:1017E00009C081E08093B60E8091EC139091ED13C7
:1017F0000E94E70B60E08C81DF91CF910C94A908E7
:101800008F929F92AF92BF92FF920F931F93CF93AD
:10181000DF93EC01F62E49015A018E81882389F06D
:101820008F8198859C012F5F3F4F38872F838230AF
:10183000924018F40E94C90BF3CFCE010E94B70B5F
:101840001E82CE010E94EA0B8CE291E00E94CC0B3A
:101850008F2D80640E94C20B08E110E0D501C40105
:10186000002E04C0B695A795979587950A94D2F750
:101870000E94C20B08501109083F8FEF180771F73B
:1018800085E9FF2021F028E087E8F2128FEF0E941F
:10189000C20B10E00E94C90B8A8787FF04C01F3F5C
:1018A00011F01F5FF7CFDF91CF911F910F91FF9044
:1018B000BF90AF909F908F9008958F929F92AF921C
:1018C000BF92EF92FF920F931F93CF93DF93EC01A0
:1018D000E62E1B8619861E821D8285E38C830E945C
:1018E00088098B0161E08C810E94D70861E08C81BE
:1018F0000E94A908FFB6F89480911210811127C0A8
:10190000E8EBFBE08491E8E5FBE09491E82FF0E060
:10191000EE0FFF1FE151F54FA591B491EC91E92332
:1019200021F461E085E30E94A90861E085E30E945B
:10193000D7088CB580618CBD8CB580648CBD61E0AE
:1019400084E30E94D70861E083E30E94D708809176
:1019500012108F5F80931210FFBE82E58093EC130C
:101960001092ED138091EC139091ED130E94E70B10
:101970002AE0F22E8FEF0E94C20BFA94F110FACFF8
:10198000CE010E94EA0B20E030E0A90160E0CE0128
:101990000E94000CF82E8A8781E0F816C9F00E9498
:1019A0008809601B710B613D774068F381E08D838E
:1019B000CE010E94B70BF12C8F2DDF91CF911F919B
:1019C0000F91FF90EF90BF90AF909F908F900895F0
:1019D0002AEA31E040E050E068E0CE010E94000CCD
:1019E00082FF25C0FB868B85812C912C540182308F
:1019F00029F4812C912CA12C80E4B82E20E030E039
:101A0000A90167E3CE010E94000CA501940169E2DF
:101A1000CE010E94000C8A878823C1F00E948809A9
:101A2000601B710B613D774048F388E0C0CF94E0C4
:101A3000B92E0E94C90B8A87BA94B110FACF8A3A9C
:101A400011F082E0B4CF82E08B87CDCF8B858230DE
:101A5000C1F420E030E0A9016AE3CE010E94000C4D
:101A6000882311F086E0A3CF0E94C90B807C803CC4
:101A700011F483E08B870E94C90B0E94C90B0E945E
:101A8000C90BCE010E94B70B82E0E81631F080E569
:101A90008093EC131092ED138FCF81E58093EC13BC
:101AA00081E08093ED1388CFAF92BF92CF92DF9207
:101AB000EF92FF920F931F93CF93DF93EC01690195
:101AC000C801820F931F8130924050F58E81882388
:101AD00079F088819981AA81BB8184179507A6072F
:101AE000B70731F48F819885C816D90608F042C02F
:101AF000488359836A837B838B85833039F089E0FF
:101B0000440F551F661F771F8A95D1F79A01AB01C5
:101B100061E1CE010E94000C882389F083E08D836F
:101B2000CE010E94B70B80E0DF91CF911F910F9102
:101B3000FF90EF90DF90CF90BF90AF9008950E94FC
:101B400088095B010E94C90B8A878F3F69F40E9454
:101B500088096A197B096D327140A0F38FE08D838B
:101B6000CE010E94B70BDCCF8E3F89F418861F820E
:101B700081E08E838F8198858C159D0550F40E949D
:101B8000C90B8F819885019698878F83F3CF8DE05D
:101B9000E6CF6701E00EF11E0E94C90BF6018193AA
:101BA0006F01EE15FF05C1F78F819885080F191F8A
:101BB00018870F838985882319F001151240A0F03A
:101BC0008E81882389F08F8198859C012F5F3F4FFC
:101BD00038872F838230924018F40E94C90BF3CFCC
:101BE000CE010E94B70B1E8281E09ECFCF92DF9282
:101BF000EF92FF920F93CF93DF93EC01690182E1A3
:101C0000411551056105710599F08B85833039F0D7
:101C100089E0440F551F661F771F8A95D1F79A01F7
:101C2000AB0168E1CE010E94000C882319F084E02A
:101C30008D832DC08EEF0E94C20B76018EEFD81AD5
:101C4000F70181917F010E94C20BEC14FD04C1F7E2
:101C50008FEF0E94C20B8FEF0E94C20B0E94C90B34
:101C60008A878F71853071F4011116C0CE010E94F0
:101C7000B70B81E0DF91CF910F91FF90EF90DF9054
:101C8000CF90089581E18D83CE010E94B70BCE01E4
:101C90000E94B70B80E0EECF88E592E00E94CC0B6B
:101CA000811102C085E1C4CF20E030E0A9016DE0E0
:101CB000CE010E94000C882311F084E1B9CF0E946C
:101CC000C90B8111FACFD2CF0F934091B90E509129
:101CD000BA0E6091BB0E7091BC0E411551056105A5
:101CE000710599F0082F25E130E180911310909152
:101CF00014100E94F60D882349F01092B90E10922C
:101D0000BA0E1092BB0E1092BC0E81E00F91089596
:101D10000F93CF93C82F8091B80E811105C0C1E0F9
:101D20008C2FCF910F910895409136025091370238
:101D300060913802709139020C2F25E130E18091D9
:101D40001310909114100E94F60D811102C0C0E092
:101D5000E7CFCC2321F381E00E94640E8823B9F3FE
:101D60001092B80EDDCF8F929F92AF92BF92EF92FA
:101D7000FF920F931F93CF934B015C01C42F80916F
:101D8000360290913702A0913802B091390288153D
:101D90009905AA05BB0551F181E00E94880E8111C9
:101DA0000BC080E0CF911F910F91FF90EF90BF90FB
:101DB000AF909F908F90089585E1E82E80E1F82EF6
:101DC00000E012E030E020E0B501A40180911310A2
:101DD000909114100E94540D882319F380923602BA
:101DE00090923702A0923802B09239024091B80E18
:101DF0004C2B4093B80E81E0D5CFCF93DF93EC010D
:101E00006E857F858889998941E00E94B30E882379
:101E100051F08A8920E2829FC00111248B5E9F4E7F
:101E2000DF91CF91089590E080E0FACF8F929F925A
:101E3000AF92BF92CF92DF92EF92FF92CF932EEEAE
:101E400033E13093141020931310882309F46DC0EC
:101E500040E060E070E0CB010E94B30E81110BC046
:101E600080E0CF91FF90EF90DF90CF90BF90AF9048
:101E70009F908F9008958091D3118F7789F78091EB
:101E8000DF119091E011A091E111B091E21184363F
:101E90009105A105B10520F3C090DB11D090DC11B4
:101EA000E090DD11F090DE11C114D104E104F104E1
:101EB000B9F240E0C701B6010E94B30E882381F257
:101EC00080912010909121108115924049F6A091A7
:101ED0002510AA2329F26091231070912410611516
:101EE000710509F4BDCF20912210222309F4B8CF47
:101EF000A0930C142093FE1390E080E030E0E1E02A
:101F0000F0E0C82FAF01082E02C0440F551F0A94FD
:101F1000E2F72417350769F041E0480F0196893050
:101F2000910579F7409307149BCFC12CD12C7601F2
:101F3000C0CF8093071420912B1030912C1050E0CB
:101F400040E02115310541F42091391030913A10CB
:101F500040913B1050913C102093FF13309300149C
:101F6000409301145093021446015701860E971EA8
:101F7000A11CB11C80920D1490920E14A0920F140B
:101F8000B0921014E0912610F0912710F0931314E2
:101F9000E0931214B0E00E943C6CDC01CB01880D90
:101FA000991DAA1DBB1D8093141490931514A09322
:101FB0001614B093171425E0EE0FFF1F2A95E1F7D2
:101FC000E150FE4FEF2FFF27E6958E0F9F1FA11DBB
:101FD000B11D8093081490930914A0930A14B09330
:101FE0000B148090281090902910B12CA12C8114F2
:101FF000910441F48090351090903610A0903710E5
:10200000B0903810C81AD90AEA0AFB0AC80CD91CC1
:10201000EA1CFB1C04C0F694E794D794C794CA95B5
:10202000D2F7C0920314D0920414E0920514F092F7
:10203000061485EFC8168FE0D806E104F10428F4F1
:102040008CE08093111481E00CCF80E125EFC21663
:102050002FEFD206E104F104A0F38091411090919A
:102060004210A0914310B0914410809314149093A7
:102070001514A0931614B093171480E2E2CF81E0F8
:102080000E94160F811102C00C94160F81E0089572
:102090004F925F926F927F928F929F92AF92BF9278
:1020A000CF92DF92EF92FF920F931F93CF93DF9324
:1020B000EC01423051056105710590F480E0DF913B
:1020C000CF911F910F91FF90EF90DF90CF90BF9035
:1020D000AF909F908F907F906F905F904F900895FA
:1020E00089859A85AB85BC850196A11DB11D841794
:1020F0009507A607B70710F3CB88DC88ED88FE8824
:102100008F89803109F042C0BB27A72F962F852FDA
:10211000480159012A013B01C80ED91EEA1EFB1EC7
:102120008091360290913702A0913802B091390225
:10213000C816D906EA06FB0699F58F898031C1F5E4
:10214000B301A201552766277727440F551F4B5E21
:102150005F4EFA01918280828091B80E81608093F7
:10216000B80E8A89823080F08D819E81AF81B885DA
:102170008C0D9D1DAE1DBF1D8093B90E9093BA0EA0
:10218000A093BB0EB093BC0E81E099CFDB01CA01D6
:10219000E7E0B695A79597958795EA95D1F7B8CFDB
:1021A00040E0C701B6010E94B30E8111C6CF86CFB1
:1021B000B301A2014F77552766277727440F551F94
:1021C000440F551F4B5E5F4EFA0180829182A282BE
:1021D000B382C2CF8F929F92AF92BF92CF92DF9283
:1021E000EF92FF920F931F93CF93DF93FC018185B2
:1021F0009285A385B4850196A11DB11D841795070D
:10220000A607B70770F480E0DF91CF911F910F917F
:10221000FF90EF90DF90CF90BF90AF909F908F9006
:10222000089583889488A588B6888789803189F540
:10223000BB27A72F962F852FE9016A017B018F010C
:10224000BC01CD01680D791D8A1D9B1D8090360251
:1022500090903702A0903802B09039028616970607
:10226000A806B90601F5F8018789803111F5DD244A
:10227000EE24FF24F601EE0FFF1FEB5EFF4E808180
:102280009181B0E0A0E088839983AA83BB8381E039
:10229000BBCFDB01CA01C7E0B695A7959795879597
:1022A000CA95D1F7C9CF40E00E94B30E8111DBCFB0
:1022B000AACFE894C7F8DD24EE24FF24F601EE0F40
:1022C000FF1FEE0FFF1FEB5EFF4E80819181A28109
:1022D000B381BF70D8CF4F925F926F927F92AF92CF
:1022E000BF92CF92DF92EF92FF920F931F93CF9303
:1022F000DF9300D01F92CDB7DEB78C0149835A839C
:102300006B837C835901C12CD12C7601412C82E056
:10231000582E612C712C49815A816B817C819E01E0
:102320002F5F3F4FC8010E94EA10882339F1F8015E
:102330008585A301920104C0220F331F441F551F3E
:102340008A95D2F7DA01C901C80ED91EEA1EFB1E12
:1023500049815A816B817C818789803111F188EFB5
:102360009FEFAFEFBFE0481759076A077B0798F266
:10237000F501C082D182E282F38281E00F900F905A
:102380000F900F90DF91CF911F910F91FF90EF90E1
:10239000DF90CF90BF90AF907F906F905F904F9005
:1023A000089588EF9FEFA0E0B0E0DDCFCF93DF93FB
:1023B000FC012581222321F080E0DF91CF91089557
:1023C000EC0180911114803159F582E08583178AE0
:1023D000108E118E128E8091121490911314B0E011
:1023E000A0E025E0880F991FAA1FBB1F2A95D1F7EF
:1023F000838B948BA58BB68B8AEF93E19C8F8B8F0D
:1024000081E08C831E821F82188619861A861B869D
:102410001C861D861E861F86188A198A1A8ACDCFA9
:10242000803251F683E08583409114145091151445
:102430006091161470911714478B508F618F728FB3
:102440009F012D5E3F4F8AEF93E10E946B11811136
:10245000D3CFB2CF8F929F92AF92BF92CF92DF92A3
:10246000EF92FF920F931F93CF93DF93EC018D8137
:1024700081110EC080E0DF91CF911F910F91FF90ED
:10248000EF90DF90CF90BF90AF909F908F90089586
:102490000B891C892D893E890417150726073707E4
:1024A00048F34A015B01823031F48A869B86AC8610
:1024B000BD8681E0E0CF81149104A104B10449F408
:1024C0001E821F82188619861A861B861C861D8608
:1024D000F0CF0A851B852C853D85EB8DFC8D858590
:1024E00090E00996B901A8014150510961097109AB
:1024F000082E04C076956795579547950A94D2F7AC
:1025000075016401E1E0CE1AD108E108F10804C0C8
:10251000F694E794D794C7948A95D2F7C416D50653
:10252000E606F70620F0012B022B032B11F58F890D
:10253000988DA98DBA8D8E839F83A887B9878E01C8
:102540000A5F1F4FC114D104E104F10409F4ADCFB7
:102550004E815F816885798598018B8D9C8D0E9465
:10256000EA1091E0C91AD108E108F1088111EACF17
:1025700081CFC41AD50AE60AF70AE1CF3F924F92FB
:102580005F926F927F928F929F92AF92BF92CF9203
:10259000DF92EF92FF920F931F93CF93DF93CDB70C
:1025A000DEB72C970FB6F894DEBF0FBECDBF5C012F
:1025B000DC015B968D909C905C9716964D905D909B
:1025C0006D907C901997411451046104710409F4D1
:1025D00068C0BFEF4B1A5B0A6B0A7B0A312CF4010F
:1025E00081859285A385B4859C01AD012F5F3F4F06
:1025F0004F4F5F4F29873A874B875C877301620192
:102600001D821E821F821886F40181859285A38512
:10261000B4852D813E814F815885281739074A0797
:102620005B0708F056C089859A85AB85BC858C15FB
:102630009D05AE05BF0550F482E0C82ED12CE12CDB
:10264000F12C92E0492E512C612C712C9E012F5FB0
:102650003F4FB701A601C4010E94EA108823C9F1C7
:1026600089819A81AB81BC81892B8A2B8B2B09F1C3
:10267000260137019FEF491A590A690A790A2D8103
:102680003E814F8158852F5F3F4F4F4F5F4F2D83C6
:102690003E834F8358873FEFC31AD30AE30AF30AF6
:1026A000B3CFF4014080518062807380332433942F
:1026B00096CFC414D504E604F70409F70FEF1FEF13
:1026C0002FEF3FE0B701A601C4010E94481081111D
:1026D00019C080E02C960FB6F894DEBF0FBECDBFB8
:1026E000DF91CF911F910F91FF90EF90DF90CF90EE
:1026F000BF90AF909F908F907F906F905F904F9022
:102700003F900895D50116964D915D916D917C9104
:102710001997411551056105710539F09701860139
:10272000C4010E9448108823A1F2D5011696CD92CB
:10273000DD92ED92FC921997332051F0D701C6013A
:102740000196A11DB11DF40180839183A283B383FF
:10275000F5018789908DA18DB28D892B8A2B8B2BCA
:1027600039F48481C78AD08EE18EF28E80688483AA
:10277000F50184818062848381E0ACCF2F923F9207
:102780004F925F926F927F928F929F92AF92BF9281
:10279000CF92DF92EF92FF920F931F93CF93DF932D
:1027A000EC015B012A018D81811115C08FEF9FEF34
:1027B000DF91CF911F910F91FF90EF90DF90CF901D
:1027C000BF90AF909F908F907F906F905F904F9051
:1027D0003F902F9008958C8180FFE8CF0B891C8952
:1027E0002D893E894A855B856C857D85C201B0E077
:1027F000A0E068017901C41AD50AE60AF70AC816EA
:10280000D906EA06FB0618F42801441A550A4201C3
:102810001E0126E0220E311C8114910409F4B3C07C
:102820004A855B856C857D856A0181E0D8228B8D28
:102830009C8D8A019B01E9E03695279517950795B0
:10284000EA95D1F7ED81E230E1F5FC01628D738DFF
:10285000848D958D600F711F821F931F612C22E064
:10286000722E6C187D088614970408F434012C81AC
:1028700026FD04C06114F2E07F0671F40091360277
:10288000109137022091380230913902061717074C
:102890002807390709F053C040E00E94B30E88238F
:1028A00009F484CFC6018B5E9F4ED5019C01260D95
:1028B000371DFC012E173F0709F460C041914D936D
:1028C000F9CFFC0174807A947022C114D10471F4A0
:1028D00071100CC0452B462B472B39F58F89988DED
:1028E000A98DBA8D8E839F83A887B987EB8DFC8DC8
:1028F0006E817F818885998562507109810991096E
:10290000258504C0660F771F881F991F2A95D2F767
:102910000685178520893189600F711F821F931FDB
:10292000670D711D811D911D99CF4E815F81688555
:10293000798591010E94EA108111D8CF37CF7501B6
:1029400083019601AB01BC0180911310909114108A
:102950000E94540D882309F429CFA60CB71C8A8540
:102960009B85AC85BD85860D971DA11DB11D8A87F0
:102970009B87AC87BD87861897084ECF281B390BDD
:10298000A20EB31EECCFC20113CFFC01818D928D3C
:10299000009721F044E150E00C94BE1390E080E0F9
:1029A00008951F93CF93DF93FC012581222371F1BA
:1029B000162FEC01848187FF1EC0CF010E94FD0EFF
:1029C000FC01892B19F18D81823040F48B899C891F
:1029D000AD89BE89848F958FA68FB78F8F89988D8B
:1029E000938F828F8F89988DA98DBA8DB58BA48B8B
:1029F0008C818F778C83111103C08C818F7E8C83A7
:102A0000812FDF91CF911F910C94880E80E0DF9190
:102A1000CF911F910895FF920F931F93CF93DF9350
:102A2000EC018D81813041F090E080E0DF91CF9129
:102A30001F910F91FF9008958C8181FFF5CF82FD4A
:102A40001BC00091131010911410C8010E94EA0BD2
:102A50000E94C90BF82EC8010E94B70B8FEFF81225
:102A6000E3CF8C8185FF1BC060E0CE010E94D114B2
:102A70008C818F7D8C83D8CF4B895C896D897E89D1
:102A80008A859B85AC85BD8584179507A607B70702
:102A9000C1F2CE010E942A128111D3CFC5CF40913D
:102AA000B90E5091BA0E6091BB0E7091BC0E452BC1
:102AB000462B472B21F080E00E94640EB5CF806149
:102AC0008C832A853B85317080E092E0821B930BDA
:102AD000ADCFCF93DF93EC0161E00E94D114882346
:102AE00011F01D8281E0DF91CF9108952F923F92E6
:102AF0004F925F926F927F928F929F92AF92BF920E
:102B0000CF92DF92EF92FF920F931F93CF93DF93B9
:102B100000D01F921F92CDB7DEB77C015B01342E2F
:102B20005D83DC0115968C911597813009F0CEC03C
:102B300014962C9021FECAC022FCB4C0C32CDD80A8
:102B400022947FE027222094B22DB1702B2ED70142
:102B50001A964D915D916D917C911D97C114D10490
:102B600009F428C15B968D919C915C97FC0174805F
:102B70007A948A019B0169E0369527951795079508
:102B80006A95D1F770228A011170711020C0011569
:102B90001105E9F416964D915D916D917C9119970F
:102BA000411551056105710509F099C057968D9140
:102BB0009D910D90BC91A02D0097A105B10509F044
:102BC000B0C0C7010E94BE12882309F47FC080E014
:102BD00092E0801B910B46018C159D0508F44C0179
:102BE000D7015B964D915C915C9716968D919D9166
:102BF0000D90BC91A02D0297A109B109FA0125857C
:102C000004C0880F991FAA1FBB1F2A95D2F74685BB
:102C1000578560897189840F951FA61FB71F9C0176
:102C2000AD01270D311D411D511D29013A018114AE
:102C300032E0930609F07BC0809136029091370212
:102C4000A0913802B091390284159505A605B70503
:102C500059F48FEF9FEFDC01809336029093370297
:102C6000A0933802B0933902022D9501B301A2015D
:102C700080911310909114100E94F60D882331F169
:102C80009EEFB91AC818D908F70182859385A485E3
:102C9000B585880D991DA11DB11D82879387A487D5
:102CA000B58755CFF701438954896589768982852F
:102CB0009385A485B585481759076A077B0709F4EA
:102CC0003DCFC7010E942A12811138CF81E090E0E8
:102CD000D70113969C938E93129780E007C09E01B4
:102CE0002F5F3F4F0E94EA10811102C090E079C02F
:102CF00089819A81AB81BC81F701238D348DF901E3
:102D0000278948EF5FEF60E070E0203121F048EF65
:102D10005FEF6FEF7FE084179507A607B70708F00E
:102D200050CFF70186839783A087B18750CF0115D5
:102D3000110599F5D7011A964D915D916D917C9190
:102D40001D9753968D919D910D90BC91A02D481784
:102D500059076A077B0708F181E00E94880E8823E3
:102D600009F4B4CF40923602509237026092380292
:102D7000709239028091B80E81608093B80EC801BC
:102D80008B5E9F4ED5019C01280D391DFC012E172D
:102D90003F0759F04D914193FACF41E0C301B20191
:102DA0000E94B30E8111EBCF91CF281B390BA20EDD
:102DB000B31E68CFF70183899489A589B6898417E2
:102DC0009507A607B70738F48481438B548B658B2E
:102DD000768B80688483F701848183FD1AC0832DFC
:102DE0009D810F900F900F900F900F90DF91CF91DA
:102DF0001F910F91FF90EF90DF90CF90BF90AF9019
:102E00009F908F907F906F905F904F903F902F900A
:102E1000089561E0C7010E94D114882309F456CFB8
:102E2000DECFCF93DF931F92CDB7DEB7698341E04A
:102E300050E0BE016F5F7F4F0E9476150F90DF91CB
:102E4000CF910895FC01DB0112968D919C9113970F
:102E50009383828382EB92E09183808314968C919A
:102E60001497848315968C911597858316964D91AA
:102E70005D916D917C911997468357836087718727
:102E80001A964D915D916D917C911D974287538764
:102E9000648775871E964D915D916D917C915197D8
:102EA00046875787608B718B52968C915297828B95
:102EB00053964D915D916D917C915697438B548BB8
:102EC000658B768B57964D915D916D917C915A975C
:102ED000478B508F618F728F5B968D919C91948FF1
:102EE000838F0895DC015996ED91FC91309721F084
:102EF00081E09581911101C080E00895FC01818DF0
:102F0000928D009719F061E00C94D1140895DC01C2
:102F10005996ED91FC913097B9F083899489A589F0
:102F2000B6894285538564857585841B950BA60BF0
:102F3000B70B811520E89207A105B10538F08FEF96
:102F40009FE7A0E0B0E0089590E080E00895DC0104
:102F500059968D919C91009739F0DC01ED91FC918F
:102F60000480F581E02D199490E080E00895CF93DE
:102F7000DF93EC01E98DFA8D309749F481E090E020
:102F80009B838A8390E080E0DF91CF910895138244
:102F90001282898D9A8D0E947615E98DFA8D228193
:102FA0003381232B59F7F0CFCF93DF931F92CDB707
:102FB000DEB76983DC01ED91FC910280F381E02DA5
:102FC00041E050E0BE016F5F7F4F19950F90DF9198
:102FD000CF910895FC011382128288EE93E0A0E065
:102FE000B0E084839583A683B7838EE892E09183D3
:102FF0008083128E118E14860895CF93DF931F92D3
:10300000CDB7DEB741E050E0BE016F5F7F4F0E9459
:10301000BE13019731F4898190E00F90DF91CF9139
:1030200008958FEF9FEFF9CFFC01818D928D00976E
:1030300011F00C94FD178FEF9FEF08950F931F93DE
:10304000CF93DF93EC01898D9A8D10E000E000971B
:1030500099F00E94FD178C010F3F100769F0898DD0
:103060009A8DFC01428553856485758541505109CF
:10307000610971090E942A12C801DF91CF911F9145
:103080000F91089580E00895DC011696ED91FC9172
:10309000179712968C91481B477081E090E001C011
:1030A000880F4A95EAF7E60FF11D3081222319F0C7
:1030B000832B8083089580958323FBCFFB0141817F
:1030C000DC0112962C911297421768F013962C91FE
:1030D0001397241740F0608115962C91621718F40D
:1030E00024810C9444180895FC0180819281980FEA
:1030F00092832181921760F494819F5F94839381DE
:10310000890F821710F08FEF820F838381E008957B
:1031100080E00895FC0112828081815083831482B3
:103120000895DB01ED91FC9119940F931F93CF93B8
:10313000E0917314F0917414309719F085E694E1DE
:1031400019950091671410916814E0919614F0910C
:10315000971482E01995E0919614F091971481E00C
:10316000199530E020E045E1B80185E694E10E9440
:103170009118C82F882341F028E934E147E1B801CC
:1031800085E694E10E949118E0919614F0919714CD
:1031900080E019958C2FCF911F910F910895EF9298
:1031A000FF920F931F93CF93DF93082F162FC42FF7
:1031B000D42FF82EF40EEE24EA948F2D8D1BD830E8
:1031C00080F58C2F887F800F9C2F969596959695ED
:1031D00028EF929FC00D1124CC23C1F197E0C9279D
:1031E0006091671470916814809381141093821415
:1031F00010928414CF5FC7708FEF90E001C0880FEA
:10320000CA95EAF78093831421E834E14BE385E61D
:1032100094E1DF91CF911F910F91FF90EF900C946B
:1032200091186091671470916814809381141093C1
:10323000821410928414E092831421E834E14BE369
:1032400085E694E10E949118D850B7CFDF91CF91D5
:103250001F910F91FF90EF9008950F931F93CF93BD
:10326000DF93182FC62F042FD62FD20F402F6C2F8D
:10327000812F0E94CF18CF5FCD13F8CFDF91CF9170
:103280001F910F910895DF92EF92FF920F931F937A
:10329000CF93DF93182F062FC42FD42FF62EF40EC2
:1032A000EE24E394DD24DA948F2D8D1BD83090F535
:1032B0008C2F887F800F9C2F96959695969528EF5A
:1032C000929FC00D1124CC23D1F197E0C9276091C2
:1032D000671470916814109381148093821481E0B4
:1032E00080938414CF5FC7708FEF90E001C0880F88
:1032F000CA95EAF78093831421E834E14BE385E62D
:1033000094E1DF91CF911F910F91FF90EF90DF90AB
:103310000C94911860916714709168141093811443
:1033200080938214E0928414D092831421E834E1D3
:103330004BE385E694E10E949118D850B5CFDF9118
:10334000CF911F910F91FF90EF90DF900895962FEE
:10335000E1E6F4E16681778180A391A321E834E17D
:1033600042E385E694E10C949118CF92DF92EF92BC
:10337000FF920F931F93CF93DF93C82F162FD42F55
:10338000082F041B481710F0042F081B211740F4C6
:10339000F12EF21A0F15D8F0DC1790F1D12C10C0D5
:1033A000F22EF11A0F1508F042C0802F0F2DF82EC3
:1033B0008D2FD22F282F8C2FC12F182FDD24D3949F
:1033C000E02EE694121718F1CC24CA9422C0802F64
:1033D0000F2DF82E812F1D2FD82F8C2FC22F282F85
:1033E000EDCF612F8C2FDD2011F06C2F812F0E94EB
:1033F000A719EF18E7FE02C01C0DE00ECF5F0CC04E
:10340000E02EE6948D2FDC2FC82F122FD12CCC2448
:10341000C394DF3F09F4DEEFDC1718F7DF91CF919B
:103420001F910F91FF90EF90DF90CF900895DC17E0
:1034300008F0B4CFE02EE6948D2FDC2FC82F122F8A
:10344000D12CC2CFCF93DF931F92CDB7DEB79E01B1
:103450002F5F3F4F47E40E94911889810F90DF91C1
:10346000CF910895CF93DF931F92CDB7DEB79E0122
:103470002F5F3F4F46E40E94911889810F90DF91A2
:10348000CF910895BF92CF92DF92EF92FF920F9368
:103490001F93CF93DF938C01D42EE901FB01E280CF
:1034A000F380F2E34F1709F476C0F417C8F08CE20A
:1034B000481709F470C0EDE24E17E9F0F7E14F1735
:1034C00079F19E014D2DB701C801DF91CF911F9178
:1034D0000F91FF90EF90DF90CF90BF900C949118D8
:1034E00086E4481709F44CC0E7E44E1709F44EC0CF
:1034F000FBE34F13E6CFB701C8010E94221AC9802F
:10350000C094C80EB701C8010E94321A98819095E4
:10351000890F8883C9828B818E5F83708B834BC0B8
:1035200047E1B701C8010E949118B701C8010E9484
:10353000321ABA80B094B80EB701C8010E94321A8C
:10354000D880D094D80EB701C8010E94221ACB802F
:10355000C094C80EB701C8010E94221A99819095A3
:10356000890FB882C982DA828B8381E0DF91CF91A3
:103570001F910F91FF90EF90DF90CF90BF90089533
:10358000B701C8010E94321A8883EFCFB701C80182
:103590000E94221AF9CFB701C8010E94221AC980DD
:1035A000C094C80EB701C8010E94321A9881909544
:1035B000890F8883C9829E014D2DB701C8010E94E1
:1035C0009118D3CFCF93DF93EC016A817B810E9466
:1035D000321A88836A817B81CE010E94221A8983F4
:1035E0006A817B8130E020E048E4CE010E9491189E
:1035F0008B879E012D5C3F4F6A817B8147E1CE0125
:10360000DF91CF910C949118CF93DF93C091671401
:10361000D0916814E0919614F091971482E0199576
:1036200030E020E04AE0BE0185E694E10E94911876
:10363000C82FE0919614F091971483E01995E091CA
:103640009614F091971480E01995CC2329F085E623
:1036500094E10E94E21AC1E08C2FDF91CF9108958E
:10366000CF93DF9380919E14811105C081E08093F8
:103670009E140E94041BC0916714D0916814E091BD
:103680009614F091971482E01995E0919614F091B8
:10369000971481E0199530E020E044E1BE0185E611
:1036A00094E10E94911828E934E147E1BE0185E6E2
:1036B00094E10E949118E0919614F091971480E0A3
:1036C000DF91CF9119940B96FC01849108950A968D
:1036D000FC0184910895FC01849108950E946B1B64
:1036E000882321F0823011F083E0089586E0089568
:1036F000FC01E60FF11D849190E0982F8827319608
:10370000E4918E0F911D089568E00C94781B66E09B
:103710000C94781B2EE93FE0009709F40895F90115
:103720003197F1F70197F8CF8EBD0DB407FEFDCFAD
:103730008EB50895860F911DFC0183A18F3F19F06E
:10374000642F0C94A9080895EF92FF920F931F9392
:10375000CF938C01C42F79016150673008F045C0C8
:10376000E62FF0E08827E854F44E8F4F0C94A36DB9
:10377000BF1BFC1B011C0D1C131C1D1C281C7801ED
:1037800083E2E80EF11C005D1F4FF70181917F017C
:103790008F3F49F061E00E94D70861E0F70131975F
:1037A00080810E94A908E016F10679F761E084E3C0
:1037B0000E94D70860E084E30E94A90861E083E3E7
:1037C0000E94D70860E083E30E94A90861E085E3D6
:1037D0000E94D70861E085E30E94A9081CBC80E52F
:1037E0008CBDC23010F481E08DBD81E0CF911F917E
:1037F0000F91FF90EF90089561E0C8010E949A1B1D
:10380000F4CF411103C041E062E0F7CF40E064E053
:10381000C8010E949A1B40E0F7CFF80183A160E045
:103820008F3F19F3EACF842F0E94941BDECFF7015C
:1038300081917F010E94941BC150C111F8CFD5CF57
:10384000F70184910E94941BFFEFEF1AFF0AC15009
:10385000C111F6CFCACFDB011496ED91FC9130E097
:1038600020E065E01994DB011496ED91FC9130E0C5
:1038700020E062E01994DB011496ED91FC9130E0B8
:1038800020E063E01994CF92DF92EF92FF920F93C2
:103890001F93CF93DF938C017B016A0180E0F601D7
:1038A000C491811110C081E0CF3F49F04C2FB70186
:1038B000C8010E942B1C882309F444C080E0BFEF9C
:1038C000CB1ADB0AECCF4FEFCF3F89F3CE3FD9F1D4
:1038D000C03FA0F7C03E38F04C2F4F70B701C80171
:1038E0000E94331CEBCFC03D38F04C2F4F70B70116
:1038F000C8010E943B1CE2CFC03CF8F0D7011496EF
:10390000ED91FC9130E020E040E064E0C8011995C1
:10391000C295C07FCE5FD0E0CE010E948A1BD70146
:103920001496ED91FC9130E020E041E064E0C801A4
:103930001995CE010E948A1BC1CFC7FDBFCF8C2F26
:1039400090E0F8CF80E0DF91CF911F910F91FF9031
:10395000EF90DF90CF900895AF92BF92DF92EF92F9
:10396000FF920F931F93CF93DF937C018B01D42E93
:10397000E9018FE0481709F472C0A5E14A17D1F1B7
:10398000BAE04B1310C0DB011496ED91FC9130E0CE
:1039900020E042E061E0C701199548E25AE0B80131
:1039A000C7010E94431CF80102811381F2E3DF1674
:1039B00009F4BCC0FD1508F46EC085E1D81609F401
:1039C000BAC0A7E1DA1609F4CBC0B4E1DB1261C0DA
:1039D000D8011696ED91FC91179715968C918E0F44
:1039E0009F2F911D11928E179F07E1F7C8010E942A
:1039F0008A184FC0FB01A280B38040E25AE0C701A1
:103A00000E94431CD50114964C91406BB801C7012C
:103A10000E942B1C41E0B801C7010E94331CF50134
:103A200026813781D8011496ED91FC91D501159628
:103A30004C9166E0C701199581110BC080E0DF91C0
:103A4000CF911F910F91FF90EF90DF90BF90AF90BB
:103A5000089540E0B801C7010E943B1CA4CF41E09B
:103A6000C7010E943B1C40E0B801C7010E94331C03
:103A700041E8B801C7010E942B1C48814695469534
:103A8000B801C7010E942B1C40E0B801C7010E9489
:103A90003B1C81E0D4CFE6E4DE1609F46BC0F7E40A
:103AA000DF1609F46CC08BE3D812F3CF99818B81B8
:103AB00038E0390F813031F0833011F0392F02C0F6
:103AC000392F985021E0D80113964C91491708F4EA
:103AD00020E041E0391708F040E091E0F801528120
:103AE000351708F490E0322F342B932311F424235C
:103AF00081F2FA80E12CD12C843048F490E0FC0172
:103B0000EA57FD4FD0808E579D4FDC01EC90F7FEB9
:103B100004C0BE01C8010E945E1888818D0D888393
:103B200089818E0D8983FF0C91F7B3CFBE01C80147
:103B30000E945E18AECFC8010E947418882309F451
:103B40007DCFD8011696ED91FC91179715968C9123
:103B50008E0F9F2F911D11928E179F07E1F799CF1E
:103B60001882F80182818983858181508A838381CB
:103B70008B838FCFD80115968C9188838ACFF801DB
:103B80008181FBCF0F93FC010150040F84A996A9FA
:103B9000941788F0081710F4041778F42150260FB2
:103BA00083A995A9961758F0281760F481E0261785
:103BB00020F40F910895081778F780E0FACF2817BE
:103BC000A8F7FBCF81E0F5CFFF920F931F93CF9320
:103BD000DF93C82FD62F142FF22E022F242F462F1B
:103BE000682F85E694E10E94C21D882359F02F2D8D
:103BF000412F6D2F8C2FDF91CF911F910F91FF904F
:103C00000C942D19DF91CF911F910F91FF90089582
:103C1000FF920F931F93CF93DF93D82F162FF42E7D
:103C2000C22F022F242F462F682F85E694E10E9491
:103C3000C21D8823E9F04F2D612F8D2F0E94CF18D0
:103C40004C2F612F8D2F0E9443198FEF8F0D4C2F1A
:103C5000612F8D0F0E9443196FEF6C0F610F4F2D75
:103C60008D2FDF91CF911F910F91FF900C94CF1862
:103C7000DF91CF911F910F91FF900895CF93DF9324
:103C8000FC01E60FF71FDA018191882339F08D914D
:103C9000882321F0EF0121978883F6CFDF91CF9120
:103CA0000895FC016115710519F4928381830895CB
:103CB00072836183DB018C9180830895CF93DF93BE
:103CC000C82FD091440FD0FF05C0682F82EB92E13E
:103CD0000E948307D1FF07C06C2F8FE493E1DF912F
:103CE000CF910C948307DF91CF910895CF93DF9309
:103CF000D62FC42F8F70806B0E945E1E8D2F0E9466
:103D00005E1E8C2FDF91CF910C945E1E0F931F933C
:103D1000CF93DF93EC01162FAA85BB851196ED9109
:103D2000FC91129780818C9300818A89806B0E941C
:103D30005E1E87E00E945E1E802F8F770E945E1EAF
:103D4000AC85BD851196ED91FC91129780818C9385
:103D500000818A89806D0E945E1E802F8F770E946D
:103D60005E1EAE85BF851196ED91FC911297808104
:103D70008C9300818A89806E0E945E1E80E00E9482
:103D80005E1E802F8F770E945E1E113061F41D89A8
:103D90008A89806C0E945E1E812FDF91CF911F91D6
:103DA0000F910C945E1E4B8960E08A890E94761EFA
:103DB0004C8960E28A890E94761EE9CF806B0E945E
:103DC0005E1E88E70E945E1E80E00C945E1ECF930C
:103DD000DF93D62FC42F80680E945E1E8D2F0E9415
:103DE0005E1E8C2FDF91CF910C945E1ECF93DF93DC
:103DF000D62FC42F80690E945E1E8D2F0E945E1EEA
:103E00008C2FDF91CF910C945E1E0E9494090E942A
:103E1000330B8823D1F30895CF93DF930E94940945
:103E20000E94330BC82FD0E00E94430B8111C26067
:103E30000E94520B8111C4608EE20E948008892B7F
:103E400009F4C860CE01DF91CF910895CF93DF933D
:103E5000009791F0FB0130E020E0EF01C61BD70B8B
:103E6000A191AA23C9F0AE33C1F72F5F3F4F82174C
:103E7000930799F7CE010196DB01A80FB91FFA014C
:103E80008D91882321F08E3311F08193F9CF108228
:103E900081E0DF91CF910895FA01108280E0F9CF9F
:103EA0000F931F93CF93DF9300D000D000D0CDB7F6
:103EB000DEB78091A1149091A214892B99F0809182
:103EC0003F0F4091400F50E070E060E0762F652F8B
:103ED000542F4427682B8091410F482B90E080E0BD
:103EE0000E941D068091A1149091A214029798F04F
:103EF00080913B0F40913C0F50E070E060E0762FE6
:103F0000652F542F4427682B80913D0F482B81E06B
:103F100090E00E941D068091A1149091A214039735
:103F200098F08091370F4091380F50E070E060E0DA
:103F3000762F652F542F4427682B8091390F482BFB
:103F400082E090E00E941D068091A8149091A9142F
:103F5000892B09F47CC00E9430090091AE141091A5
:103F6000AF142091B0143091B1146017710782071B
:103F7000930740F46093AE147093AF148093B01421
:103F80009093B1140091AE141091AF142091B0141D
:103F90003091B114601B710B820B930B6C3271402A
:103FA00081059105C0F2F8948091A3149091A41416
:103FB0009A838983E091A814F091A914DF011196E6
:103FC0008081898790919F14E091B214F091B3148D
:103FD0008091B414992309F445C09081982B988757
:103FE0009081809589238F838F818C8388E08B8358
:103FF00058856F8149853B812C8189819A815083C5
:1040000047FD252F3A952083262F39F0441F00C005
:1040100000006083000000C0F2CF38E04D91608363
:104020000000019761F7F093B314E093B21449874D
:104030003B832C839A83898378940E943009609310
:10404000AE147093AF148093B0149093B11429966A
:104050000FB6F894DEBF0FBECDBFDF91CF911F9199
:104060000F9108959081982B98879081809589234E
:104070008F838F818E8388E08D8358856F814985FA
:104080003D812E8189819A81508347FD252F00C073
:1040900000C0208300C000C000C000C000C060831A
:1040A0000000262F3A9541F0441F000000C000C0D8
:1040B00000C000C000C0E8CF38E04D9100C0608370
:1040C00000C0019709F7F093B314E093B214498745
:1040D0003D832E83AFCF3F924F925F926F927F923C
:1040E0008F929F92AF92BF92CF92DF92EF92FF9208
:1040F0000F931F93CF93DF93EC01162FDCAC5BACD7
:104100005C0124E0A20EB11CE98DFA8DC501199560
:10411000982EE884F984C7010E946B1B082F8885BC
:1041200099850E946E1B782E88248A94013011F4A0
:104130008FE0882E888599850E94671B082F8885C7
:1041400099850E94631BC82E888599850E94841BCF
:10415000113670F0009761F0E80EF91E01E6C11605
:10416000B8F41C8A1F8A188E1D8A1E8A80E05BC0E4
:10417000888599850E94871B113430F0009721F0C3
:10418000E80EF91E01E4EBCF81E1E80EF11CE7CF68
:10419000C01638F3872D90E0F70124912F3F39F4B2
:1041A000FFEFEF1AFF0AC016E1F20F5FF5CF101311
:1041B00068C0888599850E946B1B97012F5F3F4FD0
:1041C000F701882319F0823009F044C084918F8B65
:1041D000F9012491288FF7013396E491EC8BF701D4
:1041E0003496E491ED8BF7013596E491EE8BE11472
:1041F000F10409F4BBCF888599850E946E1B782E47
:10420000CF88388C8D89580E1D2D13198E89181B57
:10421000190D032D2C2D412F652DC5010E94C21DA6
:10422000811138C08C899BAD890F8BAF81E090E004
:10423000DF91CF911F910F91FF90EF90DF90CF9082
:10424000BF90AF909F908F907F906F905F904F90B6
:104250003F9008958491982F9F7092509E8B8295E5
:104260008F708D8BF9012491822F8F70888F22950A
:104270002F702F8BF7013296E491E295EF70EC8B63
:10428000B6CF3296E491E821E80FF92FF11DEE0E3A
:10429000FF1E89CFE70CF11C07E00C0D0695069573
:1042A0000695310E4E01F0E28F0E911C602E712C9E
:1042B000131509F4B7CF452C670112C0F60184919C
:1042C0006E817F8148A219A31BA28AA394014BE3AC
:1042D000C5010E949118FFEFCF1ADF0A28E0420EB5
:1042E0008C2D8E19801750F3E60CF71C1F5FE0CF62
:1042F000089590E080E00895FB01218132816217EA
:10430000730729F48081082E000C990B0895FC0195
:10431000E952FF4F89509F4FA191B191AD01455F87
:104320005F4F2417350731F41C968C9190E08095EF
:10433000909508958E179F0779F78FEF90E0F7CF4C
:10434000FC01E952FF4F9C0129503F4F90E080E073
:1043500041915191452B09F00196E217F307C1F7FE
:104360000895FC01E950FF4F9C01295E3E4F90E00B
:1043700080E041915191452B09F00196E217F30736
:10438000C1F708958F929F92AF92BF92CF92DF9222
:10439000EF92FF921F93CF93DF935C01EB01D12C3F
:1043A000C12C3BE1832E33E0932EF50114818581EE
:1043B000811B990B8C159D05C4F11C0D61E0812FAB
:1043C0000E94D70860E0812F0E94A908C4010197CC
:1043D000F1F719821882F501E380F12CF501828151
:1043E0008E151F0409F0A4F488819981880F991F04
:1043F000998388838E2D0E948008019729F48881F3
:104400009981816099838883F1E0EF1AF108E6CF02
:1044100060E0812F0E94D70860E0812F0E94A908E8
:104420008FEFC81AD80A2296C0CFDF91CF911F9183
:10443000FF90EF90DF90CF90BF90AF909F908F90C4
:1044400008954F925F927F928F929F92AF92BF9208
:10445000CF92DF92EF92FF920F931F93CF93DF9350
:10446000CDB7DEB760970FB6F894DEBF0FBECDBFF5
:104470008C017B01BE016F5F7F4F0E94C221FE0154
:104480003196912C50E040E030E020E0D8011596C4
:104490008C91159714969C911497891B990B8417EE
:1044A00095070CF46DC011968C91823079F4DA0185
:1044B000AA0FBB1FA95EBE4FA00FB11F80819181C3
:1044C0006D917C91862797279183808370E060E0CF
:1044D000D80113968C91139712969C911297891B71
:1044E000990B861797070CF445C0A080B180A0FEF9
:1044F0003AC0892C862A16964C90512C6801B8E057
:10450000CB0ED11C81E090E0481659063CF0D60154
:104510007D906D01871419F00196F6CF80E0882315
:1045200011F1D701A20FB31F8C932F5F3F4F2F3193
:104530003105C9F4F701178E80E060960FB6F89444
:10454000DEBF0FBECDBFDF91CF911F910F91FF90C6
:10455000EF90DF90CF90BF90AF909F908F907F9023
:104560005F904F900895B694A794B182A0826F5F38
:104570007F4FAECF4F5F5F4F329680E1980E86CF70
:10458000E20EF31ED7011C92D7CFDC01F0E0E0E091
:104590002D912223B1F0261310C0E80FF91F2081BE
:1045A000211102C081E00895218121939F01281BE0
:1045B000390B203231059CF3F5CF3196E032F1050D
:1045C00039F780E008959F92AF92BF92CF92DF9229
:1045D000EF92FF920F931F93CF93DF93EC018B0128
:1045E00090E080E09B012F5D3F4F79016E01C80E86
:1045F000D91EF601208121111FC06E01F1E2CF0EFC
:10460000D11CF80121918F01222309F49FC0EE15DE
:10461000FF0509F49BC03BA9231798F38CA98217C7
:1046200080F3DE01FE0181918823B1F0EC15FD05D8
:1046300099F02813F8CFE5CF80329105F4F6F80110
:104640003191332309F462C0EE15FF0509F45EC011
:104650002313F6CF0196CACF90E080E06D91AC01B4
:104660004F5F5F4F611146C08C0F9D1FFC0120837F
:104670004C0F5D1FFA011082F801319790818EA9CD
:104680006DA981113DC0A9A0BAA0F50180899189C9
:10469000FC01A181B2812C9120834C91F50182898A
:1046A0000E94F61E98ACF1E09F12ABCFE091480F4C
:1046B000F091490FE95DFE4FA080B180F50186AD14
:1046C000882309F49ECF85AD81119BCF84AD8150A5
:1046D000990B092E000CAA0BBB0B80AB91ABA2ABC4
:1046E000B3AB0E943009F50160AF71AF82AF93AFF9
:1046F00095AE87CFCA014032510509F0AFCF81CFC7
:10470000833009F4C0CF631B690FBDCF8EA96DA99B
:10471000882329F0833019F08BA9681B620FA9A0A8
:10472000BAA0F50180899189FC01A181B2812C9107
:1047300020834C91F50182890E94E71EF601608179
:10474000CE010E94C52290E080E084CFDF91CF911E
:104750001F910F91FF90EF90DF90CF90BF90AF909F
:104760009F900895FC019F01281B390B4191442320
:1047700039F04032C1F72F5F3F4F820F931F0895EA
:1047800008950F931F93CF93DF93EC018C01005E8C
:104790001F4F40E06A8189810E94E71E2496C0175E
:1047A000D107B9F7DF91CF911F910F910895CF9362
:1047B000DF93FB0122813381DC0113963C932E931E
:1047C0001297448155816681778114964D935D934C
:1047D0006D937C93179740855185628573851896F4
:1047E0004D935D936D937C931B971C96EF012C96D4
:1047F0009C01275E3F4F49914D93A217B307D9F70C
:10480000218D328DFC01328F218FDF91CF91089560
:1048100091E08091B40E811101C090E08091B614B6
:1048200090FB83F98093B61491E08091B30E8111CF
:1048300001C090E08091B71490FB87F98093B71482
:104840008091B6148B7F8093B6140895CF93C82FB0
:1048500060E00E94D70861E08C2FCF910C94A908EA
:104860008091460F813071F461E088E20E94A908CE
:1048700062E070E080E090E00E94550960E088E22C
:104880000C94A9080895FC012481358181859285C5
:10489000280F391F8681882351F0863010F085E07B
:1048A0008683868102C0220F331F8A95E2F78781B3
:1048B000882361F0863010F085E08783325087814D
:1048C00002C0220F331F8A95E2F73E5FC90137FF0E
:1048D00002C090E080E0813024E0920714F080E094
:1048E00094E00895CF92DF92EF92FF920F931F937F
:1048F000CF93DF938B01FB01EE0FEF2FEE1FFF0B2A
:10490000E80FF92FF11DC585D0E0668570E06C1BBE
:104910007D0B072E000C880B990B0E94966C20E0F3
:1049200030E040E85DE30E94FA6C6B017C0133E00B
:10493000159507953A95E1F70F70602F70E090E0BC
:1049400080E00E94966C9B01AC01C701B6010E94F9
:10495000FA6C0E945E6C6C0F7D1F75956795862FB3
:10496000DF91CF911F910F91FF90EF90DF90CF904B
:1049700008958F929F92AF92BF92CF92DF92EF9263
:10498000FF920F931F93CF93DF9300D01F92CDB769
:10499000DEB7FC018581813091F080E00F900F90AF
:1049A0000F900F90DF91CF911F910F91FF90EF909B
:1049B000DF90CF90BF90AF909F908F9008958481AB
:1049C00081FFEBCF83899489A589B689892B8A2BAE
:1049D0008B2B09F45FC07F0140E050E0BA01CF01AA
:1049E0000E942A128823C9F2F701C38CD48C8788CD
:1049F000908CA18CB28C82E090E0A0E0B0E0F60157
:104A000080839183A283B3839E012F5F3F4FB501C3
:104A1000A401C6010E94EA10882309F4BECF00E079
:104A200010E09801B501A401C6010E944810882336
:104A300009F4B3CF89809A80AB80BC80F601878966
:104A4000803119F188EF9FEFAFEFBFE0881699062C
:104A5000AA06BB06C8F2F701178A108E118E128EB5
:104A6000138A148A158A168A84818068848361E097
:104A7000C7010E94D114882309F48FCF40E050E091
:104A8000BA01C7010E942A1289CF88EF9FEFA0E0E8
:104A9000B0E0DCCF81E082CFCF92DF92EF92FF9245
:104AA0001F93CF93DF93EC0180E2689FF001112404
:104AB000EB5EFF4E9385917161F0842F827449F013
:104AC00080E0DF91CF911F91FF90EF90DF90CF902A
:104AD0000895142F6A8B8091360290913702A0912D
:104AE0003802B09139028E879F87A88BB98BC48812
:104AF000D588F12CE12C7601DD24CC24CF8AD88E08
:104B0000E98EFA8E828D938DB0E0A0E0AC01BD01FC
:104B10004C295D296E297F294F8B588F698F7A8F99
:104B200083858871B1F4848D958DA68DB78D8B8B1F
:104B30009C8BAD8BBE8B81E08D831F701C831E828E
:104B40001F82188619861A861B861C861D8681E0A0
:104B5000B8CF803109F0B4CF9E012D5E3F4F8B8DD1
:104B60009C8D0E946B11882309F4AACF84E0E4CFC6
:104B7000CF93DF93EC01898D9A8D009741F00E94CD
:104B80006915898D9A8D0E945B6E1A8E198EDF9140
:104B9000CF910895EF92FF920F931F93CF93DF93DE
:104BA000EC018A859B850E945B6E8C859D850E94A9
:104BB0005B6E8E859F850E945B6E888999890E94B5
:104BC0005B6E7E018AE0E80EF11C099119910115D6
:104BD000110561F0F801848195810E945B6EC80126
:104BE0000E945B6EFE01329711821082CE15DF05A6
:104BF00061F7DF91CF911F910F91FF90EF90089592
:104C00000F931F93CF93DF93EC01C957DF4F8C01B4
:104C100009551F4FE881F981309761F001A0F2A199
:104C2000E02D82890E94DE1E888199810E945B6E40
:104C3000198218822296C017D10761F7DF91CF91B0
:104C40001F910F910895EF92FF920F931F93CF93AF
:104C5000DF93EC01C950DF4F8C01095E1E4FE881E4
:104C6000F981309781F082890E94DE1EE880F98008
:104C7000E114F10431F0C7010E94CA25C7010E9466
:104C80005B6E198218822296C017D10741F7DF9117
:104C9000CF911F910F91FF90EF900895AF92BF9227
:104CA000CF92DF92EF92FF920F931F93CF93DF93F8
:104CB000FC01F12CE12CA191B191AB2BD9F5C22EC5
:104CC000D42E5B018C0186E090E00E94BF6DEC0168
:104CD000C80142969983888383E090E00E94BF6D6B
:104CE000FC019283818310829D838C83B5010E9495
:104CF000511E4D2D4F774A836C2D6F776B83CC20DF
:104D000031F0E881F98140E080810E94761EEE0C4E
:104D1000FF1C0E0D1F1DF801D183C083CE01DF9152
:104D2000CF911F910F91FF90EF90DF90CF90BF90A8
:104D3000AF9008953FEFE31AF30A35E0E316F1046C
:104D400009F0B9CFD0E0C0E0E9CF7F928F929F9277
:104D5000AF92BF92CF92DF92EF92FF920F931F9389
:104D6000CF93DF93FC01E952FF4FB12CA12CA1910D
:104D7000B191AB2B09F043C04901752EF42E162FCB
:104D80006C0186E190E00E94BF6DEC01188689E01D
:104D9000EAE4F2E0DE011D9601900D928A95E1F7BA
:104DA0001C87EF2DF72DDE011D96CF01099621916D
:104DB0002D93E817F907D9F785E089831B821A82BA
:104DC0001B8681E088839A8689860E83EF82F501AF
:104DD000EE0FFF1FEC0DFD1DE952FF4FD183C08385
:104DE000CE01DF91CF911F910F91FF90EF90DF9057
:104DF000CF90BF90AF909F908F907F9008957FEF5E
:104E0000A71AB70A70E1A716B10409F0B0CFD0E035
:104E1000C0E0E6CF4F925F927F928F929F92AF92C7
:104E2000BF92CF92DF92EF92FF920F931F93CF9397
:104E3000DF93FC01E957FF4F912C812CA191B19197
:104E4000AB2B09F04AC0D22EF42E772EB62E2C01B1
:104E500089E390E00E94BF6DFC01AB2DB72D9C0152
:104E60002D5D3F4F90E080E04D91442341F08F3025
:104E7000910529F0E90149939E010196F5CF8E0F26
:104E80009F1FDC0193961C9217AAF3AAD4AAE5AA45
:104E900012A301A3C6AAA0AEDF01CF0181961D9285
:104EA000A817B907E1F7880C991CE201C80DD91DB4
:104EB000C957DF4FF983E883CF01DF91CF911F916D
:104EC0000F91FF90EF90DF90CF90BF90AF909F90A9
:104ED0008F907F905F904F900895BFEF8B1A9B0A41
:104EE000C0E18C16910409F0A9CFF0E0E0E0E4CF36
:104EF0002F923F924F925F926F927F928F92AF92DA
:104F0000CF92DF92EF92FF920F931F93CF93DF9395
:104F1000CDB7DEB7FC01E950FF4F312C212CA19118
:104F2000B191AB2B09F05FC0122FF42ED62E2C01BD
:104F300086E190E00E94BF6D3C01FC01D28A83E0D3
:104F400090E00E94BF6DFC0192838183F082F301A7
:104F50009387828783E090E00E94BF6DFC0192837B
:104F600081831083F3019587848783E090E00E941A
:104F7000BF6DFC01928381830083F301978786874D
:104F800083E090E00E94BF6DFC0192838183E08208
:104F9000F301918B808BC58AA38A848A1182108247
:104FA000138212821582148217821682118610864D
:104FB000F101EE0FFF1FE40DF51DE950FF4F718267
:104FC0006082C301DF91CF911F910F91FF90EF900D
:104FD000DF90CF90AF908F907F906F905F904F90C9
:104FE0003F902F9008953FEF231A330A30E12316A4
:104FF000310409F094CF712C612CE3CF0F931F93F0
:10500000CF93DF93EC0181E0888382E0898396E18E
:105010009A8395E29B838C8389E08D831E8281E451
:1050200090E00E94BF6DDC018C01809649E030E584
:105030002FE7F80110824183328323830C5F1F4FD7
:1050400008171907B1F7DD961C92DD9780E1DC9611
:105050008C93DC974FE050E060E070E0D0964D9389
:105060005D936D937C93D3972CE330E0CD01CF9685
:10507000FC013183208340EA51E164E070E0D49682
:105080004D935D936D937C93D797D8961D921D9207
:105090001D921C92DB97DE961C92DE97F8010F970B
:1050A0001192E817F907E1F7FE01E95DFE4FB183C0
:1050B000A08306E110E08B81801711065CF060E0B0
:1050C000802F0E94D70861E0802F0E94A9080F5FFF
:1050D0001F4FF1CF0C8110E08D81801711065CF01D
:1050E00060E0802F0E94D70860E0802F0E94A9080E
:1050F0000F5F1F4FF1CF8E01095E1E4FB801CE0129
:105100000E94C221FE01E950FF4FCF01119211927E
:10511000E017F107D9F7FE01E957FF4F9E01295526
:105120003F4F11921192E217F307D9F7C952DF4F9F
:1051300011921192EC17FD07D9F7119211928E1767
:105140009F07D9F7DF91CF911F910F910895CF92CB
:10515000DF92EF92FF920F931F93CF93DF936C0137
:10516000EB0118820E948717892B49F17E01870184
:105170000C1B1D0BC6010E948717892B59F0C60115
:105180000E9414188A3031F08D30A1F3F701819319
:105190007F01EDCFFE01E00FF11F1082FE010190B3
:1051A0000020E9F73197CF018C1B9D0BDF91CF9148
:1051B0001F910F91FF90EF90DF90CF9008958FEFA8
:1051C0009FEFF4CFFB0101900020E9F73197AF0189
:1051D000461B570BDC01ED91FC910280F381E02D21
:1051E000199466EC72E00C94E2288F929F92AF9231
:1051F000BF92EF92FF920F931F93CF93DF93CDB7A0
:10520000DEB7A1970FB6F894DEBF0FBECDBF7C010D
:10521000FA01CB0119A2223008F42AE08E010F5DB9
:105220001F4F822E912CB12CA12CBF01A5019401FE
:105230000E94FB6BF901CA016A300CF5605DD80170
:105240006E938D01232B242B252B79F790E080E0A2
:10525000109721F0BD01C7010E94E228A1960FB668
:10526000F894DEBF0FBECDBFDF91CF911F910F919C
:10527000FF90EF90BF90AF909F908F900895695CE2
:10528000DECF242F462F50E070E060E00C94F5282C
:10529000CF92DF92EF92FF920F931F93CF93DF9302
:1052A0006B01770FEE08FF084A30510511F52AE02F
:1052B000F7FE20C0EC01E881F9810190F081E02D3A
:1052C0006DE219958C0144275527BA014C195D09E7
:1052D0006E097F092AE0CE010E94F528800F911FF8
:1052E000DF91CF911F910F91FF90EF90DF90CF90C2
:1052F0000895242FB701A601DF91CF911F910F913F
:10530000FF90EF90DF90CF900C94F5280F931F93B0
:10531000CF93DF93EC010E94E2288C01CE010E9422
:10532000F128800F911FDF91CF911F910F91089568
:105330006115710511F00C94E22890E080E0089569
:10534000CF92DF92EF92FF920F931F93CF93DF9351
:105350007C01EB0111E00BE082E3D82E90E3C92E33
:105360000E94301B109385142CE04FE760E080E032
:105370000E94E41D2FE34FE760E080E00E94081EDA
:105380001092851410939C1400939D14B70181E62C
:1053900094E10E949829109385142EE04DE264E276
:1053A00088E20E94081ED0929C14C0929D1440E195
:1053B00050E0BE0181E694E10E9448290E949518C0
:1053C0008111D0CF0E9494090E94520B882351F082
:1053D0000E9430242196C11581E0D80709F6D0E05B
:1053E000C0E0BECF0E94430B882341F00E943024CE
:1053F000219708F0B5CFCFEFD0E0B2CF0E94330BAA
:10540000882301F30E943024CE01DF91CF911F91B8
:105410000F91FF90EF90DF90CF900895EF92FF9261
:105420000F931F93CF93DF938C017A010E949829E9
:1054300065E87DE0C8010E949829E70183E0E80E55
:10544000F11C699140E150E0C8010E94412965E8E2
:105450007DE0C8010E949829CE15DF0591F7C801AB
:10546000DF91CF911F910F91FF90EF900C94F12855
:105470008F929F92AF92BF92CF92DF92EF92FF9264
:105480000F931F93CF93DF935C017A016901EB01C6
:1054900011E00BE082E3982E90E3892E0E94301BEE
:1054A000109385142CE04FE760E080E00E94E41D3B
:1054B0002FE34FE760E080E00E94081E1092851401
:1054C00010939C1400939D14B50181E694E10E9411
:1054D0009829109385142EE04DE264E288E20E9440
:1054E000081E90929C1480929D144AE050E0BE01E8
:1054F00081E694E10E9448290E9495188111D0CF3D
:105500000E9494090E94520B882341F00E9430248B
:105510002196CC16DD0614F6E701C0CF0E94430B9E
:10552000882349F00E9430242197CE15DF050CF026
:10553000B5CFE601B3CF0E94330B882309F30E9455
:105540003024CE01DF91CF911F910F91FF90EF900A
:10555000DF90CF90BF90AF909F908F900895AF92C3
:10556000BF92CF92DF92EF92FF920F931F93CF9350
:10557000DF93CDB7DEB7A0970FB6F894DEBF0FBEAE
:10558000CDBF7C0111E00BE08AE0D82E9FE2C92E4E
:105590000E94301B109385142CE04FE760E080E000
:1055A0000E94E41D2FE34FE760E080E00E94081EA8
:1055B0001092851410939C1400939D14B70181E6FA
:1055C00094E10E94982910938514D0929C14C09263
:1055D0009D1469EC72E081E694E10E9498290E9492
:1055E00095188111D7CFA090480FB090490F89E24C
:1055F0000E948008892B39F46AEF70E080E090E027
:105600000E945509C5CFBE016F5F7F4FC5010E9443
:1056100021228981882359F38F3F09F4B9CFA096BD
:105620000FB6F894DEBF0FBECDBFDF91CF911F91B3
:105630000F91FF90EF90DF90CF90BF90AF900895C3
:105640005F926F927F928F929F92AF92BF92CF9212
:10565000DF92EF92FF920F931F93CF93DF93CDB71B
:10566000DEB769970FB6F894DEBF0FBECDBF7C01E1
:105670006B015C0181E0A81AB108B7FE04C05701B4
:1056800082E0A80EB11CB594A794B594A794C70165
:1056900064E070E00E948F6D8C01892B11F404E0AE
:1056A00010E00E94301BAA0CBB1CAA0CBB1C8CE097
:1056B000089F002D11240F5F772473949BE0692EBF
:1056C00026E0522E709285142CE040E860E080E0E5
:1056D0000E94E41D20E440E860E080E00E94081E93
:1056E0001092851470929C1460929D14AE014F5FCD
:1056F0005F4FB60190E080E00E94261FBE016F5F01
:105700007F4F81E694E10E949829709285144501AB
:105710008FEF881A980A18E1AE014F5F5F4FB6010C
:10572000C4010E94261F50929C1410939D14BE0128
:105730006F5F7F4F81E694E10E9498298FEF881A6E
:10574000980A145F183441F7E114F10431F02CE0A9
:1057500044E0602F81E00E94E41D0E9495188111B1
:10576000B1CF69960FB6F894DEBF0FBECDBFDF9103
:10577000CF911F910F91FF90EF90DF90CF90BF904E
:10578000AF909F908F907F906F905F9008950F9350
:105790001F93CF93DF93EC018A010E94982965E85B
:1057A0007DE0CE010E949829B8018091480F909128
:1057B000490F0E947C218C014AE050E0BC0197FF18
:1057C0000AC066E776E0CE010E949829B80160958C
:1057D00070954AE050E0CE010E944829CE01DF9149
:1057E000CF911F910F910C94F128EF92FF921F938C
:1057F000CF93DF93EC017A010E94982965E87DE060
:10580000CE010E94982910E0F701E10FF11D60819F
:10581000662361F040E150E0CE010E94412965E835
:105820007DE0CE010E9498291F5FEECFCE01DF916F
:10583000CF911F91FF90EF900C94F1280F931F933D
:10584000CF93DF93EC018A010E94982965E87DE0FF
:10585000CE010E949829B801CE010E949829CE015C
:10586000DF91CF911F910F910C94F1280F931F930B
:10587000CF93DF93EC018A010E94982965E87DE0CF
:10588000CE010E9498294AE050E0B801CE010E9462
:105890004829CE01DF91CF911F910F910C94F128EF
:1058A000DF92EF92FF920F931F93CF93DF938C01C0
:1058B000FC0101900020E9F731979F01281B390B6B
:1058C00048EF4203E001439FD00D1124C058DF4F41
:1058D000D695C7950E94301BFF24F39493E2E92EDE
:1058E000DC2ED394F09285142FE34FE760E080E044
:1058F0000E94081E29E14CE664E18AE00E94E41D52
:1059000010928514C0939C14E0929D14B80181E616
:1059100094E10E949829D0929C14E0929D14B801C1
:1059200081E694E10E949829F09285140E949518CE
:105930008111D8CF6AEF70E080E090E0DF91CF91E5
:105940001F910F91FF90EF90DF900C9455090E94EA
:10595000502C0C94051F6F927F928F929F92AF9262
:10596000BF92CF92DF92EF92FF920F931F93CF934C
:10597000DF9300D0CDB7DEB73C018B015A014B015C
:1059800086E0880E911C85EDC82E82E0D82EFE019F
:1059900031967F01F50181915F011F928F93DF9214
:1059A000CF92FF92EF920E942D6FA701B801C30121
:1059B0000E943E1E0E5F1F4F0F900F900F900F9092
:1059C0000F900F900815190529F70F900F900F9061
:1059D000DF91CF911F910F91FF90EF90DF90CF90CB
:1059E000BF90AF909F908F907F906F9008950F938E
:1059F0001F93CF93DF9300D000D01F92CDB7DEB7B7
:105A00008C01CB014AE0BE016F5F7F4F0E94956B16
:105A1000AE014F5F5F4FB8018AE49FE00E943E1ED7
:105A200027960FB6F894DEBF0FBECDBFDF91CF91A2
:105A30001F910F910895EF92FF920F931F93CF93B1
:105A4000DF9300D000D01F92CDB7DEB77C018B0171
:105A5000CA014AE0BE016F5F7F4F97FD16C00E94EA
:105A6000956BAE014F5F5F4FB801C7010E943E1EAC
:105A700027960FB6F894DEBF0FBECDBFDF91CF9152
:105A80001F910F91FF90EF900895809590950E943F
:105A9000956BF701E00FF11F81E48083B8016F5F20
:105AA0007F4FAE014F5F5F4FE0CF6F927F928F923B
:105AB0009F92AF92BF92CF92DF92EF92FF920F939D
:105AC0001F93CF93DF9300D000D000D01F92CDB7AB
:105AD000DEB74C016A0159018B01FF24F3948BE07E
