:020000040000FA
:100000000C94D0050C9401060C9401060C94010686
:100010000C9401060C9401060C9401060C94010644
:100020000C9401060C9401060C9401060C94010634
:100030000C9401060C9401060C9401060C94010624
:100040000C9401060C9476530C9401060C94010652
:100050000C9401060C9401060C9401060C940C51AE
:100060000C9401060C9428520C94FE510C94010639
:100070000C9401060C9401060C9401060C940106E4
:100080000C9401060C9401060C9401060C940106D4
:100090000C94D4510C94AA510C9401060C94525215
:1000A0000C9401060C9401060C9401060C940106B4
:1000B0000C9401060C9401060C9401060C940106A4
:1000C0000C9401060C9401060C9401060C94010694
:1000D0000C9401060C9401060C9480510C9456511A
:1000E0000C9401060C944B1E0C94F21A0C94CD0641
:1000F0000C9402070C94D51A0C94470A0C948F2484
:100100000C94A81E0C9409670C94EC060C94D10670
:100110000C941C0C0C94E91C0C94FE060C94F00638
:100120000C94F4060C9457180C94A00E0C94460AE8
:100130000C94C41E0C949C0A0C94DB350C949E0EFB
:100140000C9403060C94D5060C94CF1E0C94C41A80
:100150000C94B41E0C949D0E0C9408360C94D90685
:100160000C9423180C94E6060C94F60E0C940406DA
:100170000C94FC0B0C94C20E0C94570B0C94FA06C6
:100180000C94BE0A0C94BA1E0C94531F0C9499261E
:100190000C94DC060C94AF0E0C94B5180C94C90E9C
:1001A0000C9420190C949F0E0C948D0A0C94080743
:1001B0000C94A31E0C940C070C942C0C0C949E53C2
:1001C0000C94C7060C94E2060C94B00A0C94661EBC
:1001D0000C940A0B0C940707FFE0FFD11000FFFE00
:1001E000FFD0FFE0FFC1FFD1E240A0C8A6A22FF8D8
:1001F00000238127AC00AFFF64A5FF64FF64A4FF68
:10020000D0FFFE7C3C3E5E2B3D3F2F5B5D3B2C2AAE
:10021000225C0000002100240027002A002D00306D
:1002200000330001010000040107010A0100000A77
:100230000B02090C0D0E080703040100000000006A
:1002400000000000000000000000000000000000AE
:10025000000000000000000000121110000000006B
:10026000000000000000000000000000000000008E
:1002700000000000002200250028002B002E003185
:1002800000340002010000050108010B0101021009
:1002900020200808102040102040800201020108A0
:1002A0000402010102040810204080804020100850
:1002B00004020180040201804020100804020108A9
:1002C0000402010102040810204080010204081009
:1002D000204080000020002300260029002C002F51
:1002E00000320000010000030106010901050505B7
:1002F00005070508080808020202020A0A0808049D
:1003000004040401010101010101010303030303CA
:10031000030303040707070C0C0C0C0C0C0C0C0259
:1003200002020206060606060606060B0B0B0B0B60
:100330000B0B0B01080D00FE09016102CD20FFFE31
:100340000BFE09FE0D00803219898080808080803C
:100350008000802843839090901367874848FC482A
:10036000FC48481259892078A0A0702828F0201253
:10037000698944A448101020485488126787609007
:10038000906094887438138380808032398920404B
:1003900040808080404020223989804040202020B9
:1003A0004040801665854830FC3048145585202033
:1003B000F82020114383706080165181F821338327
:1003C00040E0400279890202040810204080801237
:1003D0006989304884848484844830125989206033
:1003E000A02020202020F812698978848404083015
:1003F0004080FC126989FC040810380404847812D7
:100400006989081828488888FC0808126989FC80CE
:1004100080B8C40404847812698938408080B8C4E4
:10042000848478126989FC0408101020204040124E
:10043000698978848484788484847812698978844A
:10044000848C740404087021388840E04000004027
:10045000E040114888207020000070608022598997
:10046000081020408040201008146484FC0000FC28
:100470001259898040201008102040801269897824
:1004800084840408101000101269897884849CA464
:10049000AC9480781269893048848484FC84848494
:1004A000126989F0888488F0888488F012698978D4
:1004B0008480808080808478126989F08884848434
:1004C000848488F0126989FC808080F0808080FCC0
:1004D000126989FC808080F0808080801269897830
:1004E000848080809C848C7412698984848484FCD8
:1004F00084848484125989F820202020202020F828
:100500001279893E080808080808887012698984E9
:100510008890A0C0A09088841269898080808080A3
:10052000808080FC0279898282C6AA92928282822D
:100530001269898484C4A4948C848484126989781F
:100540008484848484848478126989F8848484F817
:1005500080808080116A8A788484848484A49478DA
:1005600004126989F8848484F8A0908884126989C7
:10057000788480807804048478027989FE101010D1
:1005800010101010101269898484848484848484F7
:100590007802798982824444442828281002798983
:1005A00082828282929292AA44027989828244282B
:1005B0001028448282027989828244281010101007
:1005C00010126989FC04081020408080FC224989AF
:1005D000F080808080808080F00279898080402057
:1005E0001008040202124989F010101010101010A7
:1005F000F0185383205088017181FE3A2282804096
:1006000012668678047C848C74126989808080B834
:10061000C48484C4B8126686788480808478126921
:1006200089040404748C84848C741266867884FC37
:1006300080847812698938444040F8404040401036
:10064000688874888870807884781269898080804E
:10065000B8C484848484125888200060202020201C
:10066000F8105A8A08001808080808888870126963
:10067000898080808890E090888412598960202049
:100680002020202020F8027686EC9292929282120C
:100690006686B8C48484848412668678848484845C
:1006A00078106888B8C484C4B88080801068887462
:1006B0008C848C74040404126686B8444040404024
:1006C0001266867884601884781268884040F84002
:1006D0004040443812668688888888887412568616
:1006E00088888850502002768682829292AA44128C
:1006F00066868448303048841068888484848C748A
:10070000048478126686FC08102040FC225989383F
:10071000404020C02040403832198980808080804D
:1007200080808080125989E010102018201010E07D
:1007300018538348A890FFFFFFFFFFFFFFFFFFFF55
:10074000FFFFFFFFFFFFFFFFFFFFFFFFFFFFFFFFB9
:10075000FFFFFFFFFFFFFF0D00803219898000803F
:100760008080808080801358882070A8A0A0A87006
:10077000200279891C22207020202062DC136686EA
:10078000847848487884027989828244287C107C65
:100790001010321989808080800080808080224AF9
:1007A0008A609080609090601090602A4282909061
:1007B000037989384492AAA2AA92443814578770C0
:1007C0000878887800F80377871224489048241224
:1007D000136484FC040404264181F00379893844BD
:1007E00092AAAAB2AA44381A6181FC274484609074
:1007F00090601357872020F8202000F81646866066
:1008000090106080F01646866090201090603A222A
:1008100082408011678784848484CCB48012698983
:100820007CE8E8E86828282828362181C030228220
:1008300040C016368640C0404040E0154686609075
:10084000906000F003778790482412244890027A41
:100850008A40C0404042E60A121A06027A8A40C024
:1008600040404CF2020C101E027A8A6090201092D6
:10087000660A121A061269892000202040808484AA
:1008800078126A8A20100030488484FC8484126ABA
:100890008A10200030488484FC8484126A8A30489C
:1008A0000030488484FC8484126A8A64980030484A
:1008B0008484FC8484126A8A48480030488484FC1A
:1008C0008484126A8A30483030488484FC848402EC
:1008D00079896E9090909CF090909E106B8B7884AC
:1008E000808080808084781020126A8A201000FC2A
:1008F0008080F08080FC126A8A102000FC8080F0EA
:100900008080FC126A8A304800FC8080F08080FC85
:10091000126A8A484800FC8080F08080FC125A8A63
:10092000402000F82020202020F8125A8A102000B1
:10093000F82020202020F8125A8A304800F8202081
:10094000202020F8125A8A888800F82020202020B1
:10095000F802798978444242E242424478027A8A33
:1009600064980082C2A2928A8682027A8A2010004B
:100970007C82828282827C027A8A0810007C828257
:100980008282827C027A8A1824007C82828282821D
:100990007C027A8A6498007C82828282827C027ADB
:1009A0008A4444007C82828282827C1366868448E8
:1009B00030304884116B8B04788C9494A4A4A4C424
:1009C0007880126A8A402000848484848484781227
:1009D0006A8A10200084848484848478126A8A302D
:1009E000480084848484848478126A8A4848008415
:1009F000848484848478125A8A1020008888502045
:100A000020202012698980F8848484F880808012F4
:100A1000698970888890A0988484B81269892010A8
:100A20000078047C848C7412698908100078047C36
:100A3000848C7412698930480078047C848C741228
:100A4000698964980078047C848C741269894848A8
:100A50000078047C848C74126A8A304830007804F0
:100A60007C848C740276866C127C90926C10688800
:100A7000788480808478102012698920100078841E
:100A8000FC8084781269891020007884FC80847846
:100A90001269893048007884FC808478126989481A
:100AA00048007884FC8084781259894020006020B6
:100AB000202020F81259892040006020202020F8B2
:100AC0001259896090006020202020F812598990E6
:100AD00090006020202020F8126A8A483050087860
:100AE0008484848478126989649800B8C484848476
:100AF000841269894020007884848484781269890A
:100B000010200078848484847812698930480078C1
:100B100084848484781269896498007884848484C5
:100B200078126989484800788484848478135787C8
:100B3000202000F800202011688804788C94A4C438
:100B400078801269894020008888888888741269B2
:100B50008910200088888888887412698930480044
:100B600088888888887412698950500088888888A5
:100B70008874106B8B1020008484848C74048478B7
:100B8000106A8A8080B8C48484C4B88080106B8B5B
:100B90004848008484848C74048478009E530967D8
:100BA00011241FBECFEFD1E2DEBFCDBF00E00CBFEE
:100BB0001DE0A0E0B2E0EEEFF2EE00E00BBF02C0FD
:100BC00007900D92A235B107D9F724E1A2E5BDE067
:100BD00001C01D92A13DB207E1F715E0CFECD5E0D1
:100BE00000E006C021970109802FFE010E94236CBE
:100BF000CE3CD10780E00807A9F70E94FD550C9470
:100C00006D710C940000089580E008950F931F9378
:100C1000CF93DF93EC019A01AB01E889F98982E077
:100C20008083EC85FD8510820E851F8560E079E06C
:100C30008DE390E00E94766B215031094109510902
:100C40005695479537952795F8012083188EEC899E
:100C5000FD8986E08083EA89FB89808180618083C9
:100C6000EA89FB89808188608083EA89FB898081A9
:100C700080688083EA89FB8980818F7D8083DF9112
:100C8000CF911F910F9108958F929F92AF92BF9233
:100C9000CF92DF92EF92FF920F931F93FC014B01D3
:100CA000AA24BB24C52ED62EE72EFF24BC2DA42FAC
:100CB0009091A014B82C992391F0A92FB0E0A89D91
:100CC0009001A99D300DB89D300D1124B32E9C9D2F
:100CD00060011124BD2D949F80011124A12F40910A
:100CE000A6142091A1143091A2148091A31448134A
:100CF00024C0CF01880F991F8E0F9F1F820F931F53
:100D0000E091A314E80FF92FF11DB082E091A41433
:100D1000E80FF92FF11DB0832091A514820F911DCA
:100D2000FC01A0831F910F91FF90EF90DF90CF9077
:100D3000BF90AF909F908F900895CF01880F991F1B
:100D4000880F991F820F931FFC01E40FF11D108281
:100D5000D7CF8150823108F05AC0E82FF0E08827C1
:100D6000EB54F94F8F4F0C94236CD506D906C70668
:100D7000CD06D1060707DC06E206E606EC06F0061D
:100D8000F406FA06FE060707020708070C0780911B
:100D900080008F77809380000895809180008F7D00
:100DA000F9CF80918000877FF5CF84B58F7784BDA0
:100DB000089584B58F7DFBCF8091B0008F778093AD
:100DC000B00008958091B0008F7DF9CF80919000A0
:100DD0008F77809390000895809190008F7DF9CF58
:100DE00080919000877FF5CF8091A0008F778093CE
:100DF000A00008958091A0008F7DF9CF8091A00080
:100E0000877FF5CF809120018F778093200108950F
:100E1000809120018F7DF9CF80912001877FF5CFD0
:100E2000CF93DF93282F30E0F901E35DFD4F8491EC
:100E3000F901E357FD4FD491F901E351FD4FC491FE
:100E4000CC23A1F081110E94A906EC2FF0E0EE0F57
:100E5000FF1FED52FD4FA591B491EC91ED2381E080
:100E600090E009F480E0DF91CF91089580E090E078
:100E7000FACF1F93CF93DF93282F30E0F901E35D82
:100E8000FD4F8491F901E357FD4FD491F901E351EE
:100E9000FD4FC491CC23A9F0162F81110E94A90601
:100EA000EC2FF0E0EE0FFF1FED58FD4FA591B49130
:100EB0008FB7F894EC91111108C0D095DE23DC9324
:100EC0008FBFDF91CF911F910895DE2BF8CFCF9385
:100ED000DF9390E0FC01E357FD4F249183519D4F38
:100EE000FC0184918823C9F090E0880F991FFC01D0
:100EF000ED5EFD4FA591B491FC01ED58FD4FC591FC
:100F0000D49161110DC09FB7F8948C9120958223E4
:100F10008C938881282328839FBFDF91CF910895E8
:100F2000623051F49FB7F8943C91822F80958323CF
:100F30008C93E8812E2BEFCF8FB7F894EC912E2B6A
:100F40002C938FBFEACF863308F0865320917B0025
:100F5000982F9870277F922B90937B0087708064E6
:100F600080937C0080917A00806480937A008091E5
:100F70007A0086FDFCCF80917800909179000895E9
:100F80003FB7F8948091C20E9091C30EA091C40E09
:100F9000B091C50E26B5A89B05C02F3F19F001964C
:100FA000A11DB11D3FBFBA2FA92F982F8827BC01C3
:100FB000CD01620F711D811D911D42E0660F771FEB
:100FC000881F991F4A95D1F708958F929F92AF92EB
:100FD000BF92CF92DF92EF92FF926B017C010E9451
:100FE000C0074B015C01C114D104E104F104B9F064
:100FF0000E94C007681979098A099B09683E7340F5
:101000008105910580F321E0C21AD108E108F108B9
:1010100088EE880E83E0981EA11CB11CE4CFFF90DF
:10102000EF90DF90CF90BF90AF909F908F900895FA
:10103000CF92DF92EF92FF921F93CF93DF93EC0159
:10104000D12CC12C1091410280914202811B990B3D
:101050008C159D05DCF11C0D61E0812F0E94670756
:1010600060E0812F0E94390761E070E080E090E04D
:101070000E94E50719821882E0904002F12C8091CD
:101080003F028E151F0409F0A4F488819981880F0E
:10109000991F998388838E2D0E941007019729F448
:1010A0008881998181609983888381E0E81AF108B9
:1010B000E6CF60E0812F0E94670760E0812F0E94E9
:1010C00039078FEFC81AD80A2296BCCFDF91CF918B
:1010D0001F91FF90EF90DF90CF9008952FB7F89475
:1010E0006091BE0E7091BF0E8091C00E9091C10EA6
:1010F0002FBF0895CF92DF92EF92FF920F931F932D
:10110000CF93DF930E946E08AB01BC01E091AF1456
:10111000F090C014E4FBFF27F0F9E4FF79C00091E0
:10112000B4141091B5142091B6143091B714E7FBA4
:10113000882780F9F11010C08091C8149091C914CB
:10114000DC019C918091CA14982381E009F480E02D
:101150009091B014917089278093C114DB01CA016A
:10116000801B910BA20BB30B8C019D01B091C1149C
:101170009091AE1491FB882780F9BB2309F424C118
:1011800081111AC00135110521053105A8F04093E0
:10119000B4145093B5146093B6147093B714997E39
:1011A000926190689093AE148091B01480628093A5
:1011B000B01400E010E098018091B0149091AE144A
:1011C00084FF12C00D32A1E01A072105310560F03D
:1011D00092FD05C083FDAFC082608093B014809102
:1011E000B0148F7E8093B01491FF12C00D3B12405B
:1011F0002105310568F092FD0BC0BB2309F49DC0A9
:1012000091609093AE148091B0148F7D8093B01450
:10121000FF2009F49FC0E6FB992790F9C92FA0E0B1
:10122000DA2FCC0FDD1FE5FB882780F98C2B20916E
:10123000B214281709F472C01092B3149091B0142C
:1012400096FFB8C0833009F0A1C09F7B9093B01483
:10125000213009F497C091E0223009F494C0E3FDF5
:1012600003C0833009F49DC02091B314222309F4F4
:1012700046C09091AE1498609093AE14233040F421
:101280009091B01497FF04C093E0921B9093B31415
:101290009091C114911122C00091B8141091B91409
:1012A0002091BA143091BB146A017B01C01AD10A93
:1012B000E20AF30A0091B11410E030E020E0C01619
:1012C000D106E206F30650F42091B314213009F060
:1012D00074C02091AF1422602093AF144093B814CF
:1012E0005093B9146093BA147093BB14FF2339F070
:1012F000992329F09091B3149E5F9093B314809337
:10130000B2148091AE1484608093AE144093B414F0
:101310005093B5146093B6147093B714DF91CF91C6
:101320001F910F91FF90EF90DF90CF9008958091E3
:10133000B01488603CCF846050CF9D7F9E7F909397
:10134000AE144093B4145093B5146093B6147093D4
:10135000B7145ECFA091C214B091C3149C91809138
:10136000C414982321E009F420E0A091C514B091A1
:10137000C6149C918091C714982382E009F480E000
:10138000822B55CF92E09093B31469CFE3FD4DC00B
:1013900081116ACF9F7B9093B014213041F02230AD
:1013A00031F09091B01490649093B0145DCF20937D
:1013B000B314F7CF8823A9F352CF223009F08ECF90
:1013C0002091AF14216088CF882309F4F5CE013530
:1013D00011052105310508F4EFCE92FD05C090FD01
:1013E00003C090629093AE140D3B1240210531056D
:1013F00028F08091AE1480648093AE148091AE1476
:101400004093B4145093B5146093B6147093B7140A
:101410008D7F8E7F8093AE148091B01485FF87CF2F
:1014200084FD85CF8061877FC2CE882309F4B9CF40
:1014300066CF8091AF1482FD0E947A088091B31428
:10144000813019F41092B314089580E008958091CA
:10145000AF1482FD0E947A088091B314823021F487
:101460001092B31481E0089580E008958091AF1444
:1014700082FD0E947A089091AE1494FB882780F92F
:1014800094FF03C09F7E9093AE1408950895AF9289
:10149000BF92CF92DF92EF92FF920F931F93CF9361
:1014A000DF936C017B018B01040F151FEB015E01C3
:1014B000AE18BF08C017D10759F06991D601ED9158
:1014C000FC910190F081E02DC6011995892B79F7E7
:1014D000C501DF91CF911F910F91FF90EF90DF90A9
:1014E000CF90BF90AF900895FC01A089B1898C91F5
:1014F000A689B78982FD0FC09C91818D8F5F8F7304
:10150000228D821749F0A18DAE0FBF2FB11D5D96C0
:101510009C93818F08958C910895FC01538D448D87
:10152000252F30E0842F90E0821B930B541710F08E
:10153000CF96089501970895FC01918D828D98179B
:1015400061F0A28DAE0FBF2FB11D5D968C91928D73
:101550009F5F9F73928F90E008958FEF9FEF0895A4
:10156000FC01918D828D981731F0828DE80FF11D6D
:10157000858D90E008958FEF9FEF0895FC01918D88
:10158000228D892F90E0805C9F4F821B91098F7381
:101590009927089582E092E10E94BE0A21E0892BFA
:1015A00009F420E0822F08958FE992E10E94BE0A9B
:1015B00021E0892B09F420E0822F08958CE393E148
:1015C0000E94BE0A21E0892B09F420E0822F0895B1
:1015D000FC01A48DA80FB92FB11DA35ABF4F2C91A8
:1015E000848D90E001968F739927848FA689B7899F
:1015F0002C93A089B1898C91837080648C93938D96
:10160000848D981306C00288F389E02D80818F7D38
:1016100080830895EF92FF920F931F93CF93DF93F0
:10162000EC0181E0888F9B8D8C8D98131AC0E8891E
:10163000F989808185FF15C09FB7F894EE89FF89ED
:101640006083E889F98980818370806480839FBF8B
:1016500081E090E0DF91CF911F910F91FF90EF908B
:101660000895F62E0B8D10E00F5F1F4F0F7311279B
:10167000E02E8C8D8E110CC00FB607FCFACFE889D6
:10168000F989808185FFF5CFCE010E94E80AF1CF6C
:10169000EB8DEC0FFD2FF11DE35AFF4FF0829FB74A
:1016A000F8940B8FEA89FB8980818062CFCFCF933A
:1016B000DF93EC01888D8823B9F0AA89BB89E8897A
:1016C000F9898C9185FD03C0808186FD0DC00FB620
:1016D00007FCF7CF8C9185FFF2CF808185FFEDCF9E
:1016E000CE010E94E80AE9CFDF91CF91089580E012
:1016F00090E0892B29F00E94DE0A81110E940000EF
:1017000080E090E0892B29F00E94D40A81110E9488
:10171000000080E090E0892B49F080E090E0892B88
:1017200029F00E94000081110E94000080E090E0FA
:10173000892B29F00E94CA0A81110C940000089597
:10174000FC01DB0112968D919C9113979383828308
:101750008BEB92E09183808314968C911497848311
:1017600015968C911597858316964D915D916D9187
:101770007C91199746835783608771871A964D919C
:101780005D916D917C911D97428753876487758722
:101790001E964D915D916D917C915197468757872B
:1017A000608B718B52968C915297828B53964D9190
:1017B0005D916D917C915697438B548B658B768BA5
:1017C00057964D915D916D917C915A97478B508FB3
:1017D000618F728F5B968D919C91948F838F08950A
:1017E000DC015996ED91FC91309721F081E09581D3
:1017F000911101C080E00895DC015996ED91FC91B2
:101800003097B9F083899489A589B6894285538533
:1018100064857585841B950BA60BB70B811520E895
:101820009207A105B10538F08FEF9FE7A0E0B0E087
:10183000089590E080E00895DC0159968D919C9187
:10184000009739F0DC01ED91FC910480F581E02DE9
:10185000199490E080E00895CF93DF931F92CDB765
:10186000DEB76983DC01ED91FC910280F381E02D0C
:1018700041E050E0BE016F5F7F4F19950F90DF91FF
:10188000CF910895CF93CFB7F89480911F0E811117
:1018900027C0E2E2F3E08491E2ECF2E09491E82FD9
:1018A000F0E0EE0FFF1FED5EFD4FA591B491EC91BE
:1018B000E92321F461E085E30E94390761E085E3D3
:1018C0000E9467078CB580618CBD8CB580648CBD2F
:1018D00061E084E30E94670761E083E30E94670799
:1018E00080911F0E8F5F80931F0ECFBFCF91089501
:1018F0002091FA0D260F3327331F21323105ECF4E6
:101900002091D811FC0190E080E0243069F082E061
:101910000895A091FA0D2191AC014852524FA40FA5
:10192000B52FB11D2C930196861798F38091FA0D6F
:10193000680F6093FA0D80E0089581E00895109299
:10194000D81181E08093D7111092B21161E084E147
:101950000E94390761E085E10E943907E9EBF0E078
:1019600080818E7F808380818D7F808388E48093D7
:10197000B80085E48093BC000895CF93DF9391E095
:101980009093D70D8823B9F0C091B800D091BA00D8
:101990008091BC008A7B8093BC0060E084E10E945F
:1019A000390760E085E10E9439070E949F0CD093BF
:1019B000BA00C093B800DF91CF9108958F929F92A3
:1019C000AF92BF92CF92DF92EF92FF920F931F934D
:1019D000CF93DF93D0910112D13208F0D7C0182FE6
:1019E000C09100120E94C0076B017C018091D81148
:1019F00081116BC082E08093D8111093D7118FEFC3
:101A00008093D6111092D511D093D411A0EEB1E1EC
:101A1000E4EBF1E180E0D81391C01092B311809112
:101A2000B311CC0FC82BC093B3118091B211813088
:101A300009F088C01092B2110E94C0076B017C01AE
:101A40008091B3118093BB008091DA119091DB11EA
:101A5000A091DC11B091DD11892B8A2B8B2BA1F089
:101A60000E94C0070091DA111091DB112091DC1166
:101A70003091DD116C197D098E099F090617170732
:101A80002807390708F442C08091BC0083FDD8CFF5
:101A900085EC8093BC000E94C0076B017C018091A3
:101AA000D811823009F450C08091D6118F3F09F4CB
:101AB0006FC08091D611803209F46CC08091D6112C
:101AC000803309F469C084E026C08091DA119091D6
:101AD000DB11A091DC11B091DD11892B8A2B8B2BAE
:101AE00009F484CF0E94C0078090DA119090DB1136
:101AF000A090DC11B090DD116C197D098E099F0951
:101B000086169706A806B90608F070CF8091D911FD
:101B10000E94BD0C85E01092DF111092011210920C
:101B2000DE11DF91CF911F910F91FF90EF90DF9029
:101B3000CF90BF90AF909F908F9008959D9191937B
:101B40008F5F69CF85EEA5CF8091DA119091DB117F
:101B5000A091DC11B091DD11892B8A2B8B2B09F41C
:101B60009ECF0E94C0070091DA111091DB112091E5
:101B7000DC113091DD116C197D098E099F09061762
:101B800017072807390708F08ACFC0CF81E0C3CFF5
:101B900080E0C1CF82E0BFCF83E0BDCFCF92DF92A4
:101BA000EF92FF920F931F93CF93DF93D82FC62FFF
:101BB000613208F098C00E94C0076B017C018091DF
:101BC000D81181116BC081E08093D8118093D71117
:101BD0009FEF9093D6111092D5119C0F9093D41132
:101BE0008093B3118091B311DD0FD82BD093B31133
:101BF0008091B211813009F078C01092B2110E9428
:101C0000C0076B017C018091B3118093BB00809170
:101C1000DA119091DB11A091DC11B091DD11892BCB
:101C20008A2B8B2BA1F00E94C0070091DA11109132
:101C3000DB112091DC113091DD116C197D098E09C9
:101C40009F09061717072807390708F448C080912D
:101C5000BC0083FDD8CF85EC8093BC000E94C007F8
:101C60006B017C018091D811813009F440C08091D2
:101C7000D5118C1710F4C091D511E4EBF1E1A2E974
:101C8000B1E180E08C1355C08C2FDF91CF911F9173
:101C90000F91FF90EF90DF90CF9008958091DA112F
:101CA0009091DB11A091DC11B091DD11892B8A2B71
:101CB0008B2B09F484CF0E94C0070091DA11109198
:101CC000DB112091DC113091DD116C197D098E0939
:101CD0009F09061717072807390708F070CF80916A
:101CE000D9110E94BD0CC0E0CFCF85EEB5CF809159
:101CF000DA119091DB11A091DC11B091DD11892BEB
:101D00008A2B8B2B09F4AECF0E94C0070091DA1109
:101D10001091DB112091DC113091DD116C197D09DE
:101D20008E099F09061717072807390708F09ACF69
:101D3000D6CF91919D938F5FA5CF08950895089573
:101D4000E091D60D8091D50DE81730F4F0E0EE5615
:101D5000FE4E808190E008958FEF9FEF089590915F
:101D6000D60D8091D50D2FEF3FEF981748F4E92F4E
:101D7000F0E0EE56FE4E208130E09F5F9093D60D4E
:101D8000C90108958091D50D9091D60D891B990BAD
:101D90000895CF92DF92EF92FF920F931F93CF930C
:101DA000DF937C01CB018A012091DE11222389F08F
:101DB000EB016B01C40ED51ECC15DD0569F06991F0
:101DC000D701ED91FC910190F081E02DC7011995AB
:101DD000F3CF642F0E94780CC801DF91CF911F913F
:101DE0000F91FF90EF90DF90CF900895CF93DF9306
:101DF0001F92CDB7DEB769832091DE112223F9F05F
:101E000020910112203258F021E030E0FC013383B0
:101E1000228390E080E00F90DF91CF910895809130
:101E2000DF11E82FF0E0E052FE4E998190838F5F42
:101E30008093DF118093011281E090E0ECCF61E0AC
:101E4000CE0101960E94780CF7CF089561E0FC0165
:101E500084810E9439078091200E81111092200EFA
:101E600008958EBD00000DB407FEFDCF8EB5089518
:101E70008FEF0C94310F0F931F93CF93DF93EC01EF
:101E80000E946E088B010E94380F8F3F69F00E94FC
:101E90006E08601B710B6C177D07A8F380E0DF9163
:101EA000CF911F910F91089581E0F9CF8CBD9DBD19
:101EB0000895CF93DF93EC018091200E811109C02A
:101EC00081E08093200E8091D9139091DA130E94C3
:101ED000560F60E08C81DF91CF910C9439078F927F
:101EE0009F92AF92BF92FF920F931F93CF93DF9376
:101EF000EC01F62E49015A018E81882389F08F81E9
:101F000098859C012F5F3F4F38872F838230924006
:101F100018F40E94380FF3CFCE010E94260F1E82C4
:101F2000CE010E94590F8CE291E00E943B0F8F2D51
:101F300080640E94310F08E110E0D501C401002E39
:101F400004C0B695A795979587950A94D2F70E94F5
:101F5000310F08501109083F8FEF180771F785E915
:101F6000FF2021F028E087E8F2128FEF0E94310F66
:101F700010E00E94380F8A8787FF04C01F3F11F0CE
:101F80001F5FF7CFDF91CF911F910F91FF90BF900F
:101F9000AF909F908F9008958F929F92AF92BF9233
:101FA000DF92EF92FF920F931F93CF93DF93EC0199
:101FB000D62E1B8619861E821D8285E38C830E9485
:101FC0006E087B0161E08C810E94670761E08C8173
:101FD0000E9439070E94420C82E58093D913109227
:101FE000DA138091D9139091DA130E94560F1AE0F8
:101FF0008FEF0E94310F1150D9F7CE010E94590F77
:1020000020E030E0A90160E0CE010E946F0F182FA0
:102010008A878130D1F00E946E086E197F09613D78
:10202000774070F381E08D83CE010E94260F10E08F
:10203000812FDF91CF911F910F91FF90EF90DF9053
:10204000BF90AF909F908F9008952AEA31E040E0D2
:1020500050E068E0CE010E946F0F82FF25C01B8711
:102060008B85812C912C5401823029F4812C912C68
:10207000A12C80E4B82E20E030E0A90167E3CE0176
:102080000E946F0FA501940169E2CE010E946F0FBB
:102090008A878823B1F00E946E086E197F09613D1E
:1020A000774048F388E0BFCF04E00E94380F8A876A
:1020B0000150D9F78A3A11F082E0B5CF82E08B87E0
:1020C000CFCF8B858230C1F420E030E0A9016AE3F4
:1020D000CE010E946F0F882311F086E0A4CF0E94EA
:1020E000380F807C803C11F483E08B870E94380F8E
:1020F0000E94380F0E94380FCE010E94260F82E006
:10210000D81631F080E58093D9131092DA1390CF6E
:1021100081E58093D91381E08093DA1389CFAF9260
:10212000BF92CF92DF92EF92FF920F931F93CF93C4
:10213000DF93EC016901C801820F931F8130924047
:1021400050F58E81882379F088819981AA81BB819D
:1021500084179507A607B70731F48F819885C816AD
:10216000D90608F042C0488359836A837B838B85F4
:10217000833039F089E0440F551F661F771F8A9519
:10218000D1F79A01AB0161E1CE010E946F0F882364
:1021900089F083E08D83CE010E94260F80E0DF91DD
:1021A000CF911F910F91FF90EF90DF90CF90BF9054
:1021B000AF9008950E946E085B010E94380F8A87D5
:1021C0008F3F69F40E946E086A197B096D32714075
:1021D000A0F38FE08D83CE010E94260FDCCF8E3FCF
:1021E00089F418861F8281E08E838F8198858C15F3
:1021F0009D0550F40E94380F8F819885019698872D
:102200008F83F3CF8DE0E6CF6701E00EF11E0E94D1
:10221000380FF60181936F01EE15FF05C1F78F812D
:102220009885080F191F18870F838985882319F04F
:1022300001151240A0F08E81882389F08F81988546
:102240009C012F5F3F4F38872F838230924018F4D4
:102250000E94380FF3CFCE010E94260F1E8281E02C
:102260009ECFCF92DF92EF92FF920F93CF93DF93A7
:10227000EC01690182E1411551056105710599F093
:102280008B85833039F089E0440F551F661F771F17
:102290008A95D1F79A01AB0168E1CE010E946F0FD8
:1022A000882319F084E08D832DC08EEF0E94310FBA
:1022B00076018EEFD81AF70181917F010E94310FCC
:1022C000EC14FD04C1F78FEF0E94310F8FEF0E94D5
:1022D000310F0E94380F8A878F71853071F4011198
:1022E00016C0CE010E94260F81E0DF91CF910F91A1
:1022F000FF90EF90DF90CF90089581E18D83CE0124
:102300000E94260FCE010E94260F80E0EECF88E5C6
:1023100092E00E943B0F811102C085E1C4CF20E012
:1023200030E0A9016DE0CE010E946F0F882311F00B
:1023300084E1B9CF0E94380F8111FACFD2CF0F9329
:102340004091220E5091230E6091240E7091250E23
:10235000411551056105710599F0082F20E93FE00D
:1023600080919011909191110E943111882349F030
:102370001092220E1092230E1092240E1092250E0F
:1023800081E00F9108950F93CF93C82F8091210E74
:10239000811105C0C1E08C2FCF910F91089540911C
:1023A00030025091310260913202709133020C2F51
:1023B00020E93FE080919011909191110E9431119C
:1023C000811102C0C0E0E7CFCC2321F381E00E945D
:1023D0009F118823B9F31092210EDDCF8F929F9227
:1023E000AF92BF92EF92FF920F931F93CF934B0147
:1023F0005C01C42F8091300290913102A091320291
:10240000B091330288159905AA05BB0551F181E009
:102410000E94C31181110BC080E0CF911F910F91D9
:10242000FF90EF90BF90AF909F908F90089580E9BC
:10243000E82E8FE0F82E00E012E030E020E0B50159
:10244000A40180919011909191110E948F10882386
:1024500019F38092300290923102A0923202B0922F
:1024600033024091210E4C2B4093210E81E0D5CFB9
:102470008F929F92AF92BF92CF92DF92EF92FF9294
:10248000CF932BED33E1309391112093901188235A
:1024900009F46DC040E060E070E0CB010E94EE11F5
:1024A00081110BC080E0CF91FF90EF90DF90CF9033
:1024B000BF90AF909F908F90089580914E118F772D
:1024C00089F780915A1190915B11A0915C11B091A4
:1024D0005D1184369105A105B10520F3C090561118
:1024E000D0905711E0905811F0905911C114D104B7
:1024F000E104F104B9F240E0C701B6010E94EE1117
:10250000882381F280919B0F90919C0F81159240BE
:1025100049F6A091A00FAA2329F260919E0F709115
:102520009F0F6115710509F4BDCF20919D0F2223E6
:1025300009F4B8CFA093F9132093EB1390E080E057
:1025400030E0E1E0F0E0C82FAF01082E02C0440FF8
:10255000551F0A94E2F72417350769F041E0480F48
:1025600001968930910579F74093F4139BCFC12CE4
:10257000D12C7601C0CF8093F4132091A60F309117
:10258000A70F50E040E02115310541F42091B40F30
:102590003091B50F4091B60F5091B70F2093EC13C7
:1025A0003093ED134093EE135093EF134601570110
:1025B000860E971EA11CB11C8092FA139092FB13F9
:1025C000A092FC13B092FD13E091A10FF091A20F25
:1025D000F0930014E093FF13B0E00E94B76BDC01AE
:1025E000CB01880D991DAA1DBB1D809301149093EA
:1025F0000214A0930314B093041425E0EE0FFF1F00
:102600002A95E1F7E150FE4FEF2FFF27E6958E0F59
:102610009F1FA11DB11D8093F5139093F613A093F6
:10262000F713B093F8138090A30F9090A40FB12CE0
:10263000A12C8114910441F48090B00F9090B10FBF
:10264000A090B20FB090B30FC81AD90AEA0AFB0AD9
:10265000C80CD91CEA1CFB1C04C0F694E794D79460
:10266000C794CA95D2F7C092F013D092F113E092BA
:10267000F213F092F31385EFC8168FE0D806E10449
:10268000F10428F48CE08093FE1381E00CCF80E10C
:1026900025EFC2162FEFD206E104F104A0F38091DA
:1026A000BC0F9091BD0FA091BE0FB091BF0F809352
:1026B000011490930214A0930314B093041480E2C5
:1026C000E2CF81E00E943812811102C00C943812CE
:1026D00081E00895CF93DF93EC016E857F85888933
:1026E000998941E00E94EE11882351F08A8920E205
:1026F000829FC00111248057904FDF91CF910895A0
:1027000090E080E0FACF4F925F926F927F928F922B
:102710009F92AF92BF92CF92DF92EF92FF920F9370
:102720001F93CF93DF93EC01423051056105710592
:1027300090F480E0DF91CF911F910F91FF90EF9087
:10274000DF90CF90BF90AF909F908F907F906F90D1
:102750005F904F90089589859A85AB85BC850196D9
:10276000A11DB11D84179507A607B70710F3CB88E5
:10277000DC88ED88FE888F89803109F042C0BB2754
:10278000A72F962F852F480159012A013B01C80E1A
:10279000D91EEA1EFB1E8091300290913102A09159
:1027A0003202B0913302C816D906EA06FB0699F543
:1027B0008F898031C1F5B301A2015527662777279C
:1027C000440F551F4057504FFA01918280828091EB
:1027D000210E81608093210E8A89823080F08D8164
:1027E0009E81AF81B8858C0D9D1DAE1DBF1D809350
:1027F000220E9093230EA093240EB093250E81E019
:1028000099CFDB01CA01E7E0B695A7959795879523
:10281000EA95D1F7B8CF40E0C701B6010E94EE11AA
:102820008111C6CF86CFB301A2014F775527662706
:102830007727440F551F440F551F4057504FFA013B
:1028400080829182A282B382C2CF8F929F92AF92F6
:10285000BF92CF92DF92EF92FF920F931F93CF938D
:10286000DF93FC0181859285A385B4850196A11D26
:10287000B11D84179507A607B70770F480E0DF91B4
:10288000CF911F910F91FF90EF90DF90CF90BF906D
:10289000AF909F908F90089583889488A588B6887C
:1028A0008789803189F5BB27A72F962F852FE901CE
:1028B0006A017B018F01BC01CD01680D791D8A1D64
:1028C0009B1D8090300290903102A0903202B09017
:1028D000330286169706A806B90601F5F80187891E
:1028E000803111F5DD24EE24FF24F601EE0FFF1FE9
:1028F000E057F04F80819181B0E0A0E08883998318
:10290000AA83BB8381E0BBCFDB01CA01C7E0B695D8
:10291000A79597958795CA95D1F7C9CF40E00E94B2
:10292000EE118111DBCFAACFE894C7F8DD24EE24A5
:10293000FF24F601EE0FFF1FEE0FFF1FE057F04FD1
:1029400080819181A281B381BF70D8CF4F925F9275
:102950006F927F92AF92BF92CF92DF92EF92FF92EF
:102960000F931F93CF93DF9300D01F92CDB7DEB7A5
:102970008C0149835A836B837C835901C12CD12CF0
:102980007601412C82E0582E612C712C49815A81AC
:102990006B817C819E012F5F3F4FC8010E942514EF
:1029A000882339F1F8018585A301920104C0220F23
:1029B000331F441F551F8A95D2F7DA01C901C80E8B
:1029C000D91EEA1EFB1E49815A816B817C81878951
:1029D000803111F188EF9FEFAFEFBFE04817590743
:1029E0006A077B0798F2F501C082D182E282F38206
:1029F00081E00F900F900F900F90DF91CF911F917A
:102A00000F91FF90EF90DF90CF90BF90AF907F90AD
:102A10006F905F904F90089588EF9FEFA0E0B0E037
:102A2000DDCFCF93DF93FC012581222321F080E0CD
:102A3000DF91CF910895EC018091FE13803159F51B
:102A400082E08583178A108E118E128E8091FF137B
:102A500090910014B0E0A0E025E0880F991FAA1F14
:102A6000BB1F2A95D1F7838B948BA58BB68B87EEF2
:102A700093E19C8F8B8F81E08C831E821F8218864E
:102A800019861A861B861C861D861E861F86188A36
:102A9000198A1A8ACDCF803251F683E0858340911E
:102AA0000114509102146091031470910414478B27
:102AB000508F618F728F9F012D5E3F4F87EE93E1A4
:102AC0000E94A6148111D3CFB2CF8F929F92AF9262
:102AD000BF92CF92DF92EF92FF920F931F93CF930B
:102AE000DF93EC018D8181110EC080E0DF91CF91E9
:102AF0001F910F91FF90EF90DF90CF90BF90AF901C
:102B00009F908F9008950B891C892D893E89041709
:102B100015072607370748F34A015B01823031F475
:102B20008A869B86AC86BD8681E0E0CF81149104C5
:102B3000A104B10449F41E821F82188619861A86E0
:102B40001B861C861D86F0CF0A851B852C853D853E
:102B5000EB8DFC8D858590E00996B901A801415067
:102B6000510961097109082E04C07695679557953A
:102B700047950A94D2F775016401E1E0CE1AD108B5
:102B8000E108F10804C0F694E794D794C7948A95B5
:102B9000D2F7C416D506E606F70620F0012B022B65
:102BA000032B11F58F89988DA98DBA8D8E839F8304
:102BB000A887B9878E010A5F1F4FC114D104E104B1
:102BC000F10409F4ADCF4E815F8168857985980164
:102BD0008B8D9C8D0E94251491E0C91AD108E108C3
:102BE000F1088111EACF81CFC41AD50AE60AF70AA3
:102BF000E1CF3F924F925F926F927F928F929F921E
:102C0000AF92BF92CF92DF92EF92FF920F931F93FA
:102C1000CF93DF93CDB7DEB72C970FB6F894DEBF16
:102C20000FBECDBF5C01DC015B968D909C905C97E4
:102C300016964D905D906D907C90199741145104BB
:102C40006104710409F468C0BFEF4B1A5B0A6B0A98
:102C50007B0A312CF40181859285A385B4859C0182
:102C6000AD012F5F3F4F4F4F5F4F29873A874B870B
:102C70005C87730162011D821E821F821886F40127
:102C800081859285A385B4852D813E814F815885AC
:102C9000281739074A075B0708F056C089859A85C7
:102CA000AB85BC858C159D05AE05BF0550F482E053
:102CB000C82ED12CE12CF12C92E0492E512C612C04
:102CC000712C9E012F5F3F4FB701A601C4010E94E6
:102CD00025148823C9F189819A81AB81BC81892B14
:102CE0008A2B8B2B09F1260137019FEF491A590ACC
:102CF000690A790A2D813E814F8158852F5F3F4FA8
:102D00004F4F5F4F2D833E834F8358873FEFC31A4A
:102D1000D30AE30AF30AB3CFF40140805180628002
:102D200073803324339496CFC414D504E604F70497
:102D300009F70FEF1FEF2FEF3FE0B701A601C40126
:102D40000E948313811119C080E02C960FB6F8946D
:102D5000DEBF0FBECDBFDF91CF911F910F91FF90CE
:102D6000EF90DF90CF90BF90AF909F908F907F902B
:102D70006F905F904F903F900895D50116964D91BA
:102D80005D916D917C911997411551056105710512
:102D900039F097018601C4010E9483138823A1F2B0
:102DA000D5011696CD92DD92ED92FC9219973320C3
:102DB00051F0D701C6010196A11DB11DF401808318
:102DC0009183A283B383F5018789908DA18DB28D04
:102DD000892B8A2B8B2B39F48481C78AD08EE18E84
:102DE000F28E80688483F50184818062848381E02F
:102DF000ACCF2F923F924F925F926F927F928F92C1
:102E00009F92AF92BF92CF92DF92EF92FF920F9379
:102E10001F93CF93DF93EC015B012A018D81811118
:102E200015C08FEF9FEFDF91CF911F910F91FF9012
:102E3000EF90DF90CF90BF90AF909F908F907F905A
:102E40006F905F904F903F902F9008958C8180FFFE
:102E5000E8CF0B891C892D893E894A855B856C8565
:102E60007D85C201B0E0A0E068017901C41AD50AED
:102E7000E60AF70AC816D906EA06FB0618F428017E
:102E8000441A550A42011E0126E0220E311C81140B
:102E9000910409F4B3C04A855B856C857D856A0120
:102EA00081E0D8228B8D9C8D8A019B01E9E03695CB
:102EB000279517950795EA95D1F7ED81E230E1F571
:102EC000FC01628D738D848D958D600F711F821F43
:102ED000931F612C22E0722E6C187D0886149704D3
:102EE00008F434012C8126FD04C06114F2E07F0651
:102EF00071F4009130021091310220913202309130
:102F00003302061717072807390709F053C040E0B6
:102F10000E94EE11882309F484CFC6018057904F98
:102F2000D5019C01260D371DFC012E173F0709F422
:102F300060C041914D93F9CFFC0174807A94702266
:102F4000C114D10471F471100CC0452B462B472BD2
:102F500039F58F89988DA98DBA8D8E839F83A88727
:102F6000B987EB8DFC8D6E817F8188859985625054
:102F7000710981099109258504C0660F771F881F93
:102F8000991F2A95D2F70685178520893189600F08
:102F9000711F821F931F670D711D811D911D99CF98
:102FA0004E815F816885798591010E942514811188
:102FB000D8CF37CF750183019601AB01BC01809159
:102FC0009011909191110E948F10882309F429CFBC
:102FD000A60CB71C8A859B85AC85BD85860D971D83
:102FE000A11DB11D8A879B87AC87BD87861897086E
:102FF0004ECF281B390BA20EB31EECCFC20113CF4C
:10300000FC01818D928D009721F044E150E00C94F9
:10301000F91690E080E00895CF93DF931F92CDB72B
:10302000DEB741E050E0BE016F5F7F4F0E94F916AE
:10303000019731F4898190E00F90DF91CF9108954D
:103040008FEF9FEFF9CFFC01818D928D009711F0EA
:103050000C940C188FEF9FEF08950F931F93CF934D
:10306000DF93EC010E946E08688779878A879B87C7
:10307000CE010E94231897FF15C00E946E08088594
:1030800019852A853B85601B710B820B930B0C8184
:103090001D812E813F81601771078207930740F3DE
:1030A0008FEF9FEFDF91CF911F910F9108950F93B5
:1030B0001F93CF93DF93EC01898D9A8D10E000E090
:1030C000009799F00E940C188C010F3F100769F0CF
:1030D000898D9A8DFC0142855385648575854150A3
:1030E0005109610971090E946515C801DF91CF91ED
:1030F0001F910F9108951F93CF93DF93FC012581BA
:10310000222371F1162FEC01848187FF1EC0CF01AD
:103110000E946A13FC01892B19F18D81823040F4E1
:103120008B899C89AD89BE89848F958FA68FB78F37
:103130008F89988D938F828F8F89988DA98DBA8D65
:10314000B58BA48B8C818F778C83111103C08C81FC
:103150008F7E8C83812FDF91CF911F910C94C311AF
:1031600080E0DF91CF911F910895FF920F931F93FD
:10317000CF93DF93EC018D81813041F090E080E0CE
:10318000DF91CF911F910F91FF9008958C8181FF66
:10319000F5CF82FD1BC00091901110919111C801D3
:1031A0000E94590F0E94380FF82EC8010E94260F66
:1031B0008FEFF812E3CF8C8185FF1BC060E0CE015A
:1031C0000E947B188C818F7D8C83D8CF4B895C8942
:1031D0006D897E898A859B85AC85BD858417950719
:1031E000A607B707C1F2CE010E9465158111D3CFA2
:1031F000C5CF4091220E5091230E6091240E709104
:10320000250E452B462B472B21F080E00E949F1175
:10321000B5CF80618C832A853B85317080E092E058
:10322000821B930BADCFCF93DF93EC0161E00E9443
:103230007B18882311F01D8281E0DF91CF910895E2
:10324000FC01818D928D009719F061E00C947B1840
:1032500008952F923F924F925F926F927F928F923A
:103260009F92AF92BF92CF92DF92EF92FF920F9315
:103270001F93CF93DF9300D01F921F92CDB7DEB77D
:103280007C015B01342E5D83DC0115968C911597D2
:10329000813009F0CEC014962C9021FECAC022FCC9
:1032A000B4C0C32CDD8022947FE027222094B22D6D
:1032B000B1702B2ED7011A964D915D916D917C9135
:1032C0001D97C114D10409F428C15B968D919C917E
:1032D0005C97FC0174807A948A019B0169E03695C1
:1032E0002795179507956A95D1F770228A01117075
:1032F000711020C001151105E9F416964D915D91EC
:103300006D917C911997411551056105710509F081
:1033100099C057968D919D910D90BC91A02D0097CD
:10332000A105B10509F0B0C0C7010E94F9158823B5
:1033300009F47FC080E092E0801B910B46018C1560
:103340009D0508F44C01D7015B964D915C915C970B
:1033500016968D919D910D90BC91A02D0297A1097B
:10336000B109FA01258504C0880F991FAA1FBB1F48
:103370002A95D2F74685578560897189840F951FF4
:10338000A61FB71F9C01AD01270D311D411D511D09
:1033900029013A01811432E0930609F07BC0809143
:1033A000300290913102A0913202B0913302841523
:1033B0009505A605B70559F48FEF9FEFDC018093C3
:1033C000300290933102A0933202B0933302022D67
:1033D0009501B301A20180919011909191110E94E9
:1033E0003111882331F19EEFB91AC818D908F701B5
:1033F00082859385A485B585880D991DA11DB11D74
:1034000082879387A487B58755CFF701438954896D
:103410006589768982859385A485B585481759077E
:103420006A077B0709F43DCFC7010E94651581112A
:1034300038CF81E090E0D70113969C938E9312973A
:1034400080E007C09E012F5F3F4F0E94251481112D
:1034500002C090E079C089819A81AB81BC81F7017B
:10346000238D348DF901278948EF5FEF60E070E02C
:10347000203121F048EF5FEF6FEF7FE08417950771
:10348000A607B70708F050CFF70186839783A08778
:10349000B18750CF0115110599F5D7011A964D91B5
:1034A0005D916D917C911D9753968D919D910D909D
:1034B000BC91A02D481759076A077B0708F181E0E6
:1034C0000E94C311882309F4B4CF40923002509275
:1034D000310260923202709233028091210E81603B
:1034E0008093210EC8018057904FD5019C01280D73
:1034F000391DFC012E173F0759F04D914193FACF2A
:1035000041E0C301B2010E94EE118111EBCF91CFD6
:10351000281B390BA20EB31E68CFF701838994894B
:10352000A589B68984179507A607B70738F484815B
:10353000438B548B658B768B80688483F701848101
:1035400083FD1AC0832D9D810F900F900F900F90D7
:103550000F90DF91CF911F910F91FF90EF90DF902F
:10356000CF90BF90AF909F908F907F906F905F9023
:103570004F903F902F90089561E0C7010E947B1803
:10358000882309F456CFDECFCF93DF931F92CDB7B8
:10359000DEB7698341E050E0BE016F5F7F4F0E945C
:1035A00029190F90DF91CF910895CF93DF93EC010C
:1035B000E98DFA8D309749F481E090E09B838A830E
:1035C00090E080E0DF91CF91089513821282898D7F
:1035D0009A8D0E942919E98DFA8D22813381232B3E
:1035E00059F7F0CF80E00895DC011696ED91FC913B
:1035F000179712968C91481B477081E090E001C0AC
:10360000880F4A95EAF7E60FF11D3081222319F061
:10361000832B8083089580958323FBCFFB01418119
:10362000DC0112962C911297421768F013962C9198
:103630001397241740F0608115962C91621718F4A7
:1036400024810C94F41A0895FC0180819281980FD2
:1036500092832181921760F494819F5F9483938178
:10366000890F821710F08FEF820F838381E0089516
:1036700080E00895FC01128280818150838314824E
:103680000895DB01ED91FC9119940F931F93CF9353
:10369000E0916C14F0916D14309719F08EE594E17F
:1036A00019950091601410916114E0918F14F091BC
:1036B000901482E01995E0918F14F091901481E0BC
:1036C000199530E020E045E1B8018EE594E10E94D3
:1036D000411BC82F882341F021E934E147E1B801BB
:1036E0008EE594E10E94411BE0918F14F0919014BB
:1036F00080E019958C2FCF911F910F910895EF9233
:10370000FF920F931F93CF93DF93082F162FC42F91
:10371000D42FF82EF40EEE24EA948F2D8D1BD83082
:1037200080F58C2F887F800F9C2F96959695969587
:1037300028EF929FC00D1124CC23C1F197E0C92737
:10374000609160147091611480937A1410937B14CB
:1037500010927D14CF5FC7708FEF90E001C0880F8B
:10376000CA95EAF780937C142AE734E14BE38EE5AF
:1037700094E1DF91CF911F910F91FF90EF900C9406
:10378000411B609160147091611480937A141093BE
:103790007B1410927D14E0927C142AE734E14BE311
:1037A0008EE594E10E94411BD850B7CFDF91CF91B5
:1037B0001F910F91FF90EF9008950F931F93CF9358
:1037C000DF93182FC62F042FD62FD20F402F6C2F28
:1037D000812F0E947F1BCF5FCD13F8CFDF91CF9158
:1037E0001F910F910895DF92EF92FF920F931F9315
:1037F000CF93DF93F82ED62FC42F162F01E0DD24B0
:10380000DA94E62EE40E6091601470916114F092E7
:103810007A1410937B1400937D14D0927C142AE7C1
:1038200034E14BE38EE594E10E94411B185F8E2D3D
:10383000811B883040F7D85F88EF8C0F887F8D0F11
:103840009C2F977011F16091601470916114F09247
:103850007A1480937B1400937D14C195C7708FEF09
:1038600090E001C0880FCA95EAF780937C142AE79C
:1038700034E14BE38EE594E1DF91CF911F910F91FD
:10388000FF90EF90DF900C94411BDF91CF911F913F
:103890000F91FF90EF90DF900895CF92DF92EF921B
:1038A000FF920F931F93CF93DF93C82F162FD42F20
:1038B000082F041B481710F0042F081B211748F489
:1038C000F12EF21A0F15E0F0DC1708F440C0D12CED
:1038D00010C0F22EF11A0F1508F041C0802F0F2DE5
:1038E000F82E8D2FD22F282F8C2FC12F182FDD24AB
:1038F000D394E02EE6941217E0F5CC24C3943BC099
:10390000802F0F2DF82E812F1D2FD82F8C2FC22FF7
:10391000282FEDCF6091601470916114D11012C006
:10392000C0937A1410937B142AE734E142E38EE5C6
:1039300094E10E94411BEF18E7FE02C01C0DE00E4F
:10394000CF5F1CC010937A14C0937B14EDCFE02E90
:10395000E6948D2FDC2FC82F122FD12CCECFDC1761
:1039600008F0B5CFE02EE6948D2FDC2FC82F122F54
:10397000D12CCC24CA94DF3F09F4DEEFDC1750F6DB
:10398000DF91CF911F910F91FF90EF90DF90CF903B
:103990000895CF93DF931F92CDB7DEB79E012F5FBF
:1039A0003F4F47E40E94411B89810F90DF91CF91E7
:1039B0000895CF93DF931F92CDB7DEB79E012F5F9F
:1039C0003F4F46E40E94411B89810F90DF91CF91C8
:1039D0000895BF92CF92DF92EF92FF920F931F93C1
:1039E000CF93DF938C01D42EE901FB01E280F380B9
:1039F000F2E34F1709F476C0F417C8F08CE24817C9
:103A000009F470C0EDE24E17E9F0F7E14F1779F1D4
:103A10009E014D2DB701C801DF91CF911F910F91EC
:103A2000FF90EF90DF90CF90BF900C94411B86E405
:103A3000481709F44CC0E7E44E1709F44EC0FBE305
:103A40004F13E6CFB701C8010E94C91CC980C094BA
:103A5000C80EB701C8010E94D91C98819095890FA2
:103A60008883C9828B818E5F83708B834BC047E1D3
:103A7000B701C8010E94411BB701C8010E94D91CAF
:103A8000BA80B094B80EB701C8010E94D91CD88082
:103A9000D094D80EB701C8010E94C91CCB80C09435
:103AA000C80EB701C8010E94C91C99819095890F61
:103AB000B882C982DA828B8381E0DF91CF911F9136
:103AC0000F91FF90EF90DF90CF90BF900895B701D6
:103AD000C8010E94D91C8883EFCFB701C8010E949A
:103AE000C91CF9CFB701C8010E94C91CC980C09484
:103AF000C80EB701C8010E94D91C98819095890F02
:103B00008883C9829E014D2DB701C8010E94411BC7
:103B1000D3CFCF93DF93EC016A817B810E94D91CC4
:103B200088836A817B81CE010E94C91C89836A8156
:103B30007B8130E020E048E4CE010E94411B8B876E
:103B40009E012D5C3F4F6A817B8147E1CE01DF9171
:103B5000CF910C94411BCF93DF93C0916014D0910F
:103B60006114E0918F14F091901482E0199530E087
:103B700020E04AE0BE018EE594E10E94411BC82F7F
:103B8000E0918F14F091901483E01995E0918F14D7
:103B9000F091901480E01995CC2329F08EE594E102
:103BA0000E94891DC1E08C2FDF91CF910895CF93A2
:103BB000DF9380919714811105C081E08093971461
:103BC0000E94AB1DC0916014D0916114E0918F14DC
:103BD000F091901482E01995E0918F14F091901477
:103BE00081E0199530E020E044E1BE018EE594E1EA
:103BF0000E94411B21E934E147E1BE018EE594E1D9
:103C00000E94411BE0918F14F091901480E0DF91AD
:103C1000CF9119940B96FC01849108950A96FC01AA
:103C200084910895FC01849108950E94121E8823B6
:103C300021F0823011F083E0089586E00895FC01C0
:103C4000E60FF11D849190E0982F88273196E4913A
:103C50008E0F911D089568E00C941F1E66E00C9471
:103C60001F1E2EE93FE0009709F40895F9013197EE
:103C7000F1F70197F8CF8EBD0DB407FEFDCF8EB5DD
:103C80000895860F911DFC0183A18F3F19F0642FC9
:103C90000C9439070895EF92FF920F931F93CF93DF
:103CA0008C01C42F79016150673008F045C0E62FC0
:103CB000F0E08827E15AF14E8F4F0C94236C661E7A
:103CC000A31EA81EB41EBA1EC41ECF1E780183E216
:103CD000E80EF11C005D1F4FF70181917F018F3FBE
:103CE00049F061E00E94670761E0F7013197808148
:103CF0000E943907E016F10679F761E084E30E943B
:103D0000670760E084E30E94390761E083E30E9473
:103D1000670760E083E30E94390761E085E30E9462
:103D2000670761E085E30E9439071CBC80E58CBD14
:103D3000C23010F481E08DBD81E0CF911F910F91D1
:103D4000FF90EF90089561E0C8010E94411EF4CFFA
:103D5000411103C041E062E0F7CF40E064E0C801F8
:103D60000E94411E40E0F7CFF80183A160E08F3F41
:103D700019F3EACF842F0E943B1EDECFF701819119
:103D80007F010E943B1EC150C111F8CFD5CFF70172
:103D900084910E943B1EFFEFEF1AFF0AC150C11130
:103DA000F6CFCACFDB011496ED91FC9130E020E014
:103DB00065E01994DB011496ED91FC9130E020E070
:103DC00062E01994DB011496ED91FC9130E020E063
:103DD00063E01994CF92DF92EF92FF920F931F93BB
:103DE000CF93DF938C017B016A0180E0F601C491DF
:103DF000811110C081E0CF3F49F04C2FB701C801BD
:103E00000E94D21E882309F444C080E0BFEFCB1A81
:103E1000DB0AECCF4FEFCF3F89F3CE3FD9F1C03F64
:103E2000A0F7C03E38F04C2F4F70B701C8010E9478
:103E3000DA1EEBCFC03D38F04C2F4F70B701C801F0
:103E40000E94E21EE2CFC03CF8F0D7011496ED913B
:103E5000FC9130E020E040E064E0C8011995C29593
:103E6000C07FCE5FD0E0CE010E94311ED7011496F4
:103E7000ED91FC9130E020E041E064E0C80119954B
:103E8000CE010E94311EC1CFC7FDBFCF8C2F90E065
:103E9000F8CF80E0DF91CF911F910F91FF90EF90CD
:103EA000DF90CF900895AF92BF92DF92EF92FF9292
:103EB0000F931F93CF93DF937C018B01D42EE901E5
:103EC0008FE0481709F472C0A5E14A17D1F1BAE0B2
:103ED0004B1310C0DB011496ED91FC9130E020E013
:103EE00042E061E0C701199540EE51E0B801C70119
:103EF0000E94EA1EF80102811381F2E3DF1609F441
:103F0000BCC0FD1508F46EC085E1D81609F4BAC02E
:103F1000A7E1DA1609F4CBC0B4E1DB1261C0D80125
:103F20001696ED91FC91179715968C918E0F9F2FF9
:103F3000911D11928E179F07E1F7C8010E943A1B4D
:103F40004FC0FB01A280B38048ED51E0C7010E9441
:103F5000EA1ED50114964C91406BB801C7010E942E
:103F6000D21E41E0B801C7010E94DA1EF501268188
:103F70003781D8011496ED91FC91D50115964C919D
:103F800066E0C701199581110BC080E0DF91CF91E8
:103F90001F910F91FF90EF90DF90BF90AF90089529
:103FA00040E0B801C7010E94E21EA4CF41E0C70172
:103FB0000E94E21E40E0B801C7010E94DA1E41E8FB
:103FC000B801C7010E94D21E488146954695B801A6
:103FD000C7010E94D21E40E0B801C7010E94E21E44
:103FE00081E0D4CFE6E4DE1609F46BC0F7E4DF1617
:103FF00009F46CC08BE3D812F3CF99818B8138E040
:10400000390F813031F0833011F0392F02C0392F50
:10401000985021E0D80113964C91491708F420E0FC
:1040200041E0391708F040E091E0F801528135177E
:1040300008F490E0322F342B932311F4242381F2DF
:10404000FA80E12CD12C843048F490E0FC01E15757
:10405000FD4FD08085579D4FDC01EC90F7FE04C0EA
:10406000BE01C8010E940E1B88818D0D8883898145
:104070008E0D8983FF0C91F7B3CFBE01C8010E945A
:104080000E1BAECFC8010E94241B882309F47DCFEC
:10409000D8011696ED91FC91179715968C918E0F7D
:1040A0009F2F911D11928E179F07E1F799CF1882CC
:1040B000F80182818983858181508A8383818B8302
:1040C0008FCFD80115968C9188838ACFF801818192
:1040D000FBCF0F93FC010150040F84A996A99417FC
:1040E00088F0081710F4041778F42150260F83A9DC
:1040F00095A9961758F0281760F481E0261720F448
:104100000F910895081778F780E0FACF2817A8F7DD
:10411000FBCF81E0F5CFFF920F931F93CF93DF93F7
:10412000C82FD62F142FF22E022F242F462F682FA0
:104130008EE594E10E946920882359F02F2D412FAC
:104140006D2F8C2FDF91CF911F910F91FF900C94C9
:10415000DD1BDF91CF911F910F91FF900895FF928A
:104160000F931F93CF93DF93D82F162FF42EC22FC8
:10417000022F242F462F682F8EE594E10E9469209C
:104180008823E9F04F2D612F8D2F0E947F1B4C2F2C
:10419000612F8D2F0E94F31B8FEF8F0D4C2F612FFE
:1041A0008D0F0E94F31B6FEF6C0F610F4F2D8D2F42
:1041B000DF91CF911F910F91FF900C947F1BDF91A6
:1041C000CF911F910F91FF900895CF93C82F60E07A
:1041D0000E94670761E08C2FCF910C9439070E94F1
:1041E0007A080E94360A8823D1F30895CF93DF938B
:1041F0000E947A080E94360AC82FD0E00E94270A3F
:104200008111C2600E94190A8111C4608EE20E946D
:104210001007892B09F4C860CE01DF91CF91089572
:10422000CF93DF93009791F0FB0130E020E0EF01A6
:10423000C61BD70BA191AA23C9F0AE33C1F72F5FDC
:104240003F4F8217930799F7CE010196DB01A80F24
:10425000B91FFA018D91882321F08E3311F08193DB
:10426000F9CF108281E0DF91CF910895FA01108299
:1042700080E0F9CFFC019F01281B390B41914423B9
:1042800039F04032C1F72F5F3F4F820F931F0895DF
:104290000895CF93DF93FB01A181B281A617B707E1
:1042A00039F48C91082E000C990BDF91CF91089571
:1042B000FC01E05BFF4F80599F4FC191D1919E015E
:1042C000255F3F4FA217B30729F48C8590E08095B6
:1042D0009095EBCFE817F90781F78FEF90E0F7CFD4
:1042E000FC01E05BFF4F9C0120593F4F90E080E0D4
:1042F00041915191452B09F00196E217F307C1F75F
:104300000895FC01E059FF4F9C0120573F4F90E07A
:1043100080E041915191452B09F00196E217F30796
:10432000C1F708952F923F924F925F926F927F92C2
:104330008F929F92AF92BF92CF92DF92EF92FF92B5
:104340000F931F93CF93DF93CDB7DEB762970FB66E
:10435000F894DEBF0FBECDBF7C018B01CE0101966C
:104360000E9418086090420280914102681A770802
:10437000409038028090400280913F02881A99084C
:10438000A0903B0EB12CFE013196512C50E040E044
:1043900030E020E0641675060CF468C082E0481234
:1043A0000FC0DA01AA0FBB1FA057BF4FAE0DBF1D34
:1043B000808191816D917C9186279727918380835D
:1043C00070E060E0861697060CF44AC0A081B181C7
:1043D000BA8BA98BA0FF3BC0352C362A9DE3C92E92
:1043E0009EE0D92E81E090E0A816B9063CF0D601F7
:1043F0002D906D01321419F00196F6CF80E08823DC
:1044000031F16801C20ED31ED6018C932F5F3F4F4E
:104410002F313105E1F4F801178E80E062960FB676
:10442000F894DEBF0FBECDBFDF91CF911F910F91EA
:10443000FF90EF90DF90CF90BF90AF909F908F90C4
:104440007F906F905F904F903F902F900895A98933
:10445000BA89B695A795B183A0836F5F7F4FB2CF1E
:104460004F5F5F4F329680E1580E94CF020F131FBB
:10447000D8011C92D2CF0F931F93CF93DF93EC01FF
:1044800000913F0210E080914002801711065CF01D
:1044900060E0802F0E94670761E0802F0E9439074B
:1044A0000F5F1F4FF0CF0091410210E08091420258
:1044B000801711065CF060E0802F0E94670760E0C3
:1044C000802F0E9439070F5F1F4FF0CF8E010057DA
:1044D0001F4FC8010E941808FE01E059FF4FCF018D
:1044E00011921192E017F107D9F79E01205E3F4F1C
:1044F000FE0111921192E217F307D9F7C05BDF4F6B
:1045000011921192CE17DF07D9F7199219928C17D1
:104510009D07D9F7DF91CF911F910F910895CF9308
:10452000DF93FB0122813381DC0113963C932E93B0
:104530001297448155816681778114964D935D93DE
:104540006D937C9317974085518562857385189686
:104550004D935D936D937C931B971C96EF012C9666
:104560009C01275E3F4F49914D93A217B307D9F79E
:10457000218D328DFC01328F218FDF91CF910895F3
:10458000FC012481358181859285280F391F868120
:10459000882351F0863010F085E08683868102C042
:1045A000220F331F8A95E2F78781882361F08630D6
:1045B00010F085E087833250878102C0220F331FBD
:1045C0008A95E2F73E5FC90137FF02C090E080E0C4
:1045D000813024E0920714F080E094E00895CF92B7
:1045E000DF92EF92FF920F931F93CF93DF938B0194
:1045F000FB01EE0FEF2FEE1FFF0BE80FF92FF11D60
:10460000C585D0E0668570E06C1B7D0B072E000C25
:10461000880B990B0E94576A20E030E040E85DE388
:104620000E94926A6B017C0133E0159507953A95DB
:10463000E1F70F70602F70E090E080E00E94576A11
:104640009B01AC01C701B6010E94926A0E94D96B1E
:104650006C0F7D1F75956795862FDF91CF911F9108
:104660000F91FF90EF90DF90CF900895DC01F0E084
:10467000E0E02D912223B1F0261310C0E80FF91FBE
:104680002081211102C081E00895218121939F01A1
:10469000281B390B203231059CF3F5CF3196E032DF
:1046A000F10539F780E00895FC016115710519F4F1
:1046B00092838183089572836183DB018C9180836F
:1046C0000895CF93DF93FC01E60FF71FDA01819184
:1046D000882339F08D91882321F0EF012197888379
:1046E000F6CFDF91CF9108950F931F93CF93DF9370
:1046F00000D000D000D0CDB7DEB780919A14909151
:104700009B14892B99F08091330E4091340E50E028
:1047100070E060E0762F652F542F4427682B80913E
:10472000350E482B90E080E00E94440680919A1458
:1047300090919B14029798F080912F0E4091300E2B
:1047400050E070E060E0762F652F542F4427682BEF
:104750008091310E482B81E090E00E9444068091C8
:104760009A1490919B14039798F080912B0E40918E
:104770002C0E50E070E060E0762F652F542F442718
:10478000682B80912D0E482B82E090E00E94440619
:104790008091A1149091A214892B09F47CC00E94ED
:1047A000C0070091A7141091A8142091A91430916A
:1047B000AA14601771078207930740F46093A71447
:1047C0007093A8148093A9149093AA140091A7142D
:1047D0001091A8142091A9143091AA14601B710B98
:1047E000820B930B6C32714081059105C0F2F894F5
:1047F00080919C1490919D149A838983E091A114D7
:10480000F091A214DF01119680818987909198140C
:10481000E091AB14F091AC148091AD14992309F49C
:1048200045C09081982B98879081809589238F83AC
:104830008F818C8388E08B8358856F8149853B818C
:104840002C8189819A81508347FD252F3A952083B9
:10485000262F39F0441F00C000006083000000C014
:10486000F2CF38E04D9160830000019761F7F0933B
:10487000AC14E093AB1449873B832C839A838983E0
:1048800078940E94C0076093A7147093A814809333
:10489000A9149093AA1429960FB6F894DEBF0FBE00
:1048A000CDBFDF91CF911F910F9108959081982BEB
:1048B00098879081809589238F838F818E8388E06C
:1048C0008D8358856F8149853D812E8189819A81AB
:1048D000508347FD252F00C000C0208300C000C0CA
:1048E00000C000C000C060830000262F3A9541F050
:1048F000441F000000C000C000C000C000C0E8CFDE
:1049000038E04D9100C0608300C0019709F7F09333
:10491000AC14E093AB1449873D832E83AFCF3F9215
:104920004F925F926F927F928F929F92AF92BF92BF
:10493000CF92DF92EF92FF920F931F93CF93DF936B
:10494000EC01162FDCAC5BAC5C0124E0A20EB11CC8
:10495000E98DFA8DC5011995982EE884F984C7016F
:104960000E94121E082F888599850E94151E782E98
:1049700088248A94013011F48FE0882E88859985E7
:104980000E940E1E082F888599850E940A1EC82E37
:10499000888599850E942B1E113670F0009761F072
:1049A000E80EF91E01E6C116B8F41C8A1F8A188E9B
:1049B0001D8A1E8A80E05BC0888599850E942E1E14
:1049C000113430F0009721F0E80EF91E01E4EBCF2E
:1049D00081E1E80EF11CE7CFC01638F3872D90E097
:1049E000F70124912F3F39F4FFEFEF1AFF0AC016A9
:1049F000E1F20F5FF5CF101368C0888599850E949A
:104A0000121E97012F5F3F4FF701882319F0823064
:104A100009F044C084918F8BF9012491288FF7010C
:104A20003396E491EC8BF7013496E491ED8BF7012A
:104A30003596E491EE8BE114F10409F4BBCF88853F
:104A400099850E94151E782ECF88388C8D89580E36
:104A50001D2D13198E89181B190D032D2C2D412F77
:104A6000652DC5010E946920811138C08C899BADDC
:104A7000890F8BAF81E090E0DF91CF911F910F9173
:104A8000FF90EF90DF90CF90BF90AF909F908F906E
:104A90007F906F905F904F903F9008958491982FF2
:104AA0009F7092509E8B82958F708D8BF90124910F
:104AB000822F8F70888F22952F702F8BF70132965F
:104AC000E491E295EF70EC8BB6CF3296E491E82159
:104AD000E80FF92FF11DEE0EFF1E89CFE70CF11C38
:104AE00007E00C0D069506950695310E4E01F0E295
:104AF0008F0E911C602E712C131509F4B7CF452C25
:104B0000670112C0F60184916E817F8148A219A3CA
:104B10001BA28AA394014BE3C5010E94411BFFEF36
:104B2000CF1ADF0A28E0420E8C2D8E19801750F321
:104B3000E60CF71C1F5FE0CFCF93DF93C82FD09117
:104B4000380ED0FF05C0682F8FE992E10E940A0B52
:104B5000D1FF07C06C2F8CE393E1DF91CF910C94D0
:104B60000A0BDF91CF910895CF93DF93D62FC42FF7
:104B70008F70806B0E949C258D2F0E949C258C2F0E
:104B8000DF91CF910C949C25806B0E949C2588E737
:104B90000E949C2580E00C949C25CF93DF93D62F18
:104BA000C42F80680E949C258D2F0E949C258C2FED
:104BB000DF91CF910C949C25AF92BF92CF92DF9260
:104BC000EF92FF920F931F93CF93DF93EC018B0132
:104BD00090E080E09B012F5D3F4F79016E01C80E90
:104BE000D91EF601208121111FC06E01F1E2CF0E06
:104BF000D11CF80121918F01222309F47CC0EE150C
:104C0000FF0509F478C03BA9231798F38CA98217F4
:104C100080F3DE01FE0181918823A9F0EC15FD05EA
:104C200091F02813F8CFE5CF80329105F4F6F80122
:104C30003191332309F43FC0EE15FF05E1F1231351
:104C4000F7CF0196CBCF90E080E06D91AC014F5F44
:104C50005F4F611126C08C0F9D1FFC0120834C0FFC
:104C60005D1FFA011082F801319790818EA9BDA8CD
:104C700081111CC049A15AA1FA0180899189FC01C6
:104C8000A181B2812C912083AC90FA018289806944
:104C90000E949C258B2D0E949C258A2D0E949C257C
:104CA000A8CFCA014032510581F6A3CF833011F35A
:104CB000B31AB90EDFCF8EA96DA9882329F08330EE
:104CC00019F08BA9681B620FA9A0BAA0F501808911
:104CD0009189FC01A181B2812C9120834C91F50135
:104CE00082890E94CD25F6016081CE010E94362383
:104CF00090E080E0A6CFDF91CF911F910F91FF90C0
:104D0000EF90DF90CF90BF90AF90089580913A0ED2
:104D1000813071F461E088E20E94390762E070E05E
:104D200080E090E00E94E50760E088E20C9439079B
:104D3000089590E080E008958F929F92AF92BF9285
:104D4000CF92DF92EF92FF920F931F93CF93DF9357
:104D500000D01F92CDB7DEB7FC018581813091F084
:104D600080E00F900F900F900F90DF91CF911F91E7
:104D70000F91FF90EF90DF90CF90BF90AF909F90FA
:104D80008F900895848181FFEBCF83899489A589D1
:104D9000B689892B8A2B8B2B09F45FC07F0140E0F9
:104DA00050E0BA01CF010E9465158823C9F2F701CE
:104DB000C38CD48C8788908CA18CB28C82E090E0DC
:104DC000A0E0B0E0F60180839183A283B3839E01CB
:104DD0002F5F3F4FB501A401C6010E94251488230F
:104DE00009F4BECF00E010E09801B501A401C601AE
:104DF0000E948313882309F4B3CF89809A80AB8003
:104E0000BC80F6018789803119F188EF9FEFAFEF01
:104E1000BFE088169906AA06BB06C8F2F701178AF2
:104E2000108E118E128E138A148A158A168A848126
:104E30008068848361E0C7010E947B18882309F49D
:104E40008FCF40E050E0BA01C7010E94651589CFBD
:104E500088EF9FEFA0E0B0E0DCCF81E082CFCF927F
:104E6000DF92EF92FF921F93CF93DF93EC0180E2EA
:104E7000689FF0011124E057F04F9385917161F024
:104E8000842F827449F080E0DF91CF911F91FF90D1
:104E9000EF90DF90CF900895142F6A8B80913002AD
:104EA00090913102A0913202B09133028E879F8798
:104EB000A88BB98BC488D588F12CE12C7601DD2430
:104EC000CC24CF8AD88EE98EFA8E828D938DB0E075
:104ED000A0E0AC01BD014C295D296E297F294F8BD3
:104EE000588F698F7A8F83858871B1F4848D958D01
:104EF000A68DB78D8B8B9C8BAD8BBE8B81E08D830C
:104F00001F701C831E821F82188619861A861B86B4
:104F10001C861D8681E0B8CF803109F0B4CF9E0198
:104F20002D5E3F4F8B8D9C8D0E94A614882309F423
:104F3000AACF84E0E4CFCF93DF93EC01898D9A8DE3
:104F4000009741F00E941319898D9A8D0E94DB6CA5
:104F50001A8E198EDF91CF9108950F931F93CF93DF
:104F6000DF93EC018C01005E1F4FE881F9813097DF
:104F700061F001A0F2A1E02D82890E94C425888100
:104F800099810E94DB6C198218822296C017D10782
:104F900061F7DF91CF911F910F910895EF92FF92EA
:104FA0000F931F93CF93DF93EC018A859B850E941B
:104FB000DB6C8C859D850E94DB6C8E859F850E94B5
:104FC000DB6C888999890E94DB6C7E018AE0E80E9F
:104FD000F11C099119910115110561F0F801848105
:104FE00095810E94DB6CC8010E94DB6CFE01329748
:104FF00011821082CE15DF0561F7DF91CF911F91ED
:105000000F91FF90EF900895EF92FF920F931F93EF
:10501000CF93DF93EC01C059DF4F8C0100571F4F36
:10502000E881F981309781F082890E94C425E88067
:10503000F980E114F10431F0C7010E94CE27C701C5
:105040000E94DB6C198218822296C017D10741F7A3
:10505000DF91CF911F910F91FF90EF9008957F9274
:105060008F929F92AF92BF92CF92DF92EF92FF9278
:105070000F931F93CF93DF93FC01E05BFF4FD12C85
:10508000C12CA191B191AB2B09F044C04901752EFF
:10509000F42E162F5C0186E190E00E943F6CEC013B
:1050A000188689E0E3E5F2E0DE011D9601900D929D
:1050B0008A95E1F71C87EF2DF72DDE011D96CF01B4
:1050C000099621912D93E817F907D9F785E089838F
:1050D0001B821A821B8681E088839A8689860E83CA
:1050E000EF8278E2C70ED11CCC0CDD1CAC0CBD1CD1
:1050F000F501D183C083CE01DF91CF911F910F9134
:10510000FF90EF90DF90CF90BF90AF909F908F90E7
:105110007F9008957FEFC71AD70A70E1C716D104B0
:1051200009F0AFCFD0E0C0E0E6CF8F929F92AF9270
:10513000BF92CF92DF92EF92FF920F931F93CF9384
:10514000DF93FC01D0E0C0E0A191B191AB2B09F05D
:1051500045C0D22EF42E872E962E5C0188E390E077
:105160000E943F6CFC01692D782D9C012D5D3F4F05
:1051700090E080E0DB014D91BD01442341F08F3090
:10518000910529F0D9014D939D010196F3CF8E0F22
:105190009F1FDC0193961C9217AAF3AAD4AAE5AA32
:1051A00012A301A3C6AADF01CF0181961D92A81701
:1051B000B907E1F7CC0FDD1FCA0DDB1DF983E883CA
:1051C000CF01DF91CF911F910F91FF90EF90DF9072
:1051D000CF90BF90AF909F908F9008952196C0314F
:1051E000D10509F0B1CFF0E0E0E0EACF2F923F9295
:1051F0004F925F926F927F928F92AF92CF92DF9297
:10520000EF92FF920F931F93CF93DF93CDB7DEB74B
:10521000FC01E059FF4F512C412CA191B191AB2BD6
:1052200009F060C0122FF42ED62E1C0186E190E00A
:105230000E943F6C3C01FC01D28A83E090E00E9416
:105240003F6CFC0192838183F082F3019387828714
:1052500083E090E00E943F6CFC0192838183108385
:10526000F3019587848783E090E00E943F6CFC0106
:10527000928381830083F3019787868783E090E0A0
:105280000E943F6CFC0192838183E082F301918B49
:10529000808BC58AA38A848A11821082138212822B
:1052A000158214821782168211861086F8E34F0E3B
:1052B000511C440C551C240C351CF1017182608278
:1052C000C301DF91CF911F910F91FF90EF90DF907D
:1052D000CF90AF908F907F906F905F904F903F9066
:1052E0002F9008953FEF431A530A30E143165104BB
:1052F00009F093CF712C612CE3CFAF92BF92CF9284
:10530000DF92EF92FF920F931F93CF93DF93FC01F5
:10531000F12CE12CA191B191AB2BD9F5C22ED42E59
:105320005B018C0186E090E00E943F6CEC01C801BB
:1053300042969983888383E090E00E943F6CFC0151
:105340009283818310829D838C83B5010E945423B4
:105350004D2D4F774A836C2D6F776B83CC2031F0C6
:10536000E881F98140E080810E94B425EE0CFF1CA9
:105370000E0D1F1DF801D183C083CE01DF91CF91A7
:105380001F910F91FF90EF90DF90CF90BF90AF9063
:1053900008953FEFE31AF30A35E0E316F10409F04C
:1053A000B9CFD0E0C0E0E9CF6F927F928F929F9209
:1053B000AF92BF92CF92DF92EF92FF920F931F9323
:1053C000CF93DF9300D0CDB7DEB73C018B015A01FC
:1053D0004B0186E0880E911C81EEC82E82E0D82E0B
:1053E000FE0131967F01F50181915F011F928F933C
:1053F000DF92CF92FF92EF920E94976EA701B801C1
:10540000C3010E9461230E5F1F4F0F900F900F90FA
:105410000F900F900F900815190529F70F900F9016
:105420000F90DF91CF911F910F91FF90EF90DF9040
:10543000CF90BF90AF909F908F907F906F90089586
:105440000F931F93FC0100E012E12AE730E090E0A7
:10545000401751076207730740F436952795179553
:1054600007959F5F9630A1F797E0292F206A269530
:1054700020839095917091831F910F910895BF9211
:10548000CF92DF92EF92FF920F931F93CF93DF9310
:105490001F921F92CDB7DEB78C01B62E7A0169013B
:1054A000DC018D919C911197892B09F041C01496D4
:1054B0008D919C91159712962C9131E03093DE11CD
:1054C000209300121092DF1110920112DC01ED9175
:1054D000FC910190F081E02D199580E00E94DE0C96
:1054E0006C2DF80182810E94CE0D1092D60D809312
:1054F000D50DD12CD80114968D919C91DC01ED91A4
:10550000FC910084F185E02D1995892B09F448C0A0
:10551000F80184819581DC01ED91FC910284F38591
:10552000E02D1995F701ED0DF11D8083D394E2CFA5
:10553000F8014085518562857385CE0101960E94F0
:10554000202A89819A810E94560F60E0D801139623
:105550008C910E943907F80185858B290E94310FB3
:10556000D7018C918EBDF701C601019741F03181C1
:105570000DB407FEFDCF2EB53EBD2193F6CFB1E0B1
:10558000CB1AD108EC0CFD1C0DB407FEFDCF8EB577
:10559000F701808361E0D80113968C910E9439074E
:1055A0000F900F90DF91CF911F910F91FF90EF908F
:1055B000DF90CF90BF9008950F931F93CF93DF9309
:1055C00000D000D0CDB7DEB719821A821B821C82B0
:1055D0001D821E8226E030E0AE014F5F5F4F67EF15
:1055E0000E943F2A698170E090E080E02CE0660F25
:1055F000771F881F991F2A95D1F70A8110E030E0A4
:1056000020E044E0000F111F221F331F4A95D1F7FD
:10561000602B712B822B932B0B8110E030E020E06C
:1056200054E035952795179507955A95D1F7602B36
:10563000712B822B932B26960FB6F894DEBF0FBEEC
:10564000CDBFDF91CF911F910F910895EF92FF92FF
:105650000F931F93CF93DF931F921F92CDB7DEB7A7
:105660008C01E62EF42EDC018D919C911197892BF3
:1056700069F514968D919C91159712962C9131E0B5
:105680003093DE11209300121092DF11109201125C
:10569000DC01ED91FC910190F081E02D1995F8016C
:1056A00084819581DC01ED91FC910190F081E02DE8
:1056B0006F2D199581E00E94DE0C0F900F90DF9105
:1056C000CF911F910F91FF90EF900895F8014085C1
:1056D000518562857385CE0101960E94202A8981B9
:1056E0009A810E94560F60E0D80113968C910E9417
:1056F0003907F80184858E210E94310F8F2D0E9479
:10570000310F61E0D80113968C910E943907D5CFF3
:105710006F927F928F929F92AF92BF92CF92DF92C1
:10572000EF92FF920F931F93CF93DF93FC01B096FC
:10573000712C612CA191B191AB2BB1F5F22E4A01E4
:105740005B016C018FE190E00E943F6CEC011E8ECA
:105750001D8EB50105960E94816EB801CE01479657
:105760000E94816E9C828B82FD8A84E688831A82E5
:105770001982EE8A30E1630E711C660C771CC60C30
:10578000D71CF601D183C083CE01DF91CF911F9149
:105790000F91FF90EF90DF90CF90BF90AF909F90D0
:1057A0008F907F906F9008953FEF631A730A38E1EE
:1057B0006316710409F0BECFD0E0C0E0E5CFFB0175
:1057C00001900020E9F73197AF01461B570BDC0130
:1057D000ED91FC910280F381E02D199466EE72E068
:1057E0000C94DF2B8F929F92AF92BF92EF92FF9219
:1057F0000F931F93CF93DF93CDB7DEB7A1970FB66B
:10580000F894DEBF0FBECDBF7C01FA01CB0119A217
:10581000223008F42AE08E010F5D1F4F822E912C5A
:10582000B12CA12CBF01A50194010E94766BF90156
:10583000CA016A300CF5605DD8016E938D01232B8F
:10584000242B252B79F790E080E0109721F0BD0103
:10585000C7010E94DF2BA1960FB6F894DEBF0FBEE2
:10586000CDBFDF91CF911F910F91FF90EF90BF902F
:10587000AF909F908F900895695CDECF242F462FC4
:1058800050E070E060E00C94F22BCF92DF92EF9248
:10589000FF920F931F93CF93DF936B01770FEE0867
:1058A000FF084A30510511F52AE0F7FE20C0EC014F
:1058B000E881F9810190F081E02D6DE219958C016C
:1058C00044275527BA014C195D096E097F092AE062
:1058D000CE010E94F22B800F911FDF91CF911F917B
:1058E0000F91FF90EF90DF90CF900895242FB70194
:1058F000A601DF91CF911F910F91FF90EF90DF9064
:10590000CF900C94F22B66EE72E08CE393E10C9452
:10591000DF2B0F931F93CF93DF93EC01162FAA85F4
:10592000BB851196ED91FC91129780818C9300813B
:105930008A89806B0E949C2587E00E949C25802F8D
:105940008F770E949C25AC85BD851196ED91FC91C9
:10595000129780818C9300818A89806D0E949C259A
:10596000802F8F770E949C25AE85BF851196ED9183
:10597000FC91129780818C9300818A89806E0E94AD
:105980009C2580E00E949C25802F8F770E949C257B
:105990008A89113059F4CD89806C0E949C258C2F06
:1059A000DF91CF911F910F910C949C254B8960E062
:1059B000123071F40E94B4254C8960E28A890E94F9
:1059C000B4251D898A89806C0E949C25812FE8CF8F
:1059D0000E94B4254C8960E28A890E94B4251D8901
:1059E0008A89806C0E949C25812F0E949C25DF91D2
:1059F000CF911F910F910C94832C0F931F93CF93F2
:105A0000DF93EC010E94DF2B8C01CE010E94EE2B74
:105A1000800F911FDF91CF911F910F910895611514
:105A2000710511F00C94DF2B90E080E00895EF9267
:105A3000FF920F931F93CF93DF938C017A010E9403
:105A40000F2D6DEB7CE0C8010E940F2DE70183E074
:105A5000E80EF11C699140E150E0C8010E943E2C23
:105A60006DEB7CE0C8010E940F2DCE15DF0591F78C
:105A7000C801DF91CF911F910F91FF90EF900C948F
:105A8000EE2BCF92DF92EF92FF920F931F93CF9363
:105A9000DF937C01EB0111E00BE082E3D82E90E371
:105AA000C92E0E94D71D10937E142CE04FE760E0B2
:105AB00080E00E948B202FE34FE760E080E00E94AF
:105AC000AF2010927E141093951400939614B70192
:105AD0008AE594E10E940F2D10937E142EE04DE292
