:020000040000FA
:100000000C94D0050C9401060C9401060C94010686
:100010000C9401060C9401060C9401060C94010644
:100020000C9401060C9401060C9401060C94010634
:100030000C9401060C9401060C9401060C94010624
:100040000C9401060C94D0520C9401060C940106F9
:100050000C9401060C9401060C9401060C94625158
:100060000C9401060C9438510C940E510C9401061A
:100070000C9401060C9401060C9401060C940106E4
:100080000C9401060C9401060C9401060C940106D4
:100090000C94E4500C94BA500C9401060C94AC519E
:1000A0000C9401060C9401060C9401060C940106B4
:1000B0000C9401060C9401060C9401060C940106A4
:1000C0000C9401060C9401060C9401060C94010694
:1000D0000C9401060C9401060C9490500C946650FC
:1000E0000C9401060C94CA1D0C94470E0C946108E4
:1000F0000C94681C0C94CC170C9465080C94DF3499
:100100000C94FE060C944D080C9449080C94B90705
:100110000C943F080C9420070C9453080C9432085C
:100120000C9404060C94480E0C949F180C948B6647
:100130000C9460080C94C50B0C94271E0C94EF06CD
:100140000C9435080C94D21E0C94431E0C94A906F2
:100150000C94431A0C949F0E0C943B080C94331E81
:100160000C9480230C9445080C942E080C941207D0
:100170000C9473220C94A50B0C94221E0C94F85230
:100180000C94391E0C946C070C940C350C94E51DE2
:100190000C94720E0C9420080C946B0E0C94541A50
:1001A0000C94D6170C94460E0C94D50B0C9481230A
:1001B0000C9457080C9403060C944E1E0C945B0888
:1001C0000C94580E0C94711A0C9426080C94341844
:1001D0000C94490E0C942A08FFE0FFD11000FFFE9A
:1001E000FFD0FFE0FFC1FFD1E240A0C8A6A22FF8D8
:1001F00000238127AC00AFFF64A5FF64FF64A4FF68
:10020000D0FFFE7C3C3E5E2B3D3F2F5B5D3B2C2AAE
:10021000225C0000002100240027002A002D00306D
:1002200000330001010000040107010A0100000A77
:100230000B02090C0D0E080703040100000000006A
:1002400000000000000000000000000000000000AE
:10025000000000000000000000121110000000006B
:10026000000000000000000000000000000000008E
:1002700000000000002200250028002B002E003185
:1002800000340002010000050108010B0101021009
:1002900020200808102040102040800201020108A0
:1002A0000402010102040810204080804020100850
:1002B00004020180040201804020100804020108A9
:1002C0000402010102040810204080010204081009
:1002D000204080000020002300260029002C002F51
:1002E00000320000010000030106010901050505B7
:1002F00005070508080808020202020A0A0808049D
:1003000004040401010101010101010303030303CA
:10031000030303040707070C0C0C0C0C0C0C0C0259
:1003200002020206060606060606060B0B0B0B0B60
:100330000B0B0B01080D00FE09016102CD20FFFE31
:100340000BFE09FE0D00803219898080808080803C
:100350008000802843839090901367874848FC482A
:10036000FC48481259892078A0A0702828F0201253
:10037000698944A448101020485488126787609007
:10038000906094887438138380808032398920404B
:1003900040808080404020223989804040202020B9
:1003A0004040801665854830FC3048145585202033
:1003B000F82020114383706080165181F821338327
:1003C00040E0400279890202040810204080801237
:1003D0006989304884848484844830125989206033
:1003E000A02020202020F812698978848404083015
:1003F0004080FC126989FC040810380404847812D7
:100400006989081828488888FC0808126989FC80CE
:1004100080B8C40404847812698938408080B8C4E4
:10042000848478126989FC0408101020204040124E
:10043000698978848484788484847812698978844A
:10044000848C740404087021388840E04000004027
:10045000E040114888207020000070608022598997
:10046000081020408040201008146484FC0000FC28
:100470001259898040201008102040801269897824
:1004800084840408101000101269897884849CA464
:10049000AC9480781269893048848484FC84848494
:1004A000126989F0888488F0888488F012698978D4
:1004B0008480808080808478126989F08884848434
:1004C000848488F0126989FC808080F0808080FCC0
:1004D000126989FC808080F0808080801269897830
:1004E000848080809C848C7412698984848484FCD8
:1004F00084848484125989F820202020202020F828
:100500001279893E080808080808887012698984E9
:100510008890A0C0A09088841269898080808080A3
:10052000808080FC0279898282C6AA92928282822D
:100530001269898484C4A4948C848484126989781F
:100540008484848484848478126989F8848484F817
:1005500080808080116A8A788484848484A49478DA
:1005600004126989F8848484F8A0908884126989C7
:10057000788480807804048478027989FE101010D1
:1005800010101010101269898484848484848484F7
:100590007802798982824444442828281002798983
:1005A00082828282929292AA44027989828244282B
:1005B0001028448282027989828244281010101007
:1005C00010126989FC04081020408080FC224989AF
:1005D000F080808080808080F00279898080402057
:1005E0001008040202124989F010101010101010A7
:1005F000F0185383205088017181FE3A2282804096
:1006000012668678047C848C74126989808080B834
:10061000C48484C4B8126686788480808478126921
:1006200089040404748C84848C741266867884FC37
:1006300080847812698938444040F8404040401036
:10064000688874888870807884781269898080804E
:10065000B8C484848484125888200060202020201C
:10066000F8105A8A08001808080808888870126963
:10067000898080808890E090888412598960202049
:100680002020202020F8027686EC9292929282120C
:100690006686B8C48484848412668678848484845C
:1006A00078106888B8C484C4B88080801068887462
:1006B0008C848C74040404126686B8444040404024
:1006C0001266867884601884781268884040F84002
:1006D0004040443812668688888888887412568616
:1006E00088888850502002768682829292AA44128C
:1006F00066868448303048841068888484848C748A
:10070000048478126686FC08102040FC225989383F
:10071000404020C02040403832198980808080804D
:1007200080808080125989E010102018201010E07D
:1007300018538348A890FFFFFFFFFFFFFFFFFFFF55
:10074000FFFFFFFFFFFFFFFFFFFFFFFFFFFFFFFFB9
:10075000FFFFFFFFFFFFFF0D00803219898000803F
:100760008080808080801358882070A8A0A0A87006
:10077000200279891C22207020202062DC136686EA
:10078000847848487884027989828244287C107C65
:100790001010321989808080800080808080224AF9
:1007A0008A609080609090601090602A4282909061
:1007B000037989384492AAA2AA92443814578770C0
:1007C0000878887800F80377871224489048241224
:1007D000136484FC040404264181F00379893844BD
:1007E00092AAAAB2AA44381A6181FC274484609074
:1007F00090601357872020F8202000F81646866066
:1008000090106080F01646866090201090603A222A
:1008100082408011678784848484CCB48012698983
:100820007CE8E8E86828282828362181C030228220
:1008300040C016368640C0404040E0154686609075
:10084000906000F003778790482412244890027A41
:100850008A40C0404042E60A121A06027A8A40C024
:1008600040404CF2020C101E027A8A6090201092D6
:10087000660A121A061269892000202040808484AA
:1008800078126A8A20100030488484FC8484126ABA
:100890008A10200030488484FC8484126A8A30489C
:1008A0000030488484FC8484126A8A64980030484A
:1008B0008484FC8484126A8A48480030488484FC1A
:1008C0008484126A8A30483030488484FC848402EC
:1008D00079896E9090909CF090909E106B8B7884AC
:1008E000808080808084781020126A8A201000FC2A
:1008F0008080F08080FC126A8A102000FC8080F0EA
:100900008080FC126A8A304800FC8080F08080FC85
:10091000126A8A484800FC8080F08080FC125A8A63
:10092000402000F82020202020F8125A8A102000B1
:10093000F82020202020F8125A8A304800F8202081
:10094000202020F8125A8A888800F82020202020B1
:10095000F802798978444242E242424478027A8A33
:1009600064980082C2A2928A8682027A8A2010004B
:100970007C82828282827C027A8A0810007C828257
:100980008282827C027A8A1824007C82828282821D
:100990007C027A8A6498007C82828282827C027ADB
:1009A0008A4444007C82828282827C1366868448E8
:1009B00030304884116B8B04788C9494A4A4A4C424
:1009C0007880126A8A402000848484848484781227
:1009D0006A8A10200084848484848478126A8A302D
:1009E000480084848484848478126A8A4848008415
:1009F000848484848478125A8A1020008888502045
:100A000020202012698980F8848484F880808012F4
:100A1000698970888890A0988484B81269892010A8
:100A20000078047C848C7412698908100078047C36
:100A3000848C7412698930480078047C848C741228
:100A4000698964980078047C848C741269894848A8
:100A50000078047C848C74126A8A304830007804F0
:100A60007C848C740276866C127C90926C10688800
:100A7000788480808478102012698920100078841E
:100A8000FC8084781269891020007884FC80847846
:100A90001269893048007884FC808478126989481A
:100AA00048007884FC8084781259894020006020B6
:100AB000202020F81259892040006020202020F8B2
:100AC0001259896090006020202020F812598990E6
:100AD00090006020202020F8126A8A483050087860
:100AE0008484848478126989649800B8C484848476
:100AF000841269894020007884848484781269890A
:100B000010200078848484847812698930480078C1
:100B100084848484781269896498007884848484C5
:100B200078126989484800788484848478135787C8
:100B3000202000F800202011688804788C94A4C438
:100B400078801269894020008888888888741269B2
:100B50008910200088888888887412698930480044
:100B600088888888887412698950500088888888A5
:100B70008874106B8B1020008484848C74048478B7
:100B8000106A8A8080B8C48484C4B88080106B8B5B
:100B90004848008484848C7404847800F8528B66FE
:100BA00011241FBECFEFD1E2DEBFCDBF00E00CBFEE
:100BB0001DE0A0E0B2E0EEE2F0EE00E00BBF02C00C
:100BC00007900D92AC34B107D9F724E1ACE4BDE055
:100BD00001C01D92AA34B207E1F715E0CFECD5E0D1
:100BE00000E006C021970109802FFE010E94A56B3D
:100BF000CE3CD10780E00807A9F70E9452550C941B
:100C000005700C940000089580E008958F929F92E3
:100C1000AF92BF92CF92DF92EF92FF920F931F930A
:100C2000FC014B01AA24BB24C52ED62EE72EFF249F
:100C3000BC2DA42F90911914B82C992391F0A92FB1
:100C4000B0E0A89D9001A99D300DB89D300D1124F4
:100C5000B32E9C9D60011124BD2D949F8001112411
:100C6000A12F40911F1420911A1430911B148091D0
:100C70001C14481324C0CF01880F991F8E0F9F1F8B
:100C8000820F931FE0911C14E80FF92FF11DB08221
:100C9000E0911D14E80FF92FF11DB08320911E146F
:100CA000820F911DFC01A0831F910F91FF90EF9087
:100CB000DF90CF90BF90AF909F908F900895CF011D
:100CC000880F991F880F991F820F931FFC01E40F53
:100CD000F11D1082D7CF0F931F93CF93DF93EC01B9
:100CE0009A01AB01E889F98982E08083EC85FD8572
:100CF00010820E851F8560E079E08DE390E00E9410
:100D0000FD6921503109410951095695479537959B
:100D10002795F8012083188EEC89FD8986E0808371
:100D2000EA89FB89808180618083EA89FB898081EF
:100D300088608083EA89FB89808180688083EA8972
:100D4000FB8980818F7D8083DF91CF911F910F91EF
:100D50000895AF92BF92CF92DF92EF92FF920F93DE
:100D60001F93CF93DF936C017B018B01040F151F41
:100D7000EB015E01AE18BF08C017D10759F06991A9
:100D8000D601ED91FC910190F081E02DC6011995FD
:100D9000892B79F7C501DF91CF911F910F91FF90BA
:100DA000EF90DF90CF90BF90AF900895FC01A089A5
:100DB000B1898C91A689B78982FD0FC09C91818DE4
:100DC0008F5F8F73228D821749F0A18DAE0FBF2FD9
:100DD000B11D5D969C93818F08958C910895FC01BF
:100DE000538D448D252F30E0842F90E0821B930B90
:100DF000541710F0CF96089501970895FC01918D36
:100E0000828D981761F0A28DAE0FBF2FB11D5D9638
:100E10008C91928D9F5F9F73928F90E008958FEFDA
:100E20009FEF0895FC01918D828D981731F0828D8E
:100E3000E80FF11D858D90E008958FEF9FEF0895E5
:100E4000FC01918D228D892F90E0805C9F4F821B49
:100E500091098F73992708958BE791E10E942007EC
:100E600021E0892B09F420E0822F089588E192E1A6
:100E70000E94200721E0892B09F420E0822F0895A9
:100E800085EB92E10E94200721E0892B09F420E004
:100E9000822F0895FC01A48DA80FB92FB11DA35A6C
:100EA000BF4F2C91848D90E001968F739927848F8A
:100EB000A689B7892C93A089B1898C9183708064AD
:100EC0008C93938D848D981306C00288F389E02D4E
:100ED00080818F7D80830895EF92FF920F931F93FF
:100EE000CF93DF93EC0181E0888F9B8D8C8D9813DD
:100EF0001AC0E889F989808185FF15C09FB7F894E9
:100F0000EE89FF896083E889F98980818370806434
:100F100080839FBF81E090E0DF91CF911F910F917F
:100F2000FF90EF900895F62E0B8D10E00F5F1F4F8E
:100F30000F731127E02E8C8D8E110CC00FB607FC9D
:100F4000FACFE889F989808185FFF5CFCE010E942B
:100F50004A07F1CFEB8DEC0FFD2FF11DE35AFF4F48
:100F6000F0829FB7F8940B8FEA89FB8980818062B9
:100F7000CFCFCF93DF93EC01888D8823B9F0AA8976
:100F8000BB89E889F9898C9185FD03C0808186FD44
:100F90000DC00FB607FCF7CF8C9185FFF2CF808193
:100FA00085FFEDCFCE010E944A07E9CFDF91CF91B7
:100FB000089580E090E0892B29F00E94400781117C
:100FC0000E94000080E090E0892B29F00E94360703
:100FD00081110E94000080E090E0892B49F080E0C0
:100FE00090E0892B29F00E94000081110E940000EE
:100FF00080E090E0892B29F00E942C0781110C944D
:10100000000008958150823108F05AC0E82FF0E0C6
:101010008827E25FF74F8F4F0C94A56B2E0832089C
:10102000200826082A08600835083B083F084508BC
:1010300049084D085308570860085B0861086508AF
:10104000809180008F778093800008958091800048
:101050008F7DF9CF80918000877FF5CF84B58F7722
:1010600084BD089584B58F7DFBCF8091B0008F77CC
:101070008093B00008958091B0008F7DF9CF80916A
:1010800090008F77809390000895809190008F7DDD
:10109000F9CF80919000877FF5CF8091A0008F7766
:1010A0008093A00008958091A0008F7DF9CF80915A
:1010B000A000877FF5CF809120018F77809320015A
:1010C0000895809120018F7DF9CF80912001877F45
:1010D000F5CFCF93DF93282F30E0F901E35DFD4F8B
:1010E0008491F901E357FD4FD491F901E351FD4F8C
:1010F000C491CC23A1F081110E940208EC2FF0E0F2
:10110000EE0FFF1FED52FD4FA591B491EC91ED2331
:1011100081E090E009F480E0DF91CF91089580E0D4
:1011200090E0FACF1F93CF93DF93282F30E0F9019F
:10113000E35DFD4F8491F901E357FD4FD491F9012F
:10114000E351FD4FC491CC23A9F0162F81110E94C9
:101150000208EC2FF0E0EE0FFF1FED58FD4FA591B8
:10116000B4918FB7F894EC91111108C0D095DE239B
:10117000DC938FBFDF91CF911F910895DE2BF8CFC5
:10118000CF93DF9390E0FC01E357FD4F249183510F
:101190009D4FFC0184918823C9F090E0880F991F2E
:1011A000FC01ED5EFD4FA591B491FC01ED58FD4FA2
:1011B000C591D49161110DC09FB7F8948C91209581
:1011C00082238C938881282328839FBFDF91CF912E
:1011D0000895623051F49FB7F8943C91822F809526
:1011E00083238C93E8812E2BEFCF8FB7F894EC916B
:1011F0002E2B2C938FBFEACF863308F08653209195
:101200007B00982F9870277F922B90937B0087709C
:10121000806480937C0080917A00806480937A005F
:1012200080917A0086FDFCCF8091780090917900C2
:1012300008953FB7F8948091250E9091260EA091C5
:10124000270EB091280E26B5A89B05C02F3F19F098
:101250000196A11DB11D3FBFBA2FA92F982F882736
:10126000BC01CD01620F711D811D911D42E0660F11
:10127000771F881F991F4A95D1F708958F929F92E3
:10128000AF92BF92CF92DF92EF92FF926B017C01FF
:101290000E9419094B015C01C114D104E104F1045D
:1012A000B9F00E941909681979098A099B09683EF1
:1012B00073408105910580F321E0C21AD108E1084D
:1012C000F10888EE880E83E0981EA11CB11CE4CFC3
:1012D000FF90EF90DF90CF90BF90AF909F908F9056
:1012E00008952FB7F8946091210E7091220E80918D
:1012F000230E9091240E2FBF0895CF92DF92EF928C
:10130000FF920F931F93CF93DF930E947109AB015C
:10131000BC01E0912814F0903914E4FBFF27F0F9A8
:10132000E4FF79C000912D1410912E1420912F14F8
:1013300030913014E7FB882780F9F11010C08091BC
:10134000411490914214DC019C91809143149823A4
:1013500081E009F480E090912914917089278093AD
:101360003A14DB01CA01801B910BA20BB30B8C0159
:101370009D01B0913A149091271491FB882780F930
:10138000BB2309F424C181111AC0013511052105BF
:101390003105A8F040932D1450932E1460932F1410
:1013A00070933014997E9261906890932714809185
:1013B000291480628093291400E010E09801809144
:1013C00029149091271484FF12C00D32A1E01A074E
:1013D0002105310560F092FD05C083FDAFC082603C
:1013E00080932914809129148F7E8093291491FF72
:1013F00012C00D3B12402105310568F092FD0BC073
:10140000BB2309F49DC09160909327148091291407
:101410008F7D80932914FF2009F49FC0E6FB992754
:1014200090F9C92FA0E0DA2FCC0FDD1FE5FB88274C
:1014300080F98C2B20912B14281709F472C010927C
:101440002C149091291496FFB8C0833009F0A1C0E4
:101450009F7B90932914213009F497C091E02230AA
:1014600009F494C0E3FD03C0833009F49DC02091CA
:101470002C14222309F446C090912714986090936D
:101480002714233040F49091291497FF04C093E06F
:10149000921B90932C1490913A14911122C00091B8
:1014A00031141091321420913314309134146A01A4
:1014B0007B01C01AD10AE20AF30A00912A1410E053
:1014C00030E020E0C016D106E206F30650F4209189
:1014D0002C14213009F074C020912814226020932C
:1014E0002814409331145093321460933314709342
:1014F0003414FF2339F0992329F090912C149E5F26
:1015000090932C1480932B148091271484608093E3
:10151000271440932D1450932E1460932F1470931E
:101520003014DF91CF911F910F91FF90EF90DF90DA
:10153000CF9008958091291488603CCF846050CF6B
:101540009D7F9E7F9093271440932D1450932E14CB
:1015500060932F14709330145ECFA0913B14B09120
:101560003C149C9180913D14982321E009F420E0E3
:10157000A0913E14B0913F149C9180914014982307
:1015800082E009F480E0822B55CF92E090932C14F6
:1015900069CFE3FD4DC081116ACF9F7B90932914E1
:1015A000213041F0223031F09091291490649093D1
:1015B00029145DCF20932C14F7CF8823A9F352CFA1
:1015C000223009F08ECF20912814216088CF882303
:1015D00009F4F5CE013511052105310508F4EFCEEA
:1015E00092FD05C090FD03C09062909327140D3BBF
:1015F00012402105310528F08091271480648093E2
:1016000027148091271440932D1450932E14609327
:101610002F14709330148D7F8E7F809327148091C8
:10162000291485FF87CF84FD85CF8061877FC2CE57
:10163000882309F4B9CF66CF8091281482FD0E94D7
:101640007D099091271494FB882780F994FF03C0AB
:101650009F7E9093271408958091281482FD0E9404
:101660007D0980912C14823021F410922C1481E099
:10167000089580E008958091281482FD0E947D09DC
:1016800080912C14813019F410922C14089580E06C
:101690000895FC01DB0112968D919C911397938321
:1016A000828386EB92E09183808314968C911497C9
:1016B000848315968C911597858316964D915D912F
:1016C0006D917C91199746835783608771871A962D
:1016D0004D915D916D917C911D97428753876487F1
:1016E00075871E964D915D916D917C9151974687BE
:1016F0005787608B718B52968C915297828B539641
:101700004D915D916D917C915697438B548B658B78
:10171000768B57964D915D916D917C915A97478B41
:10172000508F618F728F5B968D919C91948F838F78
:101730000895DC015996ED91FC91309721F081E0FC
:101740009581911101C080E00895DC015996ED91D9
:10175000FC913097B9F083899489A589B68942852F
:10176000538564857585841B950BA60BB70B811576
:1017700020E89207A105B10538F08FEF9FE7A0E0C0
:10178000B0E0089590E080E00895DC0159968D91D5
:101790009C91009739F0DC01ED91FC910480F5817A
:1017A000E02D199490E080E00895CF93DF931F928D
:1017B000CDB7DEB76983DC01ED91FC910280F38146
:1017C000E02D41E050E0BE016F5F7F4F19950F9013
:1017D000DF91CF910895CF93CFB7F8948091190EF0
:1017E000811127C0E2E2F3E08491E2ECF2E094910F
:1017F000E82FF0E0EE0FFF1FED5EFD4FA591B491D5
:10180000EC91E92321F461E085E30E94920861E014
:1018100085E30E94C0088CB580618CBD8CB5806466
:101820008CBD61E084E30E94C00861E083E30E9414
:10183000C0088091190E8F5F8093190ECFBFCF9192
:1018400008952091F40D260F3327331F21323105DF
:10185000ECF420915111FC0190E080E0243069F01B
:1018600082E00895A091F40D2191AC014E52524FA7
:10187000A40FB52FB11D2C930196861798F3809174
:10188000F40D680F6093F40D80E0089581E00895F1
:101890001092511181E08093501110922B1161E050
:1018A00084E10E94920861E085E10E949208E9EBE0
:1018B000F0E080818E7F808380818D7F808388E4CB
:1018C0008093B80085E48093BC000895CF93DF93A4
:1018D00091E09093D10D8823B9F0C091B800D091D8
:1018E000BA008091BC008A7B8093BC0060E084E1F8
:1018F0000E94920860E085E10E9492080E94480CD4
:10190000D093BA00C093B800DF91CF9108958F9221
:101910009F92AF92BF92CF92DF92EF92FF920F937E
:101920001F93CF93DF93D0917A11D13208F0D7C0B3
:10193000182FC09179110E9419096B017C018091C7
:10194000511181116BC082E080935111109350119D
:101950008FEF80934F1110924E11D0934D11A9E546
:10196000B1E1EDE2F1E180E0D81391C010922C11C9
:1019700080912C11CC0FC82BC0932C1180912B116E
:10198000813009F088C010922B110E9419096B0157
:101990007C0180912C118093BB0080915311909118
:1019A0005411A0915511B0915611892B8A2B8B2B74
:1019B000A1F00E9419090091531110915411209126
:1019C0005511309156116C197D098E099F09061722
:1019D00017072807390708F442C08091BC0083FD2F
:1019E000D8CF85EC8093BC000E9419096B017C0163
:1019F00080915111823009F450C080914F118F3F76
:101A000009F46FC080914F11803209F46CC080914D
:101A10004F11803309F469C084E026C080915311CE
:101A200090915411A0915511B0915611892B8A2B88
:101A30008B2B09F484CF0E94190980905311909048
:101A40005411A0905511B09056116C197D098E0952
:101A50009F0986169706A806B90608F070CF8091F0
:101A600052110E94660C85E01092581110927A1162
:101A700010925711DF91CF911F910F91FF90EF902E
:101A8000DF90CF90BF90AF909F908F9008959D91E1
:101A900091938F5F69CF85EEA5CF8091531190917F
:101AA0005411A0915511B0915611892B8A2B8B2B73
:101AB00009F49ECF0E9419090091531110915411FD
:101AC00020915511309156116C197D098E099F098D
:101AD000061717072807390708F08ACFC0CF81E01B
:101AE000C3CF80E0C1CF82E0BFCF83E0BDCFCF9234
:101AF000DF92EF92FF920F931F93CF93DF93D82F34
:101B0000C62F613208F098C00E9419096B017C0150
:101B10008091511181116BC081E0809351118093AC
:101B200050119FEF90934F1110924E119C0F909374
:101B30004D1180932C1180912C11DD0FD82BD09357
:101B40002C1180912B11813009F078C010922B114B
:101B50000E9419096B017C0180912C118093BB00BC
:101B60008091531190915411A0915511B09156113B
:101B7000892B8A2B8B2BA1F00E94190900915311FC
:101B80001091541120915511309156116C197D0905
:101B90008E099F09061717072807390708F448C058
:101BA0008091BC0083FDD8CF85EC8093BC000E945F
:101BB00019096B017C0180915111813009F440C0F9
:101BC00080914E118C1710F4C0914E11EDE2F1E1AD
:101BD000ABE0B1E180E08C1355C08C2FDF91CF9149
:101BE0001F910F91FF90EF90DF90CF90089580911B
:101BF000531190915411A0915511B0915611892B08
:101C00008A2B8B2B09F484CF0E9419090091531160
:101C10001091541120915511309156116C197D0974
:101C20008E099F09061717072807390708F070CF94
:101C3000809152110E94660CC0E0CFCF85EEB5CFE7
:101C40008091531190915411A0915511B09156115A
:101C5000892B8A2B8B2B09F4AECF0E941909009196
:101C600053111091541120915511309156116C1946
:101C70007D098E099F09061717072807390708F0FD
:101C80009ACFD6CF91919D938F5FA5CF0895089558
:101C90000895E091D00D8091CF0DE81730F4F0E079
:101CA000E55FFE4E808190E008958FEF9FEF0895ED
:101CB0009091D00D8091CF0D2FEF3FEF981748F402
:101CC000E92FF0E0E55FFE4E208130E09F5F9093CA
:101CD000D00DC90108958091CF0D9091D00D891B31
:101CE000990B0895CF92DF92EF92FF920F931F937B
:101CF000CF93DF937C01CB018A01209157112223DE
:101D000089F0EB016B01C40ED51ECC15DD0569F021
:101D10006991D701ED91FC910190F081E02DC7010F
:101D20001995F3CF642F0E94210CC801DF91CF9148
:101D30001F910F91FF90EF90DF90CF900895CF9378
:101D4000DF931F92CDB7DEB769832091571122230D
:101D5000F9F020917A11203258F021E030E0FC01B6
:101D60003383228390E080E00F90DF91CF9108953C
:101D700080915811E82FF0E0E75AFE4E9981908348
:101D80008F5F8093581180937A1181E090E0ECCFBF
:101D900061E0CE0101960E94210CF7CF089561E029
:101DA000FC0184810E94920880911A0E8111109288
:101DB0001A0E08958EBD00000DB407FEFDCF8EB53E
:101DC00008958FEF0C94DA0E0F931F93CF93DF9348
:101DD000EC010E9471098B010E94E10E8F3F69F0B6
:101DE0000E947109601B710B6C177D07A8F380E0DE
:101DF000DF91CF911F910F91089581E0F9CF8CBDB4
:101E00009DBD0895CF93DF93EC0180911A0E81114F
:101E100009C081E080931A0E809152139091531360
:101E20000E94FF0E60E08C81DF91CF910C949208AC
:101E30008F929F92AF92BF92FF920F931F93CF9377
:101E4000DF93EC01F62E49015A018E81882389F037
:101E50008F8198859C012F5F3F4F38872F83823079
:101E6000924018F40E94E10EF3CFCE010E94CF0EF3
:101E70001E82CE010E94020F8CE291E00E94E40ECD
:101E80008F2D80640E94DA0E08E110E0D501C401B4
:101E9000002E04C0B695A795979587950A94D2F71A
:101EA0000E94DA0E08501109083F8FEF180771F7EA
:101EB00085E9FF2021F028E087E8F2128FEF0E94E9
:101EC000DA0E10E00E94E10E8A8787FF04C01F3FF0
:101ED00011F01F5FF7CFDF91CF911F910F91FF900E
:101EE000BF90AF909F908F9008958F929F92AF92E6
:101EF000BF92DF92EF92FF920F931F93CF93DF93E6
:101F0000EC01D62E1B8619861E821D8285E38C83EA
:101F10000E9471097B0161E08C810E94C00861E030
:101F20008C810E9492080E94EB0B82E580935213F1
:101F30001092531380915213909153130E94FF0EED
:101F40001AE08FEF0E94DA0E1150D9F7CE010E94ED
:101F5000020F20E030E0A90160E0CE010E94180FDE
:101F6000182F8A878130D1F00E9471096E197F097C
:101F7000613D774070F381E08D83CE010E94CF0EEA
:101F800010E0812FDF91CF911F910F91FF90EF9083
:101F9000DF90BF90AF909F908F9008952AEA31E034
:101FA00040E050E068E0CE010E94180F82FF25C09B
:101FB0001B878B85812C912C5401823029F4812C34
:101FC000912CA12C80E4B82E20E030E0A90167E339
:101FD000CE010E94180FA501940169E2CE010E9472
:101FE000180F8A878823B1F00E9471096E197F0942
:101FF000613D774048F388E0BFCF04E00E94E10EE6
:102000008A870150D9F78A3A11F082E0B5CF82E091
:102010008B87CFCF8B858230C1F420E030E0A901DF
:102020006AE3CE010E94180F882311F086E0A4CF46
:102030000E94E10E807C803C11F483E08B870E943B
:10204000E10E0E94E10E0E94E10ECE010E94CF0E31
:1020500082E0D81631F080E580935213109253132A
:1020600090CF81E58093521381E08093531389CF01
:10207000AF92BF92CF92DF92EF92FF920F931F9396
:10208000CF93DF93EC016901C801820F931F813068
:10209000924050F58E81882379F088819981AA81B8
:1020A000BB8184179507A607B70731F48F81988500
:1020B000C816D90608F042C0488359836A837B83D7
:1020C0008B85833039F089E0440F551F661F771FD9
:1020D0008A95D1F79A01AB0161E1CE010E94180FF8
:1020E000882389F083E08D83CE010E94CF0E80E0AB
:1020F000DF91CF911F910F91FF90EF90DF90CF90E4
:10210000BF90AF9008950E9471095B010E94E10E9B
:102110008A878F3F69F40E9471096A197B096D32C1
:102120007140A0F38FE08D83CE010E94CF0EDCCFF3
:102130008E3F89F418861F8281E08E838F81988577
:102140008C159D0550F40E94E10E8F8198850196B3
:1021500098878F83F3CF8DE0E6CF6701E00EF11E05
:102160000E94E10EF60181936F01EE15FF05C1F7A4
:102170008F819885080F191F18870F8389858823F9
:1021800019F001151240A0F08E81882389F08F810B
:1021900098859C012F5F3F4F38872F838230924074
:1021A00018F40E94E10EF3CFCE010E94CF0E1E82E2
:1021B00081E09ECFCF92DF92EF92FF920F93CF9369
:1021C000DF93EC01690182E141155105610571055B
:1021D00099F08B85833039F089E0440F551F661FD5
:1021E000771F8A95D1F79A01AB0168E1CE010E9471
:1021F000180F882319F084E08D832DC08EEF0E9484
:10220000DA0E76018EEFD81AF70181917F010E94D4
:10221000DA0EEC14FD04C1F78FEF0E94DA0E8FEF97
:102220000E94DA0E0E94E10E8A878F71853071F468
:10223000011116C0CE010E94CF0E81E0DF91CF9137
:102240000F91FF90EF90DF90CF90089581E18D8303
:10225000CE010E94CF0ECE010E94CF0E80E0EECFC5
:1022600088E592E00E94E40E811102C085E1C4CFAE
:1022700020E030E0A9016DE0CE010E94180F882314
:1022800011F084E1B9CF0E94E10E8111FACFD2CFD3
:102290000F9340911C0E50911D0E60911E0E709177
:1022A0001F0E411551056105710599F0082F2BE0AE
:1022B0003FE08091090F90910A0F0E94DA10882365
:1022C00049F010921C0E10921D0E10921E0E1092CC
:1022D0001F0E81E00F9108950F93CF93C82F809127
:1022E0001B0E811105C0C1E08C2FCF910F91089575
:1022F000409130025091310260913202709133026C
:102300000C2F2BE03FE08091090F90910A0F0E9463
:10231000DA10811102C0C0E0E7CFCC2321F381E0C5
:102320000E9448118823B9F310921B0EDDCF8F92C3
:102330009F92AF92BF92EF92FF920F931F93CF9312
:102340004B015C01C42F8091300290913102A09129
:102350003202B091330288159905AA05BB0551F1E7
:1023600081E00E946C1181110BC080E0CF911F9120
:102370000F91FF90EF90BF90AF909F908F90089536
:102380008BE0E82E8FE0F82E00E012E030E020E055
:10239000B501A4018091090F90910A0F0E94381095
:1023A000882319F38092300290923102A092320277
:1023B000B092330240911B0E4C2B40931B0E81E0D8
:1023C000D5CFCF93DF93EC016E857F85888999897E
:1023D00041E00E949711882351F08A8920E2829F70
:1023E000C0011124855F904FDF91CF91089590E057
:1023F00080E0FACF8F929F92AF92BF92CF92DF92FE
:10240000EF92FF92CF9324E533E130930A0F2093AC
:10241000090F882309F46DC040E060E070E0CB0153
:102420000E94971181110BC080E0CF91FF90EF9037
:10243000DF90CF90BF90AF909F908F900895809144
:10244000C9108F7789F78091D5109091D610A091FF
:10245000D710B091D81084369105A105B10520F3AD
:10246000C090D110D090D210E090D310F090D41042
:10247000C114D104E104F104B9F240E0C701B6018E
:102480000E949711882381F28091160F9091170F67
:102490008115924049F6A0911B0FAA2329F2609161
:1024A000190F70911A0F6115710509F4BDCF2091B4
:1024B000180F222309F4B8CFA0937213209364134A
:1024C00090E080E030E0E1E0F0E0C82FAF01082EBE
:1024D00002C0440F551F0A94E2F72417350769F02C
:1024E00041E0480F01968930910579F740936D13CB
:1024F0009BCFC12CD12C7601C0CF80936D1320913E
:10250000210F3091220F50E040E02115310541F4B8
:1025100020912F0F3091300F4091310F5091320F99
:102520002093651330936613409367135093681399
:1025300046015701860E971EA11CB11C8092731391
:1025400090927413A0927513B0927613E0911C0FC1
:10255000F0911D0FF0937913E0937813B0E00E948F
:102560003E6ADC01CB01880D991DAA1DBB1D80931D
:102570007A1390937B13A0937C13B0937D1325E083
:10258000EE0FFF1F2A95E1F7E150FE4FEF2FFF27D7
:10259000E6958E0F9F1FA11DB11D80936E13909322
:1025A0006F13A0937013B093711380901E0F9090CF
:1025B0001F0FB12CA12C8114910441F480902B0F9A
:1025C00090902C0FA0902D0FB0902E0FC81AD90A02
:1025D000EA0AFB0AC80CD91CEA1CFB1C04C0F694CE
:1025E000E794D794C794CA95D2F7C0926913D09252
:1025F0006A13E0926B13F0926C1385EFC8168FE0AC
:10260000D806E104F10428F48CE08093771381E08C
:102610000CCF80E125EFC2162FEFD206E104F104C2
:10262000A0F38091370F9091380FA091390FB0919E
:102630003A0F80937A1390937B13A0937C13B093FB
:102640007D1380E2E2CF81E00E94FA11811102C085
:102650000C94FA1181E008954F925F926F927F92ED
:102660008F929F92AF92BF92CF92DF92EF92FF92A2
:102670000F931F93CF93DF93EC0142305105610517
:10268000710590F480E0DF91CF911F910F91FF9041
:10269000EF90DF90CF90BF90AF909F908F907F9002
:1026A0006F905F904F90089589859A85AB85BC8522
:1026B0000196A11DB11D84179507A607B70710F352
:1026C000CB88DC88ED88FE888F89803109F042C094
:1026D000BB27A72F962F852F480159012A013B01BF
:1026E000C80ED91EEA1EFB1E809130029091310265
:1026F000A0913202B0913302C816D906EA06FB0651
:1027000099F58F898031C1F5B301A201552766275C
:102710007727440F551F455F504FFA019182808201
:1027200080911B0E816080931B0E8A89823080F01D
:102730008D819E81AF81B8858C0D9D1DAE1DBF1D05
:1027400080931C0E90931D0EA0931E0EB0931F0E2F
:1027500081E099CFDB01CA01E7E0B695A79597958F
:102760008795EA95D1F7B8CF40E0C701B6010E943E
:1027700097118111C6CF86CFB301A2014F7755279C
:1027800066277727440F551F440F551F455F504F4D
:10279000FA0180829182A282B382C2CF8F929F92ED
:1027A000AF92BF92CF92DF92EF92FF920F931F935F
:1027B000CF93DF93FC0181859285A385B485019633
:1027C000A11DB11D84179507A607B70770F480E017
:1027D000DF91CF911F910F91FF90EF90DF90CF90FD
:1027E000BF90AF909F908F90089583889488A5881C
:1027F000B6888789803189F5BB27A72F962F852F2B
:10280000E9016A017B018F01BC01CD01680D791DD1
:102810008A1D9B1D8090300290903102A090320260
:10282000B090330286169706A806B90601F5F8019E
:102830008789803111F5DD24EE24FF24F601EE0FA7
:10284000FF1FE55FF04F80819181B0E0A0E08883B9
:102850009983AA83BB8381E0BBCFDB01CA01C7E0B8
:10286000B695A79597958795CA95D1F7C9CF40E0BA
:102870000E9497118111DBCFAACFE894C7F8DD241D
:10288000EE24FF24F601EE0FFF1FEE0FFF1FE55FA2
:10289000F04F80819181A281B381BF70D8CF4F92D8
:1028A0005F926F927F92AF92BF92CF92DF92EF9240
:1028B000FF920F931F93CF93DF9300D01F92CDB75A
:1028C000DEB78C0149835A836B837C835901C12C09
:1028D000D12C7601412C82E0582E612C712C49813B
:1028E0005A816B817C819E012F5F3F4FC8010E94FE
:1028F000CE13882339F1F8018585A301920104C024
:10290000220F331F441F551F8A95D2F7DA01C901E0
:10291000C80ED91EEA1EFB1E49815A816B817C813B
:102920008789803111F188EF9FEFAFEFBFE0481743
:1029300059076A077B0798F2F501C082D182E282CB
:10294000F38281E00F900F900F900F90DF91CF9165
:102950001F910F91FF90EF90DF90CF90BF90AF90BD
:102960007F906F905F904F90089588EF9FEFA0E069
:10297000B0E0DDCFCF93DF93FC012581222321F04E
:1029800080E0DF91CF910895EC0180917713803141
:1029900059F582E08583178A108E118E128E8091F0
:1029A000781390917913B0E0A0E025E0880F991F8B
:1029B000AA1FBB1F2A95D1F7838B948BA58BB68B4F
:1029C00080E693E19C8F8B8F81E08C831E821F8237
:1029D000188619861A861B861C861D861E861F86EB
:1029E000188A198A1A8ACDCF803251F683E08583FE
:1029F00040917A1350917B1360917C1370917D13F9
:102A0000478B508F618F728F9F012D5E3F4F80E605
:102A100093E10E944F148111D3CFB2CF8F929F9236
:102A2000AF92BF92CF92DF92EF92FF920F931F93DC
:102A3000CF93DF93EC018D8181110EC080E0DF9197
:102A4000CF911F910F91FF90EF90DF90CF90BF90AB
:102A5000AF909F908F9008950B891C892D893E8996
:102A6000041715072607370748F34A015B01823030
:102A700031F48A869B86AC86BD8681E0E0CF8114E6
:102A80009104A104B10449F41E821F82188619869C
:102A90001A861B861C861D86F0CF0A851B852C8511
:102AA0003D85EB8DFC8D858590E00996B901A801E7
:102AB0004150510961097109082E04C07695679546
:102AC000579547950A94D2F775016401E1E0CE1A53
:102AD000D108E108F10804C0F694E794D794C794AC
:102AE0008A95D2F7C416D506E606F70620F0012B24
:102AF000022B032B11F58F89988DA98DBA8D8E83AA
:102B00009F83A887B9878E010A5F1F4FC114D10424
:102B1000E104F10409F4ADCF4E815F8168857985C8
:102B200098018B8D9C8D0E94CE1391E0C91AD1081B
:102B3000E108F1088111EACF81CFC41AD50AE60A6B
:102B4000F70AE1CF3F924F925F926F927F928F92FE
:102B50009F92AF92BF92CF92DF92EF92FF920F932C
:102B60001F93CF93DF93CDB7DEB72C970FB6F894B2
:102B7000DEBF0FBECDBF5C01DC015B968D909C90EB
:102B80005C9716964D905D906D907C9019974114CE
:102B900051046104710409F468C0BFEF4B1A5B0A69
:102BA0006B0A7B0A312CF40181859285A385B4855B
:102BB0009C01AD012F5F3F4F4F4F5F4F29873A87F1
:102BC0004B875C87730162011D821E821F821886FB
:102BD000F40181859285A385B4852D813E814F8145
:102BE0005885281739074A075B0708F056C08985BA
:102BF0009A85AB85BC858C159D05AE05BF0550F447
:102C000082E0C82ED12CE12CF12C92E0492E512CDF
:102C1000612C712C9E012F5F3F4FB701A601C401AB
:102C20000E94CE138823C9F189819A81AB81BC812E
:102C3000892B8A2B8B2B09F1260137019FEF491A2B
:102C4000590A690A790A2D813E814F8158852F5F83
:102C50003F4F4F4F5F4F2D833E834F8358873FEF4A
:102C6000C31AD30AE30AF30AB3CFF40140805180B8
:102C7000628073803324339496CFC414D504E60461
:102C8000F70409F70FEF1FEF2FEF3FE0B701A601A1
:102C9000C4010E942C13811119C080E02C960FB63C
:102CA000F894DEBF0FBECDBFDF91CF911F910F9182
:102CB000FF90EF90DF90CF90BF90AF909F908F905C
:102CC0007F906F905F904F903F900895D50116963A
:102CD0004D915D916D917C9119974115510561055B
:102CE000710539F097018601C4010E942C138823D5
:102CF000A1F2D5011696CD92DD92ED92FC92199734
:102D0000332051F0D701C6010196A11DB11DF40178
:102D100080839183A283B383F5018789908DA18DF0
:102D2000B28D892B8A2B8B2B39F48481C78AD08E64
:102D3000E18EF28E80688483F501848180628483D1
:102D400081E0ACCF2F923F924F925F926F927F9231
:102D50008F929F92AF92BF92CF92DF92EF92FF92AB
:102D60000F931F93CF93DF93EC015B012A018D81B9
:102D7000811115C08FEF9FEFDF91CF911F910F91C0
:102D8000FF90EF90DF90CF90BF90AF909F908F908B
:102D90007F906F905F904F903F902F9008958C811F
:102DA00080FFE8CF0B891C892D893E894A855B8588
:102DB0006C857D85C201B0E0A0E068017901C41A8C
:102DC000D50AE60AF70AC816D906EA06FB0618F479
:102DD0002801441A550A42011E0126E0220E311C28
:102DE0008114910409F4B3C04A855B856C857D85A7
:102DF0006A0181E0D8228B8D9C8D8A019B01E9E0DC
:102E00003695279517950795EA95D1F7ED81E2302C
:102E1000E1F5FC01628D738D848D958D600F711FBE
:102E2000821F931F612C22E0722E6C187D0886147D
:102E3000970408F434012C8126FD04C06114F2E0EB
:102E40007F0671F40091300210913102209132021C
:102E500030913302061717072807390709F053C0C6
:102E600040E00E949711882309F484CFC601855F52
:102E7000904FD5019C01260D371DFC012E173F07F1
:102E800009F460C041914D93F9CFFC0174807A94AC
:102E90007022C114D10471F471100CC0452B462B63
:102EA000472B39F58F89988DA98DBA8D8E839F8395
:102EB000A887B987EB8DFC8D6E817F818885998588
:102EC0006250710981099109258504C0660F771F39
:102ED000881F991F2A95D2F7068517852089318981
:102EE000600F711F821F931F670D711D811D911D42
:102EF00099CF4E815F816885798591010E94CE13BB
:102F00008111D8CF37CF750183019601AB01BC0188
:102F10008091090F90910A0F0E943810882309F4BC
:102F200029CFA60CB71C8A859B85AC85BD85860DEF
:102F3000971DA11DB11D8A879B87AC87BD87861809
:102F400097084ECF281B390BA20EB31EECCFC2013F
:102F500013CFFC01818D928D009721F044E150E068
:102F60000C94A21690E080E00895CF93DF931F9217
:102F7000CDB7DEB741E050E0BE016F5F7F4F0E94EA
:102F8000A216019731F4898190E00F90DF91CF91E3
:102F900008958FEF9FEFF9CFFC01818D928D0097FF
:102FA00011F00C94B5178FEF9FEF08950F931F93B7
:102FB000CF93DF93EC01898D9A8D10E000E00097AC
:102FC00099F00E94B5178C010F3F100769F0898DA9
:102FD0009A8DFC0142855385648575854150510960
:102FE000610971090E940E15C801DF91CF911F91EF
:102FF0000F9108951F93CF93DF93FC012581222326
:1030000071F1162FEC01848187FF1EC0CF010E9451
:10301000E111FC01892B19F18D81823040F48B89FB
:103020009C89AD89BE89848F958FA68FB78F8F8934
:10303000988D938F828F8F89988DA98DBA8DB58B3E
:10304000A48B8C818F778C83111103C08C818F7E30
:103050008C83812FDF91CF911F910C946C1180E0B4
:10306000DF91CF911F910895FF920F931F93CF93FC
:10307000DF93EC018D81813041F090E080E0DF91C1
:10308000CF911F910F91FF9008958C8181FFF5CF13
:1030900082FD1BC00091090F10910A0FC8010E9408
:1030A000020F0E94E10EF82EC8010E94CF0E8FEF92
:1030B000F812E3CF8C8185FF1BC060E0CE010E9437
:1030C000FA178C818F7D8C83D8CF4B895C896D8971
:1030D0007E898A859B85AC85BD8584179507A60763
:1030E000B707C1F2CE010E940E158111D3CFC5CF13
:1030F00040911C0E50911D0E60911E0E70911F0E7E
:10310000452B462B472B21F080E00E944811B5CF7C
:1031100080618C832A853B85317080E092E0821B40
:10312000930BADCFCF93DF93EC0161E00E94FA17D0
:10313000882311F01D8281E0DF91CF910895FC0179
:10314000818D928D009719F061E00C94FA17089523
:103150002F923F924F925F926F927F928F929F92A7
:10316000AF92BF92CF92DF92EF92FF920F931F9395
:10317000CF93DF9300D01F921F92CDB7DEB77C01B3
:103180005B01342E5D83DC0115968C91159781309F
:1031900009F0CEC014962C9021FECAC022FCB4C007
:1031A000C32CDD8022947FE027222094B22DB170C1
:1031B0002B2ED7011A964D915D916D917C911D97A3
:1031C000C114D10409F428C15B968D919C915C9740
:1031D000FC0174807A948A019B0169E036952795F9
:1031E000179507956A95D1F770228A0111707110B1
:1031F00020C001151105E9F416964D915D916D9170
:103200007C911997411551056105710509F099C027
:1032100057968D919D910D90BC91A02D0097A10581
:10322000B10509F0B0C0C7010E94A215882309F4B6
:103230007FC080E092E0801B910B46018C159D05BC
:1032400008F44C01D7015B964D915C915C97169602
:103250008D919D910D90BC91A02D0297A109B1096E
:10326000FA01258504C0880F991FAA1FBB1F2A9544
:10327000D2F74685578560897189840F951FA61FEF
:10328000B71F9C01AD01270D311D411D511D2901A5
:103290003A01811432E0930609F07BC0809130023C
:1032A00090913102A0913202B091330284159505BC
:1032B000A605B70559F48FEF9FEFDC01809330022C
:1032C00090933102A0933202B0933302022D950104
:1032D000B301A2018091090F90910A0F0E94DA10A8
:1032E000882331F19EEFB91AC818D908F7018285F1
:1032F0009385A485B585880D991DA11DB11D828773
:103300009387A487B58755CFF70143895489658989
:10331000768982859385A485B585481759076A07FC
:103320007B0709F43DCFC7010E940E15811138CFEC
:1033300081E090E0D70113969C938E93129780E0E2
:1033400007C09E012F5F3F4F0E94CE13811102C024
:1033500090E079C089819A81AB81BC81F701238D8E
:10336000348DF901278948EF5FEF60E070E020318C
:1033700021F048EF5FEF6FEF7FE084179507A60716
:10338000B70708F050CFF70186839783A087B187EE
:1033900050CF0115110599F5D7011A964D915D9100
:1033A0006D917C911D9753968D919D910D90BC913F
:1033B000A02D481759076A077B0708F181E00E9492
:1033C0006C11882309F4B4CF40923002509231023C
:1033D000609232027092330280911B0E8160809362
:1033E0001B0EC801855F904FD5019C01280D391D2A
:1033F000FC012E173F0759F04D914193FACF41E060
:10340000C301B2010E9497118111EBCF91CF281B0C
:10341000390BA20EB31E68CFF70183899489A58961
:10342000B68984179507A607B70738F48481438BBC
:10343000548B658B768B80688483F701848183FD50
:103440001AC0832D9D810F900F900F900F900F90B9
:10345000DF91CF911F910F91FF90EF90DF90CF9070
:10346000BF90AF909F908F907F906F905F904F90A4
:103470003F902F90089561E0C7010E94FA178823BA
:1034800009F456CFDECFCF93DF931F92CDB7DEB7CF
:10349000698341E050E0BE016F5F7F4F0E94A81832
:1034A0000F90DF91CF910895CF93DF93EC01E98DD9
:1034B000FA8D309749F481E090E09B838A8390E015
:1034C00080E0DF91CF91089513821282898D9A8DC9
:1034D0000E94A818E98DFA8D22813381232B59F798
:1034E000F0CF80E00895DC011696ED91FC911797DE
:1034F00012968C91481B477081E090E001C0880FC4
:103500004A95EAF7E60FF11D3081222319F0832B4B
:103510008083089580958323FBCFFB014181DC01EB
:1035200012962C911297421768F013962C911397CC
:10353000241740F0608115962C91621718F42481AD
:103540000C94731A0895FC0180819281980F9283E4
:103550002181921760F494819F5F94839381890FF6
:10356000821710F08FEF820F838381E0089580E04F
:103570000895FC0112828081815083831482089512
:10358000DB01ED91FC9119940F931F93CF93E09180
:10359000E513F091E613309719F087ED93E1199553
:1035A0000091D9131091DA13E0910814F0910914E5
:1035B00082E01995E0910814F091091481E01995C1
:1035C00030E020E045E1B80187ED93E10E94C01AA8
:1035D000C82F882341F02AE034E147E1B80187EDA4
:1035E00093E10E94C01AE0910814F091091480E060
:1035F00019958C2FCF911F910F910895EF92FF9203
:103600000F931F93CF93DF93082F162FC42FD42F20
:10361000F82EF40EEE24EA948F2D8D1BD83080F511
:103620008C2F887F800F9C2F96959695969528EFE6
:10363000929FC00D1124CC23C1F197E0C92760915E
:10364000D9137091DA138093F3131093F41310923B
:10365000F613CF5FC7708FEF90E001C0880FCA9557
:10366000EAF78093F51323EF33E14BE387ED93E122
:10367000DF91CF911F910F91FF90EF900C94C01AA2
:103680006091D9137091DA138093F3131093F413AC
:103690001092F613E092F51323EF33E14BE387ED3D
:1036A00093E10E94C01AD850B7CFDF91CF911F91FC
:1036B0000F91FF90EF9008950F931F93CF93DF9397
:1036C000182FC62F042FD62FD20F402F6C2F812FEB
:1036D0000E94FE1ACF5FCD13F8CFDF91CF911F91DB
:1036E0000F910895DF92EF92FF920F931F93CF9364
:1036F000DF93F82ED62FC42F162F01E0DD24DA94A5
:10370000E62EE40E6091D9137091DA13F092F31360
:103710001093F4130093F613D092F51323EF33E1D3
:103720004BE387ED93E10E94C01A185F8E2D811B39
:10373000883040F7D85F88EF8C0F887F8D0F9C2FE3
:10374000977011F16091D9137091DA13F092F3131D
:103750008093F4130093F613C195C7708FEF90E038
:1037600001C0880FCA95EAF78093F51323EF33E180
:103770004BE387ED93E1DF91CF911F910F91FF9084
:10378000EF90DF900C94C01ADF91CF911F910F91B1
:10379000FF90EF90DF900895CF92DF92EF92FF922B
:1037A0000F931F93CF93DF93C82F162FD42F082F7B
:1037B000041B481710F0042F081B211748F4F12EA2
:1037C000F21A0F15E0F0DC1708F440C0D12C10C03D
:1037D000F22EF11A0F1508F041C0802F0F2DF82E90
:1037E0008D2FD22F282F8C2FC12F182FDD24D3946B
:1037F000E02EE6941217E0F5CC24C3943BC0802F52
:103800000F2DF82E812F1D2FD82F8C2FC22F282F50
:10381000EDCF6091D9137091DA13D11012C0C0931B
:10382000F3131093F41323EF33E142E387ED93E1B5
:103830000E94C01AEF18E7FE02C01C0DE00ECF5F19
:103840001CC01093F313C093F413EDCFE02EE69455
:103850008D2FDC2FC82F122FD12CCECFDC1708F0E4
:10386000B5CFE02EE6948D2FDC2FC82F122FD12C50
:10387000CC24CA94DF3F09F4DEEFDC1750F6DF9169
:10388000CF911F910F91FF90EF90DF90CF9008950F
:10389000CF93DF931F92CDB7DEB79E012F5F3F4FCF
:1038A00047E40E94C01A89810F90DF91CF9108955B
:1038B000CF93DF931F92CDB7DEB79E012F5F3F4FAF
:1038C00046E40E94C01A89810F90DF91CF9108953C
:1038D000BF92CF92DF92EF92FF920F931F93CF93FD
:1038E000DF938C01D42EE901FB01E280F380F2E347
:1038F0004F1709F476C0F417C8F08CE2481709F4A2
:1039000070C0EDE24E17E9F0F7E14F1779F19E0133
:103910004D2DB701C801DF91CF911F910F91FF90FD
:10392000EF90DF90CF90BF900C94C01A86E44817B8
:1039300009F44CC0E7E44E1709F44EC0FBE34F1303
:10394000E6CFB701C8010E94481CC980C094C80EC8
:10395000B701C8010E94581C98819095890F8883EF
:10396000C9828B818E5F83708B834BC047E1B70127
:10397000C8010E94C01AB701C8010E94581CBA8031
:10398000B094B80EB701C8010E94581CD880D094DA
:10399000D80EB701C8010E94481CCB80C094C80E45
:1039A000B701C8010E94481C99819095890FB8827F
:1039B000C982DA828B8381E0DF91CF911F910F91D1
:1039C000FF90EF90DF90CF90BF900895B701C801AE
:1039D0000E94581C8883EFCFB701C8010E94481C81
:1039E000F9CFB701C8010E94481CC980C094C80E15
:1039F000B701C8010E94581C98819095890F88834F
:103A0000C9829E014D2DB701C8010E94C01AD3CFB3
:103A1000CF93DF93EC016A817B810E94581C8883DD
:103A20006A817B81CE010E94481C89836A817B81E7
:103A300030E020E048E4CE010E94C01A8B879E014E
:103A40002D5C3F4F6A817B8147E1CE01DF91CF91B1
:103A50000C94C01ACF93DF93C091D913D091DA138D
:103A6000E0910814F091091482E0199530E020E00B
:103A70004AE0BE0187ED93E10E94C01AC82FE09191
:103A80000814F091091483E01995E0910814F0915D
:103A9000091480E01995CC2329F087ED93E10E9469
:103AA000081DC1E08C2FDF91CF910895CF93DF9354
:103AB00080911014811105C081E0809310140E9440
:103AC0002A1DC091D913D091DA13E0910814F09116
:103AD000091482E01995E0910814F091091481E02D
:103AE000199530E020E044E1BE0187ED93E10E94AA
:103AF000C01A2AE034E147E1BE0187ED93E10E945C
:103B0000C01AE0910814F091091480E0DF91CF9180
:103B100019940B96FC01849108950A96FC018491F6
:103B20000895FC01849108950E94911D882321F03D
:103B3000823011F083E0089586E00895FC01E60FDD
:103B4000F11D849190E0982F88273196E4918E0F93
:103B5000911D089568E00C949E1D66E00C949E1DD6
:103B60002EE93FE0009709F40895F9013197F1F744
:103B70000197F8CF8EBD0DB407FEFDCF8EB5089529
:103B8000860F911DFC0183A18F3F19F0642F0C94C7
:103B900092080895EF92FF920F931F93CF938C0199
:103BA000C42F79016150673008F045C0E62FF0E07E
:103BB0008827E252F24E8F4F0C94A56BE51D221E12
:103BC000271E331E391E431E4E1E780183E2E80E67
:103BD000F11C005D1F4FF70181917F018F3F49F07C
:103BE00061E00E94C00861E0F701319780810E9486
:103BF0009208E016F10679F761E084E30E94C008BC
:103C000060E084E30E94920861E083E30E94C008C0
:103C100060E083E30E94920861E085E30E94C008AF
:103C200061E085E30E9492081CBC80E58CBDC23037
:103C300010F481E08DBD81E0CF911F910F91FF9035
:103C4000EF90089561E0C8010E94C01DF4CF4111BA
:103C500003C041E062E0F7CF40E064E0C8010E94A9
:103C6000C01D40E0F7CFF80183A160E08F3F19F35A
:103C7000EACF842F0E94BA1DDECFF70181917F0128
:103C80000E94BA1DC150C111F8CFD5CFF701849160
:103C90000E94BA1DFFEFEF1AFF0AC150C111F6CF03
:103CA000CACFDB011496ED91FC9130E020E065E095
:103CB0001994DB011496ED91FC9130E020E062E074
:103CC0001994DB011496ED91FC9130E020E063E063
:103CD0001994CF92DF92EF92FF920F931F93CF939D
:103CE000DF938C017B016A0180E0F601C4918111B0
:103CF00010C081E0CF3F49F04C2FB701C8010E94AE
:103D0000511E882309F444C080E0BFEFCB1ADB0AC0
:103D1000ECCF4FEFCF3F89F3CE3FD9F1C03FA0F7B3
:103D2000C03E38F04C2F4F70B701C8010E94591E99
:103D3000EBCFC03D38F04C2F4F70B701C8010E9447
:103D4000611EE2CFC03CF8F0D7011496ED91FC91D2
:103D500030E020E040E064E0C8011995C295C07FE2
:103D6000CE5FD0E0CE010E94B01DD7011496ED9138
:103D7000FC9130E020E041E064E0C8011995CE01FB
:103D80000E94B01DC1CFC7FDBFCF8C2F90E0F8CFF0
:103D900080E0DF91CF911F910F91FF90EF90DF9026
:103DA000CF900895AF92BF92DF92EF92FF920F9360
:103DB0001F93CF93DF937C018B01D42EE9018FE019
:103DC000481709F472C0A5E14A17D1F1BAE04B13C4
:103DD00010C0DB011496ED91FC9130E020E042E050
:103DE00061E0C701199540EE51E0B801C7010E949A
:103DF000691EF80102811381F2E3DF1609F4BCC0E9
:103E0000FD1508F46EC085E1D81609F4BAC0A7E123
:103E1000DA1609F4CBC0B4E1DB1261C0D801169602
:103E2000ED91FC91179715968C918E0F9F2F911DF8
:103E300011928E179F07E1F7C8010E94B91A4FC06F
:103E4000FB01A280B38048ED51E0C7010E94691ECA
:103E5000D50114964C91406BB801C7010E94511EC8
:103E600041E0B801C7010E94591EF5012681378142
:103E7000D8011496ED91FC91D50115964C9166E010
:103E8000C701199581110BC080E0DF91CF911F917F
:103E90000F91FF90EF90DF90BF90AF90089540E0BA
:103EA000B801C7010E94611EA4CF41E0C7010E9472
:103EB000611E40E0B801C7010E94591E41E8B801E7
:103EC000C7010E94511E488146954695B801C70119
:103ED0000E94511E40E0B801C7010E94611E81E0AE
:103EE000D4CFE6E4DE1609F46BC0F7E4DF1609F47C
:103EF0006CC08BE3D812F3CF99818B8138E0390FF6
:103F0000813031F0833011F0392F02C0392F9850B1
:103F100021E0D80113964C91491708F420E041E0C4
:103F2000391708F040E091E0F8015281351708F4A4
:103F300090E0322F342B932311F4242381F2FA8062
:103F4000E12CD12C843048F490E0FC01E657FD4F81
:103F5000D0808A579D4FDC01EC90F7FE04C0BE0173
:103F6000C8010E948D1A88818D0D888389818E0DEC
:103F70008983FF0C91F7B3CFBE01C8010E948D1A4F
:103F8000AECFC8010E94A31A882309F47DCFD801BF
:103F90001696ED91FC91179715968C918E0F9F2F89
:103FA000911D11928E179F07E1F799CF1882F801A2
:103FB00082818983858181508A8383818B838FCF9E
:103FC000D80115968C9188838ACFF8018181FBCF27
:103FD0000F93FC010150040F84A996A9941788F04F
:103FE000081710F4041778F42150260F83A995A917
:103FF000961758F0281760F481E0261720F40F91E7
:104000000895081778F780E0FACF2817A8F7FBCFB4
:1040100081E0F5CFFF920F931F93CF93DF93C82FCB
:10402000D62F142FF22E022F242F462F682F87ED24
:1040300093E10E94E81F882359F02F2D412F6D2F07
:104040008C2FDF91CF911F910F91FF900C945C1BEF
:10405000DF91CF911F910F91FF900895FF920F93E1
:104060001F93CF93DF93D82F162FF42EC22F022F3A
:10407000242F462F682F87ED93E10E94E81F8823A5
:10408000E9F04F2D612F8D2F0E94FE1A4C2F612FCA
:104090008D2F0E94721B8FEF8F0D4C2F612F8D0F74
:1040A0000E94721B6FEF6C0F610F4F2D8D2FDF91F0
:1040B000CF911F910F91FF900C94FE1ADF91CF9139
:1040C0001F910F91FF900895CF93DF93FC01E60FAE
:1040D000F71FDA018191882339F08D91882321F02F
:1040E000EF0121978883F6CFDF91CF910895FC01EE
:1040F0006115710519F49283818308957283618338
:10410000DB018C9180830895CF93DF93C82FD091EA
:104110003B0ED0FF05C0682F88E192E10E946C073A
:10412000D1FF07C06C2F85EB92E1DF91CF910C940A
:104130006C07DF91CF910895CF93DF93D62FC42FD3
:104140008F70806B0E9484208D2F0E9484208C2F82
:10415000DF91CF910C9484200F931F93CF93DF9323
:10416000EC01162FAA85BB851196ED91FC91129753
:1041700080818C9300818A89806B0E94842087E0F3
:104180000E948420802F8F770E948420AC85BD857B
:104190001196ED91FC91129780818C9300818A8910
:1041A000806D0E948420802F8F770E948420AE85AE
:1041B000BF851196ED91FC91129780818C930081BF
:1041C0008A89806E0E94842080E00E948420802F53
:1041D0008F770E948420113061F41D898A89806C58
:1041E0000E948420812FDF91CF911F910F910C9419
:1041F00084204B8960E08A890E949C204C8960E27F
:104200008A890E949C20E9CF806B0E94842088E7E5
:104210000E94842080E00C9484200E947D090E94EA
:104220001C0B8823D1F30895CF93DF930E947D095F
:104230000E941C0BC82FD0E00E942C0B8111C26081
:104240000E943B0B8111C4608EE20E946908892B99
:1042500009F4C860CE01DF91CF910895CF93DF9329
:10426000009791F0FB0130E020E0EF01C61BD70B77
:10427000A191AA23C9F0AE33C1F72F5F3F4F821738
:10428000930799F7CE010196DB01A80FB91FFA0138
:104290008D91882321F08E3311F08193F9CF108214
:1042A00081E0DF91CF910895FA01108280E0F9CF8B
:1042B0000F931F93CF93DF9300D000D000D0CDB7E2
:1042C000DEB78091131490911414892B99F080918A
:1042D000360E4091370E50E070E060E0762F652F8B
:1042E000542F4427682B8091380E482B90E080E0B3
:1042F0000E9406068091131490911414029798F06E
:104300008091320E4091330E50E070E060E0762FE5
:10431000652F542F4427682B8091340E482B81E061
:1043200090E00E9406068091131490911414039754
:1043300098F080912E0E40912F0E50E070E060E0DA
:10434000762F652F542F4427682B8091300E482BF1
:1043500082E090E00E94060680911A1490911B144E
:10436000892B09F47CC00E94190900912014109136
:1043700021142091221430912314601771078207B1
:10438000930740F4609320147093211480932214B7
:104390009093231400912014109121142091221441
:1043A00030912314601B710B820B930B6C327140A4
:1043B00081059105C0F2F89480911514909116141E
:1043C0009A838983E0911A14F0911B14DF011196EE
:1043D0008081898790911114E0912414F091251423
:1043E00080912614992309F445C09081982B9887D1
:1043F0009081809589238F838F818C8388E08B8344
:1044000058856F8149853B812C8189819A815083B0
:1044100047FD252F3A952083262F39F0441F00C0F1
:1044200000006083000000C0F2CF38E04D9160834F
:104430000000019761F7F0932514E0932414498755
:104440003B832C839A83898378940E941909609313
:10445000201470932114809322149093231429968E
:104460000FB6F894DEBF0FBECDBFDF91CF911F9185
:104470000F9108959081982B98879081809589233A
:104480008F838F818E8388E08D8358856F814985E6
:104490003D812E8189819A81508347FD252F00C05F
:1044A00000C0208300C000C000C000C000C0608306
:1044B0000000262F3A9541F0441F000000C000C0C4
:1044C00000C000C000C0E8CF38E04D9100C060835C
:1044D00000C0019709F7F0932514E093241449874D
:1044E0003D832E83AFCF3F924F925F926F927F9228
:1044F0008F929F92AF92BF92CF92DF92EF92FF92F4
:104500000F931F93CF93DF93EC01162FDCAC5BACC2
:104510005C0124E0A20EB11CE98DFA8DC50119954C
:10452000982EE884F984C7010E94911D082F888580
:1045300099850E94941D782E88248A94013011F464
:104540008FE0882E888599850E948D1D082F88858B
:1045500099850E94891DC82E888599850E94AA1D6B
:10456000113670F0009761F0E80EF91E01E6C116F1
:10457000B8F41C8A1F8A188E1D8A1E8A80E05BC0D0
:10458000888599850E94AD1D113430F0009721F087
:10459000E80EF91E01E4EBCF81E1E80EF11CE7CF54
:1045A000C01638F3872D90E0F70124912F3F39F49E
:1045B000FFEFEF1AFF0AC016E1F20F5FF5CF1013FD
:1045C00068C0888599850E94911D97012F5F3F4F94
:1045D000F701882319F0823009F044C084918F8B51
:1045E000F9012491288FF7013396E491EC8BF701C0
:1045F0003496E491ED8BF7013596E491EE8BE1145E
:10460000F10409F4BBCF888599850E94941D782E0A
:10461000CF88388C8D89580E1D2D13198E89181B43
:10462000190D032D2C2D412F652DC5010E94E81F6A
:10463000811138C08C899BAD890F8BAF81E090E0F0
:10464000DF91CF911F910F91FF90EF90DF90CF906E
:10465000BF90AF909F908F907F906F905F904F90A2
:104660003F9008958491982F9F7092509E8B8295D1
:104670008F708D8BF9012491822F8F70888F2295F6
:104680002F702F8BF7013296E491E295EF70EC8B4F
:10469000B6CF3296E491E821E80FF92FF11DEE0E26
:1046A000FF1E89CFE70CF11C07E00C0D069506955F
:1046B0000695310E4E01F0E28F0E911C602E712C8A
:1046C000131509F4B7CF452C670112C0F601849188
:1046D0006E817F8148A219A31BA28AA394014BE398
:1046E000C5010E94C01AFFEFCF1ADF0A28E0420E70
:1046F0008C2D8E19801750F3E60CF71C1F5FE0CF4E
:10470000089590E080E00895FB01218132816217D5
:10471000730729F48081082E000C990B0895FC0181
:10472000E956FF4F89549F4FA191B191AD01455F6B
:104730005F4F2417350731F41C968C9190E08095DB
:10474000909508958E179F0779F78FEF90E0F7CF38
:10475000FC01E956FF4F9C0129543F4F90E080E057
:1047600041915191452B09F00196E217F307C1F7EA
:104770000895FC01E954FF4F9C0129523F4F90E0FE
:1047800080E041915191452B09F00196E217F30722
:10479000C1F70895AF92BF92CF92DF92EF92FF924E
:1047A0001F93CF93DF935C01EB01D12CC12CF5015A
:1047B00014818581811B990B8C159D05DCF11C0DE5
:1047C00061E0812F0E94C00860E0812F0E94920862
:1047D00061E070E080E090E00E943E09198218825A
:1047E000F501E380F12CF50182818E151F0409F09B
:1047F000A4F488819981880F991F998388838E2DCD
:104800000E946908019729F48881998181609983C0
:104810008883F1E0EF1AF108E6CF60E0812F0E9473
:10482000C00860E0812F0E9492088FEFC81AD80A52
:104830002296BDCFDF91CF911F91FF90EF90DF9037
:10484000CF90BF90AF9008954F925F927F928F92DA
:104850009F92AF92BF92CF92DF92EF92FF920F930F
:104860001F93CF93DF93CDB7DEB760970FB6F89461
:10487000DEBF0FBECDBF8C017B01BE016F5F7F4FDE
:104880000E94CA23FE013196912C50E040E030E0B6
:1048900020E0D80115968C91159714969C91149749
:1048A000891B990B841795070CF46DC011968C9198
:1048B000823079F4DA01AA0FBB1FA952BF4FA00FB3
:1048C000B11F808191816D917C918627972791837B
:1048D000808370E060E0D80113968C911397129654
:1048E0009C911297891B990B861797070CF445C06A
:1048F000A080B180A0FE3AC0892C862A16964C90E2
:10490000512C6801B8E0CB0ED11C81E090E0481634
:1049100059063CF0D6017D906D01871419F001967F
:10492000F6CF80E0882311F1D701A20FB31F8C933B
:104930002F5F3F4F2F313105C9F4F701178E80E00B
:1049400060960FB6F894DEBF0FBECDBFDF91CF915A
:104950001F910F91FF90EF90DF90CF90BF90AF909D
:104960009F908F907F905F904F900895B694A794FA
:10497000B182A0826F5F7F4FAECF4F5F5F4F3296A5
:1049800080E1980E86CFE20EF31ED7011C92D7CF9E
:104990000F931F93CF93DF93EC0181E0888382E034
:1049A000898396E19A8393E29B838C8389E08D834C
:1049B0001E8206E110E08B81801711065CF060E03A
:1049C000802F0E94C00861E0802F0E9492080F5F34
:1049D0001F4FF1CF0C8110E08D81801711065CF024
:1049E00060E0802F0E94C00860E0802F0E94920843
:1049F0000F5F1F4FF1CF8E0109521F4FB801CE013B
:104A00000E94CA23FE01E954FF4FCF011192119277
:104A1000E017F107D9F7FE01E95BFF4F9E01295925
:104A20003F4F11921192E217F307D9F7C956DF4FA2
:104A300011921192CE17DF07D9F7199219928C179C
:104A40009D07D9F7DF91CF911F910F910895DC0158
:104A5000F0E0E0E02D912223B1F0261310C0E80F22
:104A6000F91F2081211102C081E008952181219345
:104A70009F01281B390B203231059CF3F5CF31966D
:104A8000E032F10539F780E00895AF92BF92CF92FE
:104A9000DF92EF92FF920F931F93CF93DF93EC017E
:104AA0006B0190E080E09B012F5D3F4F79015E013B
:104AB000A80EB91EF5012081211120C086016E01CA
:104AC000F1E2CF0ED11CF80121918F01222309F4CC
:104AD00083C0EE15FF0509F47FC03BA9231798F3A7
:104AE0008CA9821780F3DE01FE0181918823A9F051
:104AF000EC15FD0591F02813F8CFE5CF8032910534
:104B0000ECF6F6013191332309F43FC0EE15FF05B1
:104B1000E1F12313F7CF0196CACF90E080E06D91C9
:104B2000AC014F5F5F4F611126C08C0F9D1FFC01D0
:104B300020834C0F5D1FFA011082F801319790819C
:104B40008EA9BDA881111CC049A15AA1FA01808972
:104B50009189FC01A181B2812C912083AC90FA0152
:104B6000828980690E9484208B2D0E9484208A2D56
:104B70000E948420A8CFCA014032510581F6A3CFFC
:104B8000833011F3B31AB90EDFCF8EA91DA9882384
:104B900029F0833019F08BA9181B120F49A15AA1D3
:104BA000FA0180899189FC01A181B2812C91208335
:104BB0000C91FA01828980680E948420812F0E94D2
:104BC0008420802F0E948420F5016081CE010E9404
:104BD000272590E080E09FCFDF91CF911F910F912B
:104BE000FF90EF90DF90CF90BF90AF900895CF935C
:104BF000DF93FB0122813381DC0113963C932E93DA
:104C00001297448155816681778114964D935D9307
:104C10006D937C93179740855185628573851896AF
:104C20004D935D936D937C931B971C96EF012C968F
:104C30009C01275E3F4F49914D93A217B307D9F7C7
:104C4000218D328DFC01328F218FDF91CF9108951C
:104C5000FC019F01281B390B4191442339F040325C
:104C6000C1F72F5F3F4F820F931F0895089591E082
:104C700080912A0E811101C090E08091281490FB50
:104C800083F98093281491E08091290E811101C04D
:104C900090E08091291490FB87F9809329148091EA
:104CA00028148B7F809328140895CF93C82F60E039
:104CB0000E94C00861E08C2FCF910C9492088091E3
:104CC0003D0E813071F461E088E20E94920862E05A
:104CD00070E080E090E00E943E0960E088E20C9481
:104CE00092080895FC012481358181859285280FE1
:104CF000391F8681882351F0863010F085E0868345
:104D0000868102C0220F331F8A95E2F787818823AC
:104D100061F0863010F085E087833250878102C0D1
:104D2000220F331F8A95E2F73E5FC90137FF02C0A9
:104D300090E080E0813024E0920714F080E094E07D
:104D40000895CF92DF92EF92FF920F931F93CF932C
:104D5000DF938B01FB01EE0FEF2FEE1FFF0BE80F30
:104D6000F92FF11DC585D0E0668570E06C1B7D0BC9
:104D7000072E000C880B990B0E94986A20E030E007
:104D800040E85DE30E94FC6A6B017C0133E015950D
:104D900007953A95E1F70F70602F70E090E080E0A2
:104DA0000E94986A9B01AC01C701B6010E94FC6A8F
:104DB0000E94606A6C0F7D1F75956795862FDF9145
:104DC000CF911F910F91FF90EF90DF90CF900895BA
:104DD0008F929F92AF92BF92CF92DF92EF92FF920B
:104DE0000F931F93CF93DF9300D01F92CDB7DEB701
:104DF000FC018581813091F080E00F900F900F9041
:104E00000F90DF91CF911F910F91FF90EF90DF9066
:104E1000CF90BF90AF909F908F900895848181FF35
:104E2000EBCF83899489A589B689892B8A2B8B2B13
:104E300009F45FC07F0140E050E0BA01CF010E9459
:104E40000E158823C9F2F701C38CD48C8788908C07
:104E5000A18CB28C82E090E0A0E0B0E0F60180830B
:104E60009183A283B3839E012F5F3F4FB501A401BD
:104E7000C6010E94CE13882309F4BECF00E010E0E3
:104E80009801B501A401C6010E942C13882309F4DE
:104E9000B3CF89809A80AB80BC80F601878980314E
:104EA00019F188EF9FEFAFEFBFE088169906AA06C9
:104EB000BB06C8F2F701178A108E118E128E138A64
:104EC000148A158A168A84818068848361E0C70108
:104ED0000E94FA17882309F48FCF40E050E0BA010E
:104EE000C7010E940E1589CF88EF9FEFA0E0B0E0C8
:104EF000DCCF81E082CFCF92DF92EF92FF921F93BF
:104F0000CF93DF93EC0180E2689FF0011124E55F0D
:104F1000F04F9385917161F0842F827449F080E0A5
:104F2000DF91CF911F91FF90EF90DF90CF90089588
:104F3000142F6A8B8091300290913102A09132023D
:104F4000B09133028E879F87A88BB98BC488D58890
:104F5000F12CE12C7601DD24CC24CF8AD88EE98E89
:104F6000FA8E828D938DB0E0A0E0AC01BD014C299A
:104F70005D296E297F294F8B588F698F7A8F8385A2
:104F80008871B1F4848D958DA68DB78D8B8B9C8B9C
:104F9000AD8BBE8B81E08D831F701C831E821F82B0
:104FA000188619861A861B861C861D8681E0B8CF56
:104FB000803109F0B4CF9E012D5E3F4F8B8D9C8DCB
:104FC0000E944F14882309F4AACF84E0E4CFCF9342
:104FD000DF93EC01898D9A8D009741F00E94921821
:104FE000898D9A8D0E945D6C1A8E198EDF91CF91FA
:104FF0000895EF92FF920F931F93CF93DF93EC01ED
:105000008A859B850E945D6C8C859D850E945D6C68
:105010008E859F850E945D6C888999890E945D6C50
:105020007E018AE0E80EF11C099119910115110524
:1050300061F0F801848195810E945D6CC8010E9435
:105040005D6CFE01329711821082CE15DF0561F78B
:10505000DF91CF911F910F91FF90EF9008950F93E3
:105060001F93CF93DF93EC01C95BDF4F8C0109598C
:105070001F4FE881F981309761F001A0F2A1E02D86
:1050800082890E940421888199810E945D6C198225
:1050900018822296C017D10761F7DF91CF911F9137
:1050A0000F910895EF92FF920F931F93CF93DF9389
:1050B000EC01C954DF4F8C0109521F4FE881F9817F
:1050C000309781F082890E940421E880F980E11400
:1050D000F10431F0C7010E94F927C7010E945D6CFD
:1050E000198218822296C017D10741F7DF91CF911C
:1050F0001F910F91FF90EF900895AF92BF92CF92C2
:10510000DF92EF92FF920F931F93CF93DF93FC01F7
:10511000F12CE12CA191B191AB2BD9F5C22ED42E5B
:105120005B018C0186E090E00E94C16BEC01C8013C
:1051300042969983888383E090E00E94C16BFC01D2
:105140009283818310829D838C83B5010E94772096
:105150004D2D4F774A836C2D6F776B83CC2031F0C8
:10516000E881F98140E080810E949C20EE0CFF1CC8
:105170000E0D1F1DF801D183C083CE01DF91CF91A9
:105180001F910F91FF90EF90DF90CF90BF90AF9065
:1051900008953FEFE31AF30A35E0E316F10409F04E
:1051A000B9CFD0E0C0E0E9CF7F928F929F92AF92CB
:1051B000BF92CF92DF92EF92FF920F931F93CF9304
:1051C000DF93FC01E956FF4FB12CA12CA191B191C5
:1051D000AB2B09F043C04901752EF42E162F6C013C
:1051E00086E190E00E94C16BEC01188689E0EEE454
:1051F000F2E0DE011D9601900D928A95E1F71C8781
:10520000EF2DF72DDE011D96CF01099621912D93EB
:10521000E817F907D9F785E089831B821A821B8674
:1052200081E088839A8689860E83EF82F501EE0FEE
:10523000FF1FEC0DFD1DE956FF4FD183C083CE014A
:10524000DF91CF911F910F91FF90EF90DF90CF9062
:10525000BF90AF909F908F907F9008957FEFA71A97
:10526000B70A70E1A716B10409F0B0CFD0E0C0E0F2
:10527000E6CF6F927F928F929F92AF92BF92CF9222
:10528000DF92EF92FF920F931F93CF93DF93FC0176
:10529000E95BFF4FB12CA12CA191B191AB2B09F08F
:1052A00048C0D22EF42E872E962E3C0188E390E043
:1052B0000E94C16BFC01A92DB82D9C012D5D3F4FB3
:1052C00090E080E04D91442341F08F30910529F02A
:1052D000E90149939E010196F5CF8E0F9F1FDC01D6
:1052E00093961C9217AAF3AAD4AAE5AA12A301A323
:1052F000C6AADF01CF0181961D92A817B907E1F771
:10530000AA0CBB1CE301CA0DDB1DC95BDF4FF9838F
:10531000E883CF01DF91CF911F910F91FF90EF9024
:10532000DF90CF90BF90AF909F908F907F906F90C5
:105330000895BFEFAB1ABB0AC0E1AC16B10409F087
:10534000ABCFF0E0E0E0E5CF2F923F924F925F923B
:105350006F927F928F92AF92CF92DF92EF92FF92F5
:105360000F931F93CF93DF93CDB7DEB7FC01E954C2
:10537000FF4F312C212CA191B191AB2B09F05FC0D3
:10538000122FF42ED62E2C0186E190E00E94C16BE4
:105390003C01FC01D28A83E090E00E94C16BFC01D9
:1053A00092838183F082F3019387828783E090E088
:1053B0000E94C16BFC01928381831083F301958766
:1053C000848783E090E00E94C16BFC01928381831B
:1053D0000083F3019787868783E090E00E94C16B8A
:1053E000FC0192838183E082F301918B808BC58ADB
:1053F000A38A848A118210821382128215821482F7
:105400001782168211861086F101EE0FFF1FE40D40
:10541000F51DE954FF4F71826082C301DF91CF9186
:105420001F910F91FF90EF90DF90CF90AF908F90F2
:105430007F906F905F904F903F902F9008953FEF37
:10544000231A330A30E12316310409F094CF712C6A
:10545000612CE3CF0F931F93FC0100E012E12AE7D8
:1054600030E090E0401751076207730740F436952B
:105470002795179507959F5F9630A1F797E0292FFD
:10548000206A269520839095917091831F910F91AA
:105490000895BF92CF92DF92EF92FF920F931F93E6
:1054A000CF93DF931F921F92CDB7DEB78C01B62E3C
:1054B0007A016901DC018D919C911197892B09F08A
:1054C00041C014968D919C91159712962C9131E0C4
:1054D00030935711209379111092581110927A112C
:1054E000DC01ED91FC910190F081E02D199580E0B7
:1054F0000E94870C6C2DF80182810E94770D10921A
:10550000D00D8093CF0DD12CD80114968D919C9104
:10551000DC01ED91FC910084F185E02D1995892B3A
:1055200009F448C0F80184819581DC01ED91FC917A
:105530000284F385E02D1995F701ED0DF11D8083AF
:10554000D394E2CFF8014085518562857385CE0101
:1055500001960E942A2A89819A810E94FF0E60E0AA
:10556000D80113968C910E949208F80185858B29A9
:105570000E94DA0ED7018C918EBDF701C60101970A
:1055800041F031810DB407FEFDCF2EB53EBD219314
:10559000F6CFB1E0CB1AD108EC0CFD1C0DB407FE20
:1055A000FDCF8EB5F701808361E0D80113968C9111
:1055B0000E9492080F900F90DF91CF911F910F9151
:1055C000FF90EF90DF90CF90BF9008950F931F93BF
:1055D000CF93DF9300D000D0CDB7DEB719821A8207
:1055E0001B821C821D821E8226E030E0AE014F5FCE
:1055F0005F4F67EF0E94492A698170E090E080E088
:105600002CE0660F771F881F991F2A95D1F70A8112
:1056100010E030E020E044E0000F111F221F331F94
:105620004A95D1F7602B712B822B932B0B8110E0C5
:1056300030E020E054E035952795179507955A9569
:10564000D1F7602B712B822B932B26960FB6F894F3
:10565000DEBF0FBECDBFDF91CF911F910F91089597
:10566000EF92FF920F931F93CF93DF931F921F929E
:10567000CDB7DEB78C01E62EF42EDC018D919C9126
:105680001197892B69F514968D919C911597129617
:105690002C9131E0309357112093791110925811C9
:1056A00010927A11DC01ED91FC910190F081E02DD6
:1056B0001995F80184819581DC01ED91FC910190AF
:1056C000F081E02D6F2D199581E00E94870C0F90DD
:1056D0000F90DF91CF911F910F91FF90EF90089560
:1056E000F8014085518562857385CE0101960E943F
:1056F0002A2A89819A810E94FF0E60E0D8011396C0
:105700008C910E949208F80184858E210E94DA0E05
:105710008F2D0E94DA0E61E0D80113968C910E94C1
:105720009208D5CFCF92DF92EF92FF920F931F9303
:10573000CF93DF936C01EB0118820E94A50B892B9C
:1057400049F17E0187010C1B1D0BC6010E94A50BB0
:10575000892B59F0C6010E94CC178A3031F08D3068
:10576000A1F3F70181937F01EDCFFE01E00FF11F5F
:105770001082FE0101900020E9F73197CF018C1BC8
:105780009D0BDF91CF911F910F91FF90EF90DF90D4
:10579000CF9008958FEF9FEFF4CFFB010190002091
:1057A000E9F73197AF01461B570BDC01ED91FC91F6
:1057B0000280F381E02D19946CED72E00C94CD2BF6
:1057C0008F929F92AF92BF92EF92FF920F931F938F
:1057D000CF93DF93CDB7DEB7A1970FB6F894DEBFB6
:1057E0000FBECDBF7C01FA01CB0119A2223008F413
:1057F0002AE08E010F5D1F4F822E912CB12CA12C1F
:10580000BF01A50194010E94FD69F901CA016A3036
:105810000CF5605DD8016E938D01232B242B252B75
:1058200079F790E080E0109721F0BD01C7010E9458
:10583000CD2BA1960FB6F894DEBF0FBECDBFDF9182
:10584000CF911F910F91FF90EF90BF90AF909F90DD
:105850008F900895695CDECF242F462F50E070E0D2
:1058600060E00C94E02BCF92DF92EF92FF920F93C7
:105870001F93CF93DF936B01770FEE08FF084A3039
:10588000510511F52AE0F7FE20C0EC01E881F9810D
:105890000190F081E02D6DE219958C014427552788
:1058A000BA014C195D096E097F092AE0CE010E94F8
:1058B000E02B800F911FDF91CF911F910F91FF90EF
:1058C000EF90DF90CF900895242FB701A601DF91CC
:1058D000CF911F910F91FF90EF90DF90CF900C949C
:1058E000E02B0F931F93CF93DF93EC010E94CD2BFE
:1058F0008C01CE010E94DC2B800F911FDF91CF9194
:105900001F910F9108956115710511F00C94CD2B25
:1059100090E080E00895CF92DF92EF92FF920F9394
:105920001F93CF93DF937C01EB0111E00BE082E347
:10593000D82E90E3C92E0E94561D1093F7132CE029
:105940004FE760E080E00E940A202FE34FE760E02D
:1059500080E00E942E201092F71310930E140093F3
:105960000F14B70183ED93E10E94832C1093F7137A
:105970002EE04DE264E288E20E942E20D0920E14C6
:10598000C0920F1440E150E0BE0183ED93E10E940C
:10599000332C0E94C41A8111D0CF0E947D090E942D
:1059A0003B0B882351F00E945F262196C11581E0B0
:1059B000D80709F6D0E0C0E0BECF0E942C0B8823A8
:1059C00041F00E945F26219708F0B5CFCFEFD0E0DD
:1059D000B2CF0E941C0B882301F30E945F26CE01E8
:1059E000DF91CF911F910F91FF90EF90DF90CF90BB
:1059F0000895EF92FF920F931F93CF93DF938C0143
:105A00007A010E94832C68EB7CE0C8010E94832C01
:105A1000E70183E0E80EF11C699140E150E0C80124
:105A20000E942C2C68EB7CE0C8010E94832CCE15D0
:105A3000DF0591F7C801DF91CF911F910F91FF9082
:105A4000EF900C94DC2B8F929F92AF92BF92CF92EB
:105A5000DF92EF92FF920F931F93CF93DF935C013E
:105A60007A016901EB0111E00BE082E3982E90E3EB
:105A7000892E0E94561D1093F7132CE04FE760E02B
:105A800080E00E940A202FE34FE760E080E00E9460
:105A90002E201092F71310930E1400930F14B501DB
:105AA00083ED93E10E94832C1093F7132EE04DE2D7
:105AB00064E288E20E942E2090920E1480920F14CD
:105AC0004AE050E0BE0183ED93E10E94332C0E9436
:105AD000C41A8111D0CF0E947D090E943B0B8823FC
